:100000000C9439010C946A010C946A010C946A01F5
:100010000C946A010C946A010C946A010C946A01B4
:100020000C946A010C946A010C946A010C946A01A4
:100030000C946A010C946A010C946A010C946A0194
:100040000C946A010C944A220C946A010C946A0183
:100050000C946A010C946A010C946A010C942516A4
:100060000C946A010C94C3180C9497190C946A01AF
:100070000C946A010C946A010C946A010C946A0154
:100080000C9477220C946A010C946A010C946A0116
:100090000C94F0180C94D6190C946A010C944E2010
:1000A0000C946A010C946A010C94A4220C946A01C9
:1000B0000C946A010C946A010C946A010C94D1228C
:1000C0000C946A010C946A010C946A010C941D1939
:1000D0000C94151A0C946A010C944A190C94541A35
:1000E0000C946A0107634236B79BD8A71A39685641
:1000F00018AEBAAB558C1D3CB7CC5763BD6DEDFD4A
:10010000753EF6177231BF000000803F0800000006
:10011000BE922449123EABAAAA2ABECDCCCC4C3EFC
:1001200000000080BEABAAAAAA3E00000000BF00EB
:100130000000803F0000000000084178D3BB4387E7
:10014000D1133D190E3CC3BD4282AD2B3E68EC82FB
:1001500076BED98FE1A93E4C80EFFFBE01C4FF7F80
:100160003F00000000000000090A02080B0C0D0708
:100170000603040100000000000000000000000071
:10018000000000000000000000000000000000006F
:10019000000011100F00000000000000000000002F
:1001A000000000000000000000000000010210201C
:1001B000200808102040102040800201020108049D
:1001C0000201010204081020408080402010080431
:1001D000020180040201804020100804020108048A
:1001E00002010102040810204080010204081020CE
:1001F00040800505050507050808080802020202F7
:100200000A0A0808040404040101010101010101B2
:100210000303030303030303040707070C0C0C0C7D
:100220000C0C0C0C02020202060606060606060666
:100230000B0B0B0B0B0B0B0B0000220025002800F7
:100240002B002E00310034000201000005010801DE
:100250000B0100002100240027002A002D0030009F
:10026000330001010000040107010A01EC15131B12
:100270006B1F11241FBECFEFD1E2DEBFCDBF00E068
:100280000CBF12E0A0E0B2E0E0EBFAE500E00BBF4B
:1002900002C007900D92A437B107D9F719E0A4E77F
:1002A000B2E001C01D92A137B107E1F712E0C2E749
:1002B000D2E000E006C022970109FE010BBF0E94B8
:1002C0000B2CCC36D10780E00807A9F70E94311C1F
:1002D0000C94562D0C940000660F771F680F791F41
:1002E000FB0120813181440F551F480F591FFA012E
:1002F00080819181FB0191838083FA013183208386
:1003000008952F923F924F925F926F927F928F92B9
:100310009F92AF92BF92CF92DF92EF92FF920F9394
:100320001F93CF93DF93CDB7DEB72C970FB6F8941A
:10033000DEBF0FBECDBF4C015B0169011C830B8387
:10034000F80180E090E005C0119211921192119293
:1003500001968C159D05C1F73A0121E0621A7108DA
:10036000260131E0431A5108440C551C4E0C5F1C09
:100370008A01000F111F080D191D1FC0D2018D9198
:100380009C91880F991F880F991FD801FE91EE91BB
:100390008D01E80FF91F80819181A281B381BC0199
:1003A000CD019F7725E93FEB46ED53E30E94F92904
:1003B00018163CF0B1E06B1A710877FEDFCF612CA4
:1003C000712CF601EE0FFF1FEE0DFF1DFA83E9837E
:1003D000C301880F991F9401280F391F38872F8375
:1003E000D701A80FB91FBE83AD834301880C991CA8
:1003F000880C991C8A0C9B1C1C861B86F601319765
:10040000FA87E98709851A854F8058842B853C85B2
:10041000420E531EE12CF12CA12CB12CC12CD12C5D
:1004200031C0601671064CF5E981FA81EE0DFF1DB1
:10043000329780819181880F991F880F991F6B8156
:100440007C81680F791FD201ED91FC91E80FF91FB3
:100450002081318142815381FB01608171818281E0
:1004600093810E94042A9B01AC016A2D7B2D8C2D67
:100470009D2D0E9421285B016C0101501109F2E0C1
:10048000EF1AF10817FFCDCFED81FE812B853C855A
:10049000E20FF31F00811181000F111F000F111FC8
:1004A000D201ED91FC91E00FF11F2080318042805C
:1004B000538025E93FEB46ED53E3C201B1010E94B1
:1004C000F929EB81FC810E0F1F1F1816DCF4EB8558
:1004D000FC85EE0FFF1FE80DF91D2A2D3B2D4C2D3D
:1004E0005D2D60817181828193810E942028A2010B
:1004F00091010E948928D8016D937D938D939C93DF
:10050000139705C0F8011082118212821382F1E064
:100510006F1A71082B853C85225031093C872B8747
:100520003FEF6316730609F06DCF2C960FB6F89463
:10053000DEBF0FBECDBFDF91CF911F910F91FF9016
:10054000EF90DF90CF90BF90AF909F908F907F9073
:100550006F905F904F903F902F9008952F923F9211
:100560004F925F926F927F928F929F92AF92BF92C3
:10057000CF92DF92EF92FF920F931F93CF93DF936F
:100580006B0159014901000F111F000F111FE501F7
:10059000CC0FDD1FC80FD91F612C712C212C312CE1
:1005A000412C512C20C0FE01E60DF71D0190F08179
:1005B000E02DE00FF11F60817181828193819B01A9
:1005C000AC010E94042A9B01AC01622D732D842D85
:1005D000952D0E9421281B012C018FEF881A980A63
:1005E000E2E06E0E711C8C149D04E8F220E030E015
:1005F000A901622D732D842D952D0E9485288823B5
:1006000009F482C0622D732D842D952D0E94B72A86
:100610009B01AC01E881F981E00FF11F60817181DC
:10062000828193810E942028F701619371938193C5
:10063000919381E090E0CA18DB0813C0DC01AA0F97
:10064000BB1FAC0FBD1F0D90BC91A02DA00FB11F03
:100650004D915D916D917C91419351936193719313
:1006600001968C159D0550F3E701812C912CA12C4E
:10067000B12C00E010E016C0F701619171918191F9
:1006800091917F019B01AC010E94042A9B01AC0166
:10069000682D792D8A2D9B2D0E9421284B015C010C
:1006A0000F5F1F4F0C151D0539F720E030E0A90141
:1006B000682D792D8A2D9B2D0E948528882321F174
:1006C000682D792D8A2D9B2D0E94B72A4B015C0144
:1006D00000E010E016C0A501940160E070E080E841
:1006E0009FE30E9489289B01AC01688179818A81FE
:1006F0009B810E94042A69937993899399930F5F50
:100700001F4F0C151D0539F7DF91CF911F910F91E8
:10071000FF90EF90DF90CF90BF90AF909F908F9021
:100720007F906F905F904F903F902F9008952F9201
:100730003F924F925F926F927F928F929F92AF9271
:10074000BF92CF92DF92EF92FF920F931F93CF93BE
:10075000DF93CDB7DEB76E970FB6F894DEBF0FBE4E
:10076000CDBF988F8F8B7A8F698F5A8749873A8B45
:10077000298BFC8AEB8A9A012E193F093A83298337
:10078000C901880F991F0E940F2C8B8F9C8FE980C5
:10079000FA80EE0CFF1CEE0CFF1C8B839C838B807D
:1007A0009C80A12CB12C0DC0C7010E940F2CD4013C
:1007B0008C9311969C93B2E08B0E911CEFEFAE1AC6
:1007C000BE0A29813A81A216B30674F349845A8479
:1007D000440C551CC2010E940F2C8D839E83A98856
:1007E000BA88AA0CBB1CAA0CBB1C8D819E819E8B57
:1007F0008D8B7C01812C912C0DC0C5010E940F2C8A
:10080000D7018C9311969C93B2E0EB0EF11CEFEFA5
:100810008E1A9E0A29853A858216930671F7C901B8
:10082000880F991F880F991F0E940F2C8B879C8718
:1008300020E030E01FC0D7016D907C90640E751EE3
:10084000FC01A081B181A40FB51F8D909D90AD904A
:10085000BC90D3018D929D92AD92BC9213976F5F25
:100860007F4F4C5F5F4FE989FA896E177F0719F751
:100870002E5F3F4F2415350539F4E98CFA8CAB8592
:10088000BC8580E090E018C040E050E060E070E09F
:10089000ED80FE80E20EF31E8F89988D820F931FEC
:1008A000E2CFF70141915191619171917F014D9397
:1008B0005D936D937D93019629853A858217930701
:1008C00081F78B819C81988B8F870D8F1E8F212CB8
:1008D000312CA12CB12C75C0EA14FB0401F1AD85BB
:1008E000BE858D909C90820C931C20E030E040E00F
:1008F00050ECED8DFE8D60817181828193810E942B
:10090000042AAF81B8852D913D914D915C910E9453
:10091000042AF401608371838283938324C0AD8DA4
:10092000BE8D4D905D906D907C90EF85F8898080B4
:100930009180820C931CA3019201C301B2010E9419
:100940002128A30192010E94042A9B01AC0160E0CE
:1009500070E080E89FE30E942028D4016D937D938E
:100960008D939C931397BFEFEB1AFB0AED85FE85E1
:100970003296FE87ED872F8138852C5F3F4F388771
:100980002F8308C00F8318878B819C819E878D875A
:10099000E12CF12CA981BA81EA16FB060CF49CCF5C
:1009A000BFEFAB1ABB0AE4E02E0E311C2D8D3E8D3D
:1009B0002C5F3F4F3E8F2D8F8F8598890296988BA5
:1009C0008F87A981BA81AA16BB06E4F2CD86DE869E
:1009D0002B883C88220C331CED81FE81E20DF31D37
:1009E000F887EF832F89388D220E331E412C512C2E
:1009F00075C0D5016D917C916C0D7D1DD701AA0F3D
:100A0000BB1FEF81F885AE0FBF1FED85FE8580818E
:100A10009181880F991F880F991F0D90BC91A02D6F
:100A2000A80FB91F2D913D914D915C91DB016D9106
:100A30007D918D919C910E94042A9B01AC01662DB1
:100A4000772D882D992D0E9421283B014C01BFEF65
:100A5000EB1AFB0AE4E0CE0ED11C08C0C12CD12C4D
:100A6000612C712C812C912CE12CF12C29813A8163
:100A7000E216F3060CF4BDCFF801EE0FFF1FE20DF6
:100A8000F31DAD85BE858D919C91880F991F880FB0
:100A9000991F0190F081E02DE80FF91F862D972D09
:100AA000A82DB92D80839183A283B3830F5F1F4F3D
:100AB000B2E0AB0EB11C04C0AB80BC8000E010E023
:100AC000E981FA810E171F074CF2FFEF4F1A5F0AF8
:100AD0002D853E852E5F3F4F3E872D8789899A89D8
:100AE0004816590649F72B883C88220C331C220CE7
:100AF000331C4B845C84420C531CA98DBA8D2A0E86
:100B00003B1E18861F82C12CD12C3DC0D501ED9112
:100B1000FD915D012F813885E20FF31FD201AE0DEB
:100B2000BF1D2D913D914D915C91608171818281BC
:100B300093810E94042A9B01AC01662D772D882D9C
:100B4000992D0E9421283B014C010F5F1F4F34E07B
:100B5000E30EF11C89819A8108171907BCF2EF8115
:100B6000F885E20DF31D862D972DA82DB92D8083D4
:100B70009183A283B3839FEFC91AD90AAF81B88545
:100B80001496B887AF83E981FA81CE16DF06B4F4F4
:100B9000AB80BC80E12CF12C612C712C812C912C30
:100BA00000E010E0D7CFAB81BC818D919D91BC83DB
:100BB000AB830E94AA2C0F5F1F4F02C000E010E021
:100BC000E981FA810E171F0771F700E010E00AC0F3
:100BD000AD89BE898D919D91BE8BAD8B0E94AA2C53
:100BE0000F5F1F4FE985FA850E171F0789F78B8D59
:100BF0009C8D0E94AA2C8D819E810E94AA2C8B859F
:100C00009C856E960FB6F894DEBF0FBECDBFDF9108
:100C1000CF911F910F91FF90EF90DF90CF90BF90F9
:100C2000AF909F908F907F906F905F904F903F908C
:100C30002F900C94AA2C2F923F924F925F926F921A
:100C40007F928F929F92AF92BF92CF92DF92EF925C
:100C5000FF920F931F93CF93DF9300D000D0CDB7B7
:100C6000DEB76C017C836B837A013901CA01880F7E
:100C7000991F880F991F0E940F2C89839A838D8357
:100C80009E832801C301880F991FC80ED91E0D81AC
:100C90001E81212C312C43C0D8011D921D921D9222
:100CA0001C9213975301812C912C2CC0F601E80D56
:100CB000F91DD2018D919C91880F991F880F991F62
:100CC0000190F081E02DE80FF91F60817181828130
:100CD00093819B01AC010E94042A9B01AC01F801A5
:100CE00060817181828193810E942128D8016D9356
:100CF0007D938D939C931397BFEFAB1ABB0AE2E0F1
:100D00008E0E911C8B819C81A816B90678F29FEFFC
:100D1000291A390A0C5F1F4FA2E04A0E511C2E14EB
:100D20003F0409F0B9CF45E9B42E5FEBA52E66ED7F
:100D3000962E73E3872ECC24CA94DC2C00E010E0BE
:100D400023C0ED81FE8140805180628073803496A3
:100D5000FE83ED83B501C401272F3A2D492F582D6D
:100D6000642D752D862D972D0E94F92918162CF0CB
:100D70004B2C5A2C692C782C01C068010F5F1F4F37
:100D8000B42CA52C962C872C0E151F05D1F6898125
:100D90009A810E94AA2CC60126960FB6F894DEBF4F
:100DA0000FBECDBFDF91CF911F910F91FF90EF90BC
:100DB000DF90CF90BF90AF909F908F907F906F907B
:100DC0005F904F903F902F9008952F923F924F92B7
:100DD0005F926F927F928F929F92AF92BF92CF92CB
:100DE000DF92EF92FF920F931F93CF93DF93CDB7D4
:100DF000DEB72A970FB6F894DEBF0FBECDBF4C0109
:100E00007C836B8358874F8319015801C801880F71
:100E1000991F0E940F2C3C01C101880F991F880F58
:100E2000991F0E940F2C2C0169827A82E981FA8134
:100E300080E090E004C080839183329601968A1509
:100E40009B05C9F71A8619862EC0830129853A8524
:100E5000A501B101C4010E941B0697FD06C0AC01AB
:100E600069857A85C3010E946C01A981BA810D91BF
:100E70001D91BA83A98372012D813E81A501B10123
:100E8000C4010E94AE026301ED80FE8082019501E3
:100E9000A1016B817C81C4010E949703E985FA85D9
:100EA0003196FA87E987F985FD838A858E83A9853E
:100EB000BA85AA15BB0549F673010F8118859D01F6
:100EC000A1016B817C81C4010E948101C3010E9448
:100ED000AA2CC2012A960FB6F894DEBF0FBECDBF72
:100EE000DF91CF911F910F91FF90EF90DF90CF9006
:100EF000BF90AF909F908F907F906F905F904F903A
:100F00003F902F900C94AA2C61E08DE00E949F17D7
:100F100040E052EC61E070E089ED95E00E94931AA8
:100F200088E198E00E942C1F62E08CE695E00E9428
:100F30003F248CE695E00E94462342E063E086E38E
:100F400095E00E94D52686E395E00E94D82442E0F1
:100F500060E088E295E00E94032888E295E00E9424
:100F6000272781E090E09093270580932605109233
:100F7000740210927502109276021092770210920B
:100F800078021092790210927A0210927B021092EB
:100F90007C0210927D0210927E0210927F0280E00D
:100FA00090E0AAE7B4E48093800290938102A0933A
:100FB0008202B09383028093840290938502A0936F
:100FC0008602B09387028093880290938902A0934F
:100FD0008A02B0938B0210928C0210928D021092B2
:100FE0008E0210928F021092900210929102109233
:100FF0009202109293021092940210929502109213
:1010000096021092970280E090E0A6E1B4E480930B
:10101000980290939902A0939A02B0939B028093B6
:101020009C0290939D02A0939E02B0939F02809396
:10103000A0029093A102A093A202B093A3021092E7
:10104000A5021092A40286E696E2ACE9B3EC809386
:10105000A6029093A702A093A802B093A90280E0F1
:1010600090E8A3EEB2E48093AA029093AB02A0931F
:10107000AC02B093AD0283E393E5A9E7B4E48093B7
:10108000AE029093AF02A093B002B093B10286E695
:1010900096E6A1E4B4E48093CE029093CF02A093AD
:1010A000D002B093D1028AE999E1A7E0B3EC809332
:1010B000D2029093D302A093D402B093D5028DECC8
:1010C0009CE1AEE1B4E48093D6029093D702A09362
:1010D000D802B093D90286E696EEA6EFB2EC8093E2
:1010E000F6029093F702A093F802B093F90283E31B
:1010F00093EFACE3B4EC8093FA029093FB02A093DD
:10110000FC02B093FD0280E090E8A0E3B4E4809399
:10111000FE029093FF02A0930003B09301038DECB5
:101120009CEEAAE6B4EC80931E0390931F03A09359
:101130002003B093210380E090E0A1E7B3EC80931B
:10114000220390932303A0932403B093250386E600
:1011500096EAABEDB3EC8093260390932703A0931C
:101160002803B093290380E090E4A9EEB3E48093D0
:10117000460390934703A0934803B093490380E04C
:1011800090E4A0E4B4EC80934A0390934B03A093C3
:101190004C03B0934D0383E393EBA4EEB3EC809345
:1011A0004E0390934F03A0935003B09351038DECE3
:1011B0009CECACE5B2EC80936E0390936F03A0932C
:1011C0007003B09371038DEC9CE2ACE6B4E48093C1
:1011D000720390937303A0937403B093750383E336
:1011E00093E1ADECB3EC8093760390937703A093F7
:1011F0007803B093790308952F923F924F925F92B4
:101200006F927F928F929F92AF92BF92CF92DF9216
:10121000EF92FF920F931F93CF93DF93CDB7DEB77B
:101220006A970FB6F894DEBF0FBECDBF6B8B7C8B79
:101230008D8B9E8B29013A01EF8AF88E098F1A8FC8
:1012400008AD19AD000F111F000F111F0A551D4FDA
:101250001A861986212C312C1B861C86CDC02B8921
:101260003C894D895E89D8016D917D918D919C91CC
:101270000E942028F62EE72E89839D83A3019201E8
:10128000F80164817581868197810E9420286D878D
:101290007E87982E892E2F89388D498D5A8DD801B9
:1012A00018966D917D918D919C911B970E9420289D
:1012B0006F87788B898B9A8BB70199818D81272FC6
:1012C000362F492F582FD701FC016B2F7A2F8F2FE4
:1012D0009E2F0E94042A69837A838B839C83A601B4
:1012E0009501C601B5010E94042A9B01AC016981E8
:1012F0007A818B819C810E94892869837A838B8380
:101300009C837D856E85C401272F362F492F582F4A
:10131000DB01F4016B2F7A2F8F2F9E2F0E94042A5E
:101320006D837E838F83988728A939A94AA95BA9F1
:10133000CA01B9010E94042A9B01AC016D817E8122
:101340008F8198850E9489289B01AC0169817A81EF
:101350008B819C810E94212869837A838B839C8363
:101360007F85688999898A89272F362F492F582F99
:10137000DB01FC016B2F7A2F8F2F9E2F0E94042AF6
:101380006D837E838F8398872CA93DA94EA95FA981
:10139000CA01B9010E94042A9B01AC016D817E81C2
:1013A0008F8198850E9489289B01AC0169817A818F
:1013B0008B819C810E94212820E030E040E85FE39F
:1013C0000E942028262F372F482F592F0E94042AA9
:1013D0009B01AC01FB85EC85622D732D8F2F9E2F19
:1013E0000E9421281B018B879C87E985FA8531960D
:1013F000FA87E987085D1F4F29853A858AAD9BAD3D
:10140000281739070CF42BCF3B852C85622D732DC3
:10141000832F922F6A960FB6F894DEBF0FBECDBF12
:10142000DF91CF911F910F91FF90EF90DF90CF90C0
:10143000BF90AF909F908F907F906F905F904F90F4
:101440003F902F9008952F923F924F925F926F920C
:101450007F928F929F92AF92BF92CF92DF92EF9244
:10146000FF920F931F93CF93DF93CDB7DEB7C45690
:10147000D2400FB6F894DEBF0FBECDBF89ED95E028
:101480000E940E18892B11F40C94511420E230E0C4
:10149000AE014F515E4F6AE089ED95E00E94611EFA
:1014A000892B11F40C94511445E050E06FE172E087
:1014B000CE018F519E4F0E94482D009721F461E08C
:1014C0008DE00E94D71746E050E065E272E0CE0161
:1014D0008F519E4F0E94482D009721F460E08DE0CF
:1014E0000E94D71743E050E06CE272E0CE018F51CA
:1014F0009E4F0E94482D009711F00C94511480913A
:10150000260590912705019711F00C9451148091B4
:10151000A4029091A502409714F00C9451140AE093
:1015200010E060E08DE00E94D71764E670E080E094
:1015300090E00E94AB1661E08DE00E94D71764E650
:1015400070E080E090E00E94AB160150110949F76D
:101550008E010F5F1F4F58017E012FE6E21A2EEF1A
:10156000F20A86E395E00E949F266091360570910D
:10157000370580913805909139050E94F128D801EE
:101580006D937C9360913A0570913B0580913C0589
:1015900090913D050E94F128F80173836283609168
:1015A0003E0570913F0580914005909141050E9454
:1015B000F128D80115967C936E931497609142059B
:1015C0007091430580914405909145050E94F12852
:1015D000F801778366836091460570914705809195
:1015E0004805909149050E94F128D80119967C93ED
:1015F0006E93189760914A0570914B0580914C0548
:1016000090914D050E94F128F8017387628788E266
:1016100095E00E94522760912805709129058091DC
:101620002A0590912B050E94F128D8011D967C93E4
:101630006E931C9760912C0570912D0580912E055D
:1016400090912F050E94F128F801778766876091B5
:1016500030057091310580913205909133050E94DB
:10166000F128D80151967C936E9350978CE695E0C3
:101670000E94B92320E030E54DE754E40E9408249D
:101680000E94F128F801738B628B64E670E080E0C1
:1016900090E00E94AB160C5E1F4F0E151F0509F05F
:1016A00060CF9E0127543E4FCF5BDD4F39832883A7
:1016B000C154D2406E013FE6C31A3EEFD30ACF5B5E
:1016C000DD4FE880F980C154D240212C312CD70164
:1016D0001D921D921D921C921397612C11967C9065
:1016E000119712968C90129713969C9000E010E040
:1016F000F501E00FF11F60817181882777FD8095EA
:10170000982F0E9424299B01AC01662D772D882DEE
:10171000992D0E9421283B014C010C5E1F4F00397E
:10172000B1E01B0729F7862F972DA82DB92DF701BA
:1017300080839183A283B38320E030E040EA51E4C8
:10174000662D772D882D992D0E948928CF5CDD4F3D
:101750006883C153D240CB5CDD4F7883C553D24000
:101760008C01472F862F942FA02FB12FF701808354
:101770009183A283B383D6011D921D921D921C9268
:101780001397412C11965C90119712966C901297BA
:1017900013967C90812C912CF501E80DF91D608148
:1017A0007181882777FD8095982F0E942429CF5C2E
:1017B000DD4FB881C153D240CB5CDD4FA881C5530A
:1017C000D2402B2F3A2F402F512F0E942028262F16
:1017D000372F482F592F0E94042A9B01AC01642DFA
:1017E000752D862D972D0E9421282B013C01B4E1F7
:1017F0008B0E911CE0E98E16E1E09E0669F6862FBD
:10180000952DA62DB72DF60180839183A283B383F6
:1018100020E030E048E951E4642D752D862D972DA8
:101820000E948928D6016D937D938D939D936D01C0
:10183000BFEF2B1A3B0AE4E0EE0EF11CF2E0AF0E14
:10184000B11C2AE02216310409F041CFCB56DE4FFD
:10185000288139814A815B81C559D140CF56DE4FFD
:10186000688179818A819B81C159D1400E94212858
:10187000C756DE4F288139814A815B81C959D140E1
:101880000E942128362E272ECD5BDD4F8883C3543E
:10189000D240CB5BDD4F9883C554D240C754DE4F56
:1018A00088809980AA80BB80C95BD140C354DE4F39
:1018B000C880D980EA80FB80CD5BD140CF53DE4F1A
:1018C00088819981AA81BB81C15CD140CF5CDD4F09
:1018D00088839983AA83BB83C153D240CF55DE4FFF
:1018E000288139814A815B81C15AD140C356DE4F7C
:1018F000688179818A819B81CD59D1400E942128BC
:10190000CB55DE4F288139814A815B81C55AD14050
:101910000E942128C75BDD4F6883C954D240C55B54
:10192000DD4F7883CB54D240C35BDD4F8883CD54E9
:10193000D240C15BDD4F9883CF54D240CB53DE4FB2
:1019400088819981AA81BB81C55CD140CB5CDD4F88
:1019500088839983AA83BB83C553D240C753DE4F84
:1019600088819981AA81BB81C95CD140C75CDD4F68
:1019700088839983AA83BB83C953D240C353DE4F64
:1019800088819981AA81BB81CD5CD140C35CDD4F48
:1019900088839983AA83BB83CD53D240CB5CDD4F30
:1019A000288139814A815B81C553D240CA01B9017E
:1019B0000E94042A2B013C01C75CDD4F288139813C
:1019C0004A815B81C953D240CA01B9010E94042AED
:1019D0009B01AC01C301B2010E9421282B013C01F3
:1019E000C35CDD4F288139814A815B81CD53D24070
:1019F000CA01B9010E94042A9B01AC01C301B201D2
:101A00000E9421282DEC3CEC4CE45DE30E94042A6A
:101A10002DEC3CEC4CE45DE30E94042A9B01AC01FC
:101A2000C75BDD4FB881C954D240C55BDD4FA8818B
:101A3000CB54D240C35BDD4FF881CD54D240C15B63
:101A4000DD4FE881CF54D2406B2F7A2F8F2F9E2FFE
:101A50000E94F92918160CF44FC0A5019401C50184
:101A6000B4010E94042A2B013C01A7019601C70181
:101A7000B6010E94042A9B01AC01C301B2010E947D
:101A800021282B013C01CF5CDD4F288139814A811F
:101A90005B81C153D240CA01B9010E94042A9B0153
:101AA000AC01C301B2010E9421282DEC3CEC4CE4B6
:101AB0005DE30E94042A2DEC3CEC4CE45DE30E94C3
:101AC000042A9B01AC0111E0D101CD5BDD4FF8810F
:101AD000C354D240CB5BDD4FE881C554D2406B2F5D
:101AE0007A2F8F2F9E2F0E94F92918160CF010E0E4
:101AF00001E0012710E002C000E010E020E030E04B
:101B000040E850E4CB54DE4F688179818A819B8123
:101B1000C55BD1400E94F929181614F400E010E0CA
:101B200060E372E089ED95E00E94761C22E030E0EF
:101B3000B501A40189ED95E00E941B1E64E372E0EB
:101B400089ED95E00E94761C22E030E0B701A60105
:101B500089ED95E00E941B1E64E372E089ED95E03B
:101B60000E94761C22E030E0CF5CDD4F4881598135
:101B70006A817B81C153D24089ED95E00E941B1E92
:101B800064E372E089ED95E00E94761C9101CD5BE3
:101B9000DD4F5881C354D240CB5BDD4F4881C554E3
:101BA000D240632F722D852F942F0E94B72AAB014C
:101BB000BC0122E030E089ED95E00E941D1E66E345
:101BC00072E089ED95E00E94761C22E030E0CB5C6B
:101BD000DD4F488159816A817B81C553D24089EDAF
:101BE00095E00E941B1E64E372E089ED95E00E947F
:101BF000761C22E030E0C75CDD4F488159816A8164
:101C00007B81C953D24089ED95E00E941B1E64E39D
:101C100072E089ED95E00E94761C22E030E0C35C22
:101C2000DD4F488159816A817B81CD53D24089ED56
:101C300095E00E941B1E64E372E089ED95E00E942E
:101C4000761CC75BDD4F5881C954D240C55BDD4F60
:101C50004881CB54D240C35BDD4F3881CD54D24054
:101C6000C15BDD4F2881CF54D240652F742F832F65
:101C7000922F0E94B72AAB01BC0122E030E089ED2F
:101C800095E00E941D1E012B09F407C66091A40275
:101C90007091A50288E2869FA001879F500D1124B4
:101CA0004A555D4F20E030E0CF5BDD4FE881F981A0
:101CB000C154D24081919191A191B191CF5BDD4FFF
:101CC000F983E883C154D240FA01E20FF31F808305
:101CD0009183A283B3832C5F3F4F2832310521F7D4
:101CE0006F5F7F4F7093A5026093A40204E110E040
:101CF00060E08DE00E94D71764E170E080E090E042
:101D00000E94AB1661E08DE00E94D71764E170E09D
:101D100080E090E00E94AB160150110949F78091D4
:101D2000A4029091A50206970CF4B7C58CE090E050
:101D30000E940F2CCF5ADD4F8883C155D240CE5A16
:101D4000DD4F9883C255D240CB5CDD4F8883C553AD
:101D5000D240CA5CDD4F9883C653D240CB5CDD4F86
:101D600008811981C553D24076E0E72EF12C88E135
:101D700090E00E940F2CD8018C9311969C930E5FDB
:101D80001F4FB1E0EB1AF10891F7E4E7F2E0C75B0F
:101D9000DD4FF983E883C954D240CF5BDD4F198210
:101DA0001882C154D24021E032E02C0F3D1F285E42
:101DB0003F4FCD59DD4F39832883C356D240EAC403
:101DC000C75BDD4FA881B981C954D240A20FB31FB0
:101DD0008D919D910D90BC91A02D81939193A19394
:101DE000B1932C5F3F4F2831310551F7CF5BDD4F69
:101DF0003881C154D240C75CDD4F3883C953D240CB
:101E0000CE5BDD4F8881C254D240C35CDD4F8883F6
:101E1000CD53D2406CE372E089ED95E00E94761CD0
:101E20002090A4023090A502DE01A75EBD4FCB5AE0
:101E3000DD4FB983A883C555D240CB5CDD4FE88127
:101E4000F981C553D240C55BDD4FF983E883CB549C
:101E5000D24066E0862E62E0962E26E030E0C35B3C
:101E6000DD4F39832883CD54D240D4014D905D900D
:101E70006D907C9020E030E040E85FE3C301B20168
:101E80000E942028F4016083718382839383A09051
:101E90001202B0901302C0901402D0901502E0908C
:101EA0000E02F0900F020091100210911102209189
:101EB0000A0230910B0240910C0250910D02609188
:101EC00006027091070280910802909109023F92E8
:101ED0002F92C35CDD4FF881CD53D240FF93C75C96
:101EE000DD4FA881C953D240AF93E0911D02EF931B
:101EF000E0911C02EF93E0911B02EF93E0911A0234
:101F0000EF93E0911902EF93E0911802EF93E091C3
:101F10001702EF93E0911602EF930E94FC080FB6B0
:101F2000F894DEBF0FBECDBFCF5CDD4F68837983F1
:101F30008A839B83C153D24020E030E040E85FE3D6
:101F4000C301B2010E942128D4016D937D938D932A
:101F50009C931397A0901202B0901302C0901402A9
:101F6000D0901502E0900E02F0900F020091100246
:101F70001091110220910A0230910B0240910C0243
:101F800050910D0260910602709107028091080243
:101F9000909109023F922F92C35CDD4FB881CD53DF
:101FA000D240BF93C75CDD4FE881C953D240EF9365
:101FB000E0911D02EF93E0911C02EF93E0911B0270
:101FC000EF93E0911A02EF93E0911902EF93E09101
:101FD0001802EF93E0911702EF93E0911602EF934E
:101FE0000E94FC080FB6F894DEBF0FBECDBFD4012F
:101FF0004D925D926D927C921397CF5CDD4F28815C
:1020000039814A815B81C153D2400E94202820E05F
:1020100030E040E050E40E948928CB5ADD4FE8814F
:10202000F981C555D2406193719381939193CB5AB5
:10203000DD4FF983E883C555D240C55BDD4FA881EC
:10204000B981CB54D2409C9111968C9111971296E4
:10205000C55BDD4FB983A883CB54D240CD5BDD4F48
:102060009883C354D240CC5BDD4F8883C454D240A4
:10207000E6E0F2E0CF5CDD4FF983E883C153D24064
:1020800026E030E0C15BDD4F39832883CF54D24056
:10209000D4014D905D906D907C90CF5CDD4FA88118
:1020A000B981C153D2408D919D910D90BC91A02DCD
:1020B000CB5BDD4F88839983AA83BB83C554D24011
:1020C00020E030E040E85FE3C301B2010E94202835
:1020D000F401608371838283938320E030E040E8E1
:1020E0005FE3CF5CDD4FA881B981C153D2406D91D0
:1020F0007D918D919C910E942028CF5CDD4FE881DD
:10210000F981C153D2406083718382839383A0900D
:102110001202B0901302C0901402D0901502E09009
:102120000E02F0900F020091100210911102209106
:102130000A0230910B0240910C0250910D02609105
:1021400006027091070280910802909109023F9265
:102150002F92C35CDD4FF881CD53D240FF93C75C13
:10216000DD4FA881C953D240AF93E0911D02EF9398
:10217000E0911C02EF93E0911B02EF93E0911A02B1
:10218000EF93E0911902EF93E0911802EF93E09141
:102190001702EF93E0911602EF930E94FC080FB62E
:1021A000F894DEBF0FBECDBFC95ADD4F6883798377
:1021B0008A839B83C755D240D4014D925D926D9224
:1021C0007C921397CB5BDD4F88819981AA81BB817B
:1021D000C554D240CF5CDD4FE881F981C153D24074
:1021E00080839183A283B38320E030E040E85FE303
:1021F000D4016D917D918D919C910E942028F401D4
:10220000608371838283938320E030E040E85FE362
:10221000CF5CDD4FA881B981C153D2406D917D91D2
:102220008D919C910E942128CF5CDD4FE881F9813E
:10223000C153D2406083718382839383A090120242
:10224000B0901302C0901402D0901502E0900E02DC
:10225000F0900F02009110021091110220910A02D9
:1022600030910B0240910C0250910D0260910602D8
:102270007091070280910802909109023F922F927B
:10228000C35CDD4FF881CD53D240FF93C75CDD4F77
:10229000A881C953D240AF93E0911D02EF93E09122
:1022A0001C02EF93E0911B02EF93E0911A02EF936F
:1022B000E0911902EF93E0911802EF93E091170279
:1022C000EF93E0911602EF930E94FC080FB6F8948A
:1022D000DEBF0FBECDBFC55ADD4F688379838A83C9
:1022E0009B83CB55D240D4014D925D926D927C92EE
:1022F0001397CB5BDD4F88819981AA81BB81C5543F
:10230000D240CF5CDD4FE881F981C153D240808358
:102310009183A283B38320E030E040E85FE3D401FF
:102320006D917D918D919C910E942128F401608393
:1023300071838283938320E030E040E85FE3CF5CE9
:10234000DD4FA881B981C153D2406D917D918D91AE
:102350009C910E942028CF5CDD4FE881F981C15318
:10236000D2406083718382839383A0901202B090E5
:102370001302C0901402D0901502E0900E02F0906B
:102380000F02009110021091110220910A02309167
:102390000B0240910C0250910D0260910602709167
:1023A000070280910802909109023F922F92C35C2C
:1023B000DD4FF881CD53D240FF93C75CDD4FA8813C
:1023C000C953D240AF93E0911D02EF93E0911C02FC
:1023D000EF93E0911B02EF93E0911A02EF93E091EB
:1023E0001902EF93E0911802EF93E0911702EF9337
:1023F000E0911602EF930E94FC080FB6F894DEBF3E
:102400000FBECDBFC15ADD4F688379838A839B831A
:10241000CF55D240D4014D925D926D927C9213972C
:10242000CB5BDD4F88819981AA81BB81C554D240A5
:10243000CF5CDD4FE881F981C153D2408083918325
:10244000A283B38320E030E040E85FE3D4016D91E4
:102450007D918D919C910E942128F401608371836C
:102460008283938320E030E040E85FE3CF5CDD4F80
:10247000A881B981C153D2406D917D918D919C917C
:102480000E942128CF5CDD4FE881F981C153D24001
:102490006083718382839383A0901202B0901302B1
:1024A000C0901402D0901502E0900E02F0900F023E
:1024B000009110021091110220910A0230910B023A
:1024C00040910C0250910D0260910602709107023A
:1024D00080910802909109023F922F92C35CDD4FD8
:1024E000F881CD53D240FF93C75CDD4FA881C9531B
:1024F000D240AF93E0911D02EF93E0911C02EF9365
:10250000E0911B02EF93E0911A02EF93E091190220
:10251000EF93E0911802EF93E0911702EF93E091AF
:102520001602EF930E94FC080FB6F894DEBF0FBEB0
:10253000CDBFC55ADD4F288139814A815B81CB559A
:10254000D2400E942028C15ADD4F288139814A811A
:102550005B81CF55D2400E942028C95ADD4F288187
:1025600039814A815B81C755D2400E94212820E0F1
:1025700030E040E850E40E948928CD5BDD4FA8811F
:10258000B981C354D2406D937D938D939D93CD5B60
:10259000DD4FB983A883C354D240F40140825182F5
:1025A00062827382CF5CDD4FE881F981C153D240F2
:1025B000CB5BDD4F88819981AA81BB81C554D24014
:1025C00081939193A193B193CF5CDD4FF983E8831D
:1025D000C153D240C15BDD4F28813981CF54D240F5
:1025E00021503109C15BDD4F39832883CF54D2405C
:1025F000232B09F04DCDC35BDD4F88819981CD54EC
:10260000D2400197C35BDD4F99838883CD54D2407C
:1026100094E0890E911CC35BDD4FA881B981CD5434
:10262000D240AB2B09F021CC06E010E026E030E0F0
:10263000AE014F5F5D4FBE01675E7D4FCF5ADD4FEC
:102640008881C155D240CE5ADD4F9881C255D240C3
:102650000E94E5068E010F5F1D4F46E0E42E42E02A
:10266000F42ECC24C394D12CF80141905190619068
:1026700071908F01C301B2019F772AE037ED43EAE1
:102680005BE30E94F929181614F4C12CD12CA30184
:102690009201D7016D917D918D919C910E9420288E
:1026A000F70161937193819391937F01CD59DD4F30
:1026B00028813981C356D24002171307A9F64091E9
:1026C000060250910702609108027091090222E00F
:1026D00030E089ED95E00E941B1E64E372E089ED15
:1026E00095E00E94761C4091120250911302609175
:1026F00014027091150222E030E089ED95E00E940D
:102700001B1E64E372E089ED95E00E94761CCD28E3
:1027100009F480CB20E030E0CD5ADD4FE881F9812B
:10272000C355D24081919191A191B191CD5ADD4F84
:10273000F983E883C355D240C75BDD4FE881F98157
:10274000C954D240E20FF31F80839183A283B383E5
:102750002C5F3F4F28313105F9F6C75BDD4F2881EB
:102760003981C954D240285E3F4FC75BDD4F398362
:102770002883C954D240CF5BDD4F88819981C154F1
:10278000D2400396CF5BDD4F99838883C154D240FA
:10279000069761F0A6E0B2E0CD5ADD4FB983A88379
:1027A000C355D240FD0120E030E00ACB06E010E046
:1027B000CB5CDD4FE881F981C553D2408191919185
:1027C000CB5CDD4FF983E883C553D2400E94AA2C2D
:1027D0000150110969F7CF5ADD4F8881C155D240A8
:1027E000CE5ADD4F9881C255D2400E94AA2C65E393
:1027F00072E089ED95E00E94951C62E472E089ED3B
:1028000095E00E94761C409106025091070260916B
:1028100008027091090222E030E089ED95E00E9403
:102820001B1E64E372E089ED95E00E94761C4091E6
:102830000A0250910B0260910C0270910D0222E08D
:1028400030E089ED95E00E941B1E64E372E089EDA3
:1028500095E00E94761C40910E0250910F0260910B
:1028600010027091110222E030E089ED95E00E94A3
:102870001B1E64E372E089ED95E00E94761C409196
:10288000120250911302609114027091150222E01D
:1028900030E089ED95E00E941D1E60E08DE00E9411
:1028A000D71786E30E94FC1587E30E94FC1586E398
:1028B00095E00E949F266AE472E089ED95E00E940F
:1028C000761C2091740230917502409176025091ED
:1028D00077026091360570913705809138059091A7
:1028E00039050E9420282091800230918102409178
:1028F0008202509183020E948928AB01BC0122E030
:1029000030E089ED95E00E941B1E64E372E089EDE2
:1029100095E00E94761C20917802309179024091D6
:102920007A0250917B0260913A0570913B0580914B
:102930003C0590913D050E94202820918402309111
:10294000850240918602509187020E948928AB013E
:10295000BC0122E030E089ED95E00E941B1E64E39B
:1029600072E089ED95E00E94761C20917C02309106
:102970007D0240917E0250917F0260913E057091F0
:102980003F0580914005909141050E9420282091AB
:1029900088023091890240918A0250918B020E94F4
:1029A0008928AB01BC0122E030E089ED95E00E946E
:1029B0001B1E64E372E089ED95E00E94761C209175
:1029C0008C0230918D0240918E0250918F02609165
:1029D00042057091430580914405909145050E9400
:1029E0002028209198023091990240919A025091AA
:1029F0009B020E948928AB01BC0122E030E089EDF6
:102A000095E00E941B1E64E372E089ED95E00E9450
:102A1000761C209190023091910240919202509147
:102A20009302609146057091470580914805909109
:102A300049050E94202820919C0230919D024091DE
:102A40009E0250919F020E948928AB01BC0122E0A6
:102A500030E089ED95E00E941B1E64E372E089ED91
:102A600095E00E94761C209194023091950240914D
:102A700096025091970260914A0570914B058091A2
:102A80004C0590914D050E9420282091A002309184
:102A9000A1024091A2025091A3020E948928AB0199
:102AA000BC0122E030E089ED95E00E941B1E64E34A
:102AB00072E089ED95E00E94761C8CE695E00E941C
:102AC000B92320E030E54DE754E40E9408244B018F
:102AD0005C018CE695E00E94F2236B017C0120E012
:102AE00030E0A901C501B4010E942128AB01BC015D
:102AF00022E030E089ED95E00E941B1E64E372E065
:102B000089ED95E00E94761C22E030E0B701A60135
:102B100089ED95E00E941B1E64E372E089ED95E06B
:102B20000E94761C88E295E00E9452276091280559
:102B30007091290580912A0590912B050E94F1281A
:102B40004AE050E089ED95E00E94501D64E372E098
:102B500089ED95E00E94761C60912C0570912D0501
:102B600080912E0590912F050E94F1284AE050E0B7
:102B700089ED95E00E94501D64E372E089ED95E0D7
:102B80000E94761C6091300570913105809132056C
:102B9000909133050E94F1284AE050E089ED95E0DC
:102BA0000E94581DCC59DD4F0FB6F894DEBF0FBE02
:102BB000CDBFDF91CF911F910F91FF90EF90DF90EC
:102BC000CF90BF90AF909F908F907F906F905F90CD
:102BD0004F903F902F90089580E795E00E94FE224D
:102BE0008DE695E00E94FE228CE695E00E9421236E
:102BF00086E395E00C944D24863308F086532091AB
:102C00007B00982F9870277F922B90937B00877082
:102C100020911E0240E4249F90011124822B809376
:102C20007C0080917A00806480937A0080917A00A1
:102C300086FDFCCF2091780030917900932F80E0C1
:102C4000AC01422B9A01C90108951F920F920FB651
:102C50000F9211242F933F938F939F93AF93BF9322
:102C60008091730590917405A0917505B0917605DA
:102C700030917B05232F2D5F2D3720F40196A11D68
:102C8000B11D05C0232F2A570296A11DB11D209307
:102C90007B058093730590937405A0937505B0939D
:102CA00076058091770590917805A0917905B0918E
:102CB0007A050196A11DB11D809377059093780543
:102CC000A0937905B0937A05BF91AF919F918F91B1
:102CD0003F912F910F900FBE0F901F9018950F935B
:102CE0001F938FB7F894009173051091740520918C
:102CF0007505309176058FBFB801C9011F910F91FD
:102D000008950F931F939FB7F89400917705109142
:102D100078052091790530917A0586B5A89B06C083
:102D20008F3F21F00F5F1F4F2F4F3F4F9FBF322F1D
:102D3000212F102F0027080F111D211D311D42E0EA
:102D4000000F111F221F331F4A95D1F7B801C90187
:102D50001F910F910895CF92DF92EF92FF92CF9340
:102D6000DF936B017C010E948116EB010EC00E9473
:102D700081166C1B7D0B683E734038F081E0C81AE9
:102D8000D108E108F108C851DC4FC114D104E104B5
:102D9000F10469F7DF91CF91FF90EF90DF90CF9032
:102DA0000895789484B5826084BD84B5816084BDC3
:102DB00085B5826085BD85B5816085BDEEE6F0E0B4
:102DC000808181608083E1E8F0E010828081826010
:102DD0008083808181608083E0E8F0E08081816091
:102DE0008083E1EBF0E0808184608083E0EBF0E0C1
:102DF000808181608083E1E9F0E08081826080836E
:102E0000808181608083E0E9F0E08081816080835F
:102E1000E1EAF0E08081826080838081816080834C
:102E2000E0EAF0E0808181608083E1E2F1E080818E
:102E300082608083808181608083E0E2F1E0808134
:102E400081608083EAE7F0E0808184608083808114
:102E500082608083808181608083808180688083BC
:102E60001092C1000895893009F443C088F4843079
:102E700029F138F4823059F1E8F4813009F05EC06C
:102E800023C0873061F188F5863009F057C023C030
:102E90008D3009F440C020F48B30A9F1C0F52DC06D
:102EA000803109F442C0813109F443C08F3009F008
:102EB00045C037C0809180008F7703C0809180002B
:102EC0008F7D80938000089584B58F7702C084B58C
:102ED0008F7D84BD08958091B0008F7703C080916D
:102EE000B0008F7D8093B0000895809190008F771F
:102EF00007C0809190008F7D03C080919000877FF4
:102F00008093900008958091A0008F7707C08091F2
:102F1000A0008F7D03C08091A000877F8093A000D8
:102F20000895809120018F7707C0809120018F7DC7
:102F300003C080912001877F809320010895CF9363
:102F4000DF9390E0FC01E455FE4F4491FC01EE500C
:102F5000FE4F8491882341F190E0880F991FFC0176
:102F6000EE5AFD4F25913491D901885C9D4FFC01AB
:102F700085919491C82FD92F9FB7F8948C916111A6
:102F800006C0409584238C938881842308C06230D6
:102F900041F4242F209582238C938881842B88836D
:102FA00002C0842B8C939FBFDF91CF9108950F9324
:102FB0001F93CF93DF931F92CDB7DEB7282F30E05A
:102FC000F901EA59FE4F8491F901E455FE4F14913D
:102FD000F901EE50FE4F04910023D1F0882321F037
:102FE00069830E9433176981E02FF0E0EE0FFF1F25
:102FF000E85CFD4F85919491DC019FB7F8948C912A
:10300000611103C01095812301C0812B8C939FBF58
:103010000F90DF91CF911F910F910895FC0184854E
:103020009585FC01E05CFF4F20813181FC01EE5B66
:10303000FF4F80819181281B390B2F733327C901E2
:103040000895FC0184859585FC01E05CFF4F40817B
:103050005181FC01EE5BFF4F208131814217530704
:1030600041F00190F081E02DE80FF91F208130E060
:1030700002C02FEF3FEFC9010895FC0184859585BB
:10308000FC01E05CFF4F40815181FC01EE5BFF4F92
:10309000208131814217530781F0A081B181A80FAF
:1030A000B91F8C91208131812F5F3F4F2F733327C0
:1030B00031832083282F30E002C02FEF3FEFC9017A
:1030C0000895FC0186859785FC01E05CFF4FDC01DB
:1030D000AE5BBF4F408151812D913C9111974217BA
:1030E0005307C1F70895CF93DF93FC018685978539
:1030F000DC01A05CBF4F2D913C9111972F5F3F4F9A
:103100002F733327EC01CE5BDF4F488159812417A1
:103110003507D9F30D90BC91A02DA80FB91F6C9362
:10312000A685B785A05CBF4F11963C932E93A689C8
:10313000B7892C9181E090E0058C02C0880F991F1F
:103140000A94E2F7282B2C9381E090E0DF91CF9155
:103150000895FB01E05CFF4F208131812F5F3F4FDD
:103160002F733327DB01AE5BBF4F4D915C9124176A
:10317000350739F0A081B181A60FB71F8C93318339
:103180002083089508951F920F920FB60F92112475
:103190000BB60F922F933F934F935F936F937F9351
:1031A0008F939F93AF93BF93EF93FF938091C6004C
:1031B00064ED77E00E94A918FF91EF91BF91AF9164
:1031C0009F918F917F916F915F914F913F912F913F
:1031D0000F900BBE0F900FBE0F901F901895089583
:1031E0001F920F920FB60F9211240BB60F922F93CE
:1031F0003F934F935F936F937F938F939F93AF937F
:10320000BF93EF93FF938091CE006CE477E00E9430
:10321000A918FF91EF91BF91AF919F918F917F91ED
:103220006F915F914F913F912F910F900BBE0F9037
:103230000FBE0F901F90189508951F920F920FB612
:103240000F9211240BB60F922F933F934F935F93DE
:103250006F937F938F939F93AF93BF93EF93FF935E
:103260008091D60064EC76E00E94A918FF91EF915E
:10327000BF91AF919F918F917F916F915F914F918E
:103280003F912F910F900BBE0F900FBE0F901F908C
:10329000189508951F920F920FB60F9211240BB636
:1032A0000F922F933F934F935F936F937F938F93DF
:1032B0009F93AF93BF93EF93FF93809136016CE39D
:1032C00076E00E94A918FF91EF91BF91AF919F9175
:1032D0008F917F916F915F914F913F912F910F90BF
:1032E0000BBE0F900FBE0F901F90189589ED95E0C3
:1032F0000E940E18892B11F00E94C2188AEB95E0EB
:103300000E940E18892B11F00E94EF188BE995E0AE
:103310000E940E18892B11F00E941C198CE795E071
:103320000E940E18892B11F00C94491908951F92D0
:103330000F920FB60F9211240BB60F922F933F935B
:103340008F939F93EF93FF932091D0073091D107F4
:103350008091D2079091D3072817390731F48091D3
:10336000C1008F7D8093C10014C0E091D207F0911D
:10337000D307E057F84F20818091D2079091D3076F
:1033800001968F7399279093D3078093D207209348
:10339000C600FF91EF919F918F913F912F910F90D8
:1033A0000BBE0F900FBE0F901F9018951F920F929B
:1033B0000FB60F9211240BB60F922F933F938F935A
:1033C0009F93EF93FF932091480730914907809195
:1033D0004A0790914B072817390731F48091C900AB
:1033E0008F7D8093C90014C0E0914A07F0914B078C
:1033F000E85FF84F208180914A0790914B07019632
:103400008F73992790934B0780934A072093CE00A0
:10341000FF91EF919F918F913F912F910F900BBE54
:103420000F900FBE0F901F9018951F920F920FB61E
:103430000F9211240BB60F922F933F938F939F936C
:10344000EF93FF932091C0063091C1068091C20690
:103450009091C3062817390731F48091D1008F7DF0
:103460008093D10014C0E091C206F091C306E058E9
:10347000F94F20818091C2069091C30601968F7307
:1034800099279093C3068093C2062093D600FF919C
:10349000EF919F918F913F912F910F900BBE0F90C5
:1034A0000FBE0F901F9018951F920F920FB60F929C
:1034B00011240BB60F922F933F938F939F93EF930B
:1034C000FF93209138063091390680913A06909109
:1034D0003B062817390731F4809131018F7D8093A5
:1034E000310114C0E0913A06F0913B06E850FA4FE2
:1034F000208180913A0690913B0601968F7399271F
:1035000090933B0680933A0620933601FF91EF910A
:103510009F918F913F912F910F900BBE0F900FBEF7
:103520000F901F901895CF92DF92EF92FF92CF935A
:10353000DF93EC016A017B01411581EE58076105BB
:103540007105F9F0EC89FD8981E090E00E8C02C0F4
:10355000880F991F0A94E2F7808360E079E08DE399
:1035600090E0A70196010E94E92B21503109410901
:1035700051095695479537952795211580E13807CC
:1035800098F0EC89FD89108260E874E88EE190E0A3
:10359000A70196010E94E92B2150310941095109E7
:1035A0005695479537952795E889F9893083EA89B3
:1035B000FB892083EE89FF89408181E090E09C01B6
:1035C0000A8C02C0220F331F0A94E2F7422B408379
:1035D000EE89FF8940819C010B8C02C0220F331FB2
:1035E0000A94E2F7422B4083EE89FF8940819C01D7
:1035F0000C8C02C0220F331F0A94E2F7422B408347
:10360000EE89FF8920810D8C02C0880F991F0A94D2
:10361000E2F7809582238083DF91CF91FF90EF9036
:10362000DF90CF900895CF931092DC051092DB05C8
:1036300088EE93E0A0E0B0E08093DD059093DE0596
:10364000A093DF05B093E00525E532E03093DA057D
:103650002093D90544ED57E05093E6054093E505E6
:1036600040E957E05093E8054093E70545EC50E00A
:103670005093EA054093E90544EC50E05093EC0583
:103680004093EB0540EC50E05093EE054093ED0580
:1036900041EC50E05093F0054093EF0546EC50E0CC
:1036A0005093F2054093F105C4E0C093F305F3E0B5
:1036B000F093F405E7E0E093F50575E07093F60507
:1036C00061E06093F7051092BD051092BC058093F0
:1036D000BE059093BF05A093C005B093C10530937C
:1036E000BB052093BA054CE457E05093C7054093BF
:1036F000C60548E057E05093C9054093C8054DEC16
:1037000050E05093CB054093CA054CEC50E05093E9
:10371000CD054093CC0548EC50E05093CF05409345
:10372000CE0549EC50E05093D1054093D0054EECC6
:1037300050E05093D3054093D205C093D405F09345
:10374000D505E093D6057093D7056093D805109200
:103750009E0510929D0580939F059093A005A093D0
:10376000A105B093A20530939C0520939B0544ECE2
:1037700056E05093A8054093A70540E856E05093C3
:10378000AA054093A90545ED50E05093AC05409340
:10379000AB0544ED50E05093AE054093AD0540EDD0
:1037A00050E05093B0054093AF0541ED50E0509389
:1037B000B2054093B10546ED50E05093B4054093F7
:1037C000B305C093B505F093B605E093B7057093C4
:1037D000B8056093B90510927F0510927E0580931D
:1037E000800590938105A0938205B0938305309363
:1037F0007D0520937C058CE396E09093890580936A
:10380000880588EF95E090938B0580938A0585E382
:1038100091E090938D0580938C0584E391E09093E3
:103820008F0580938E0580E391E0909391058093BE
:10383000900581E391E0909393058093920586E350
:1038400091E09093950580939405C0939605F0932D
:103850009705E09398057093990560939A05CF9129
:1038600008950E94D1160E948407C6E7D9E10E94FC
:10387000230A2097E1F30E947619F9CFCF92DF92C5
:10388000EF92FF920F931F93CF93DF936C01EB01A5
:103890007A01E60EF71E00E010E00BC06991D60138
:1038A000ED91FC910190F081E02DC6011995080F72
:1038B000191FCE15DF0591F7C801DF91CF911F9138
:1038C0000F91FF90EF90DF90CF900895DB010D9066
:1038D0000020E9F7AD0141505109461B570BDC01AF
:1038E000ED91FC910280F381E02D19940C94661CFB
:1038F000DC01ED91FC910190F081E02D19940F9382
:103900001F93CF93DF93EC016DE00E94781C8C0134
:103910006AE0CE010E94781C9C01200F311FC90172
:10392000DF91CF911F910F9108950F931F93CF9324
:10393000DF93EC010E94661C8C01CE010E947F1C6B
:103940009801280F391FC901DF91CF911F910F9165
:1039500008954F925F926F927F929F92AF92BF9223
:10396000CF92DF92EF92FF920F931F93CF93DF934B
:10397000CDB7DEB7A1970FB6F894DEBF0FBECDBFAF
:103980005C016A017B01922E19A281E0821710F07E
:103990008AE0982E8E010F5D1F4F492C512C612C0F
:1039A000712CC701B601A30192010E94E92B8C2D55
:1039B000929E80191124015011098A3010F4805D03
:1039C00001C0895CF801808369017A01C114D104C6
:1039D000E104F10431F7B801C5010E94661CA1960B
:1039E0000FB6F894DEBF0FBECDBFDF91CF911F9110
:1039F0000F91FF90EF90DF90CF90BF90AF909F908E
:103A00007F906F905F904F900895CF92DF92EF92EA
:103A1000FF920F931F93CF93DF93EC016A017B0119
:103A20002115310579F4E881F9810190F081E02DCB
:103A3000642FDF91CF911F910F91FF90EF90DF9056
:103A4000CF9019942A30310519F477FD0EC02AE081
:103A5000B701A601CE01DF91CF911F910F91FF9089
:103A6000EF90DF90CF900C94A91C6DE20E94781C1F
:103A70008C0144275527BA014C195D096E097F094D
:103A80002AE0CE010E94A91C080F191FC801DF916E
:103A9000CF911F910F91FF90EF90DF90CF900895FD
:103AA0009A01AB01662757FD6095762F0C94051D92
:103AB0000F931F93CF93DF93EC019A01AB0166271D
:103AC00057FD6095762F0E94051D8C01CE010E9446
:103AD0007F1C9801280F391FC901DF91CF911F91D9
:103AE0000F9108957F928F929F92AF92BF92CF9243
:103AF000DF92EF92FF920F931F93CF93DF938C018E
:103B00004A015B01F22E20E030E0A901C501B401B9
:103B10000E94852887FF0AC06DE2C8010E94781CB8
:103B2000EC01B7FAB094B7F8B09402C0C0E0D0E0AE
:103B3000E12C60E070E080E09FE307C020E030E02F
:103B400040E251E40E948928E394EF10F7CF262F3A
:103B5000372F482F592FC501B4010E942128762EF6
:103B6000872E982EA92E0E94F628B62EC72ED82E64
:103B7000E92E0E9422299B01AC01672D782D892D09
:103B80009A2D0E942028A62E972E882E792E2AE084
:103B90004B2D5C2D6D2D7E2DC8010E94A91CC80FD8
:103BA000D91FFF20B9F161E672E0C8010E94661CCE
:103BB000C80FD91F2FC020E030E040E251E46A2D49
:103BC000792D882D972D0E94042A762EC72ED82E67
:103BD000E92E0E94F1284B01AA2497FCA094BA2C4C
:103BE0002AE030E0B501A401C8010E94051DC80FFC
:103BF000D91FC501B4010E9424299B01AC01672D86
:103C00007C2D8D2D9E2D0E942028A62E972E882E4D
:103C1000792EFA94F110CFCFCE01DF91CF911F9181
:103C20000F91FF90EF90DF90CF90BF90AF909F905B
:103C30008F907F9008950C94721D0F931F93CF93D4
:103C4000DF93EC010E94721D8C01CE010E947F1C4B
:103C50009801280F391FC901DF91CF911F910F9152
:103C600008950F931F93CF93DF93EC010E946F167B
:103C7000688779878A879B87E881F9810680F78141
:103C8000E02DCE0119959C0197FF15C00E946F167B
:103C9000088519852A853B85601B710B820B930B68
:103CA0000C811D812E813F81601771078207930768
:103CB00018F32FEF3FEFC901DF91CF911F910F91C3
:103CC0000895AF92BF92CF92DF92EF92FF920F933F
:103CD0001F93CF93DF936C018A017901C0E0D0E09C
:103CE0002115310589F0A62EB12CC6010E94311E86
:103CF00097FD0AC08A159B0539F0F80181938F0161
:103D00002196CE15DF0589F7CE01DF91CF911F9166
:103D10000F91FF90EF90DF90CF90BF90AF900895FC
:103D20002091480830E080914908281B3109C901D9
:103D300008958091490890914808891750F4E82F18
:103D4000F0E0E65BF74F208130E08F5F8093490819
:103D500002C02FEF3FEFC9010895E091490880911B
:103D60004808E81730F4F0E0E65BF74F208130E0D8
:103D700002C02FEF3FEFC90108950895CF92DF925F
:103D8000EF92FF920F931F93CF93DF937C01CB01B0
:103D90008A0120912408222391F0EB016B01C40ECB
:103DA000D51E09C06991D701ED91FC910190F08178
:103DB000E02DC7011995CC15DD05A1F703C0642FCF
:103DC0000E942520C801DF91CF911F910F91FF9094
:103DD000EF90DF90CF900895CF93DF931F92CDB7F0
:103DE000DEB76983209124082223D1F02091250891
:103DF000203240F021E030E0FC013383228320E0D8
:103E000030E015C080912608E82FF0E0E95DF74F1B
:103E1000998190838F5F809326088093250805C041
:103E200061E0CE0101960E94252021E030E0C90129
:103E30000F90DF91CF910895FC011382128248EE1A
:103E400053E060E070E0448355836683778387E6C0
:103E500092E0918380830895109249081092480857
:103E600010922608109225080C946F1F862F41325D
:103E700008F040E26AE478E00E948D1F1092490841
:103E800080934808089521E00C94361F21E00C949B
:103E9000361F81E08093240860934708109226081B
:103EA0001092250808950C94491F0F93062F21E0C6
:103EB0004091250867E278E0809147080E94D21F70
:103EC0001092260810922508109224080F91089548
:103ED00061E00C94551F88E198E00C941C1F10922F
:103EE000730881E0809371081092700861E084E1AA
:103EF0000E94D71761E085E10E94D717E9EBF0E057
:103F000080818E7F808380818D7F808388E4809311
:103F1000B80085E48093BC000895413208F03FC0AA
:103F2000909173089111FCCF91E0909373082093C6
:103F300071082FEF20936A0810926F08242F2150E8
:103F400020936E089093720890917208880F892BC5
:103F50008093720880917008813041F4109270084B
:103F6000809172088093BB0085EC01C085EE809340
:103F7000BC00809173088130E1F380916F08841751
:103F800010F440916F0824E738E0FB01D90102C02A
:103F90008D9181938A2F821B8417D0F301C040E05A
:103FA000842F08950F93413208F046C09091730812
:103FB0009111FCCF92E090937308009371089FEFEA
:103FC00090936A0810926F0840936E08FB0164E7B3
:103FD00078E0DB0102C091919D939A2F961B941774
:103FE000D0F31092720890917208880F892B8093F9
:103FF000720880917008813041F4109270088091AD
:1040000072088093BB0085EC01C085EE8093BC00F4
:10401000222321F0809173088230E1F380916A08B5
:104020008F3F61F080916A08803251F080916A0878
:10403000803341F483E007C081E005C080E003C025
:1040400082E001C084E00F910895613298F42091DC
:104050007308243089F460936C08FC0184E998E0CB
:10406000DC0102C021912D932A2F281B2617D0F3A3
:1040700080E0089581E0089582E0089585ED8093C1
:10408000BC008091BC0084FDFCCF109273080895A1
:1040900085EC8093BC001092730808951F920F92D4
:1040A0000FB60F9211240BB60F922F933F934F939D
:1040B0005F936F937F938F939F93AF93BF93EF9390
:1040C000FF938091B900887F803609F49FC058F52E
:1040D000883209F45BC090F4803109F452C038F49E
:1040E000882309F4F8C0883009F0F9C04AC0883143
:1040F00009F44CC0803209F0F2C05CC0803409F48D
:104100006BC038F4803309F455C0883309F0E7C038
:1041100054C0803509F454C0883509F462C088342D
:1041200009F0DDC0DAC0883909F4CBC0A8F48837BB
:1041300009F46CC038F4883609F468C0803709F097
:10414000CEC064C0883809F4BCC0803909F464C0AA
:10415000803809F0C4C060C0803B09F48AC038F4DC
:10416000803A09F46BC0883A09F0B9C082C0803C3B
:1041700009F4ABC0883C09F4A8C0883B09F0AFC083
:104180008DC0809172088093BB0012C090916F081F
:1041900080916E08981788F580916F08E82FF0E0FD
:1041A000EC58F74F90819093BB008F5F80936F081E
:1041B00085EC88C080936A0890C080936A0856C0D6
:1041C00080916F089091BB00E82FF0E0EC58F74F1A
:1041D00090838F5F80936F0890916F0880916E0835
:1041E0006DC080916F089091BB00E82FF0E0EC5813
:1041F000F74F90838F5F80936F08809171088111D2
:104200006CC081E08093700884EA60C083E0809392
:10421000730810926B08CCCF80916B08803208F045
:1042200050C080916B089091BB00E82FF0E0E854FB
:10423000F74F90838F5F80936B08BACF80916B08A4
:10424000803230F4E0916B08F0E0E854F74F1082D0
:104250000E943E2060916B08E091B408F091B5088F
:1042600070E088EB98E0199510926B080E94482046
:1042700036C084E08093730810926D0810926C0829
:10428000E091B608F091B708199580916C088111FA
:1042900005C081E080936C081092940880916D08AD
:1042A000E82FF0E0EC56F74F90819093BB008F5FC2
:1042B00080936D0890916D0880916C08981708F4B0
:1042C00077CF85E88093BC000AC085EC8093BC0062
:1042D0001092730804C010926A080E943E20FF9159
:1042E000EF91BF91AF919F918F917F916F915F916E
:1042F0004F913F912F910F900BBE0F900FBE0F90DB
:104300001F901895EF92FF920F931F93CF93DF9317
:104310008B017A01C82FD0E0DE01A752B74F8C91F4
:1043200087FF05C0DB0111961C921E9222C02CE073
:104330002C9FC0012D9F900D11242C91AC01420F98
:10434000511D27FD5A952091D80830E04217530798
:1043500084F42C91FC01E20FF11D27FDFA959F01D9
:10436000EE0FFF1FE20FF31FE352F74F208126FDF0
:1043700045C0FE01E752F74F80818F5F80832CE0BC
:104380002C9FC0012D9F900D11242081AC01420F64
:10439000511D27FD5A952091D80830E04217530748
:1043A0000CF03EC020812C300CF442C039C020817A
:1043B000820F911D27FD9A95FC01EE0FFF1FE80F5C
:1043C000F91FE352F74F808161E08F73DF91CF9146
:1043D0001F910F91FF90EF900C94D71780E49CE908
:1043E00004C0F801808191810496D70111969C93B5
:1043F0008E93C752D74F8FEF888345C02C91820F81
:10440000911D27FD9A95FC01EE0FFF1FE80FF91F84
:10441000E352F74F808160E08F730E94D717A9CFD6
:10442000F80180819181049680349C49B8F2D9CFFB
:10443000D8012D913C914081BC01640F711D47FD55
:104440007A95AB01DB01AA0FBB1FA40FB51FA352C6
:10445000B74F11964D915C911297240F351FD701DC
:1044600011963C932E932081AC01420F511D27FDE4
:104470005A95DA01AA0FBB1FA40FB51FA352B74F5D
:104480002C9126FD94CFDF91CF911F910F91FF903A
:10449000EF9008951F920F920FB60F9211240BB652
:1044A0000F922F933F934F935F936F937F938F93CD
:1044B0009F93AF93BF93EF93FF9348E850E064E876
:1044C00070E081E00E948221FF91EF91BF91AF9156
:1044D0009F918F917F916F915F914F913F912F911C
:1044E0000F900BBE0F900FBE0F901F9018951F924C
:1044F0000F920FB60F9211240BB60F922F933F938A
:104500004F935F936F937F938F939F93AF93BF93DB
:10451000EF93FF9348E950E064E970E082E00E9485
:104520008221FF91EF91BF91AF919F918F917F91E8
:104530006F915F914F913F912F910F900BBE0F9014
:104540000FBE0F901F9018951F920F920FB60F92EB
:1045500011240BB60F922F933F934F935F936F935A
:104560007F938F939F93AF93BF93EF93FF9348EA0B
:1045700050E064EA70E083E00E948221FF91EF91B5
:10458000BF91AF919F918F917F916F915F914F916B
:104590003F912F910F900BBE0F900FBE0F901F9069
:1045A00018951F920F920FB60F9211240BB60F920F
:1045B0002F933F934F935F936F937F938F939F932B
:1045C000AF93BF93EF93FF9348E251E064E271E051
:1045D00080E00E948221FF91EF91BF91AF919F9166
:1045E0008F917F916F915F914F913F912F910F909C
:1045F0000BBE0F900FBE0F901F9018952091D808FA
:104600002033A0F4FC012083822F8F5F8093D80891
:10461000822F90E0FC01EE0FFF1FE80FF91FE3521D
:10462000F74F88EB9BE09283818308952FEFFC0185
:1046300020830895DC01ED91FC910190F081E02D43
:1046400019942DE5FC01208308951F93CF93DF93E8
:104650001F92CDB7DEB7162FFC01608188E198E08C
:1046600049830E94491F612F88E198E00E94EC1E57
:104670004981642F88E198E00E94EC1E88E198E06F
:104680000F90DF91CF911F910C94681F40EE60E274
:104690000C9425231F93CF93DF93EC01162F688191
:1046A00088E198E00E94491F612F88E198E00E940C
:1046B000EC1E60E088E198E00E94551F41E06881AF
:1046C00088E198E00E94431F88E198E00E94991ECB
:1046D000C82F88E198E00E94681F8C2FDF91CF914E
:1046E0001F910895FF920F931F93CF93DF938C0137
:1046F000FC01608188E198E00E94491F68EA70E04F
:1047000088E198E00E941A2388E198E00E94681FDF
:1047100043E0F801608188E198E00E94431F88E14E
:1047200098E00E94901E0397D4F388E198E00E94DD
:10473000991E082F88E198E00E94991EF82E88E1C2
:1047400098E00E94991E10E020E030E0282BDF2D39
:10475000F0E0CF2FCE01A0E0B0E0082B192B2A2BE0
:104760003B2BB801C901DF91CF911F910F91FF90B1
:1047700008950E9472230E94242920E030E040E83E
:1047800059E30E94042A0895CF93DF93EC016881D6
:1047900088E198E00E94491F6BEA70E088E198E0A8
:1047A0000E941A2388E198E00E94681F42E0688115
:1047B00088E198E00E94431F88E198E00E94901EE3
:1047C0000297D4F388E198E00E94991EC82F88E1EF
:1047D00098E00E94991E382F22272C2BC901DF91C7
:1047E000CF9108950E94C423BC01882777FD80954E
:1047F000982F0E94242920E030E040EF53E40E94EB
:10480000892820E030E04AE252E40E9421280895FD
:104810000E9489282EE434ED42E45EE30E94672A78
:10482000262F372F482F592F60E070E080E89FE354
:104830000E9420282DEC3AE24DE257E40E94042A1F
:1048400008956FE00E944A2391E08B3B09F090E0CD
:10485000892F0895CF93DF93EC018CE58883CE01F7
:104860000E942124811107C08DE58883CE01DF914C
:10487000CF910C94212481E0DF91CF91089566239C
:1048800019F0613041F402C02CE501C02DE5FC01B6
:1048900020830C9421240C942A24FC0180E090E0D5
:1048A000A7E0B4E4808F918FA28FB38F80E090E077
:1048B000AAEFB3E4848F958FA68FB78F80E090E046
:1048C000A4E3B3E480A391A3A2A3B3A340E050E088
:1048D00062E074EC44A355A366A377A340E050E8DC
:1048E0006EE074EC40A751A762A773A740E050E8C0
:1048F00060E474EC44A755A766A777A783E081AB73
:1049000088E182AB14AA13AA15AA0895EF92FF9228
:104910001F93CF93DF931F92CDB7DEB77C01162F85
:10492000FC0162A988E198E049830E94491F612F38
:1049300088E198E00E94EC1E4981642F88E198E0AC
:104940000E94EC1E88E198E00E94681FF70180AB8E
:104950000F90DF91CF911F91FF90EF900895EF920C
:10496000FF921F93CF93DF931F92CDB7DEB77C01E9
:10497000162F6EE170E088E198E049830E94531F92
:10498000612F88E198E00E94EC1E4981642F88E144
:1049900098E00E94EC1E88E198E00E94681FF701F1
:1049A00080AB0F90DF91CF911F91FF90EF90089512
:1049B000CF93DF93EC0147E260E20E94862489A94D
:1049C000823029F448E063E2CE010E94862440E070
:1049D00062E0CE01DF91CF910C94AF240F931F932F
:1049E000CF93DF938C01EB0177FF31C06D3F8FEFE9
:1049F0007807C1F02CF46C3FFFEF7F0741F517C03B
:104A00006E3F8FEF780749F06F3FEFEF7E07F9F4C5
:104A1000F80181A9811110C015C0F80181A9811187
:104A20000EC013C0F80181A981110CC005C0F801A6
:104A300081A981110AC003C0C7E0D0E008C0C8E066
:104A4000D0E005C0C5E0D0E002C0C6E0D0E06EE135
:104A500070E088E198E00E94531FBE0188E198E071
:104A60000E941A2388E198E00E94681FF80180AB39
:104A700041E050E06EE170E088E198E00E94461F5E
:104A800088E198E00E94991EC82F88E198E00E9472
:104A9000681F8C2FDF91CF911F910F9108956F9216
:104AA0007F928F929F92AF92BF92CF92DF92EF92BE
:104AB000FF920F931F93CF93DF93EC016AA988E1D4
:104AC00098E00E94491F68EA70E088E198E00E943F
:104AD0001A2388E198E00E94681F88AB46E06AA923
:104AE00088E198E00E94431F0E946F166B011DAA87
:104AF0000EC08BA99CA9892B51F00E946F166C19CE
:104B00007D098BA99CA98617970708F45EC088E1E8
:104B100098E00E94901E069764F388E198E00E9456
:104B2000991E782E88E198E00E94991E682E88E1EF
:104B300098E00E94991E982E88E198E00E94991EA4
:104B4000882E88E198E00E94991ED82E88E198E08E
:104B50000E94991EC82EB62CA12CA72884E0B594DB
:104B6000A7948A95E1F7B501882777FD8095982F5E
:104B70000E942429688379838A839B83F82CE12C03
:104B8000E92894E0F594E7949A95E1F7B70188272E
:104B900077FD8095982F0E9424296C837D838E83D6
:104BA0009F831C2D00E00D2924E0159507952A957B
:104BB000E1F7B801882777FD8095982F0E94242976
:104BC000688779878A879B8702C081E08DABDF91F8
:104BD000CF911F910F91FF90EF90DF90CF90BF90FA
:104BE000AF909F908F907F906F900895AF92BF92FB
:104BF000CF92DF92EF92FF920F931F93CF93DF93A9
:104C0000EC016EE170E088E198E00E94531F63E0E0
:104C100070E088E198E00E941A2388E198E00E9401
:104C2000681F88AB46E050E06EE170E088E198E0F4
:104C30000E94461F0E946F168B011DAA0EC08BA9F1
:104C40009CA9892B51F00E946F16601B710B8BA9D8
:104C50009CA98617970708F465C088E198E00E9430
:104C6000901E069764F388E198E00E94991EA82E92
:104C700088E198E00E94991EB82E89A9811115C07B
:104C800088E198E00E94991EC82E88E198E00E9471
:104C9000991ED82E88E198E00E94991E082F88E17D
:104CA00098E00E94991E182F14C088E198E00E9495
:104CB000991E082F88E198E00E94991E182F88E11C
:104CC00098E00E94991EC82E88E198E00E94991EE3
:104CD000D82EFA2CE12CEB28B701882777FD809598
:104CE000982F0E9424296C877D878E879F877C2D33
:104CF00060E06D29882777FD8095982F0E942429F0
:104D0000688B798B8A8B9B8B702F60E0612B882757
:104D100077FD8095982F0E9424296C8B7D8B8E8B3C
:104D20009F8B02C081E08DABDF91CF911F910F91DE
:104D3000FF90EF90DF90CF90BF90AF900895CF930A
:104D4000DF93EC010E944F25CE01DF91CF910C94AF
:104D5000F625CF93DF93EC0168E170E088E198E0FD
:104D60000E94531F60E270E088E198E00E941A23DD
:104D700088E198E00E94681F88AB41E050E068E15C
:104D800070E088E198E00E94461F88E198E00E9468
:104D9000901E892B31F088E198E00E94991E80E0F6
:104DA00001C081E0DF91CF910895CF93DF93EC01B3
:104DB00069AB623018F0623089F40DC0411101C056
:104DC00008C0413009F407C00E94A926813009F4C7
:104DD00002C088E101C089E18AAB15C00E94A92602
:104DE000813029F489E18AAB82E089AB0CC088E18B
:104DF0008AAB6FE070E0CE010E94EE2491E08C332C
:104E000009F090E099ABDF91CF9108951F93CF9374
:104E1000DF931F92CDB7DEB7162FFC01658588E1C1
:104E200098E049830E94491F612F88E198E00E9421
:104E3000EC1E4981642F88E198E00E94EC1E88E115
:104E400098E00F90DF91CF911F910C94681F4FE075
:104E500060E20C9406271F93CF93DF93EC01162F8B
:104E60006D8588E198E00E94491F612F88E198E0F4
:104E70000E94EC1E88E198E00E94681F41E06D8569
:104E800088E198E00E94431F88E198E00E94991E03
:104E9000C82F88E198E00E94681F8C2FDF91CF9186
:104EA0001F9108956F927F928F929F92AF92BF92BF
:104EB000CF92DF92EF92FF920F931F93CF93DF93E6
:104EC000EC016D8588E198E00E94491FE091180887
:104ED000F09119080190F081E02D68EA88E198E0EE
:104EE000199588E198E00E94681F46E06D8588E189
:104EF00098E00E94431F88E198E00E94901E069768
:104F0000D4F388E198E00E94991E782E88E198E019
:104F10000E94991E682E88E198E00E94991E982EA2
:104F200088E198E00E94991E882E88E198E00E940E
:104F3000991ED82E88E198E00E94991EC82EB62CA2
:104F4000A12CA728B501882777FD8095982F0E946E
:104F50002429688379838A839B83F82CE12CE928B0
:104F6000B701882777FD8095982F0E9424296C83AC
:104F70007D838E839F831C2D00E00D29B801882737
:104F800077FD8095982F0E942429688779878A87E2
:104F90009B87DF91CF911F910F91FF90EF90DF9052
:104FA000CF90BF90AF909F908F907F906F9008951B
:104FB000CF93DF93EC0188E68D876FE0CE010E94EE
:104FC0002B27833D11F491E01AC089E68D876FE0AD
:104FD000CE010E942B27833DB1F38AE68D876FE0D7
:104FE000CE010E942B27843D71F38BE68D876FE005
:104FF000CE010E942B2791E0843D09F090E0892F9B
:10500000DF91CF910895FC016487613019F062301F
:1050100099F408C0411102C028E607C0413061F48C
:1050200029E603C0411104C02AE6FC01258706C019
:10503000413011F42BE6F9CF0C94D82781E0089584
:105040005058BB27AA270ED09AC18BD130F090D1EF
:1050500020F031F49F3F11F41EF45BC10EF4E09593
:10506000E7FB51C1E92F9CD180F3BA1762077307A0
:105070008407950718F071F49EF5B4C10EF4E0951D
:105080000B2EBA2FA02D0B01B90190010C01CA0102
:10509000A0011124FF27591B99F0593F50F4503EAD
:1050A00068F11A16F040A22F232F342F4427585F9F
:1050B000F3CF469537952795A795F0405395C9F7B7
:1050C0007EF41F16BA0B620B730B840BBAF091506F
:1050D000A1F0FF0FBB1F661F771F881FC2F70EC00E
:1050E000BA0F621F731F841F48F4879577956795E1
:1050F000B795F7959E3F08F0B3CF9395880F08F0CA
:105100009927EE0F979587950895D9D008F481E0F7
:1051100008950CD034C12CD140F023D130F021F4CB
:105120005F3F19F0F0C051115EC1F3C039D198F35F
:105130009923C9F35523B1F3951B550BBB27AA2718
:1051400062177307840738F09F5F5F4F220F331F8A
:10515000441FAA1FA9F333D00E2E3AF0E0E830D056
:1051600091505040E695001CCAF729D0FE2F27D059
:10517000660F771F881FBB1F261737074807AB0727
:10518000B0E809F0BB0B802DBF01FF2793585F4F9C
:105190002AF09E3F510568F0B6C025C15F3FECF391
:1051A000983EDCF3869577956795B795F7959F5F61
:1051B000C9F7880F911D9695879597F90895E1E0B5
:1051C000660F771F881FBB1F621773078407BA0714
:1051D00020F0621B730B840BBA0BEE1F88F7E0956F
:1051E000089504D06894B111FEC00895E1D088F00C
:1051F0009F5790F0B92F9927B751A0F0D1F0660FC3
:10520000771F881F991F1AF0BA95C9F712C0B130DD
:1052100081F0E8D0B1E00895E5C0672F782F8827A6
:10522000B85F39F0B93FCCF3869577956795B3951C
:10523000D9F73EF490958095709561957F4F8F4F8B
:105240009F4F0895E89409C097FB3EF49095809590
:10525000709561957F4F8F4F9F4F9923A9F0F92F3C
:1052600096E9BB279395F695879577956795B795BA
:10527000F111F8CFFAF4BB0F11F460FF1BC06F5FA0
:105280007F4F8F4F9F4F16C0882311F096E911C0B2
:10529000772321F09EE8872F762F05C0662371F0D3
:1052A00096E8862F70E060E02AF09A95660F771FE7
:1052B000881FDAF7880F9695879597F90895990FC3
:1052C0000008550FAA0BE0E8FEEF16161706E807D0
:1052D000F907C0F012161306E407F50798F0621BF1
:1052E000730B840B950B39F40A2661F0232B242BC6
:1052F000252B21F408950A2609F4A140A6958FEFE5
:10530000811D811D089597F99F6780E870E060E036
:1053100008959FEF80EC0895DF93CF931F930F9331
:10532000FF92EF92DF927B018C01689405C0DA2E28
:10533000EF0176D0FE01E894A59125913591459134
:105340005591AEF3EF018EDEFE019701A801DA94CC
:1053500079F7DF90EF90FF900F911F91CF91DF9140
:10536000089500240A9416161706180609060895CB
:1053700000240A9412161306140605060895092E31
:105380000394000C11F4882352F0BB0F40F4BF2BA0
:1053900011F460FF04C06F5F7F4F8F4F9F4F0895E0
:1053A00057FD9058440F551F59F05F3F71F04795D6
:1053B000880F97FB991F61F09F3F79F087950895BB
:1053C000121613061406551FF2CF4695F1DF08C0DA
:1053D000161617061806991FF1CF869571056105F7
:1053E00008940895E894BB2766277727CB0197F99F
:1053F000089565DF08F48FEF08959B01AC0160E02C
:1054000070E080E89FE385CE0BD0B9CFAADF28F00B
:10541000AFDF18F0952309F076CF7BCF1124E3CFCF
:10542000BFDFA0F3959FD1F3950F50E0551F629F0A
:10543000F001729FBB27F00DB11D639FAA27F00DED
:10544000B11DAA1F649F6627B00DA11D661F829F14
:105450002227B00DA11D621F739FB00DA11D621FF9
:10546000839FA00D611D221F749F3327A00D611D16
:10547000231F849F600D211D822F762F6A2F1124F8
:105480009F5750408AF0E1F088234AF0EE0FFF1F4B
:10549000BB1F661F771F881F91505040A9F79E3F82
:1054A000510570F030CF9FCF5F3FECF3983EDCF3B7
:1054B000869577956795B795F795E7959F5FC1F7BF
:1054C000FE2B880F911D9695879597F90895FA01FF
:1054D000EE0FFF1F30962105310599F16115710519
:1054E00061F48038BFE39B0749F1689490388105E7
:1054F00061F08038BFEF9B0741F0992342F5FF3FF1
:10550000E1053105210511F1E8940894E795D901E9
:10551000AA2329F4AB2FBE2FF85FD0F310C0FF5F92
:1055200070F4A695E0F7F73950F019F0FF3A38F427
:105530009F779F930CD00F9007FC905808953EF0F2
:10554000E8CE60E070E080E89FE308954FE79F7742
:105550005F934F933F932F93C9D02F913F914F91DA
:105560005F9152DF47C011F40EF4D3CE6FC020DF3D
:10557000D0F39923D9F3CEF39F57550B87FF74D0FF
:105580000024A0E640EA900180585695979528F4AB
:10559000805C660F771F881F20F0261737074807A3
:1055A00030F4621B730B840B202931294A2BA695FA
:1055B00017940794202531254A2758F7660F771F3F
:1055C000881F20F026173707480730F4620B730B4B
:1055D000840B200D311D411DA09581F7B901842F49
:1055E0009158880F96958795089519F40EF08BCEF3
:1055F000F9CE8FCEDDDEC8F39638C0F707F80F92EC
:10560000E8942BE33AEA48EB5FE70CDF0F920F9246
:105610000F924DB75EB70F92A9D0E4EEF0E07CDEBA
:105620004F915F91EF91FF91E595EE1FFF1F49F0BC
:10563000FE57E0684427EE0F441FFA95E1F74195C5
:10564000550B1BD00F9007FED8CE08959F3F31F029
:10565000915020F4879577956795B795880F911DA0
:105660009695879597F9089591505040660F771F4A
:10567000881FD2F7089547CEE9CF9ADEE8F3992341
:10568000D9F3940F511DBBF39150504094F059F051
:10569000882332F0660F771F881F91505040C1F762
:1056A0009E3F510544F7880F911D9695879597F970
:1056B00008955F3FACF0983E9CF0BB2786957795A8
:1056C0006795B79508F4B1609395C1F7BB0F58F78C
:1056D00011F460FFE8CF6F5F7F4F8F4F9F4FE3CF95
:1056E00082CE0EF0B3CF15CE68940DCE61DEC8F336
:1056F0009923D1F3C6F3DF93CF931F930F93FF92B8
:10570000C92FDD2788232AF02197660F771F881F6E
:10571000DAF720E030E040E85FEB9FE3883920F0E3
:10572000803E30F021968F778CDCECE0F1E003C016
:1057300088DCE9E3F1E0F0DD8B01BE01EC01FB2E3A
:105740006F5771097595771F880B990B7DDD28E1DF
:1057500032E741E35FE364DEAF2D9801AE01FF90D5
:105760000F911F91CF91DF917DDC09CEFA01DC0111
:10577000AA0FBB1F9B01AC01BF5728F42227332778
:10578000442750781FC0B75188F4AB2F00244695AA
:1057900037952795011CA395D2F3002069F0220FBD
:1057A000331F441FB395DAF30DD04ACC6130710535
:1057B000A0E88A07B94630F49B01AC016627772739
:1057C00088279078309621F0208331834283538359
:1057D0000895A1E21A2EAA1BBB1BFD010DC0AA1F32
:1057E000BB1FEE1FFF1FA217B307E407F50720F04A
:1057F000A21BB30BE40BF50B661F771F881F991FC5
:105800001A9469F760957095809590959B01AC010D
:10581000BD01CF0108950790F691E02D19940F93E3
:105820001F93CF93DF938230910510F482E090E0D4
:10583000E0916F09F091700920E030E0C0E0D0E025
:1058400023C04081518148175907A8F048175907CC
:1058500061F482819381209719F09B838A832EC003
:105860009093700980936F0929C02115310529F0A3
:105870004217530710F0A90102C0BE01DF010281E7
:105880001381EF019A01F8013097D9F621153105FE
:1058900009F1281B390B2430310590F412968D91B3
:1058A0009C9113976115710521F0FB01938382830D
:1058B00004C09093700980936F09FD01329644C033
:1058C000FD01E20FF31F81939193225031092D9333
:1058D0003C933AC020916D0930916E09232B41F41D
:1058E000209102023091030230936E0920936D09DA
:1058F00020910002309101022115310541F42DB7AC
:105900003EB74091040250910502241B350BE091F3
:105910006D09F0916E09E217F307A0F42E1B3F0BFF
:105920002817390778F0AC014E5F5F4F2417350711
:1059300048F04E0F5F1F50936E0940936D0981939D
:10594000919302C0E0E0F0E0CF01DF91CF911F9191
:105950000F910895EF92FF920F931F93CF93DF93D0
:10596000009709F48EC0DC01129713961C921E92C8
:105970001297E0906F09F0907009E114F10489F436
:105980002D913C911197280F391F80916D099091AD
:105990006E098217930789F5B0936E09A0936D097C
:1059A00070C0E70120E030E001C0EA01CA17DB0760
:1059B00038F44A815B819E0141155105B1F722C03F
:1059C000AC0142505109FA01D383C2830081118195
:1059D000BC01600F711F6C177D0761F468817981CC
:1059E000600F711F6E5F7F4F718360836A817B815F
:1059F000738362832115310529F4B0937009A09354
:105A00006F093FC0F901B383A283E901499159911C
:105A1000C40FD51FAC17BD0771F4DC019E918E91A8
:105A2000840F951F02969183808312968D919C918D
:105A3000139793838283A0E0B0E002C0D7017C017A
:105A4000F701828193810097C9F7C70102962081EF
:105A50003181820F931F20916D0930916E092817B3
:105A6000390779F4109729F41092700910926F0990
:105A700004C013961C921E921297F0926E09E09247
:105A80006D09DF91CF911F910F91FF90EF900895D5
:105A9000FB01DC014150504030F08D9101908019A4
:105AA00019F40020B9F7881B990B0895F894FFCFDB
:105AB000000071092000000000000000000000004C
:105AC000000000007A4400007A4400007A44016C2F
:105AD00065644F6E006C65644F66660063616C00C0
