:100000000C943A010C946B010C946B010C946B01F1
:100010000C946B010C946B010C946B010C946B01B0
:100020000C946B010C946B010C946B010C946B01A0
:100030000C946B010C94421A0C946B010C946B01A0
:100040000C946B010C946B010C946B010C946B0180
:100050000C946B010C946B010C946B010C94460F87
:100060000C946B010C94E4110C94B8120C946B0179
:100070000C946B010C946B010C946B010C946B0150
:100080000C946B010C946B010C946B010C946B0140
:100090000C9411120C94F7120C946B010C94601CCC
:1000A0000C946B010C946B010C946B010C946B0120
:1000B0000C946B010C946B010C946B010C946B0110
:1000C0000C946B010C946B010C946B010C943E121C
:1000D0000C9436130C946B010C946B120C947513E6
:1000E0000C946B0107634236B79BD8A71A39685640
:1000F00018AEBAAB558C1D3CB7CC5763BD6DEDFD4A
:10010000753EF6177231BF000000803F0800000006
:10011000BE922449123EABAAAA2ABECDCCCC4C3EFC
:1001200000000080BEABAAAAAA3E00000000BF00EB
:100130000000803F0000000000084178D3BB4387E7
:10014000D1133D190E3CC3BD4282AD2B3E68EC82FB
:1001500076BED98FE1A93E4C80EFFFBE01C4FF7F80
:100160003F00000000000000090A02080B0C0D0708
:100170000603040100000000000000000000000071
:10018000000000000000000000000000000000006F
:10019000000011100F00000000000000000000002F
:1001A000000000000000000000000000010210201C
:1001B000200808102040102040800201020108049D
:1001C0000201010204081020408080402010080431
:1001D000020180040201804020100804020108048A
:1001E00002010102040810204080010204081020CE
:1001F00040800505050507050808080802020202F7
:100200000A0A0808040404040101010101010101B2
:100210000303030303030303040707070C0C0C0C7D
:100220000C0C0C0C02020202060606060606060666
:100230000B0B0B0B0B0B0B0B0000220025002800F7
:100240002B002E00310034000201000005010801DE
:100250000B0100002100240027002A002D0030009F
:10026000330001010000040107010A0102003E0FF2
:1002700034147D1B11241FBECFEFD1E2DEBFCDBFF2
:1002800000E00CBF12E0A0E0B2E0ECE7FDE400E02B
:100290000BBF02C007900D92A835B107D9F719E03E
:1002A000A8E5B2E001C01D92A03BB107E1F712E062
:1002B000C4E7D2E000E006C022970109FE010BBFAF
:1002C0000E94B826CE36D10780E00807A9F70E9421
:1002D00052150C94BC260C9400002F923F924F9222
:1002E0005F926F927F928F929F92AF92BF92CF92C6
:1002F000DF92EF92FF920F931F93CF93DF93CDB7CF
:10030000DEB7C058D1090FB6F894DEBF0FBECDBF1F
:100310005C016B01EE964FAFEE97EF965FAFEF97F4
:100320003901AD96ECAEFDAE0EAF1FAFAD971C011F
:10033000E12CF12C9C01245F3F4FEB963FAF2EAF99
:10034000EB97CB010C96C158DF4F99838883CF5729
:10035000D0407BC0D8012D913D914D915C91F10130
:1003600060817181828193810E947E24A396AEADCB
:10037000BFADA3972D913D914D915C910E949B2221
:10038000A6966FAFA697AE967FAFAE97E2968FAF69
:10039000E297E6969FAFE697472F382F292F862FB3
:1003A000942FA32FB22FA396EEADFFADA39780831A
:1003B0009183A283B383F801EC19FD09C158DF4F83
:1003C00028813981CF57D040E20FF31F208131813E
:1003D00042815381D4016D917D918D919C910E94B8
:1003E0007E249B01AC01A696BFADA697AE96AFAD9D
:1003F000AE97E296FFADE297E696EFADE6976B2FEC
:100400007A2F8F2F9E2F0E949B22A396EEADFFADD9
:10041000A3976193719381939193A396FFAFEEAFEE
:10042000A397FFEF4F1A5F0A0C5F1F4F23E042169E
:10043000510409F08FCF3CE0E30EF11C84E0280E5C
:10044000311C94E2E916F104A1F0D301AE0DBF1DF9
:10045000A396BFAFAEAFA3978601412C512C4101AB
:100460008A189B08EB96EEADFFADEB978E0E9F1EA4
:1004700071CFD3012D903D904D905C901397509685
:100480008D909D90AD90BC9053979096CD90DD90BF
:10049000ED90FC909397A5019401C201B1010E94D7
:1004A0009B22A70196010E949B22AD962CAD3DADEB
:1004B0004EAD5FADAD970E949B2269837A838B839B
:1004C0009C83D30154968D919D910D90BC91A02D4C
:1004D000A5968CAF9DAFAEAFBFAFA597D3015C968D
:1004E0008D919D910D90BC91A02DA9968CAF9DAF43
:1004F000AEAFBFAFA9979C01AD01A5966CAD7DAD28
:100500008EAD9FADA5970E949A226D837E838F83C7
:100510009887D30158968D919D910D90BC91A02DF7
:10052000E1968CAF9DAFAEAFBFAFE197D301189608
:100530008D919D910D90BC91A02DE5968CAF9DAFB6
:10054000AEAFBFAFE5979C01AD01E1966CAD7DAD5F
:100550008EAD9FADE1970E949A2269877A878B873B
:100560009C87D30114968D919D910D90BC91A02DE7
:10057000E9968CAF9DAFAEAFBFAFE997D3011C96A4
:100580008D919D910D90BC91A02DED968CAF9DAF5E
:10059000AEAFBFAFED979C01AD01E9966CAD7DADFF
:1005A0008EAD9FADE9970E949A226D877E878F87D7
:1005B000988BA5019401C201B1010E949A22A70162
:1005C00096010E949A22AD962CAD3DAD4EAD5FAD29
:1005D000AD970E949B226D8B7E8B8F8B988FED96B3
:1005E0002CAD3DAD4EAD5FADED97E9966CAD7DADFB
:1005F0008EAD9FADE9970E949B22698F7A8F8B8F7A
:100600009C8FE1962CAD3DAD4EAD5FADE197E5968B
:100610006CAD7DAD8EAD9FADE5970E949B226D8F39
:100620007E8F8F8F98A3A2019101C501B4010E9412
:100630009A22A70196010E949A22AD962CAD3DAD5B
:100640004EAD5FADAD970E949B2269A77AA78BA79D
:100650009CA7A9962CAD3DAD4EAD5FADA997A596D3
:100660006CAD7DAD8EAD9FADA5970E949B226DA711
:100670007EA78FA798ABC201B1019058A501940144
:100680000E949A22A70196010E949B22AD962CAD52
:100690003DAD4EAD5FADAD970E949B2221966CAFF4
:1006A0007DAF8EAF9FAF21975E01B5E0AB0EB11C61
:1006B000DE01519681E090E022C08501040F151FF4
:1006C000F801C080D180E280F3808D01060F171FF2
:1006D000F801C082D182E282F3822F5F3F4F405FF8
:1006E0005F4F6C5F7F4F281739073CF30196F4E0AA
:1006F000AF0EB11C50968430910509F430C160E012
:1007000070E040E050E020E030E0D7CFD8011D920B
:100710001D921D921C921397412C11965C9011977B
:1007200012966C90129713967C90EE96BFADEE9752
:10073000A296BFAFA297EF96EFADEF97A396EFAF5C
:10074000A397A3968EAC9FACA397E12CF12CD40178
:100750006D917D918D919D914D01F501EE0DFF1DE6
:1007600020813181428153810E947E249B01AC0112
:10077000642D752D862D972D0E949B222B013C0107
:10078000B4E0EB0EF11CE0E1EE16F10401F7CB0151
:10079000D301F80181939193A193B1938F01F0E17B
:1007A000AF0EB11CE3962EAD3FADE39702171307D2
:1007B00009F0ACCFCE018F5B9F4FA7969FAF8EAF56
:1007C000A7978C01612C712C812C912CD8011D9242
:1007D0001D921D921C921397212C11963C901197FB
:1007E00012964C90129713965C9071E5A72EB12C3F
:1007F000AC0EBD1EE12CF12CF5016191719181913E
:1008000091915F01F601EE0DFF1D20813181428142
:1008100053810E947E249B01AC01622D732D842D97
:10082000952D0E949B221B012C01F4E0EF0EF11C80
:1008300020E1E216F10401F7CB01D201F801819326
:100840009193A193B1938F01222D332D4A2F552DD2
:10085000622D732D842D952D0E947E249B01AC0169
:10086000662D772D882D992D0E949B223B014C01EE
:10087000F0E1CF0ED11CAF962EAD3FADAF97021772
:10088000130709F0A3CF20E030E0A901772D992DBF
:100890000E94FF22811110C080E090E0A0E8BFE339
:1008A00025968CAF9DAFAEAFBFAF2597612C712C55
:1008B00050E8852E6FE3962E662D772D882D992D85
:1008C0000E9431256B017C0101E010E0A796AEADDE
:1008D000BFADA7976D917D918D919D91A796BFAF6B
:1008E000AEAFA797A70196010E9403234B015C01BD
:1008F000762F272F392D4A2D5B2DA396EEADFFAD18
:10090000A39760817181828193810E949A229F774F
:100910002AE037ED43EA5BE30E947324181614F4CF
:1009200000E010E0C401D501A396EEADFFADA397A2
:1009300081939193A193B193A396FFAFEEAFA39749
:10094000A7962EAD3FADA797AF968EAD9FADAF9753
:100950002817390709F0BACF012B79F519C0A5E698
:10096000B0E0AB96BFAFAEAFAB97E1E5F0E0EC0F18
:10097000FD1F7096E396FFAFEEAFE39721E430E002
:100980002C0F3D1F205F3F4FAF963FAF2EAFAF976D
:10099000AB968EAD9FADAB970197AB969FAF8EAFE9
:1009A000AB97892B51F0CC24C394D12CCC0EDD1EF7
:1009B00056018E010F5A1F4FA9CEC058DF4F0FB6F8
:1009C000F894DEBF0FBECDBFDF91CF911F910F9185
:1009D000FF90EF90DF90CF90BF90AF909F908F905F
:1009E0007F906F905F904F903F902F90089580E0A0
:1009F00090E0ACE1B2EC8093C8029093C902A0935E
:100A0000CA02B093CB0280E090E0A0E4B0E480930F
:100A1000CC029093CD02A093CE02B093CF0280E09F
:100A200090E0A0E5B1E48093D0029093D102A0932E
:100A3000D202B093D30280E090EAA1E8B4E48093BC
:100A4000D4029093D502A093D602B093D70280E04F
:100A500090E4A1E8B4E48093D8029093D902A093E3
:100A6000DA02B093DB0280E090E2A0E8B4E4809385
:100A7000DC029093DD02A093DE02B093DF0280E0FF
:100A800090E0A4EAB2E48093E0029093E102A093A4
:100A9000E202B093E30280E090E0A9E0B3EC80933F
:100AA000E4029093E502A093E602B093E70280E0AF
:100AB00090E0A0E7B1E48093E8029093E902A0936C
:100AC000EA02B093EB0280E090E8AEE1B4E48093F8
:100AD000EC029093ED02A093EE02B093EF0280E05F
:100AE00090E0A2E2B4E48093F0029093F102A0932C
:100AF000F202B093F30280E090E8A6E0B4E48093C1
:100B0000F4029093F502A093F602B093F70286E008
:100B100090E09093F9028093F80286E696E2ACE9C1
:100B2000B3EC8093FA029093FB02A093FC02B09383
:100B3000FD0280E090E8A3EEB2E48093FE02909381
:100B4000FF02A0930003B093010383E393E5A9E7B9
:100B5000B4E48093020390930303A0930403B0933F
:100B6000050386E696EEA6E8B3E480930603909329
:100B70000703A0930803B093090383E393EBA6EC68
:100B8000B2EC80930A0390930B03A0930C03B093F1
:100B90000D038AE999EDADEFB3EC80930E039093CA
:100BA0000F03A0931003B093110386E696E6A1E429
:100BB000B4E48093220390932303A0932403B0937F
:100BC00025038AE999E1A7E0B3EC8093260390938B
:100BD0002703A0932803B09329038DEC9CE1AEE199
:100BE000B4E480932A0390932B03A0932C03B09337
:100BF0002D038DEC9CECA9E5B2EC80932E03909331
:100C00002F03A0933003B093310383E393E3AFEA60
:100C1000B1E48093320390933303A0933403B093F1
:100C2000350383E393EAA9E0B4E480933603909319
:100C30003703A0933803B093390386E696EEA6EF08
:100C4000B2EC80934A0390934B03A0934C03B09370
:100C50004D0383E393EFACE3B4EC80934E039093A6
:100C60004F03A0935003B093510380E090E8A0E3BA
:100C7000B4E48093520390935303A0935403B0932E
:100C800055038DEC9CEEA1E0B4EC80935603909359
:100C90005703A0935803B093590386E696E6A6E956
:100CA000B0E480935A0390935B03A0935C03B093EA
:100CB0005D0386E696EEADECB2EC80935E03909316
:100CC0005F03A0936003B09361038DEC9CEEAAE6F2
:100CD000B4EC8093720390937303A0937403B09366
:100CE000750380E090E0A1E7B3EC809376039093E6
:100CF0007703A0937803B093790386E696EAABED89
:100D0000B3EC80937A0390937B03A0937C03B0931E
:100D10007D0380E090EFAFE2B4E480937E03909394
:100D20007F03A0938003B093810386E696E6AEEC42
:100D3000B1E48093820390938303A0938403B093E0
:100D400085038DEC9CE0A4E0B3E48093860390934C
:100D50008703A0938803B093890380E090E4A9EE11
:100D6000B3E480939A0390939B03A0939C03B09366
:100D70009D0380E090E4A0E4B4EC80939E03909304
:100D80009F03A093A003B093A10383E393EBA4EE8E
:100D9000B3EC8093A2039093A303A093A403B09316
:100DA000A50386E696E0A8E8B3E48093A6039093B3
:100DB000A703A093A803B093A9038AE999E6A6E341
:100DC000B4EC8093AA039093AB03A093AC03B093CD
:100DD000AD038DEC9CE4A3E3B3E48093AE03909366
:100DE000AF03A093B003B093B1038DEC9CECACE5E2
:100DF000B2EC8093C2039093C303A093C403B09357
:100E0000C5038DEC9CE2ACE6B4E48093C6039093FA
:100E1000C703A093C803B093C90383E393E1ADEC88
:100E2000B3EC8093CA039093CB03A093CC03B0930D
:100E3000CD0386E696EEA8E5B3E48093CE039093C7
:100E4000CF03A093D003B093D1038AE999EDA7EF24
:100E5000B3E48093D2039093D303A093D403B093CD
:100E6000D5038AE999EDAFE0B3E48093D60390937C
:100E7000D703A093D803B093D9031092BC02109269
:100E8000BD021092BE021092BF021092C0021092D8
:100E9000C1021092C2021092C3021092C4021092B8
:100EA000C5021092C6021092C7020895EF92FF92F7
:100EB0000F931F93CF93DF9361E08DE00E94C010EA
:100EC00040E052EC61E070E087E896E00E94B413E5
:100ED000CFE1D0E0E12CF12C00EA12E46E2D7F2D61
:100EE000802F912F0E9470232EE130E040E050E0EF
:100EF00088E00E941C176EE170E080E090E00E94A4
:100F0000CC0F2E2D3F2D402F512F6E2D7F2D802F5A
:100F1000912F0E949B220E9470232EE130E040E03E
:100F200050E088E00E941C176EE170E080E090E0E5
:100F30000E94CC0F2DEC3CEC4CE85FE36E2D7F2D36
:100F4000802F912F0E947E247B018C01219731F606
:100F500080EF98E00E943E1B62E08CEC95E00E94DE
:100F6000B91E8CEC95E00E94C01D4AEF60E18CEC4C
:100F700095E00E949F1D42E063E086E995E00E94B3
:100F80004F2186E995E00E94521F42E060E088E828
:100F900095E00E947D2288E895E00E94A12140E131
:100FA00063E288E895E00E9480218DE69FEBABE844
:100FB000BEE38093B8029093B902A093BA02B093B3
:100FC000BB0285E194E7A2E8BFE38093B40290936B
:100FD000B502A093B602B093B70280E090E0A8EC0F
:100FE000B2E48093B0029093B102A093B202B093A6
:100FF000B3028EE495E2AEE9BEE38093A40290933F
:10100000A502A093A602B093A70287E19EE8ADEBEC
:10101000BCE38093A8029093A902A093AA02B09384
:10102000AB0281EF98E6A3E7BFEB8093AC0290930D
:10103000AD02A093AE02B093AF021092980210924C
:10104000990210929A0210929B0210929C021092A6
:101050009D0210929E0210929F0280E090E0A0E814
:10106000BFE38093A0029093A102A093A202B09349
:10107000A3028093580290935902A0935A02B0930E
:101080005B0210925C0210925D0210925E0210925E
:101090005F0210926002109261021092620210923E
:1010A000630210926402109265021092660210921E
:1010B000670210927E0510927F05109280051092B3
:1010C000810581E090E090938705809386050E94DA
:1010D000F7041092820510928305109284051092F5
:1010E000850510927A0510927B0510927C0510926E
:1010F0007D05DF91CF911F910F91FF90EF900895A3
:101100002F923F924F925F926F927F928F929F9217
:10111000AF92BF92CF92DF92EF92FF920F931F9305
:10112000CF93DF93CDB7DEB7AE970FB6F894DEBF9F
:101130000FBECDBF86E995E00E94192188E895E0B1
:101140000E94CC218CEC95E00E94331E60937002CB
:101150007093710280937202909373028CEC95E00D
:101160000E946C1E609368027093690280936A0209
:1011700090936B020E94A20F6B017C0180917E050F
:1011800090917F05A0918005B0918105A7019601FE
:10119000281B390B4A0B5B0BCA01B9010E949C2327
:1011A0002DEB37E346E855E30E947E2460937A05F1
:1011B00070937B0580937C0590937D05C0927E059E
:1011C000D0927F05E0928005F09281052091C802BF
:1011D0003091C9024091CA025091CB0260919605AC
:1011E0007091970580919805909199050E949A2297
:1011F0002091D4023091D5024091D6025091D7026D
:101200000E94032360938002709381028093820284
:10121000909383022091CC023091CD024091CE0276
:101220005091CF0260919A0570919B0580919C0529
:1012300090919D050E949A222091D8023091D90266
:101240004091DA025091DB020E94032360938402F2
:101250007093850280938602909387022091D0023A
:101260003091D1024091D2025091D30260919E05FB
:1012700070919F058091A0059091A1050E949A22EE
:101280002091DC023091DD024091DE025091DF02BC
:101290000E940323609388027093890280938A02DC
:1012A00090938B022091E0023091E1024091E202A2
:1012B0005091E3026091A2057091A3058091A4056D
:1012C0009091A5050E949A222091EC023091ED02A6
:1012D0004091EE025091EF020E94032360938C0232
:1012E00070938D0280938E0290938F022091E4027E
:1012F0003091E5024091E6025091E7026091A60527
:101300007091A7058091A8059091A9050E949A2245
:101310002091F0023091F1024091F2025091F302DB
:101320000E94032360939002709391028093920233
:10133000909393022091E8023091E9024091EA02F1
:101340005091EB026091AA057091AB058091AC05BC
:101350009091AD050E949A222091F4023091F502FD
:101360004091F6025091F7020E9403236093940289
:101370007093950280939602909397022091BC02FD
:101380003091BD024091BE025091BF02609188052C
:101390007091890580918A0590918B050E949A220F
:1013A00029E732E240EA59E30E947E246093740206
:1013B0007093750280937602909377022091C00219
:1013C0003091C1024091C2025091C30260918C05DC
:1013D00070918D0580918E0590918F050E949A22C3
:1013E00029E732E240EA59E30E947E2460937802C2
:1013F0007093790280937A0290937B022091C402C9
:101400003091C5024091C6025091C702609190058B
:101410007091910580919205909193050E949A2276
:1014200029E732E240EA59E30E947E2460937C027D
:1014300070937D0280937E0290937F026091700290
:1014400070917102809172029091730220E030E5F8
:101450004DE754E40E94821E60936C0270936D020B
:1014600080936E0290936F0298E9892E92E0992EF4
:101470000DEC15E024EAA22E22E0B22E30E8C32EB5
:1014800032E0D32E45EE442E45E0542E5CE8652E26
:1014900052E0752EE12CF12CD4016D917D918D914E
:1014A0009D914D0120E030E040E05FE30E947E240A
:1014B000F8016083718382839383D5016D917D915F
:1014C0008D919D915D019B01AC010E949B22F801D1
:1014D0006487758786879787D6016D917D918D91F9
:1014E0009D916D0120E030E040E05FE30E947E24AA
:1014F000F2016083718382839383D3016D917D9127
:101500008D919D913D019B01AC010E949B22F201B6
:101510006487758786879787FFEFEF1AFF0A0C5F4E
:101520001F4F24E0420E511C33E0E316F10409F092
:10153000B3CFC0907A05D0907B05E0907C05F09009
:101540007D058091740290917502A0917602B09110
:101550007702BC01CD019058A70196010E947E241C
:1015600020E030E040E05FE30E947E241B012C017C
:101570008091780290917902A0917A02B0917B02D9
:10158000BC01CD019058A70196010E947E2420E065
:1015900030E040E05FE30E947E243B014C018091FB
:1015A0007C0290917D02A0917E02B0917F02BC01ED
:1015B000CD019058A70196010E947E2420E030E0E2
:1015C00040E05FE30E947E245B018C01222D332DDD
:1015D000442D552D622D732D842D952D0E947E2432
:1015E00020E030E040E85FE30E949B226B017C0139
:1015F000262D372D482D592D662D772D882D992D87
:101600000E947E249B01AC01C701B6010E949B226F
:101610006B017C012A2D3B2D402F512F6A2D7B2DF4
:10162000802F912F0E947E249B01AC01C701B6013F
:101630000E949B220E9431256B017C019B01AC0121
:1016400060E070E080E89FE30E9403236CA37DA329
:10165000898B9A8BA7019601622D732D842D952D70
:101660000E9403236B8B7C8B8D8B9E8BA701960135
:10167000662D772D882D992D0E9403236F8B788FEF
:10168000898F9A8FA70196016A2D7B2D802F912F2C
:101690000E940323162F072F382E292E80915802DF
:1016A00090915902A0915A02B0915B028D879E875A
:1016B000AF87B88BC0905C02D0905D02E0905E0274
:1016C000F0905F028090600290906102A0906202B0
:1016D000B090630240906402509065026090660290
:1016E000709067029C01AD01BCA1ADA1E989FA89A6
:1016F0006B2F7A2FCF010E947E2469837A838B839C
:101700009C83A7019601BB89AC89ED89FE896B2F6B
:101710007A2FCF010E947E249B01AC0169817A81DE
:101720008B819C810E949A2269837A838B839C831C
:10173000A5019401BF89A88DE98DFA8D6B2F7A2FB1
:10174000CF010E947E249B01AC0169817A818B814B
:101750009C810E949A2269837A838B839C83A30154
:101760009201D801F1016B2F7A2F8F2F9E2F0E94AB
:101770007E249B01AC0169817A818B819C810E94CE
:101780009A2269837B8F8C8F9D8FA7019601BCA1C4
:10179000ADA1E989FA896B2F7A2FCF010E947E24AF
:1017A0006D837E838F8398877B896C899D898E89E1
:1017B000272F362F492F582F6D857E858F85988945
:1017C0000E947E249B01AC016D817E818F81988572
:1017D0000E949B226D837E838F839887A301920151
:1017E000BF89A88DE98DFA8D6B2F7A2FCF010E94CA
:1017F0007E249B01AC016D817E818F8198850E9442
:101800009B226D837E838F839887A5019401D801E5
:10181000F1016B2F7A2F8F2F9E2F0E947E249B0128
:10182000AC016D817E818F8198850E949A226D83A3
:101830007E8F8F8F98A3A5019401BCA1ADA1E989EA
:10184000FA896B2F7A2FCF010E947E2469877A87CD
:101850008B879C877F89688D998D8A8D272F362F5E
:10186000492F582F6D857E858F8598890E947E240B
:101870009B01AC0169857A858B859C850E949B22A2
:1018800069877A878B879C87A7019601D801F10128
:101890006B2F7A2F8F2F9E2F0E947E249B01AC01ED
:1018A00069857A858B859C850E949B2269877A87CA
:1018B0008B879C87A3019201BB89AC89ED89FE8946
:1018C0006B2F7A2FCF010E947E249B01AC0169858A
:1018D0007A858B859C850E949A22698779A38AA341
:1018E0009BA3A3019201BCA1ADA179886A886B2F4B
:1018F0007A2F872D962D0E947E242B013C01B80162
:10190000C101272F362F492F582F6D857E858F8552
:1019100098890E947E249B01AC01C301B2010E9400
:101920009B222B013C01A5019401BB89AC89ED8967
:101930001E896B2F7A2F8E2F912F0E947E249B0160
:10194000AC01C301B2010E949B224B015C01A701C3
:101950009601BF89A88DE98D1A8D6B2F7A2F8E2F56
:10196000912F0E947E249B01AC01C501B4010E940D
:101970009A228B018EA79BA759814B8D3C8D2D8D73
:10198000852F942FA32FB22F809358029093590242
:10199000A0935A02B0935B025D814E8D3F8D28A1CA
:1019A000852F942FA32FB22F80935C0290935D021A
:1019B000A0935E02B0935F02598549A13AA12BA181
:1019C000852F942FA32FB22F8093600290936102F2
:1019D000A0936202B09363023EA52BA5802F912FA6
:1019E000A32FB22F8093640290936502A0936602A6
:1019F000B093670279816B8D9C8D8D8D272F362F4B
:101A0000492F582FDB017C016B2F7A2F8F2D9E2DB4
:101A10000E947E246A8B7B8B8C8B9D8B7D816E8D4F
:101A20009F8D88A1272F362F492F582FDB017C014E
:101A30006B2F7A2F8F2D9E2D0E947E246E8B7F8B95
:101A4000888F998F798569A19AA18BA1272F362F2D
:101A5000492F582FDB017C016B2F7A2F8F2D9E2D64
:101A60000E947E246D87798B1C019EA58BA5202F5B
:101A7000312F492F582FFC01602F712F8F2F9E2F50
:101A80000E947E246B017C017E896F89988D898DEF
:101A9000272F362F492F582FBA89AB89BC88AD889C
:101AA0006B2F7A2F8B2D9A2D0E949B22BD85A989A1
:101AB0002B2F3A2F422D532D0E949A222C2D3D2D53
:101AC0004E2D5F2D0E949A226093FD057093FE05B6
:101AD0008093FF0590930006798569A19AA18BA157
:101AE000272F362F492F582FBD81AE8DBF8CA8A030
:101AF0006B2F7A2F8B2D9A2D0E947E244B015C0137
:101B00009EA58BA5202F312F492F582FB981AB8D42
:101B10007C8C6D8C6B2F7A2F872D962D0E947E24C6
:101B20002B013C01762F272F352D462D572D682D63
:101B3000792D8A2D9B2D0E949B229B01AC010E9436
:101B40009B22609301067093020680930306909394
:101B500004069EA58BA5202F312F492F582FBD811C
:101B6000AE8DEF8DF8A16B2F7A2FCF010E947E24CE
:101B70006A8F7CA38DA39EA3798569A19AA18BA16D
:101B8000272F362F492F582FB981AB8DEC8DFD8D26
:101B90006B2F7A2FCF010E947E246FA378A789A78D
:101BA0009AA7762F68A5982F8AA5272F362F492F19
:101BB000582FBA8DACA1EDA1FEA16B2F7A2FCF01CA
:101BC0000E949A229B01AC010E949B226093050611
:101BD000709306068093070690930806242D352DF2
:101BE000462D572D682D792D8A2D9B2D0E949A22E6
:101BF0009B01AC010E949B226093090670930A0628
:101C000080930B0690930C067E896F89988D898D41
:101C1000272F362F492F582FBA89AB89BC88AD881A
:101C20006B2F7A2F8B2D9A2D0E949A224B015C01EB
:101C30007D856989272F362F422D532D682D792DCB
:101C40008A2D9B2D0E949B222C2D3D2D4E2D5F2DEC
:101C50000E949A2260930D0670930E0680930F06E1
:101C6000909310069EA58BA5202F312F492F582F1A
:101C7000B985A9A1EAA11BA16B2F7A2F8E2F912FD5
:101C80000E947E248B018A8B99877D816E8D9F8D2A
:101C900088A1272F362F492F582FB981AB8D7C8CE7
:101CA0006D8C6B2F7A2F872D962D0E947E242B0111
:101CB0003C01762F272F352D462D572DFA89E985A2
:101CC000602F712F8F2F9E2F0E949B229B01AC01B2
:101CD0000E949B2260931106709312068093130654
:101CE000909314067FA168A599A58AA5272F362F62
:101CF000492F582FBA8DACA1EDA1FEA16B2F7A2FE1
:101D0000CF010E949B229B01AC010E949B22609309
:101D10001506709316068093170690931806242DC7
:101D2000352D462D572DFA89E985602F712F8F2F7C
:101D30009E2F0E949A229B01AC010E949B226093DD
:101D4000190670931A0680931B0690931C067D85D6
:101D50006989272F362F422D532D682D792D8A2DF5
:101D60009B2D0E949A222C2D3D2D4E2D5F2D0E94E1
:101D70009B2260931D0670931E0680931F0690930E
:101D80002006E12CF12C87012DEF35E048E552E0EB
:101D900065EE75E08DEC95E00E946D016DE272E0FC
:101DA00087E896E00E94971508E512E0D8016D914A
:101DB0007D918D919D918D0120E030E048EC52E4C1
:101DC0000E947E24AB01BC0122E030E087E896E06F
:101DD0000E941A1761E272E087E896E00E94971568
:101DE000B2E008361B0711F762E272E087E896E07E
:101DF0000E94B615609182057091830580918405DB
:101E00009091850524E630E040E050E00E94902665
:101E100021E0672B682B692B09F020E0622F8DE011
:101E20000E94F8108091820590918305A09184050D
:101E3000B09185050196A11DB11D809382059093F7
:101E40008305A0938405B0938505AE960FB6F894EC
:101E5000DEBF0FBECDBFDF91CF911F910F91FF90DD
:101E6000EF90DF90CF90BF90AF909F908F907F903A
:101E70006F905F904F903F902F9008958CEC95E07D
:101E80000E949B1D86E995E00C94C71E1F920F923D
:101E90000FB60F9211242F933F938F939F93AF937D
:101EA000BF938091210690912206A0912306B091C4
:101EB000240630912906232F2D5F2D3720F401961B
:101EC000A11DB11D05C0232F2A570296A11DB11DCA
:101ED000209329068093210690932206A09323063F
:101EE000B09324068091250690912606A09127069E
:101EF000B09128060196A11DB11D809325069093EF
:101F00002606A0932706B0932806BF91AF919F9114
:101F10008F913F912F910F900FBE0F901F901895AA
:101F20000F931F938FB7F89400912106109122060A
:101F300020912306309124068FBFB801C9011F915B
:101F40000F9108950F931F939FB7F8940091250662
:101F500010912606209127063091280686B5A89B69
:101F600006C08F3F21F00F5F1F4F2F4F3F4F9FBF86
:101F7000322F212F102F0027080F111D211D311D79
:101F800042E0000F111F221F331F4A95D1F7B801FD
:101F9000C9011F910F910895CF92DF92EF92FF92A6
:101FA000CF93DF936B017C010E94A20FEB010EC067
:101FB0000E94A20F6C1B7D0B683E734038F081E0DD
:101FC000C81AD108E108F108C851DC4FC114D10486
:101FD000E104F10469F7DF91CF91FF90EF90DF907A
:101FE000CF900895789484B5826084BD84B5816073
:101FF00084BD85B5826085BD85B5816085BDEEE611
:10200000F0E0808181608083E1E8F0E010828081EF
:1020100082608083808181608083E0E8F0E080815D
:1020200081608083E1EBF0E0808184608083E0EB7D
:10203000F0E0808181608083E1E9F0E0808182606E
:102040008083808181608083E0E9F0E0808181602D
:102050008083E1EAF0E0808182608083808181601A
:102060008083E0EAF0E0808181608083E1E2F1E05A
:10207000808182608083808181608083E0E2F1E002
:10208000808181608083EAE7F0E0808184608083E2
:10209000808182608083808181608083808180688C
:1020A00080831092C1000895893009F443C088F4F8
:1020B000843029F138F4823059F1E8F4813009F0A4
:1020C0005EC023C0873061F188F5863009F057C0C3
:1020D00023C08D3009F440C020F48B30A9F1C0F545
:1020E0002DC0803109F442C0813109F443C08F30E2
:1020F00009F045C037C0809180008F7703C0809180
:1021000080008F7D80938000089584B58F7702C012
:1021100084B58F7D84BD08958091B0008F7703C012
:102120008091B0008F7D8093B000089580919000E1
:102130008F7707C0809190008F7D03C080919000C1
:10214000877F8093900008958091A0008F7707C0CB
:102150008091A0008F7D03C08091A000877F809335
:10216000A0000895809120018F7707C08091200101
:102170008F7D03C080912001877F80932001089587
:10218000CF93DF9390E0FC01E455FE4F4491FC01B6
:10219000EE50FE4F8491882341F190E0880F991F03
:1021A000FC01EE5AFD4F25913491D901885C9D4F79
:1021B000FC0185919491C82FD92F9FB7F8948C91E9
:1021C000611106C0409584238C938881842308C0C4
:1021D000623041F4242F209582238C938881842BB4
:1021E000888302C0842B8C939FBFDF91CF91089589
:1021F0000F931F93CF93DF931F92CDB7DEB7282F96
:1022000030E0F901EA59FE4F8491F901E455FE4F9F
:102210001491F901EE50FE4F04910023D1F0882370
:1022200021F069830E9454106981E02FF0E0EE0FE5
:10223000FF1FE85CFD4F85919491DC019FB7F894F6
:102240008C91611103C01095812301C0812B8C9367
:102250009FBF0F90DF91CF911F910F910895FC01C7
:1022600084859585FC01E05CFF4F20813181FC0174
:10227000EE5BFF4F80819181281B390B2F73332731
:10228000C9010895FC0184859585FC01E05CFF4F40
:1022900040815181FC01EE5BFF4F2081318142176B
:1022A000530741F00190F081E02DE80FF91F2081E4
:1022B00030E002C02FEF3FEFC9010895FC01848593
:1022C0009585FC01E05CFF4F40815181FC01EE5B94
:1022D000FF4F208131814217530781F0A081B181E6
:1022E000A80FB91F8C91208131812F5F3F4F2F7331
:1022F000332731832083282F30E002C02FEF3FEFB8
:10230000C9010895FC0186859785FC01E05CFF4FBB
:10231000DC01AE5BBF4F408151812D913C91119703
:1023200042175307C1F70895CF93DF93FC018685C9
:102330009785DC01A05CBF4F2D913C9111972F5FD9
:102340003F4F2F733327EC01CE5BDF4F488159811C
:1023500024173507D9F30D90BC91A02DA80FB91FF4
:102360006C93A685B785A05CBF4F11963C932E93C6
:10237000A689B7892C9181E090E0058C02C0880F76
:10238000991F0A94E2F7282B2C9381E090E0DF91CB
:10239000CF910895FB01E05CFF4F208131812F5FD9
:1023A0003F4F2F733327DB01AE5BBF4F4D915C91E5
:1023B0002417350739F0A081B181A60FB71F8C9380
:1023C00031832083089508951F920F920FB60F92C4
:1023D00011240BB60F922F933F934F935F936F93FC
:1023E0007F938F939F93AF93BF93EF93FF938091CE
:1023F000C60062E878E00E94CA11FF91EF91BF9198
:10240000AF919F918F917F916F915F914F913F918C
:102410002F910F900BBE0F900FBE0F901F9018952D
:1024200008951F920F920FB60F9211240BB60F92C0
:102430002F933F934F935F936F937F938F939F93CC
:10244000AF93BF93EF93FF938091CE006AEF77E055
:102450000E94CA11FF91EF91BF91AF919F918F910F
:102460007F916F915F914F913F912F910F900BBE94
:102470000F900FBE0F901F90189508951F920F9206
:102480000FB60F9211240BB60F922F933F934F93D9
:102490005F936F937F938F939F93AF93BF93EF93CC
:1024A000FF938091D60062E777E00E94CA11FF9106
:1024B000EF91BF91AF919F918F917F916F915F91BC
:1024C0004F913F912F910F900BBE0F900FBE0F9029
:1024D0001F90189508951F920F920FB60F92112416
:1024E0000BB60F922F933F934F935F936F937F930E
:1024F0008F939F93AF93BF93EF93FF938091360198
:102500006AEE76E00E94CA11FF91EF91BF91AF9100
:102510009F918F917F916F915F914F913F912F91FB
:102520000F900BBE0F900FBE0F901F90189587E86D
:1025300096E00E942F11892B11F00E94E31188E68A
:1025400096E00E942F11892B11F00E94101289E44D
:1025500096E00E942F11892B11F00E943D128AE211
:1025600096E00E942F11892B11F00C946A120895A5
:102570001F920F920FB60F9211240BB60F922F934A
:102580003F938F939F93EF93FF9320917E08309119
:102590007F0880918008909181082817390731F4CD
:1025A0008091C1008F7D8093C10014C0E0918008AC
:1025B000F0918108E25CF74F208180918008909132
:1025C000810801968F7399279093810880938008E2
:1025D0002093C600FF91EF919F918F913F912F9192
:1025E0000F900BBE0F900FBE0F901F9018951F926B
:1025F0000F920FB60F9211240BB60F922F933F93A9
:102600008F939F93EF93FF932091F6073091F707F5
:102610008091F8079091F9072817390731F48091D4
:10262000C9008F7D8093C90014C0E091F807F09134
:10263000F907EA54F84F20818091F8079091F90743
:1026400001968F7399279093F9078093F807209349
:10265000CE00FF91EF919F918F913F912F910F901D
:102660000BBE0F900FBE0F901F9018951F920F92E8
:102670000FB60F9211240BB60F922F933F938F93A7
:102680009F93EF93FF9320916E0730916F07809196
:102690007007909171072817390731F48091D100A4
:1026A0008F7D8093D10014C0E0917007F091710785
:1026B000E25DF84F2081809170079091710701963B
:1026C0008F73992790937107809370072093D6009A
:1026D000FF91EF919F918F913F912F910F900BBEA2
:1026E0000F900FBE0F901F9018951F920F920FB66C
:1026F0000F9211240BB60F922F933F938F939F93BA
:10270000EF93FF932091E6063091E7068091E8066B
:102710009091E9062817390731F4809131018F7DB6
:102720008093310114C0E091E806F091E906EA5582
:10273000F94F20818091E8069091E90601968F7308
:1027400099279093E9068093E80620933601FF913C
:10275000EF919F918F913F912F910F900BBE0F9012
:102760000FBE0F901F901895CF92DF92EF92FF92BD
:10277000CF93DF93EC016A017B01411581EE58078D
:1027800061057105F9F0EC89FD8981E090E00E8C1E
:1027900002C0880F991F0A94E2F7808360E079E015
:1027A0008DE390E0A70196010E946E262150310929
:1027B000410951095695479537952795211580E18F
:1027C000380798F0EC89FD89108260E874E88EE1A2
:1027D00090E0A70196010E946E262150310941091F
:1027E00051095695479537952795E889F98930839A
:1027F000EA89FB892083EE89FF89408181E090E0AE
:102800009C010A8C02C0220F331F0A94E2F7422B6C
:102810004083EE89FF8940819C010B8C02C0220F0E
:10282000331F0A94E2F7422B4083EE89FF894081EF
:102830009C010C8C02C0220F331F0A94E2F7422B3A
:102840004083EE89FF8920810D8C02C0880F991F7B
:102850000A94E2F7809582238083DF91CF91FF90E5
:10286000EF90DF90CF900895CF9310928A06109248
:10287000890688EE93E0A0E0B0E080938B06909309
:102880008C06A0938D06B0938E0629E332E0309338
:1028900088062093870642E858E0509394064093B8
:1028A00093064EE358E0509396064093950645EC08
:1028B00050E0509398064093970644EC50E05093B4
:1028C0009A064093990640EC50E050939C06409342
:1028D0009B0641EC50E050939E0640939D0646ECCB
:1028E00050E05093A00640939F06C4E0C093A10619
:1028F000F3E0F093A206E7E0E093A30675E070939F
:10290000A40661E06093A50610926B0610926A0619
:1029100080936C0690936D06A0936E06B0936F063D
:1029200030936906209368064AEF57E05093750686
:102930004093740646EB57E0509377064093760633
:102940004DEC50E050937906409378064CEC50E003
:1029500050937B0640937A0648EC50E050937D06F6
:1029600040937C0649EC50E050937F0640937E06EE
:102970004EEC50E05093810640938006C09382064F
:10298000F0938306E0938406709385066093860631
:1029900010924C0610924B0680934D0690934E0673
:1029A000A0934F06B093500630934A0620934906F1
:1029B00042E757E050935606409355064EE257E0E3
:1029C000509358064093570645ED50E050935A06F1
:1029D0004093590644ED50E050935C0640935B06EB
:1029E00040ED50E050935E0640935D0641ED50E0AF
:1029F0005093600640935F0646ED50E050936206A8
:102A000040936106C0936306F0936406E093650605
:102A1000709366066093670610922D0610922C063E
:102A200080932E0690932F06A0933006B093310624
:102A300030932B0620932A068AEE96E09093370671
:102A40008093360686EA96E090933906809338069E
:102A500085E391E090933B0680933A0684E391E00E
:102A600090933D0680933C0680E391E090933F066F
:102A700080933E0681E391E0909341068093400667
:102A800086E391E09093430680934206C093440608
:102A9000F0934506E0934606709347066093480618
:102AA000CF9108950E94F20F0E945607C7E9D2E124
:102AB0000E9480082097E1F30E949712F9CFCF92ED
:102AC000DF92EF92FF920F931F93CF93DF936C01EE
:102AD000EB017A01E60EF71E00E010E00BC06991F1
:102AE000D601ED91FC910190F081E02DC601199580
:102AF000080F191FCE15DF0591F7C801DF91CF919F
:102B00001F910F91FF90EF90DF90CF900895DB0120
:102B10000D900020E9F7AD0141505109461B570BBC
:102B2000DC01ED91FC910280F381E02D19940C946D
:102B30008715DC01ED91FC910190F081E02D199455
:102B40000F931F93CF93DF93EC016DE00E949915D3
:102B50008C016AE0CE010E9499159C01200F311F63
:102B6000C901DF91CF911F910F9108950F931F938A
:102B7000CF93DF93EC010E9487158C01CE010E9458
:102B8000A0159801280F391FC901DF91CF911F911E
:102B90000F9108954F925F926F927F929F92AF92A2
:102BA000BF92CF92DF92EF92FF920F931F93CF933A
:102BB000DF93CDB7DEB7A1970FB6F894DEBF0FBE97
:102BC000CDBF5C016A017B01922E19A281E08217C0
:102BD00010F08AE0982E8E010F5D1F4F492C512C6A
:102BE000612C712CC701B601A30192010E946E26CF
:102BF0008C2D929E80191124015011098A3010F4F5
:102C0000805D01C0895CF801808369017A01C1148B
:102C1000D104E104F10431F7B801C5010E94871520
:102C2000A1960FB6F894DEBF0FBECDBFDF91CF9156
:102C30001F910F91FF90EF90DF90CF90BF90AF90DA
:102C40009F907F906F905F904F900895CF92DF920A
:102C5000EF92FF920F931F93CF93DF93EC016A01E2
:102C60007B012115310579F4E881F9810190F0812A
:102C7000E02D642FDF91CF911F910F91FF90EF9086
:102C8000DF90CF9019942A30310519F477FD0EC0EA
:102C90002AE0B701A601CE01DF91CF911F910F91DC
:102CA000FF90EF90DF90CF900C94CA156DE20E94D8
:102CB00099158C0144275527BA014C195D096E09F5
:102CC0007F092AE0CE010E94CA15080F191FC8010A
:102CD000DF91CF911F910F91FF90EF90DF90CF90F8
:102CE00008957F928F929F92AF92BF92CF92DF9280
:102CF000EF92FF920F931F93CF93DF938C014A01C2
:102D00005B01F22E20E030E0A901C501B4010E9470
:102D1000FF2287FF0AC06DE2C8010E949915EC01ED
:102D2000B7FAB094B7F8B09402C0C0E0D0E0E12C9C
:102D300060E070E080E09FE307C020E030E040E228
:102D400051E40E940323E394EF10F7CF262F372F8F
:102D5000482F592FC501B4010E949B22762E872E41
:102D6000982EA92E0E947023B62EC72ED82EE92E9B
:102D70000E949C239B01AC01672D782D892D9A2DF3
:102D80000E949A22A62E972E882E792E2AE04B2D6D
:102D90005C2D6D2D7E2DC8010E94CA15C80FD91F4C
:102DA000FF20B9F165E472E0C8010E948715C80FE1
:102DB000D91F2FC020E030E040E251E46A2D792D88
:102DC000882D972D0E947E24762EC72ED82EE92E90
:102DD0000E946B234B01AA2497FCA094BA2C2AE0F2
:102DE00030E0B501A401C8010E942616C80FD91F02
:102DF000C501B4010E949E239B01AC01672D7C2D6F
:102E00008D2D9E2D0E949A22A62E972E882E792EE9
:102E1000FA94F110CFCFCE01DF91CF911F910F9196
:102E2000FF90EF90DF90CF90BF90AF909F908F90EA
:102E30007F9008950C9471163F924F925F926F921B
:102E40007F928F929F92AF92BF92CF92DF92EF923A
:102E5000FF920F931F93CF93DF9300D01F92CDB7B4
:102E6000DEB78B0129013A0190910002981721F0F9
:102E70009F3F09F0ABC204C0ECE6F2E03490FEC024
:102E800080930002ECE6F2E034909FEF391609F4EB
:102E90009DC2E2E03E1609F459C0E31534F0332038
:102EA00079F0F1E03F12EAC02BC094E0391609F442
:102EB00099C039160CF470C0E5E03E12DFC0B8C00E
:102EC00014BC15BC94B5926094BD95B5916095BD48
:102ED000282F30E0F901EE50FE4FE491F0E0EE0FC4
:102EE000FF1FE85CFD4F459154914093EA085093D1
:102EF000EB08F901E455FE4F24912093E908C0C086
:102F000010928000109281009091810098609093BF
:102F1000810090918100916090938100282F30E092
:102F2000F901EE50FE4FE491F0E0EE0FFF1FE85C78
:102F3000FD4F459154914093E3085093E408F90103
:102F4000E455FE4F24912093E2089AC01092B000FD
:102F50001092B1009091B00092609093B000909167
:102F6000B10091609093B100282F30E0F901EE504C
:102F7000FE4FE491F0E0EE0FFF1FE85CFD4F45913E
:102F800054914093DC085093DD08F901E455FE4F5D
:102F900024912093DB0874C010929000109291004D
:102FA0009091910098609093910090919100916020
:102FB00090939100282F30E0F901EE50FE4FE491FC
:102FC000F0E0EE0FFF1FE85CFD4F459154914093F8
:102FD000D5085093D608F901E455FE4F249120936B
:102FE000D4084EC01092A0001092A1009091A100B0
:102FF00098609093A1009091A10091609093A1009E
:10300000282F30E0F901EE50FE4FE491F0E0EE0F92
:10301000FF1FE85CFD4F459154914093CE085093BB
:10302000CF08F901E455FE4F24912093CD0828C024
:1030300010922001109221019091210198609093AB
:10304000210190912101916090932101282F30E07E
:10305000F901EE50FE4FE491F0E0EE0FFF1FE85C47
:10306000FD4F459154914093C7085093C808F9010A
:10307000E455FE4F24912093C60802C037FCA6C138
:1030800061E00E94C0104801A12CB12C60E072E107
:103090008AE790E0A50194010E949026332019F060
:1030A000F2E03F12B7C029833A834B835C83690106
:1030B0007A0181E0C81AD108E108F1089FEFC9162A
:1030C000D104E104F10409F008F49AC060E472E468
:1030D0008FE090E0A50194010E94902669017A0199
:1030E000E1E0CE1AD108E108F108F2E03F1219C080
:1030F0008FEFC816D104E104F10409F008F462C1AD
:1031000060E970ED83E090E0A50194010E949026B3
:1031100069017A0191E0C91AD108E108F10883E058
:1031200001C082E0EFEFCE16D104E104F10409F012
:1031300008F467C068E478EE81E090E0A5019401AE
:103140000E94902669017A01F1E0CF1AD108E108C6
:10315000F1083320E1F082E038121BC09FEFC9165E
:10316000D104E104F10409F008F42EC164E274EF23
:1031700080E090E0A50194010E94902669017A0107
:10318000E1E0CE1AD108E108F10885E003C083E050
:1031900001C084E0FFEFCF16D104E104F10489F10E
:1031A00080F162E17AE780E090E0A50194010E945D
:1031B000902669017A0181E0C81AD108E108F10876
:1031C000311002C084E001C086E09FEFC916D1042F
:1031D000E104F104B1F0A8F0C980DA80EB80FC8052
:1031E0009AE0F594E794D794C7949A95D1F7E1E0E3
:1031F000CE1AD108E108F108332031F087E007C08A
:1032000081E0332011F003C085E085BD49C0809383
:10321000B10046C069017A01F1E0CF1AD108E10896
:10322000F108C114D10481E0E806F10488F068E4F3
:1032300078EE81E090E0A50194010E94902669015A
:103240007A0191E0C91AD108E108F10893E001C0C0
:1032500091E0E1E03E1207C080918100887F892BD8
:10326000809381001DC0F3E03F1207C08091910060
:10327000887F892B8093910013C084E0381207C0A7
:103280008091A100887F892B8093A10009C0E5E08F
:103290003E1206C080912101887F892B80932101F5
:1032A000411451046104710471F0D801AA0FBB1FCD
:1032B000A30192010E94632628EE33E040E050E033
:1032C0000E946E2603C02FEF3FEFA901F2E03F16E8
:1032D00099F1F31534F0332071F081E0381276C0A3
:1032E00019C094E0391609F449C03916ACF1E5E08B
:1032F0003E126CC055C0C7BC2093EC083093ED085B
:103300004093EE085093EF0880916E0082608093A6
:103310006E005CC0D0928900C09288002093E508BE
:103320003093E6084093E7085093E80880916F00D7
:10333000826080936F004AC0C092B3002093DE0881
:103340003093DF084093E0085093E10880917000CB
:103350008260809370003AC0D0929900C092980029
:103360002093D7083093D8084093D9085093DA08AF
:103370008091710082608093710028C0D092A90072
:10338000C092A8002093D0083093D1084093D2086F
:103390005093D3088091720082608093720016C0AF
:1033A000D0922901C09228012093C9083093CA08FD
:1033B0004093CB085093CC08809173008260809337
:1033C000730004C082E023CF84E021CF0F900F90E0
:1033D0000F900F90DF91CF911F910F91FF90EF9081
:1033E000DF90CF90BF90AF909F908F907F906F9025
:1033F0005F904F903F9008958230A9F028F4882381
:1034000049F0813049F509C0843009F1E8F0853090
:1034100019F520C010926E00089580916F008D7F85
:1034200080936F000895809170008D7F809370006D
:1034300081E08093B0008091B100887F84608093A8
:10344000B1001092B3000895109271000895109287
:1034500072000895109273000895CF93C82F809141
:1034600000028C1307C0ECE6F2E084919FEF90938A
:10347000000201C08FEF0E94FC1960E08C2FCF91F9
:103480000C94F8101F920F920FB60F9211240BB6E6
:103490000F922F933F934F935F936F937F938F93ED
:1034A0009F93AF93BF93EF93FF938091DE0890912A
:1034B000DF08A091E008B091E108892B8A2B8B2BC3
:1034C00051F19091DB08E091DC08F091DD088081FA
:1034D000892780838091DE089091DF08A091E00821
:1034E000B091E108181619061A061B06C4F480915B
:1034F000DE089091DF08A091E008B091E108019703
:10350000A109B1098093DE089093DF08A093E00839
:10351000B093E10804C0809100020E942D1AFF912F
:10352000EF91BF91AF919F918F917F916F915F913B
:103530004F913F912F910F900BBE0F900FBE0F90A8
:103540001F9018952091200930E080912109281BB7
:103550003109C901089580912109909120098917A5
:1035600050F4E82FF0E0EE5DF64F208130E08F5F01
:103570008093210902C02FEF3FEFC9010895E09128
:10358000210980912009E81730F4F0E0EE5DF64F54
:10359000208130E002C02FEF3FEFC9010895089568
:1035A000CF92DF92EF92FF920F931F93CF93DF930F
:1035B0007C01CB018A012091FC08222391F0EB01D0
:1035C0006B01C40ED51E09C06991D701ED91FC9124
:1035D0000190F081E02DC7011995CC15DD05A1F70B
:1035E00003C0642F0E94371CC801DF91CF911F9147
:1035F0000F91FF90EF90DF90CF900895CF93DF93DE
:103600001F92CDB7DEB769832091FC082223D1F049
:103610002091FD08203240F021E030E0FC013383AE
:10362000228320E030E015C08091FE08E82FF0E012
:10363000E150F74F998190838F5F8093FE088093CC
:10364000FD0805C061E0CE0101960E94371C21E013
:1036500030E0C9010F90DF91CF910895FC011382F2
:10366000128248EE53E060E070E044835583668345
:1036700077838BE492E091838083089510922109EF
:10368000109220091092FE081092FD080C94811BE4
:10369000862F413208F040E262E279E00E949F1BEF
:1036A0001092210980932009089521E00C94481B71
:1036B00021E00C94481B81E08093FC0860931F0973
:1036C0001092FE081092FD0808950C945B1B0F9356
:1036D000062F21E04091FD086FEF78E080911F09EF
:1036E0000E94E41B1092FE081092FD081092FC0844
:1036F0000F91089561E00C94671B80EF98E00C94A3
:103700002E1B10924B0981E08093490910924809C1
:1037100061E084E10E94F81061E085E10E94F81008
:10372000E9EBF0E080818E7F808380818D7F8083D4
:1037300088E48093B80085E48093BC00089541320A
:1037400008F03FC090914B099111FCCF91E090930C
:103750004B09209349092FEF209342091092470902
:10376000242F21502093460990934A0990914A09A9
:10377000880F892B80934A0980914809813041F450
:103780001092480980914A098093BB0085EC01C0E2
:1037900085EE8093BC0080914B098130E1F38091EC
:1037A0004709841710F4409147092CE439E0FB01E4
:1037B000D90102C08D9181938A2F821B8417D0F387
:1037C00001C040E0842F08950F93413208F046C0B5
:1037D00090914B099111FCCF92E090934B0900938B
:1037E00049099FEF90934209109247094093460977
:1037F000FB016CE479E0DB0102C091919D939A2F6B
:10380000961B9417D0F310924A0990914A09880F99
:10381000892B80934A0980914809813041F41092A4
:10382000480980914A098093BB0085EC01C085EE70
:103830008093BC00222321F080914B098230E1F378
:10384000809142098F3F61F080914209803251F0AE
:1038500080914209803341F483E007C081E005C0D4
:1038600080E003C082E001C084E00F9108956132DE
:1038700098F420914B09243089F460934409FC01A9
:103880008CE699E0DC0102C021912D932A2F281BA0
:103890002617D0F380E0089581E0089582E008952E
:1038A00085ED8093BC008091BC0084FDFCCF10921C
:1038B0004B09089585EC8093BC0010924B09089544
:1038C0001F920F920FB60F9211240BB60F922F93E7
:1038D0003F934F935F936F937F938F939F93AF9398
:1038E000BF93EF93FF938091B900887F803609F4EE
:1038F0009FC058F5883209F45BC090F4803109F418
:1039000052C038F4882309F4F8C0883009F0F9C0AF
:103910004AC0883109F44CC0803209F0F2C05CC062
:10392000803409F46BC038F4803309F455C088330F
:1039300009F0E7C054C0803509F454C0883509F453
:1039400062C0883409F0DDC0DAC0883909F4CBC020
:10395000A8F4883709F46CC038F4883609F468C0D4
:10396000803709F0CEC064C0883809F4BCC0803903
:1039700009F464C0803809F0C4C060C0803B09F419
:103980008AC038F4803A09F46BC0883A09F0B9C0AB
:1039900082C0803C09F4ABC0883C09F4A8C0883BD5
:1039A00009F0AFC08DC080914A098093BB0012C05E
:1039B0009091470980914609981788F580914709A9
:1039C000E82FF0E0E45BF64F90819093BB008F5FAF
:1039D0008093470985EC88C08093420990C080930A
:1039E000420956C0809147099091BB00E82FF0E052
:1039F000E45BF64F90838F5F80934709909147096E
:103A0000809146096DC0809147099091BB00E82FD5
:103A1000F0E0E45BF64F90838F5F809347098091DD
:103A2000490981116CC081E08093480984EA60C033
:103A300083E080934B0910924309CCCF80914309D6
:103A4000803208F050C0809143099091BB00E82F6C
:103A5000F0E0E057F64F90838F5F80934309BACF31
:103A600080914309803230F4E0914309F0E0E0575F
:103A7000F64F10820E94501C60914309E0918C091E
:103A8000F0918D0970E080E999E019951092430951
:103A90000E945A1C36C084E080934B09109245095D
:103AA00010924409E0918E09F0918F091995809147
:103AB0004409811105C081E08093440910926C098A
:103AC00080914509E82FF0E0E459F64F90819093FA
:103AD000BB008F5F8093450990914509809144090F
:103AE000981708F477CF85E88093BC000AC085EC6E
:103AF0008093BC0010924B0904C0109242090E94AE
:103B0000501CFF91EF91BF91AF919F918F917F9149
:103B10006F915F914F913F912F910F900BBE0F903E
:103B20000FBE0F901F901895DC01ED91FC91019054
:103B3000F081E02D19942DE5FC01208308951F9359
:103B4000CF93DF931F92CDB7DEB7162FFC016081B4
:103B500080EF98E049830E945B1B612F80EF98E023
:103B60000E94FE1A4981642F80EF98E00E94FE1A9D
:103B700080EF98E00F90DF91CF911F910C947A1B0A
:103B800040EE60E20C949F1D1F93CF93DF93EC01F6
:103B9000162F688180EF98E00E945B1B612F80EFF9
:103BA00098E00E94FE1A60E080EF98E00E94671B98
:103BB00041E0688180EF98E00E94551B80EF98E01B
:103BC0000E94AB1AC82F80EF98E00E947A1B8C2FBE
:103BD000DF91CF911F910895FF920F931F93CF9381
:103BE000DF938C01FC01608180EF98E00E945B1BF9
:103BF00068EA70E080EF98E00E94941D80EF98E002
:103C00000E947A1B43E0F801608180EF98E00E94F7
:103C1000551B80EF98E00E94A21A0397D4F380EF1F
:103C200098E00E94AB1A082F80EF98E00E94AB1A30
:103C3000F82E80EF98E00E94AB1A10E020E030E010
:103C4000282BDF2DF0E0CF2FCE01A0E0B0E0082B35
:103C5000192B2A2B3B2BB801C901DF91CF911F9162
:103C60000F91FF9008950E94EC1D0E949E2320E07A
:103C700030E040E859E30E947E240895CF93DF931B
:103C8000EC01688180EF98E00E945B1B6BEA70E0BA
:103C900080EF98E00E94941D80EF98E00E947A1BCC
:103CA00042E0688180EF98E00E94551B80EF98E029
:103CB0000E94A21A0297D4F380EF98E00E94AB1AF8
:103CC000C82F80EF98E00E94AB1A382F22272C2BA8
:103CD000C901DF91CF9108950E943E1EBC01882743
:103CE00077FD8095982F0E949E2320E030E040EFE2
:103CF00053E40E94032320E030E04AE252E40E94B1
:103D00009B2208950E9403232EE434ED42E45EE3F7
:103D10000E94E124262F372F482F592F60E070E0B2
:103D200080E89FE30E949A222DEC3AE24DE257E4AC
:103D30000E947E2408956FE00E94C41D91E08B3B99
:103D400009F090E0892F0895CF93DF93EC018CE583
:103D50008883CE010E949B1E811107C08DE5888358
:103D6000CE01DF91CF910C949B1E81E0DF91CF912A
:103D70000895662319F0613041F402C02CE501C0BA
:103D80002DE5FC0120830C949B1E0C94A41EFC01C9
:103D900080E090E0A7E0B4E4808F918FA28FB38F92
:103DA00080E090E0AAEFB3E4848F958FA68FB78F61
:103DB00080E090E0A4E3B3E480A391A3A2A3B3A323
:103DC00040E050E062E074EC44A355A366A377A3FF
:103DD00040E050E86EE074EC40A751A762A773A7DB
:103DE00040E050E860E474EC44A755A766A777A7C5
:103DF00083E081AB88E182AB14AA13AA15AA0895C7
:103E0000EF92FF921F93CF93DF931F92CDB7DEB750
:103E10007C01162FFC0162A980EF98E049830E9483
:103E20005B1B612F80EF98E00E94FE1A4981642F8E
:103E300080EF98E00E94FE1A80EF98E00E947A1BC3
:103E4000F70180AB0F90DF91CF911F91FF90EF9022
:103E50000895EF92FF921F93CF93DF931F92CDB7F8
:103E6000DEB77C01162F6EE170E080EF98E04983A9
:103E70000E94651B612F80EF98E00E94FE1A498125
:103E8000642F80EF98E00E94FE1A80EF98E00E9475
:103E90007A1BF70180AB0F90DF91CF911F91FF90BC
:103EA000EF900895CF93DF93EC0147E260E20E9428
:103EB000001F89A9823029F448E063E2CE010E9404
:103EC000001F40E062E0CE01DF91CF910C94291FEA
:103ED0000F931F93CF93DF938C01EB0177FF31C0DA
:103EE0006D3F8FEF7807C1F02CF46C3FFFEF7F0739
:103EF00041F517C06E3F8FEF780749F06F3FEFEF46
:103F00007E07F9F4F80181A9811110C015C0F801EC
:103F100081A981110EC013C0F80181A981110CC0C3
:103F200005C0F80181A981110AC003C0C7E0D0E033
:103F300008C0C8E0D0E005C0C5E0D0E002C0C6E0DF
:103F4000D0E06EE170E080EF98E00E94651BBE015A
:103F500080EF98E00E94941D80EF98E00E947A1B09
:103F6000F80180AB41E050E06EE170E080EF98E056
:103F70000E94581B80EF98E00E94AB1AC82F80EF78
:103F800098E00E947A1B8C2FDF91CF911F910F91A7
:103F900008956F927F928F929F92AF92BF92CF922D
:103FA000DF92EF92FF920F931F93CF93DF93EC0179
:103FB0006AA980EF98E00E945B1B68EA70E080EFDE
:103FC00098E00E94941D80EF98E00E947A1B88ABD5
:103FD00046E06AA980EF98E00E94551B0E94900F6E
:103FE0006B011DAA0EC08BA99CA9892B51F00E94C0
:103FF000900F6C197D098BA99CA98617970708F467
:104000005EC080EF98E00E94A21A069764F380EFEA
:1040100098E00E94AB1A782E80EF98E00E94AB1ACD
:10402000682E80EF98E00E94AB1A982E80EF98E0FF
:104030000E94AB1A882E80EF98E00E94AB1AD82E0F
:1040400080EF98E00E94AB1AC82EB62CA12CA728AE
:1040500084E0B594A7948A95E1F7B501882777FDA8
:104060008095982F0E949E23688379838A839B83FF
:10407000F82CE12CE92894E0F594E7949A95E1F77F
:10408000B701882777FD8095982F0E949E236C8327
:104090007D838E839F831C2D00E00D2924E01595E0
:1040A00007952A95E1F7B801882777FD8095982F25
:1040B0000E949E23688779878A879B8702C081E058
:1040C0008DABDF91CF911F910F91FF90EF90DF901B
:1040D000CF90BF90AF909F908F907F906F900895FA
:1040E000AF92BF92CF92DF92EF92FF920F931F9306
:1040F000CF93DF93EC016EE170E080EF98E00E94D7
:10410000651B63E070E080EF98E00E94941D80EFF3
:1041100098E00E947A1B88AB46E050E06EE170E0C8
:1041200080EF98E00E94581B0E94900F8B011DAAFF
:104130000EC08BA99CA9892B51F00E94900F601B87
:10414000710B8BA99CA98617970708F465C080EFAF
:1041500098E00E94A21A069764F380EF98E00E940C
:10416000AB1AA82E80EF98E00E94AB1AB82E89A94E
:10417000811115C080EF98E00E94AB1AC82E80EF25
:1041800098E00E94AB1AD82E80EF98E00E94AB1AFC
:10419000082F80EF98E00E94AB1A182F14C080EF10
:1041A00098E00E94AB1A082F80EF98E00E94AB1AAB
:1041B000182F80EF98E00E94AB1AC82E80EF98E08D
:1041C0000E94AB1AD82EFA2CE12CEB28B7018827D5
:1041D00077FD8095982F0E949E236C877D878E8720
:1041E0009F877C2D60E06D29882777FD8095982F2B
:1041F0000E949E23688B798B8A8B9B8B702F60E04B
:10420000612B882777FD8095982F0E949E236C8BC9
:104210007D8B8E8B9F8B02C081E08DABDF91CF9128
:104220001F910F91FF90EF90DF90CF90BF90AF90D4
:104230000895CF93DF93EC010E94C91FCE01DF9157
:10424000CF910C947020CF93DF93EC0168E170E084
:1042500080EF98E00E94651B60E270E080EF98E0DC
:104260000E94941D80EF98E00E947A1B88AB41E089
:1042700050E068E170E080EF98E00E94581B80EF0A
:1042800098E00E94A21A892B31F080EF98E00E94FA
:10429000AB1A80E001C081E0DF91CF910895CF9308
:1042A000DF93EC0169AB623018F0623089F40DC025
:1042B000411101C008C0413009F407C00E94232108
:1042C000813009F402C088E101C089E18AAB15C0E0
:1042D0000E942321813029F489E18AAB82E089ABF5
:1042E0000CC088E18AAB6FE070E0CE010E94681FCD
:1042F00091E08C3309F090E099ABDF91CF91089574
:104300001F93CF93DF931F92CDB7DEB7162FFC011B
:10431000658580EF98E049830E945B1B612F80EFE9
:1043200098E00E94FE1A4981642F80EF98E00E9475
:10433000FE1A80EF98E00F90DF91CF911F910C94BF
:104340007A1B4FE060E20C9480211F93CF93DF93A0
:10435000EC01162F6D8580EF98E00E945B1B612FAA
:1043600080EF98E00E94FE1A80EF98E00E947A1B8E
:1043700041E06D8580EF98E00E94551B80EF98E04A
:104380000E94AB1AC82F80EF98E00E947A1B8C2FF6
:10439000DF91CF911F9108956F927F928F929F929C
:1043A000AF92BF92CF92DF92EF92FF920F931F9343
:1043B000CF93DF93EC016D8580EF98E00E945B1B4B
:1043C000E091F008F091F1080190F081E02D68EAA9
:1043D00080EF98E0199580EF98E00E947A1B46E004
:1043E0006D8580EF98E00E94551B80EF98E00E9459
:1043F000A21A0697D4F380EF98E00E94AB1A782EA9
:1044000080EF98E00E94AB1A682E80EF98E00E943F
:10441000AB1A982E80EF98E00E94AB1A882E80EF9E
:1044200098E00E94AB1AD82E80EF98E00E94AB1A59
:10443000C82EB62CA12CA728B501882777FD80951A
:10444000982F0E949E23688379838A839B83F82C0C
:10445000E12CE928B701882777FD8095982F0E94E5
:104460009E236C837D838E839F831C2D00E00D290A
:10447000B801882777FD8095982F0E949E23688732
:1044800079878A879B87DF91CF911F910F91FF904A
:10449000EF90DF90CF90BF90AF909F908F907F90E4
:1044A0006F900895CF93DF93EC0188E68D876FE0DE
:1044B000CE010E94A521833D11F491E01AC089E646
:1044C0008D876FE0CE010E94A521833DB1F38AE67E
:1044D0008D876FE0CE010E94A521843D71F38BE6AC
:1044E0008D876FE0CE010E94A52191E0843D09F007
:1044F00090E0892FDF91CF910895FC0164876130AE
:1045000019F0623099F408C0411102C028E607C0D2
:10451000413061F429E603C0411104C02AE6FC01E0
:10452000258706C0413011F42BE6F9CF0C945222B6
:1045300081E008955058BB27AA270ED09AC18BD18D
:1045400030F090D120F031F49F3F11F41EF45BC1A4
:104550000EF4E095E7FB51C1E92F9CD180F3BA1727
:10456000620773078407950718F071F49EF5B4C1CC
:104570000EF4E0950B2EBA2FA02D0B01B90190017E
:104580000C01CA01A0011124FF27591B99F0593FC2
:1045900050F4503E68F11A16F040A22F232F342F0A
:1045A0004427585FF3CF469537952795A795F04058
:1045B0005395C9F77EF41F16BA0B620B730B840B6D
:1045C000BAF09150A1F0FF0FBB1F661F771F881F25
:1045D000C2F70EC0BA0F621F731F841F48F487957D
:1045E00077956795B795F7959E3F08F0B3CF93956C
:1045F000880F08F09927EE0F979587950895D9D0E1
:1046000008F481E008950CD034C12CD140F023D1BE
:1046100030F021F45F3F19F0F0C051115EC1F3C0DA
:1046200039D198F39923C9F35523B1F3951B550B51
:10463000BB27AA2762177307840738F09F5F5F4F75
:10464000220F331F441FAA1FA9F333D00E2E3AF0B6
:10465000E0E830D091505040E695001CCAF729D0D0
:10466000FE2F27D0660F771F881FBB1F261737071F
:104670004807AB07B0E809F0BB0B802DBF01FF274F
:1046800093585F4F2AF09E3F510568F0B6C025C190
:104690005F3FECF3983EDCF3869577956795B79589
:1046A000F7959F5FC9F7880F911D9695879597F9A4
:1046B0000895E1E0660F771F881FBB1F621773071D
:1046C0008407BA0720F0621B730B840BBA0BEE1F32
:1046D00088F7E095089504D06894B111FEC008955C
:1046E000E1D088F09F5790F0B92F9927B751A0F0EB
:1046F000D1F0660F771F881F991F1AF0BA95C9F776
:1047000012C0B13081F0E8D0B1E00895E5C0672F64
:10471000782F8827B85F39F0B93FCCF38695779525
:104720006795B395D9F73EF490958095709561950E
:104730007F4F8F4F9F4F0895E89409C097FB3EF439
:1047400090958095709561957F4F8F4F9F4F9923DE
:10475000A9F0F92F96E9BB279395F695879577955C
:104760006795B795F111F8CFFAF4BB0F11F460FF1C
:104770001BC06F5F7F4F8F4F9F4F16C0882311F074
:1047800096E911C0772321F09EE8872F762F05C088
:10479000662371F096E8862F70E060E02AF09A9523
:1047A000660F771F881FDAF7880F9695879597F918
:1047B0000895990F0008550FAA0BE0E8FEEF1616B2
:1047C0001706E807F907C0F012161306E407F50705
:1047D00098F0621B730B840B950B39F40A2661F079
:1047E000232B242B252B21F408950A2609F4A1401C
:1047F000A6958FEF811D811D089597F99F6780E829
:1048000070E060E008959FEF80EC0895DF93CF9310
:104810001F930F93FF92EF92DF927B018C016894BC
:1048200005C0DA2EEF0176D0FE01E894A59125911E
:10483000359145915591AEF3EF018EDEFE01970162
:10484000A801DA9479F7DF90EF90FF900F911F9114
:10485000CF91DF91089500240A94161617061806C2
:104860000906089500240A94121613061406050674
:104870000895092E0394000C11F4882352F0BB0F05
:1048800040F4BF2B11F460FF04C06F5F7F4F8F4F68
:104890009F4F089557FD9058440F551F59F05F3FA3
:1048A00071F04795880F97FB991F61F09F3F79F052
:1048B00087950895121613061406551FF2CF4695D4
:1048C000F1DF08C0161617061806991FF1CF869556
:1048D0007105610508940895E894BB27662777273A
:1048E000CB0197F9089565DF08F48FEF08959B01D8
:1048F000AC0160E070E080E89FE385CE0BD0B9CFDB
:10490000AADF28F0AFDF18F0952309F076CF7BCF30
:104910001124E3CFBFDFA0F3959FD1F3950F50E0B3
:10492000551F629FF001729FBB27F00DB11D639F61
:10493000AA27F00DB11DAA1F649F6627B00DA11D07
:10494000661F829F2227B00DA11D621F739FB00DAD
:10495000A11D621F839FA00D611D221F749F33271D
:10496000A00D611D231F849F600D211D822F762FB6
:104970006A2F11249F5750408AF0E1F088234AF0B3
:10498000EE0FFF1FBB1F661F771F881F91505040FF
:10499000A9F79E3F510570F030CF9FCF5F3FECF3FA
:1049A000983EDCF3869577956795B795F795E795EB
:1049B0009F5FC1F7FE2B880F911D9695879597F9FC
:1049C0000895FA01EE0FFF1F30962105310599F188
:1049D0006115710561F48038BFE39B0749F1689464
:1049E0009038810561F08038BFEF9B0741F0992333
:1049F00042F5FF3FE1053105210511F1E8940894E6
:104A0000E795D901AA2329F4AB2FBE2FF85FD0F385
:104A100010C0FF5F70F4A695E0F7F73950F019F079
:104A2000FF3A38F49F779F930CD00F9007FC905873
:104A300008953EF0E8CE60E070E080E89FE30895DE
:104A40004FE79F775F934F933F932F93C9D02F9159
:104A50003F914F915F9152DF47C011F40EF4D3CED6
:104A60006FC020DFD0F39923D9F3CEF39F57550BB6
:104A700087FF74D00024A0E640EA90018058569544
:104A8000979528F4805C660F771F881F20F0261703
:104A90003707480730F4621B730B840B2029312938
:104AA0004A2BA69517940794202531254A2758F7B5
:104AB000660F771F881F20F026173707480730F446
:104AC000620B730B840B200D311D411DA09581F7E6
:104AD000B901842F9158880F96958795089519F4F8
:104AE0000EF08BCEF9CE8FCEDDDEC8F39638C0F750
:104AF00007F80F92E8942BE33AEA48EB5FE70CDF04
:104B00000F920F920F924DB75EB70F92A9D0E4EEBD
:104B1000F0E07CDE4F915F91EF91FF91E595EE1F04
:104B2000FF1F49F0FE57E0684427EE0F441FFA9537
:104B3000E1F74195550B1BD00F9007FED8CE089595
:104B40009F3F31F0915020F4879577956795B79501
:104B5000880F911D9695879597F90895915050402B
:104B6000660F771F881FD2F7089547CEE9CF9ADEE8
:104B7000E8F39923D9F3940F511DBBF391505040A2
:104B800094F059F0882332F0660F771F881F9150F8
:104B90005040C1F79E3F510544F7880F911D9695EF
:104BA000879597F908955F3FACF0983E9CF0BB273E
:104BB000869577956795B79508F4B1609395C1F799
:104BC000BB0F58F711F460FFE8CF6F5F7F4F8F4F37
:104BD0009F4FE3CF82CE0EF0B3CF15CE68940DCEAB
:104BE00061DEC8F39923D1F3C6F3DF93CF931F930C
:104BF0000F93FF92C92FDD2788232AF02197660F94
:104C0000771F881FDAF720E030E040E85FEB9FE392
:104C1000883920F0803E30F021968F778CDCECE0F4
:104C2000F1E003C088DCE9E3F1E0F0DD8B01BE01D7
:104C3000EC01FB2E6F5771097595771F880B990B47
:104C40007DDD28E132E741E35FE364DEAF2D9801CB
:104C5000AE01FF900F911F91CF91DF917DDC09CEC6
:104C6000FA01DC01AA0FBB1F9B01AC01BF5728F45E
:104C700022273327442750781FC0B75188F4AB2F21
:104C80000024469537952795011CA395D2F3002063
:104C900069F0220F331F441FB395DAF30DD04ACCCD
:104CA00061307105A0E88A07B94630F49B01AC0178
:104CB0006627772788279078309621F020833183E4
:104CC0004283538308950E94AC26A59F900DB49F04
:104CD000900DA49F800D911D11240895A1E21A2E1C
:104CE000AA1BBB1BFD010DC0AA1FBB1FEE1FFF1F90
:104CF000A217B307E407F50720F0A21BB30BE40BE0
:104D0000F50B661F771F881F991F1A9469F7609526
:104D10007095809590959B01AC01BD01CF010895E0
:104D2000052E97FB16F4009407D057FD0DD00E9476
:104D30006E2607FC09D07EF490958095709561955C
:104D40007F4F8F4F9F4F08955095409530952195F7
:104D50003F4F4F4F5F4F0895A29FB001B39FC001D7
:104D6000A39F01D0B29F700D811D1124911D089544
:0C4D70000790F691E02D1994F894FFCF05
:104D7C00FF63616C412C0063616C4D2C0063616CB2
:104D8C00472C00697465722C0063616C526573204A
:104D9C00412C0063616C526573204D2C006F72695D
:104DAC00656E742C000000000094115F152F115ECD
:104DBC0011421182112E0000000000FE1AD01AA21E
:084DCC001AAB1ABF1ACF1A003E
:00000001FF
