:100000000C9464010C9495010C9495010C94950149
:100010000C9495010C9495010C9495010C94950108
:100020000C9495010C9495010C9495010C949501F8
:100030000C9495010C9494360C9495010C949501B4
:100040000C9495010C942C2F0C9495010C94950113
:100050000C9495010C9495010C9495010C947E23BD
:100060000C9495010C9426260C94FA260C94950178
:100070000C9495010C9495010C9495010C949501A8
:100080000C94592F0C9495010C9495010C949501A6
:100090000C9453260C9439270C9495010C94302D14
:1000A0000C9495010C9495010C94862F0C94950159
:1000B0000C9495010C9495010C9495010C94B32F1C
:1000C0000C9495010C9495010C9495010C94802648
:1000D0000C9478270C9495010C94AD260C94B727BA
:1000E0000C949501036EDB363D9A9999993DABAA24
:1000F000AA2A3E000000803F072C7AA5BA6CC59062
:10010000DA3B9365FC8BBC53F810FD3C5692834D53
:10011000BD879D3AB63DCBC9BF5BBE73DA0FC93F01
:1001200007634236B79BD8A71A39685618AEBAABE0
:10013000558C1D3CB7CC5763BD6DEDFD753EF61774
:100140007231BF000000803F08000000BE922449C9
:10015000123EABAAAA2ABECDCCCC4C3E00000080F9
:10016000BEABAAAAAA3E00000000BF000000803F6C
:100170000000000000084178D3BB4387D1133D192C
:100180000E3CC3BD4282AD2B3E68EC8276BED98F59
:10019000E1A93E4C80EFFFBE01C4FF7F3F0000009D
:1001A00000000000090A02080B0C0D0706030401F9
:1001B000000000000000000000000000000000003F
:1001C000000000000000000000000000000011100E
:1001D0000F00000000000000000000000000000010
:1001E000000000000000000001021020200808109C
:1001F0002040102040800201020108040201010297
:10020000040810204080804020100804020180046F
:1002100002018040201008040201080402010102CA
:1002200004081020408001020408102040800505C9
:100230000505070508080808020202020A0A08085C
:10024000040404040101010101010101030303038A
:1002500003030303040707070C0C0C0C0C0C0C0C19
:100260000202020206060606060606060B0B0B0B2A
:100270000B0B0B0B000020002300260029002C0094
:100280002F003200000100000301060109010000F7
:100290002200250028002B002E003100340002012E
:1002A0000000050108010B010000210024002700C7
:1002B0002A002D0030003300010100000401070175
:1002C0000A012F2376284D2C11241FBECFEFD1E237
:1002D000DEBFCDBF00E00CBF12E0A0E0B2E0E2E282
:1002E000F6E700E00BBF02C007900D92A833B107FC
:1002F000D9F71AE0A8E3B2E001C01D92AD3AB10708
:10030000E1F712E0C8ECD2E000E006C02297010954
:10031000FE010BBF0E940B3BC23CD10780E00807E7
:10032000A9F70E9494290C940F3B0C9400008AEECC
:1003300095E00E94FA35882341F08091EA0590917A
:10034000EB059093C1028093C00208952F923F92D3
:100350004F925F926F927F928F929F92AF92BF92D5
:10036000CF92DF92EF92FF920F931F93CF93DF9381
:10037000CDB7DEB7C058D1090FB6F894DEBF0FBEB7
:10038000CDBF5C016B01EE964FAFEE97EF965FAF7E
:10039000EF973901AD96ECAEFDAE0EAF1FAFAD9746
:1003A0001C01E12CF12C9C01245F3F4FEB963FAFE9
:1003B0002EAFEB97CB010C96C158DF4F9983888302
:1003C000CF57D0407BC0D8012D913D914D915C918C
:1003D000F10160817181828193810E94E838A39646
:1003E000AEADBFADA3972D913D914D915C910E9413
:1003F000C236A6966FAFA697AE967FAFAE97E2963F
:100400008FAFE297E6969FAFE697472F382F292FB9
:10041000862F942FA32FB22FA396EEADFFADA397F7
:1004200080839183A283B383F801EC19FD09C1583D
:10043000DF4F28813981CF57D040E20FF31F208151
:10044000318142815381D4016D917D918D919C9137
:100450000E94E8389B01AC01A696BFADA697AE9668
:10046000AFADAE97E296FFADE297E696EFADE697B9
:100470006B2F7A2F8F2F9E2F0E94C236A396EEAD40
:10048000FFADA3976193719381939193A396FFAF6F
:10049000EEAFA397FFEF4F1A5F0A0C5F1F4F23E0E9
:1004A0004216510409F08FCF3CE0E30EF11C84E0CA
:1004B000280E311C94E2E916F104A1F0D301AE0D2F
:1004C000BF1DA396BFAFAEAFA3978601412C512CA1
:1004D00041018A189B08EB96EEADFFADEB978E0EAF
:1004E0009F1E71CFD3012D903D904D905C9013973E
:1004F00050968D909D90AD90BC9053979096CD90D6
:10050000DD90ED90FC909397A5019401C201B1019B
:100510000E94C236A70196010E94C236AD962CAD4C
:100520003DAD4EAD5FADAD970E94C23669837A8313
:100530008B839C83D30154968D919D910D90BC919A
:10054000A02DA5968CAF9DAFAEAFBFAFA597D30141
:100550005C968D919D910D90BC91A02DA9968CAF2C
:100560009DAFAEAFBFAFA9979C01AD01A5966CAD95
:100570007DAD8EAD9FADA5970E94C1366D837E8304
:100580008F839887D30158968D919D910D90BC9142
:10059000A02DE1968CAF9DAFAEAFBFAFE197D30179
:1005A00018968D919D910D90BC91A02DE5968CAFE4
:1005B0009DAFAEAFBFAFE5979C01AD01E1966CADCD
:1005C0007DAD8EAD9FADE1970E94C13669877A8778
:1005D0008B879C87D30114968D919D910D90BC9132
:1005E000A02DE9968CAF9DAFAEAFBFAFE997D30119
:1005F0001C968D919D910D90BC91A02DED968CAF88
:100600009DAFAEAFBFAFED979C01AD01E9966CAD6C
:100610007DAD8EAD9FADE9970E94C1366D877E8717
:100620008F87988BA5019401C201B1010E94C13648
:10063000A70196010E94C136AD962CAD3DAD4EADE1
:100640005FADAD970E94C2366D8B7E8B8F8B988F7E
:10065000ED962CAD3DAD4EAD5FADED97E9966CAD31
:100660007DAD8EAD9FADE9970E94C236698F7A8FBE
:100670008B8F9C8FE1962CAD3DAD4EAD5FADE1977C
:10068000E5966CAD7DAD8EAD9FADE5970E94C2360F
:100690006D8F7E8F8F8F98A3A2019101C501B40148
:1006A0000E94C136A70196010E94C136AD962CADBD
:1006B0003DAD4EAD5FADAD970E94C23669A77AA73A
:1006C0008BA79CA7A9962CAD3DAD4EAD5FADA9976C
:1006D000A5966CAD7DAD8EAD9FADA5970E94C2363F
:1006E0006DA77EA78FA798ABC201B1019058A50155
:1006F00094010E94C136A70196010E94C236AD96B0
:100700002CAD3DAD4EAD5FADAD970E94C23621968A
:100710006CAF7DAF8EAF9FAF21975E01B5E0AB0EA2
:10072000B11CDE01519681E090E022C08501040FEA
:10073000151FF801C080D180E280F3808D01060F83
:10074000171FF801C082D182E282F3822F5F3F4FF0
:10075000405F5F4F6C5F7F4F281739073CF301966E
:10076000F4E0AF0EB11C50968430910509F430C10D
:1007700060E070E040E050E020E030E0D7CFD8010A
:100780001D921D921D921C921397412C11965C9004
:10079000119712966C90129713967C90EE96BFADBF
:1007A000EE97A296BFAFA297EF96EFADEF97A39605
:1007B000EFAFA397A3968EAC9FACA397E12CF12C3F
:1007C000D4016D917D918D919D914D01F501EE0DBD
:1007D000FF1D20813181428153810E94E8389B01B5
:1007E000AC01642D752D862D972D0E94C2362B01EC
:1007F0003C01B4E0EB0EF11CE0E1EE16F10401F770
:10080000CB01D301F80181939193A193B1938F010F
:10081000F0E1AF0EB11CE3962EAD3FADE3970217AA
:10082000130709F0ACCFCE018F5B9F4FA7969FAF08
:100830008EAFA7978C01612C712C812C912CD80143
:100840001D921D921D921C921397212C11963C9083
:10085000119712964C90129713965C9041E5A42E36
:10086000B12CAC0EBD1EE12CF12CF5016191719102
:10087000819191915F01F601EE0DFF1D2081318183
:10088000428153810E94E8389B01AC01622D732D97
:10089000842D952D0E94C2361B012C01F4E0EF0E31
:1008A000F11C20E1E216F10401F7CB01D201F801BD
:1008B00081939193A193B1938F01222D332D4A2FD0
:1008C000552D622D732D842D952D0E94E8389B01A6
:1008D000AC01662D772D882D992D0E94C2363B01E3
:1008E0004C01F0E1CF0ED11CAF962EAD3FADAF97CE
:1008F0000217130709F0A3CF20E030E0A901772DFC
:10090000992D0E943D37811110C080E090E0A0E851
:10091000BFE325968CAF9DAFAEAFBFAF2597612CDF
:10092000712C20E8822E3FE3932E662D772D882DA3
:10093000992D0E949B396B017C0101E010E0A79684
:10094000AEADBFADA7976D917D918D919D91A7960D
:10095000BFAFAEAFA797A70196010E9441374B01E9
:100960005C01762F272F392D4A2D5B2DA396EEADF6
:10097000FFADA39760817181828193810E94C1360E
:100980009F772AE037ED43EA5BE30E94DD381816D3
:1009900014F400E010E0C401D501A396EEADFFAD64
:1009A000A39781939193A193B193A396FFAFEEAFD9
:1009B000A397A7962EAD3FADA797AF968EAD9FADEF
:1009C000AF972817390709F0BACF012B79F519C06D
:1009D000A5E6B0E0AB96BFAFAEAFAB97E1E5F0E018
:1009E000EC0FFD1F7096E396FFAFEEAFE39721E4A7
:1009F00030E02C0F3D1F205F3F4FAF963FAF2EAF33
:100A0000AF97AB968EAD9FADAB970197AB969FAF6F
:100A10008EAFAB97892B51F0CC24C394D12CCC0E44
:100A2000DD1E56018E010F5A1F4FA9CEC058DF4F51
:100A30000FB6F894DEBF0FBECDBFDF91CF911F91EF
:100A40000F91FF90EF90DF90CF90BF90AF909F906D
:100A50008F907F906F905F904F903F902F90089570
:100A600080E090E0ACE1B2EC809324039093250306
:100A7000A0932603B093270380E090E0A0E3B1E4C5
:100A80008093280390932903A0932A03B0932B0308
:100A900080E090E0A0E3B1EC80932C0390932D03D1
:100AA000A0932E03B0932F0380E090ECA1E8B4E470
:100AB0008093300390933103A0933203B0933303B8
:100AC00080E090ECA0E8B4E4809334039093350385
:100AD000A0933603B093370380E090E8A0E8B4E435
:100AE0008093380390933903A0933A03B0933B0368
:100AF00080E090E0A8E9B2E480933C0390933D034A
:100B0000A0933E03B0933F0380E090E0A2EEB2ECEE
:100B10008093400390934103A0934203B093430317
:100B200080E090E0A8EEB1EC8093440390934503FD
:100B3000A0934603B093470380E090E0A5E1B4E4BE
:100B40008093480390934903A0934A03B0934B03C7
:100B500080E090ECA5E1B4E480934C0390934D03C6
:100B6000A0934E03B0934F0380E090E8A9EFB3E465
:100B70008093500390935103A0935203B093530377
:100B8000109255031092540386E696E2ACE9B3EC5A
:100B90008093560390935703A0935803B09359033F
:100BA00080E090E8A3EEB2E480935A0390935B0355
:100BB000A0935C03B0935D0383E393E5A9E7B4E4FA
:100BC00080935E0390935F03A0936003B0936103EF
:100BD00086E696EEA6E8B3E48093620390936303FF
:100BE000A0936403B093650383E393EBA6ECB2ECAC
:100BF0008093660390936703A0936803B09369039F
:100C00008AE999EDADEFB3EC80936A0390936B039F
:100C1000A0936C03B0936D0386E696E6A1E4B4E47A
:100C200080937E0390937F03A0938003B09381030E
:100C30008AE999E1A7E0B3EC809382039093830360
:100C4000A0938403B09385038DEC9CE1AEE1B4E402
:100C50008093860390938703A0938803B0938903BE
:100C60008DEC9CECA9E5B2EC80938A0390938B0306
:100C7000A0938C03B0938D0383E393E3AFEAB1E4D5
:100C800080938E0390938F03A0939003B09391036E
:100C900083E393EAA9E0B4E48093920390939303EF
:100CA000A0939403B093950386E696EEA6EFB2EC7C
:100CB0008093A6039093A703A093A803B093A903DE
:100CC00083E393EFACE3B4EC8093AA039093AB037C
:100CD000A093AC03B093AD0380E090E8A0E3B4E44C
:100CE0008093AE039093AF03A093B003B093B1038E
:100CF0008DEC9CEEA1E0B4EC8093B2039093B3032F
:100D0000A093B403B093B50386E696E6A6E9B0E4F3
:100D10008093B6039093B703A093B803B093B9033D
:100D200086E696EEADECB2EC8093BA039093BB03EB
:100D3000A093BC03B093BD038DEC9CEEAAE6B4EC8B
:100D40008093CE039093CF03A093D003B093D103AD
:100D500080E090E0A1E7B3EC8093D2039093D303BB
:100D6000A093D403B093D50386E696EAABEDB3EC3B
:100D70008093D6039093D703A093D803B093D9035D
:100D800080E090EFAFE2B4E48093DA039093DB036A
:100D9000A093DC03B093DD0386E696E6AEECB1E407
:100DA0008093DE039093DF03A093E003B093E1030D
:100DB0008DEC9CE0A4E0B3E48093E2039093E30322
:100DC000A093E403B093E50380E090E4A9EEB3E4DC
:100DD0008093F6039093F703A093F803B093F9037D
:100DE00080E090E4A0E4B4EC8093FA039093FB03DA
:100DF000A093FC03B093FD0383E393EBA4EEB3EC69
:100E00008093FE039093FF03A0930004B09301042A
:100E100086E696E0A8E8B3E4809302049093030486
:100E2000A0930404B09305048AE999E6A6E3B4EC20
:100E30008093060490930704A0930804B0930904D8
:100E40008DEC9CE4A3E3B3E480930A0490930B0439
:100E5000A0930C04B0930D048DEC9CECACE5B2ECCB
:100E600080931E0490931F04A0932004B093210448
:100E70008DEC9CE2ACE6B4E48093220490932304CE
:100E8000A0932404B093250483E393E1ADECB3EC89
:100E90008093260490932704A0932804B0932904F8
:100EA00086E696EEA8E5B3E480932A0490932B049B
:100EB000A0932C04B0932D048AE999EDA7EFB3E435
:100EC00080932E0490932F04A0933004B0933104A8
:100ED0008AE999EDAFE0B3E4809332049093330450
:100EE000A0933404B09335041092180310921903A0
:100EF00010921A0310921B0310921C0310921D03F0
:100F000010921E0310921F031092200310922103CF
:100F100010922203109223030895CF93DF9361E090
:100F20008DE00E94022540E052EC61E070E087E134
:100F300097E00E94F627C0E0D0E0CE01880F991F0D
:100F40008C0F9D1F6CED75E08F5B994F0E94FC2FFD
:100F50002196C430D10589F768EE73E080E090E017
:100F60000E94042486E599E00E940E2C62E080E451
:100F700096E00E94543180E496E00E945B304AEF94
:100F800060E180E496E00E943A3042E063E08AE06B
:100F900096E00E94EA338AE096E00E94ED3142E05A
:100FA00060E08CEF95E00E9418358CEF95E00E9490
:100FB0003C3440E163E28CEF95E00E941B348DE607
:100FC0009FEBABE8BEE38093140390931503A093CB
:100FD0001603B093170385E194E7A2E8BFE380937B
:100FE000100390931103A0931203B093130380E0B6
:100FF00090E0A8ECB2E480930C0390930D03A093CF
:101000000E03B0930F0382EF93E2AEE9BEE3809349
:10101000000390930103A0930203B093030381E2C2
:1010200095E0AEEBBCE38093040390930503A0939B
:101030000603B093070382E199E6A3E7BFE3809339
:10104000080390930903A0930A03B0930B03109233
:10105000F4021092F5021092F6021092F70210922A
:10106000F8021092F9021092FA021092FB0280E04C
:1010700090E0A0E8BFEB8093FC029093FD02A09368
:10108000FE02B093FF0280E090E0A0ECBFE380930B
:10109000B4029093B502A093B602B093B702109237
:1010A000B8021092B9021092BA021092BB021092CA
:1010B000BC021092BD021092BE021092BF021092AA
:1010C000900210929102109292021092930210924A
:1010D0006C0210926D0210926E0210926F021092CA
:1010E000940210929502109296021092970210921A
:1010F000700210927102109272021092730210929A
:1011000098021092990210929A0210929B021092E9
:101110007402109275021092760210927702109269
:101120009C0210929D0210929E0210929F021092B9
:1011300078021092790210927A0210927B02109239
:10114000A0021092A1021092A2021092A302109289
:101150007C0210927D0210927E0210927F02109209
:10116000A4021092A5021092A6021092A702109259
:1011700080021092810210928202109283021092D9
:10118000A8021092A9021092AA021092AB02109229
:1011900084021092850210928602109287021092A9
:1011A000AC021092AD021092AE021092AF021092F9
:1011B00088021092890210928A0210928B02109279
:1011C000B0021092B1021092B2021092B3021092C9
:1011D0008C0210928D0210928E0210928F0280E08B
:1011E00090E0A0E8BFE380935C0290935D02A0933F
:1011F0005E02B0935F021092600210926102109240
:1012000062021092630210926402109265021092C0
:1012100066021092670210926802109269021092A0
:101220006A0210926B0280934C0290934D02A0933D
:101230004E02B0934F02109250021092510210923F
:1012400052021092530210925402109255021092C0
:1012500056021092570210925802109259021092A0
:101260005A0210925B0210924802109249021092A8
:101270004A0210924B0210924402109245021092C0
:101280004602109247021092DA051092DB05109286
:10129000DC051092DD0581E090E09093E7058093F6
:1012A000E6050E94300584E690E09093E90580937E
:1012B000E8051092E2051092E3051092E405109201
:1012C000E5051092DE051092DF051092E005109200
:1012D000E1051092D6051092D7051092D80510920C
:1012E000D9051092C3021092C2021092C10210924C
:1012F000C002DF91CF9108952F923F924F925F925B
:101300006F927F928F929F92AF92BF92CF92DF9215
:10131000EF92FF920F931F93CF93DF93CDB7DEB77A
:10132000CD59D1090FB6F894DEBF0FBECDBF8AE00C
:1013300096E00E94B4338CEF95E00E94673480E41D
:1013400096E00E94CE306093CC027093CD028093E1
:10135000CE029093CF0280E496E00E940731609322
:10136000C4027093C5028093C6029093C7020E9484
:10137000DA236B017C018091DA059091DB05A09165
:10138000DC05B091DD05A7019601281B390B4A0B3E
:101390005B0BCA01B9010E94DA372DEB37E346E84F
:1013A00055E30E94E8386093D6057093D705809383
:1013B000D8059093D905C092DA05D092DB05E0926A
:1013C000DC05F092DD05209128033091290340913E
:1013D0002A0350912B0360910E0670910F068091A5
:1013E0001006909111060E94C1362091340330916D
:1013F000350340913603509137030E9441371B015A
:101400002C0120912C0330912D0340912E035091FB
:101410002F0360911206709113068091140690912B
:1014200015060E94C136209138033091390340914E
:101430003A0350913B030E9441373B018C012091BC
:101440002403309125034091260350912703609196
:101450000A0670910B0680910C0690910D060E9471
:10146000C1362091300330913103409132035091C5
:1014700033030E9441376B017C01F7FAF094F7F8CF
:10148000F09422EE37E64AE75FE3C701B6010E9417
:10149000E8384B015C012FEC36EE44E55EE3662D47
:1014A000772D802F912F0E94E8389B01AC01C50158
:1014B000B4010E94C2366093DC027093DD02809317
:1014C000DE029093DF02822D932DA42DB52D809303
:1014D000E0029093E102A093E202B093E3022FECCA
:1014E00036EE44E55EE3C701B6010E94E8386B01C1
:1014F0007C0122EE37E64AE75FE3662D772D802FE9
:10150000912F0E94E8389B01AC01C701B6010E94EF
:10151000C1366093E4027093E5028093E6029093F3
:10152000E7022091400330914103409142035091E2
:10153000430360911A0670911B0680911C069091DE
:101540001D060E94C13620914C0330914D034091FD
:101550004E0350914F030E9441371B012C012091F3
:1015600044033091450340914603509147036091F5
:101570001E0670911F0680912006909121060E9400
:10158000C136209150033091510340915203509144
:1015900053030E9441373B018C0120913C03309161
:1015A0003D0340913E0350913F03609116067091B8
:1015B000170680911806909119060E94C136209155
:1015C00048033091490340914A0350914B030E94D4
:1015D00041376B017C01F7FAF094F7F8F09422EEB2
:1015E00037E64AE75FE3C701B6010E94E8384B01DE
:1015F0005C012FEC36EE44E55EE3662D772D802FFF
:10160000912F0E94E8389B01AC01C501B4010E94F2
:10161000C2366093E8027093E9028093EA029093E5
:10162000EB02822D932DA42DB52D8093EC02909387
:10163000ED02A093EE02B093EF022FEC36EE44E5FC
:101640005EE3C701B6010E94E8386B017C0122EE1F
:1016500037E64AE75FE3662D772D802F912F0E94B2
:10166000E8389B01AC01C701B6010E94C136609306
:10167000F0027093F1028093F2029093F3022091B2
:101680001C0330911D0340911E0350911F03609174
:1016900000067091010680910206909103060E9457
:1016A000C13629E732E240EA59E30E94E8381B01DB
:1016B0002C0120912003309121034091220350916D
:1016C00023036091040670910506809106069091AF
:1016D00007060E94C13629E732E240EA59E30E9438
:1016E000E8383B018C012091180330911903409197
:1016F0001A0350911B036091FC057091FD058091C8
:10170000FE059091FF050E94C13629E732E240EACA
:1017100059E30E94E8386B017C01F7FAF094F7F87E
:10172000F09422EE37E64AE75FE3C701B6010E9474
:10173000E8384B015C012FEC36EE44E55EE3662DA4
:10174000772D802F912F0E94E8389B01AC01C501B5
:10175000B4010E94C2366093D0027093D10280938C
:10176000D2029093D302822D932DA42DB52D809378
:10177000D4029093D502A093D602B093D7022FEC57
:1017800036EE44E55EE3C701B6010E94E8386B011E
:101790007C0122EE37E64AE75FE3662D772D802F46
:1017A000912F0E94E8389B01AC01C701B6010E944D
:1017B000C1366093D8027093D9028093DA02909375
:1017C000DB026091CC027091CD028091CE029091AB
:1017D000CF0220E030E54DE754E40E941D316093D4
:1017E000C8027093C9028093CA029093CB02809181
:1017F000C0029091C1029093C3028093C20267E934
:1018000071E08AEE95E00E9479364CED52E0CF57B8
:10181000DF4F59834883C158D0406DE4E62E66E01F
:10182000F62E88EE92E0C158DF4F99838883CF5718
:10183000D04074EF672E72E0772E05E616E0E0E008
:101840004E2EE3E05E2E5C014A01C12CD12CD40166
:101850006D917D918D919D914D0120E030E040E0B2
:101860005FE30E94E838F70160837183828393838A
:10187000D5016D917D918D919D915D019B01AC0193
:101880000E94C236F7016487758786879787D301E0
:101890006D917D918D919D913D0120E030E040E082
:1018A0005FE30E94E838F801608371838283938349
:1018B000D2016D917D918D919D912D019B01AC0186
:1018C0000E94C236F8016487758786879787FFEF85
:1018D000CF1ADF0A24E0E20EF11C0C5F1F4F33E049
:1018E000C316D10409F0B3CFC090D605D090D70568
:1018F000E090D805F090D9052091D0023091D10226
:101900004091D2025091D302C701B6010E94E8383B
:1019100020E030E040E05FE30E94E838362E472EBA
:10192000582E692E2091D4023091D5024091D602D2
:101930005091D702C701B6010E94E83820E030E09C
:1019400040E05FE30E94E838762E872E982EA92E7D
:101950002091D8023091D9024091DA025091DB02F5
:10196000C701B6010E94E83820E030E040E05FE3C4
:101970000E94E838B62E072F182F292E232D342D3C
:10198000452D562D632D742D852D962D0E94E838FA
:1019900020E030E040E85FE30E94C2366B017C014A
:1019A000272D382D492D5A2D672D782D892D9A2DCB
:1019B0000E94E8389B01AC01C701B6010E94C23603
:1019C0006B017C012B2D302F412F522D6B2D702F51
:1019D000812F922D0E94E8389B01AC01C701B6010E
:1019E0000E94C2360E949B396B017C019B01AC01B5
:1019F00060E070E080E89FE30E944137A2966FAFFD
:101A0000A297A3967FAFA397A8968FAFA897AC96FF
:101A10009FAFAC97A7019601632D742D852D962D50
:101A20000E944137E4966FAFE497E6967FAFE69762
:101A3000E7968FAFE797E8969FAFE897A7019601E3
:101A4000672D782D892D9A2D0E944137E9966FAF29
:101A5000E997EA967FAFEA97EB968FAFEB97EC9614
:101A60009FAFEC97A70196016B2D702F812F922DC0
:101A70000E944137162F072F382E292E80915C02A5
:101A800090915D02A0915E02B0915F0265968CAF6D
:101A90009DAFAEAFBFAF65972091600230916102FC
:101AA0004091620250916302E3962CAF3DAF4EAF7E
:101AB0005FAFE397C0906402D0906502E090660249
:101AC000F09067028090680290906902A0906A028C
:101AD000B0906B029C01AD01A296BFADA297A396F8
:101AE000AFADA397A896FFADA897AC96EFADAC9716
:101AF0006B2F7A2F8F2F9E2F0E94E8382B013C01ED
:101B0000E3962CAD3DAD4EAD5FADE397E496BFAD32
:101B1000E497E696AFADE697E796FFADE797E896D0
:101B2000EFADE8976B2F7A2F8F2F9E2F0E94E8380A
:101B30009B01AC01C301B2010E94C1362B013C01E3
:101B4000A7019601E996BFADE997EA96AFADEA978E
:101B5000EB96FFADEB97EC96EFADEC976B2F7A2FF2
:101B60008F2F9E2F0E94E8389B01AC01C301B20168
:101B70000E94C1362B013C01A5019401D801F1015D
:101B80006B2F7A2F8F2F9E2F0E94E8389B01AC017C
:101B9000C301B2010E94C136A4966FAFA4972C96E0
:101BA0007FAF2C972E968FAF2E9760969FAF609742
:101BB000E3962CAD3DAD4EAD5FADE397A296BFADC4
:101BC000A297A396AFADA397A896FFADA897AC96A2
:101BD000EFADAC976B2F7A2F8F2F9E2F0E94E83896
:101BE0002B013C01E4967FADE497E6966FADE69756
:101BF000E7969FADE797E8968FADE897272F362FAA
:101C0000492F582F65966CAD7DAD8EAD9FAD659714
:101C10000E94E8389B01AC01C301B2010E94C236A8
:101C20002B013C01A5019401E996BFADE997EA9625
:101C3000AFADEA97EB96FFADEB97EC96EFADEC9777
:101C40006B2F7A2F8F2F9E2F0E94E8389B01AC01BB
:101C5000C301B2010E94C1362B013C01A7019601CC
:101C6000D801F1016B2F7A2F8F2F9E2F0E94E83819
:101C70009B01AC01C301B2010E94C23666966FAFF0
:101C8000669768967FAF68976C968FAF6C97A096B3
:101C90009FAFA097A7019601A296BFADA297A3966A
:101CA000AFADA397A896FFADA897AC96EFADAC9754
:101CB0006B2F7A2F8F2F9E2F0E94E8382B013C012B
:101CC000E9967FADE997EA966FADEA97EB969FADFF
:101CD000EB97EC968FADEC97272F362F492F582F87
:101CE00065966CAD7DAD8EAD9FAD65970E94E83871
:101CF0009B01AC01C301B2010E94C2362B013C0121
:101D0000E3962CAD3DAD4EAD5FADE397D801F1014B
:101D10006B2F7A2F8F2F9E2F0E94E8389B01AC01EA
:101D2000C301B2010E94C1362B013C01A5019401FF
:101D3000E496BFADE497E696AFADE697E796FFADC4
:101D4000E797E896EFADE8976B2F7A2F8F2F9E2FAE
:101D50000E94E8389B01AC01C301B2010E94C23667
:101D60003B012C01A5019401A296BFADA297A396B9
:101D7000AFADA397A896FFADA897AC96EFADAC9783
:101D80006B2F7A2F8F2F9E2F0E94E8384B015C011A
:101D9000B801C101272F362F492F582F65966CADFA
:101DA0007DAD8EAD9FAD65970E94E8389B01AC017B
:101DB000C501B4010E94C2364B015C01A701960126
:101DC000E496BFADE497E696AFADE697E796FFAD34
:101DD000E797E896EFADE8976B2F7A2F8F2F9E2F1E
:101DE0000E94E8389B01AC01C501B4010E94C136D4
:101DF0006B017C01E3962CAD3DAD4EAD5FADE3973D
:101E0000E996BFADE997EA96AFADEA97EB96FFADDD
:101E1000EB97EC96EFADEC976B2F7A2F8F2F9E2FD1
:101E20000E94E8389B01AC01C701B6010E94C2368E
:101E30007B018C01A4965FADA4972C964FAD2C9797
:101E40002E963FAD2E9760962FAD6097852F942FDD
:101E5000A32FB22F80935C0290935D02A0935E0249
:101E6000B0935F0266965FAD669768964FAD6897D0
:101E70006C963FAD6C97A0962FADA097852F942FB1
:101E8000A32FB22F8093600290936102A09362020D
:101E9000B0936302862D972DA42DB52D80936402F7
:101EA00090936502A0936602B09367028E2D9F2DDA
:101EB000A02FB12F8093680290936902A0936A02C9
:101EC000B0936B02A4967FADA4972C966FAD2C9720
:101ED0002E969FAD2E9760968FAD6097272F362F49
:101EE000492F582FDB01FC016B2F7A2F8F2F9E2F4C
:101EF0000E94E838A8966FAFA897AC967FAFAC97D2
:101F0000E4968FAFE497E6969FAFE69766967FAD2F
:101F1000669768966FAD68976C969FAD6C97A09624
:101F20008FADA097272F362F492F582FDB01FC01AB
:101F30006B2F7A2F8F2F9E2F0E94E838E7966FAF76
:101F4000E797E8967FAFE897E9968FAFE997EA962B
:101F50009FAFEA97262D372D442D552D662D772DD1
:101F6000842D952D0E94E83862966FAF6297E096B7
:101F70007FAFE097A2968FAFA297A3969FAFA3974C
:101F80002E2D3F2D402F512F6E2D7F2D802F912FE5
:101F90000E94E8385B016C01E7967FADE797E89611
:101FA0006FADE897E9969FADE997EA968FADEA970E
:101FB000272F362F492F582FA896BFADA897AC963C
:101FC000AFADAC97E496FFADE497E696EFADE6973C
:101FD0006B2F7A2F8F2F9E2F0E94C2366296BFAD35
:101FE0006297E096AFADE097A296FFADA297A39659
:101FF000EFADA3972B2F3A2F4F2F5E2F0E94C136A4
:102000002A2D3B2D4C2D5D2D0E94C13660937D06FF
:1020100070937E0680937F0690938006262D372D41
:10202000442D552D6696BFAD66976896AFAD6897FF
:102030006C96FFAD6C97A096EFADA0976B2F7A2FA3
:102040008F2F9E2F0E94E838EB966FAFEB97EC96A0
:102050007FAFEC974C012E2D3F2D402F512FA49692
:10206000BFADA4972C96AFAD2C972E96FFAD2E97B3
:102070006096EFAD60976B2F7A2F8F2F9E2F0E9467
:10208000E8381B01ED968FAFED97EF969FAFEF9776
:10209000762F982FEF968FADEF97272F332D492F5F
:1020A000582FEB96BFADEB97EC96AFADEC976B2F3F
:1020B0007A2F882D992D0E94C2369B01AC010E9477
:1020C000C236609381067093820680938306909354
:1020D00084062E2D3F2D402F512F6696BFAD66975B
:1020E0006896AFAD68976C96FFAD6C97A096EFAD14
:1020F000A0976B2F7A2F8F2F9E2F0E94E838CD57F5
:10210000DF4F6883C358D040CC57DF4F7883C45823
:10211000D040CB57DF4F8883C558D040CA57DF4FD8
:102120009883C658D040262D372D442D552DA49682
:10213000BFADA4972C96AFAD2C972E96FFAD2E97E2
:102140006096EFAD60976B2F7A2F8F2F9E2F0E9496
:10215000E838C957DF4F6883C758D040C857DF4FAA
:102160007883C858D040C757DF4F8883C958D040BC
:10217000C657DF4F9883CA58D040762FC857DF4FD5
:102180006881C858D040982FC657DF4F8881CA58F9
:10219000D040272F362F492F582FCD57DF4FB881EA
:1021A000C358D040CC57DF4FA881C458D040CB573C
:1021B000DF4FF881C558D040CA57DF4FE881C65875
:1021C000D0406B2F7A2F8F2F9E2F0E94C1369B01FC
:1021D000AC010E94C2366093850670938606809398
:1021E000870690938806ED969FADED97EF968FAD9D
:1021F000EF97222D332D492F582FEB96BFADEB973C
:10220000EC96AFADEC976B2F7A2F882D992D0E940D
:10221000C1369B01AC010E94C2366093890670935F
:102220008A0680938B0690938C06E7967FADE7979E
:10223000E8966FADE897E9969FADE997EA968FAD7E
:10224000EA97272F362F492F582FA896BFADA8976A
:10225000AC96AFADAC97E496FFADE497E696EFADE4
:10226000E6976B2F7A2F8F2F9E2F0E94C136A8964C
:102270006FAFA897AC967FAFAC974C0162967FADDD
:102280006297E0966FADE097A2969FADA297A39656
:102290008FADA397272F362F492F582FA896BFAD64
:1022A000A897AC96AFADAC976B2F7A2F882D992D50
:1022B0000E94C2362A2D3B2D4C2D5D2D0E94C13629
:1022C00060938D0670938E0680938F069093900690
:1022D0002E2D3F2D402F512F662D772D842D952D9E
:1022E0000E94E8387B018C0166967FAD6697689600
:1022F0006FAD68976C969FAD6C97A0968FADA097C9
:10230000272F362F492F582FA496BFADA4972C9670
:10231000AFAD2C972E96FFAD2E976096EFAD6097E0
:102320006B2F7A2F8F2F9E2F0E94E8381B012C01D4
:10233000762F272F332D442D552D6E2D7F2D802F59
:10234000912F0E94C2369B01AC010E94C23660935D
:102350009106709392068093930690939406C957C2
:10236000DF4F7881C758D040C857DF4F6881C858C1
:10237000D040C757DF4F9881C958D040C657DF4F6C
:102380008881CA58D040272F362F492F582FCD5734
:10239000DF4FB881C358D040CC57DF4FA881C45815
:1023A000D040CB57DF4FF881C558D040CA57DF4FD8
:1023B000E881C658D0406B2F7A2F8F2F9E2F0E9416
:1023C000C2369B01AC010E94C236609395067093A1
:1023D00096068093970690939806222D332D442DD0
:1023E000552D6E2D7F2D802F912F0E94C1369B0180
:1023F000AC010E94C2366093990670939A0680934E
:102400009B0690939C0662967FAD6297E0966FADB7
:10241000E097A2969FADA297A3968FADA397272F83
:10242000362F492F582FA896BFADA897AC96AFADC1
:10243000AC976B2F7A2F882D992D0E94C1362A2DAB
:102440003B2D4C2D5D2D0E94C23660939D067093EE
:102450009E0680939F069093A0068091E805909138
:10246000E905181619060CF04DC010927D06109261
:102470007E0610927F0610928006109281061092BE
:10248000820610928306109284061092850610929E
:10249000860610928706109288061092890610927E
:1024A0008A0610928B0610928C0610928D0610925E
:1024B0008E0610928F06109290061092910610923E
:1024C000920610929306109294061092950610921E
:1024D00096061092970610929806109299061092FE
:1024E0009A0610929B0610929C0610929D061092DE
:1024F0009E0610929F061092A00601979093E90500
:102500008093E805E12CF12C87012DE736E04CE5BE
:1025100052E065E676E08DE496E00E94A601C09068
:102520005C02D0905D02E0905E02F0905F02A70135
:102530009601C701B6010E94E838E0966FAFE097B8
:10254000A2967FAFA297A3968FAFA397A8969FAFAF
:10255000A8978091600290916102A0916202B0916F
:102560006302A7968CAF9DAFAEAFBFAFA7979C019C
:10257000AD01BC01CD010E94E838AC966FAFAC97BD
:10258000E4967FAFE497E6968FAFE697E7969FAF26
:10259000E7978090640290906502A0906602B090E8
:1025A0006702A5019401C501B4010E94E8382C9688
:1025B0006FAF2C972E967FAF2E9760968FAF609758
:1025C00066969FAF6697409068025090690260904F
:1025D0006A0270906B02A3019201C301B2010E94D2
:1025E000E83868966FAF68976C967FAF6C97A09647
:1025F0008FAFA09762969FAF6297AC967FADAC9776
:10260000E4966FADE497E6969FADE697E7968FADBB
:10261000E797272F362F492F582FE096BFADE09729
:10262000A296AFADA297A396FFADA397A896EFADE4
:10263000A8976B2F7A2F8F2F9E2F0E94C2362C9631
:10264000BFAD2C972E96AFAD2E976096FFAD6097DD
:102650006696EFAD66972B2F3A2F4F2F5E2F0E9475
:10266000C1366896BFAD68976C96AFAD6C97A09673
:10267000FFADA0976296EFAD62972B2F3A2F4F2FA9
:102680005E2F0E94C13660937D0670937E06809314
:102690007F0690938006A5019401A7966CAD7DAD51
:1026A0008EAD9FADA7970E94E838E8966FAFE89788
:1026B000E9967FAFE997EA968FAFEA97EB969FAFDF
:1026C000EB97A3019201C701B6010E94E838162FCB
:1026D000072F382E292EB801C101272F362F492F59
:1026E000582FE896BFADE897E996AFADE997EA961F
:1026F000FFADEA97EB96EFADEB976B2F7A2F8F2F0D
:102700009E2F0E94C2369B01AC010E94C23660938C
:102710008106709382068093830690938406A301BA
:102720009201A7966CAD7DAD8EAD9FADA7970E942F
:10273000E838EC966FAFEC97ED967FAFED97EF969C
:102740008FAFEF97CD57DF4F9883C358D040A50187
:102750009401C701B6010E94E838CC57DF4F688367
:10276000C458D040CB57DF4F7883C558D040CA57A4
:10277000DF4F8883C658D040C957DF4F9883C7586A
:10278000D040762FCB57DF4F6881C558D040982F67
:10279000C957DF4F8881C758D040272F362F492F80
:1027A000582FEC96BFADEC97ED96AFADED97EF9649
:1027B000FFADEF97CD57DF4FE881C358D0406B2F67
:1027C0007A2F8F2F9E2F0E94C1369B01AC010E9451
:1027D000C236C857DF4F6883C858D040C757DF4F4D
:1027E0007883C958D040C657DF4F8883CA58D04035
:1027F000C557DF4F9883CB58D040472F382F292F0C
:10280000862F942FA32FB22F809385069093860650
:10281000A0938706B0938806B801C101272F362FF1
:10282000492F582FE896BFADE897E996AFADE997E5
:10283000EA96FFADEA97EB96EFADEB976B2F7A2F09
:102840008F2F9E2F0E94C1369B01AC010E94C23681
:102850006093890670938A0680938B0690938C060A
:10286000AC967FADAC97E4966FADE497E6969FADDE
:10287000E697E7968FADE797272F362F492F582FEA
:10288000E096BFADE097A296AFADA297A396FFAD3D
:10289000A397A896EFADA8976B2F7A2F8F2F9E2F17
:1028A0000E94C136162F072F382E292E2C967FAD69
:1028B0002C972E966FAD2E9760969FAD609766967B
:1028C0008FAD6697272F362F492F582FD801F1014A
:1028D0006B2F7A2F8F2F9E2F0E94C2366896BFAD26
:1028E00068976C96AFAD6C97A096FFADA097629677
:1028F000EFAD62972B2F3A2F4F2F5E2F0E94C136DC
:1029000060938D0670938E0680938F069093900649
:10291000A3019201C501B4010E94E8384B015C019A
:10292000A7962CAD3DAD4EAD5FADA797C701B601E3
:102930000E94E8386B017C01762F272F3D2D4E2D0C
:102940005F2D682D792D8A2D9B2D0E94C2369B010B
:10295000AC010E94C236C457DF4F6883CC58D040C8
:10296000C357DF4F7883CD58D040C257DF4F88839D
:10297000CE58D040C157DF4F9883CF58D040472F13
:10298000382F292F862F942FA32FB22F80939106B3
:1029900090939206A0939306B0939406CC57DF4F82
:1029A0007881C458D040CB57DF4F6881C558D0409C
:1029B000CA57DF4F9881C658D040C957DF4F88812A
:1029C000C758D040272F362F492F582FEC96BFAD30
:1029D000EC97ED96AFADED97EF96FFADEF97CD5736
:1029E000DF4FE881C358D0406B2F7A2F8F2F9E2F57
:1029F0000E94C2369B01AC010E94C23660939506CC
:102A00007093960680939706909398062C2D3D2DF3
:102A10004E2D5F2D682D792D8A2D9B2D0E94C1365C
:102A20009B01AC010E94C2366093990670939A068E
:102A300080939B0690939C062C967FAD2C972E96A8
:102A40006FAD2E9760969FAD609766968FAD669737
:102A5000272F362F492F582FD801F1016B2F7A2FAE
:102A60008F2F9E2F0E94C1366896BFAD68976C96D7
:102A7000AFAD6C97A096FFADA0976296EFAD629751
:102A80002B2F3A2F4F2F5E2F0E94C236EF966FAF3B
:102A9000EF97CD57DF4F7883C358D040CC57DF4FE7
:102AA0008883C458D040CB57DF4F9883C558D04057
:102AB000472F382F292F862F942FA32FB22F8093A3
:102AC0009D0690939E06A0939F06B093A006DE01FC
:102AD00095962B96BFAFAEAF2B9784E21D928A9549
:102AE000E9F780E090E0A0E8BFE38DA39EA3AFA349
:102AF000B8A78DAB9EABAFABB8AF29968CAF9DAFEF
:102B0000AEAFBFAF29978090D6059090D705A09023
:102B1000D805B090D90589A69AA6ABA6BCA6A501F2
:102B20009401C501B4010E94E83820E030E040E0A3
:102B30005FE30E94E8386DA77EA78FA798AB89AEA8
:102B40009AAEABAEBCAEC090B802D090B902E090E5
:102B5000BA02F090BB022091BC023091BD024091BC
:102B6000BE025091BF02A7962CAF3DAF4EAF5FAFF4
:102B7000A797A5019401C701B6010E94E8382091EA
:102B8000B4023091B5024091B6025091B7020E9452
:102B9000C2362B013C0120E030E040E05FE3A79625
:102BA0006CAD7DAD8EAD9FADA7970E94E838A501B5
:102BB00094010E94E838A50194010E94E8389B0125
:102BC000AC01C301B2010E94C236CA57DF4F68830D
:102BD000C658D040C957DF4F7883C758D040C05738
:102BE000DF4F8883C059D040CF56DF4F9883C159FB
:102BF000D040A5019401A7966CAD7DAD8EAD9FAD83
:102C0000A7970E94E8389B01AC01C701B6010E945A
:102C1000C236C656DF4F6883CA59D040C556DF4F0B
:102C20007883CB59D040C456DF4F8883CC59D040ED
:102C3000C356DF4F9883CD59D040AE014B5D5F4FF7
:102C400061965FAF4EAF619767961FAE1EAE6797F6
:102C5000C12CD12CFAC08CE692E0E1969FAF8EAFEA
:102C6000E197AD96EEADFFADAD97E00FF11F20817E
:102C7000318142815381C301B2010E94E838A1969B
:102C8000EEADFFADA197E00FF11F208131814281B0
:102C900053810E94E8389B01AC016296BFAD6297F8
:102CA000A296AFADA297A396FFADA397A896EFAD5E
:102CB000A8976B2F7A2F8F2F9E2F0E94C236629675
:102CC0006FAF6297A2967FAFA297A3968FAFA3979D
:102CD000A8969FAFA8979FEF291A390A0C5F1F4F3C
:102CE000A3E02A1631040CF4B6CF2F96EEADFFAD5B
:102CF0002F9731962F96FFAFEEAF2F9769962EAD97
:102D00003FAD69972C5F3F4F69963FAF2EAF6997F4
:102D10006D964EAD5FAD6D97445F5F4F6D965FAF43
:102D20004EAF6D97339704F56196EEADFFAD6197A9
:102D300069968EAD9FAD6997E80FF91F408051806D
:102D400062807380170100E010E0E596AEADBFAD84
:102D5000E5976D96EEADFFAD6D97AE0FBF1FAD96CB
:102D6000BFAFAEAFAD9777CF2D96EEADFFAD2D9740
:102D7000E057FD4F62965FAD6297A2964FADA29766
:102D8000A3963FADA397A8962FADA897852F942F14
:102D9000A32FB22F80839183A283B383FFEFEF1A17
:102DA000FF0A2D962EAD3FAD2D972C5F3F4F2D96F0
:102DB0003FAF2EAF2D97A1964EAD5FADA197405F6F
:102DC0005F4FA1965FAF4EAFA19753E0E516F104B8
:102DD00019F12F96DFAECEAE2F976D961FAE1EAEB9
:102DE0006D9769961FAE1EAE699762961FAE629789
:102DF000A2961FAEA297A3961FAEA397A8961FAE4A
:102E0000A8972D968EAD9FAD2D9784599D4FE59631
:102E10009FAF8EAFE59788CF9FEFC91AD90A619609
:102E2000AEADBFAD619750966196BFAFAEAF619743
:102E30006796EEADFFAD67973C966796FFAFEEAF36
:102E40006797F3E0CF16D10491F09E012B5D3F4FC1
:102E5000A1963FAF2EAFA19767964EAD5FAD679736
:102E60002D965FAF4EAF2D97E12CF12CB2CF20E025
:102E700030E04AE754E4C501B4010E94E8387B0120
:102E80008C012091B0023091B1024091B202509178
:102E9000B3027F2D912F0E94C2362C966FAF2C97D4
:102EA0002E967FAF2E9760968FAF609766969FAFF6
:102EB0006697472F382F292F862F942FA32FB22FB5
:102EC0008093B0029093B102A093B202B093B30288
:102ED000A50194016E2D7F2D802F912F0E94E8383F
:102EE0007B018C0120E030E040E05FE37F2D912FFB
:102EF0000E94E8383B016C01762F272F372D4C2D8F
:102F00005D2D6091AC027091AD028091AE02909106
:102F1000AF020E94C2366093AC027093AD02809300
:102F2000AE029093AF022091A4023091A50240918D
:102F3000A6025091A702662D772D8C2D9D2D0E9403
:102F4000C236A2966FAFA297A3967FAFA397A8961B
:102F50008FAFA897AC969FAFAC97472F382F292FEC
:102F6000862F942FA32FB22F8093A4029093A502B3
:102F7000A093A602B093A702A50194016E2D7F2D08
:102F8000802F912F0E94E838562E472E382E292E5A
:102F900020E030E040EC50E4D201F1016B2F7A2FB9
:102FA0008F2F9E2F0E9441373B018C012091980268
:102FB0003091990240919A0250919B02772D912F66
:102FC0000E94C236C62ED72EE82EF92E462F572F36
:102FD000682F792F409398025093990260939A0238
:102FE00070939B0220E030E040E450E4D201F10114
:102FF0006B2F7A2F8F2F9E2F0E9441379B01AC01A0
:103000006091A0027091A1028091A2029091A3020E
:103010000E94C2366093A0027093A1028093A20224
:103020009093A302262D372D402F512F6091A80297
:103030007091A9028091AA029091AB020E94C236BF
:103040006093A8027093A9028093AA029093AB02A6
:10305000A5019401D201F1016B2F7A2F8F2F9E2FA2
:103060000E94E838562E472E382E292E20E030E0D8
:1030700040E05EE3D201F1016B2F7A2F8F2F9E2F5C
:103080000E94E8383B018C01209194023091950216
:103090004091960250919702772D912F0E94C2364F
:1030A000E4966FAFE497E6967FAFE697E7968FAF2B
:1030B000E797E8969FAFE897472F382F292F862F5D
:1030C000942FA32FB22F8093940290939502A093F4
:1030D0009602B0939702262D372D402F512F6091E5
:1030E0009C0270919D0280919E0290919F020E948D
:1030F000C23660939C0270939D0280939E029093CF
:103100009F02A5019401D201F1016B2F7A2F8F2F1D
:103110009E2F0E94E83820E030E040EA51E40E940F
:10312000413720919002309191024091920250914A
:1031300093020E94C23668966FAF68976C967FAF15
:103140006C97A0968FAFA09762969FAF6297472F1C
:10315000382F292F862F942FA32FB22F80939002E0
:1031600090939102A0939202B09393028091C20235
:103170009091C302EE969FAF8EAFEE97892B29F404
:1031800020E030E44CE155E404C027E137EB41EDA9
:103190005AE36896BFAD68976C96AFAD6C97A096F2
:1031A000FFADA0976296EFAD62976B2F7A2F8F2FAE
:1031B0009E2F0E94C236562E472E382E292E2BE0E7
:1031C00037ED43E25DE32C96BFAD2C972E96AFAD65
:1031D0002E976096FFAD60976696EFAD66976B2F62
:1031E0007A2F8F2F9E2F0E94C2363B018C01762FA3
:1031F000272F372D402F512FD201F1016B2F7A2F1E
:103200008F2F9E2F0E94E8384B015C01A701960189
:10321000C701B6010E94E8389B01AC01C501B401A9
:103220000E94C1364B015C01762F272F392D4A2D84
:103230005B2D662D772D802F912F0E944137E996C7
:103240006FAFE997EA967FAFEA97EB968FAFEB9770
:10325000EC969FAFEC97282D392D4A2D5B2DD2018E
:10326000F1016B2F7A2F8F2F9E2F0E944137562E00
:10327000472E382E292EC701B6019058282D392DFA
:103280004A2D5B2D0E944137162F072F782E692E6D
:10329000B801C301272F362F492F582FC701B60178
:1032A0000E94E838CE56DF4F6883C259D040CD56D1
:1032B000DF4F7883C359D040CC56DF4F8883C45941
:1032C000D040CB56DF4F9883C559D040E9967FADAB
:1032D000E997EA966FADEA97EB969FADEB97EC9680
:1032E0008FADEC97272F362F492F582F6896BFADFB
:1032F00068976C96AFAD6C97A096FFADA09762965D
:10330000EFAD62976B2F7A2F8F2F9E2F0E94E83898
:10331000CE56DF4FB881C259D040CD56DF4FA8817D
:10332000C359D040CC56DF4FF881C459D040CB565A
:10333000DF4FE881C559D0402B2F3A2F4F2F5E2FFA
:103340000E94C236CA56DF4F6883C659D040C9565C
:10335000DF4F7883C759D040C856DF4F8883C8599C
:10336000D040C756DF4F9883C959D040B801C30138
:10337000272F362F492F582F6896BFAD68976C9628
:10338000AFAD6C97A096FFADA0976296EFAD629738
:103390006B2F7A2F8F2F9E2F0E94E8384B015C01F4
:1033A000B201C101272F362F492F582FC701B6016F
:1033B0000E94E8389B01AC01C501B4010E94C236ED
:1033C000462F572F682F792F6B964CAF5DAF6EAF9E
:1033D0007FAF6B97E9967FADE997EA966FADEA9775
:1033E000EB969FADEB97EC968FADEC97272F362F92
:1033F000492F582FE496BFADE497E696AFADE69718
:10340000E796FFADE797E896EFADE8976B2F7A2F39
:103410008F2F9E2F0E94E8384B015C01B801C30139
:10342000272F362F492F582FA296BFADA297A396CC
:10343000AFADA397A896FFADA897AC96EFADAC97AC
:103440006B2F7A2F8F2F9E2F0E94E8389B01AC01A3
:10345000C501B4010E94C236462F572F682F792F1D
:103460006F964CAF5DAF6EAF7FAF6F97B801C30182
:10347000272F362F492F582FE496BFADE497E696B5
:10348000AFADE697E796FFADE797E896EFADE89723
:103490006B2F7A2F8F2F9E2F0E94E8384B015C01F3
:1034A000B201C101272F362F492F582FA296BFAD49
:1034B000A297A396AFADA397A896FFADA897AC9699
:1034C000EFADAC976B2F7A2F8F2F9E2F0E94E8388D
:1034D0009B01AC01C501B4010E94C236862E972E15
:1034E000A82EB92EE9967FADE997EA966FADEA97D7
:1034F000EB969FADEB97EC968FADEC97272F362F81
:10350000492F582FC701B6010E94E8386B017C0192
:10351000B801C301272F362F492F582F2C96BFAD46
:103520002C972E96AFAD2E976096FFAD609766965E
:10353000EFAD66976B2F7A2F8F2F9E2F0E94E83862
:103540009B01AC01C701B6010E94C236C62ED72E20
:10355000E82EF92EB201C101272F362F492F582FFF
:103560002C96BFAD2C972E96AFAD2E976096FFADE3
:1035700060976696EFAD66976B2F7A2F8F2F9E2FF1
:103580000E94E8389B01AC01CE56DF4FB881C2598A
:10359000D040CD56DF4FA881C359D040CC56DF4F25
:1035A000F881C459D040CB56DF4FE881C559D0408F
:1035B0006B2F7A2F8F2F9E2F0E94C236A0966FAF4F
:1035C000A09762967FAF6297A2968FAFA297A396BD
:1035D0009FAFA3978E010F5F1F4F84E2D8011D920A
:1035E0008A95E9F780E090E0A0E8BFE3898B9A8BA9
:1035F000AB8BBC8BCA56DF4F7881C659D040C956B9
:10360000DF4F6881C759D040C856DF4F9881C859ED
:10361000D040C756DF4F8881C959D040272F362F59
:10362000492F582F60E070E080E89FE30E94C13688
:1036300069837A838B839C836B968CAD9DADAEAD95
:10364000BFAD6B97B05889879A87AB87BC876F9659
:103650008CAD9DADAEADBFAD6F97B0588D879E87D9
:10366000AF87B88BD501C401B0588D8B9E8BAF8BC3
:10367000B88FD701C601B058898F9A8FAB8FBC8F96
:10368000A0967FADA09762966FAD6297A2969FAD10
:10369000A297A3968FADA397272F362F492F582F88
:1036A00060E070E080E89FE30E94C13669A37AA3DE
:1036B0008BA39CA31801FE01B5962B96FFAFEEAF2E
:1036C0002B9785C02D96AEADBFAD2D976D917D9199
:1036D0008D919D912D96BFAFAEAF2D97F1012081B9
:1036E0003181428153810E94E83820E030E0A90115
:1036F0000E94C236162F072F782E692E2D96AEAD5A
:10370000BFAD2D9718962D913D914D915C911B97D2
:10371000F10164817581868197810E94E8389B015F
:10372000AC01D801F3016B2F7A2F8F2F9E2F0E94AF
:10373000C236162F072F782E692EE1962EAD3FAD9B
:10374000E197240D351D2F963FAF2EAF2F972D9665
:10375000AEADBFAD2D9754962D913D914D915C919D
:103760005797F10160857185828593850E94E838BD
:103770009B01AC01D801F3016B2F7A2F8F2F9E2F65
:103780000E94C2362F96AEADBFAD2F976D937D933D
:103790008D939C931397B4E04B0E511CECE04E16A6
:1037A000510409F08FCFFCE02F0E311CE1962EADB5
:1037B0003FADE197245F3F4FE1963FAF2EAFE197DA
:1037C0002B964EAD5FAD2B972416350649F080E958
:1037D00092E02D969FAF8EAF2D97412C512C72CF3A
:1037E000EE96AEADBFADEE97BD0180E090E00E94D9
:1037F000DA3720E030E040E05FE30E94E83826E678
:1038000036E24AEA53E40E94E8382DEB37E346E813
:1038100055E30E94E838CA57DF4FB881C658D040F8
:10382000C957DF4FA881C758D040C057DF4FF88134
:10383000C059D040CF56DF4FE881C159D0402B2F1F
:103840003A2F4F2F5E2F0E94C1362C966FAF2C97C8
:103850002E967FAF2E9760968FAF609766969FAF3C
:1038600066972091DC023091DD024091DE0250919A
:10387000DF02C857DF4FB881C858D040C757DF4F65
:10388000A881C958D040C657DF4FF881CA58D040E8
:10389000C557DF4FE881CB58D0406B2F7A2F8F2F41
:1038A0009E2F0E94E8382B013C012091E0023091CC
:1038B000E1024091E2025091E302C457DF4FB88128
:1038C000CC58D040C357DF4FA881CD58D040C25705
:1038D000DF4FF881CE58D040C157DF4FE881CF5835
:1038E000D0406B2F7A2F8F2F9E2F0E94E8389B019C
:1038F000AC01C301B2010E94C2362B013C012091F0
:10390000E4023091E5024091E6025091E702EF9621
:10391000BFADEF97CD57DF4FA881C358D040CC57EC
:10392000DF4FF881C458D040CB57DF4FE881C558EE
:10393000D0406B2F7A2F8F2F9E2F0E94E8389B014B
:10394000AC01C301B2010E94C2369B01AC0160E030
:1039500070E080E89FEB0E94C13628EB3EE14DE12C
:1039600051E40E94E838A7962CAD3DAD4EAD5FAD59
:10397000A7970E94C136362E272E182F092F2C9676
:103980007FAD2C972E966FAD2E9760969FAD60976A
:1039900066968FAD6697272F362F492F582FCA5618
:1039A000DF4FB881C659D040C956DF4FA881C759EB
:1039B000D040C856DF4FF881C859D040C756DF4FB6
:1039C000E881C959D0406B2F7A2F8F2F9E2F0E94EC
:1039D000E8389B01AC01CA57DF4FB881C658D040C8
:1039E000C957DF4FA881C758D040C057DF4FF88173
:1039F000C059D040CF56DF4FE881C159D0406B2F1E
:103A00007A2F8F2F9E2F0E94C2362B013C01B101CD
:103A1000C801272F362F492F582F6B966CAD7DADDF
:103A20008EAD9FAD6B970E94E8389B01AC01C3013E
:103A3000B2010E94C2366093B4027093B5028093C3
:103A4000B6029093B7022C967FAD2C972E966FAD51
:103A50002E9760969FAD609766968FAD6697272FDD
:103A6000362F492F582F6F966CAD7DAD8EAD9FAD23
:103A70006F970E94E8389B01AC01C656DF4FB881B2
:103A8000CA59D040C556DF4FA881CB59D040C45643
:103A9000DF4FF881CC59D040C356DF4FE881CD5974
:103AA000D0406B2F7A2F8F2F9E2F0E94C2362B0172
:103AB0003C01B101C801272F362F492F582FC501CE
:103AC000B4010E94E8389B01AC01C301B2010E941D
:103AD000C2366093B8027093B9028093BA02909391
:103AE000BB022C967FAD2C972E966FAD2E976096CD
:103AF0009FAD609766968FAD6697272F362F492F1B
:103B0000582FC701B6010E94E8389B01AC01A79667
:103B10006CAD7DAD8EAD9FADA7970E94C2366B0197
:103B20007C01B101C801272F362F492F582FA096AD
:103B3000BFADA0976296AFAD6297A296FFADA29778
:103B4000A396EFADA3976B2F7A2F8F2F9E2F0E94F6
:103B5000E8389B01AC01C701B6010E94C2366093F0
:103B6000BC027093BD028093BE029093BF0260E0DE
:103B700072E087E197E00E94D929CF57DF4FE881B3
:103B8000F981C158D0404191519161917191CF57C4
:103B9000DF4FF983E883C158D04022E030E087E16D
:103BA00097E00E945C2B63E172E087E197E00E945E
:103BB000D929CF57DF4F28813981C158D040285E9D
:103BC0003240D9F6C158DF4FA881B981CF57D040D4
:103BD0004D915D916D917D91C158DF4FB983A8835F
:103BE000CF57D04022E030E087E197E00E945C2B85
:103BF00063E172E087E197E00E94D929C158DF4F65
:103C0000E881F981CF57D040E45FF240D9F6409186
:103C1000C8025091C9026091CA027091CB0222E0A1
:103C200030E087E197E00E945C2B63E172E087E17E
:103C300097E00E94D9294091C4025091C502609139
:103C4000C6027091C70222E030E087E197E00E944F
:103C50005C2B63E172E087E197E00E94D9294091F3
:103C6000D0025091D1026091D2027091D30222E031
:103C700030E087E197E00E945C2B63E172E087E12E
:103C800097E00E94D9294091D4025091D5026091C9
:103C9000D6027091D70222E030E087E197E00E94DF
:103CA0005C2B63E172E087E197E00E94D9294091A3
:103CB000D8025091D9026091DA027091DB0222E0C1
:103CC00030E087E197E00E945E2B67E072E087E1D9
:103CD00097E00E94D9290CE512E0D8016D917D9101
:103CE0008D919D918D0120E030E048EC52E40E94DE
:103CF000E838AB01BC0122E030E087E197E00E94A8
:103D00005C2B63E172E087E197E00E94D929B2E081
:103D10000C361B0711F764E172E087E197E00E941F
:103D2000F8296FE072E087E197E00E94D92920E04E
:103D300030E048EC52E46091B8027091B902809191
:103D4000BA029091BB020E94E838AB01BC0122E0AC
:103D500030E087E197E00E945C2B63E172E087E14D
:103D600097E00E94D92920E030E048EC52E46091CD
:103D70007C0270917D0280917E0290917F020E9470
:103D8000E838AB01BC0122E030E087E197E00E9417
:103D90005C2B64E172E087E197E00E94F829809053
:103DA0005C0290905D02A0905E02B0905F02C090B5
:103DB0006802D0906902E0906A02F0906B02A5015F
:103DC0009401C501B4010E94E8382B013C01A70110
:103DD0009601C701B6010E94E8389B01AC01C301FE
:103DE000B2010E94C2360E949B399B01AC0160E087
:103DF00070E080E89FE30E9441373B018C01762F01
:103E0000272F372D402F512FC501B4010E94E838CC
:103E1000A4966FAFA4972C967FAF2C971C01472FC9
:103E2000862F942FA22DB32D80934C0290934D0298
:103E3000A0934E02B0934F02C701B6019058262DB1
:103E4000372D402F512F0E94E83820E030E040E02D
:103E500050E80E94E8382E966FAF2E9760967FAF9D
:103E6000609766968FAF669768969FAF6897472F63
:103E7000382F292F862F942FA32FB22F80935002F3
:103E800090935102A0935202B093530220E030E08D
:103E900040E050E8A496BFADA4972C96AFAD2C9708
:103EA0006B2F7A2F822D932D0E94E8386C966FAF7E
:103EB0006C97A0967FAFA09762968FAF6297E096BF
:103EC0009FAFE097472F382F292F862F942FA32FAE
:103ED000B22F8093540290935502A0935602B09350
:103EE0005702262D372D402F512FC701B6010E94B2
:103EF000E838A2966FAFA297A3967FAFA3978C01E5
:103F0000472F862F942FA02FB12F80935802909384
:103F10005902A0935A02B0935B0220916002309143
:103F200061024091620250916302AB962CAF3DAFAB
:103F30004EAF5FAFAB978091640290916502A09104
:103F40006602B0916702AF968CAF9DAFAEAFBFAFC8
:103F5000AF972E967FAD2E9760966FAD6097669661
:103F60009FAD669768968FAD6897272F362F492F9C
:103F7000582FC501B4010E94E8382B013C01A496DA
:103F80007FADA4972C966FAD2C97272F362F422DFF
:103F9000532DAB966CAD7DAD8EAD9FADAB970E94B2
:103FA000E8389B01AC01C301B2010E94C1362B016C
:103FB0003C01A2967FADA297A3966FADA397272F42
:103FC000362F402F512FAF966CAD7DAD8EAD9FAD8E
:103FD000AF970E94E8389B01AC01C301B2010E9477
:103FE000C1362B013C016C967FAD6C97A0966FADEE
:103FF000A09762969FAD6297E0968FADE097272FCE
:10400000362F492F582FC701B6010E94E8389B016F
:10401000AC01C301B2010E94C236E4966FAFE497CF
:10402000E6967FAFE697E7968FAFE797E8969FAF64
:10403000E8976C967FAD6C97A0966FADA09762964F
:104040009FAD6297E0968FADE097272F362F492FCF
:10405000582FC501B4010E94E8382B013C01A296FB
:104060007FADA297A3966FADA397272F362F402F32
:10407000512FAB966CAD7DAD8EAD9FADAB970E94D1
:10408000E8389B01AC01C301B2010E94C2362B018A
:104090003C01A4967FADA4972C966FAD2C97272F4B
:1040A000362F422D532DAF966CAD7DAD8EAD9FADAD
:1040B000AF970E94E8389B01AC01C301B2010E9496
:1040C000C1362B013C012E967FAD2E9760966FADC9
:1040D000609766969FAD669768968FAD6897272F15
:1040E000362F492F582FC701B6010E94E8389B018F
:1040F000AC01C301B2010E94C136E9966FAFE997E6
:10410000EA967FAFEA97EB968FAFEB97EC969FAF6F
:10411000EC97A2967FADA297A3966FADA397272F9A
:10412000362F402F512FC501B4010E94E8382B01D2
:104130003C016C967FAD6C97A0966FADA097629690
:104140009FAD6297E0968FADE097272F362F492FCE
:10415000582FAB966CAD7DAD8EAD9FADAB970E94E9
:10416000E8389B01AC01C301B2010E94C1362B01AA
:104170003C012E967FAD2E9760966FAD6097669648
:104180009FAD669768968FAD6897272F362F492F7A
:10419000582FAF966CAD7DAD8EAD9FADAF970E94A1
:1041A000E8389B01AC01C301B2010E94C2362B0169
:1041B0003C01A4967FADA4972C966FAD2C97272F2A
:1041C000362F422D532DC701B6010E94E8389B01BE
:1041D000AC01C301B2010E94C136C158DF4F6883F0
:1041E000CF57D040CF57DF4F7883C158D040ED969E
:1041F0008FAFED97EF969FAFEF97E4967FADE49783
:10420000E6966FADE697E7969FADE797E8968FAD98
:10421000E897272F362F492F582FDB01FC016B2FF2
:104220007A2F8F2F9E2F0E94E8382B013C01E996B0
:104230007FADE997EA966FADEA97EB969FADEB9766
:10424000EC968FADEC97272F362F492F582FDB0197
:10425000FC016B2F7A2F8F2F9E2F0E94E8389B0135
:10426000AC01C301B2010E94C2362B013C01C1580E
:10427000DF4F7881CF57D040CF57DF4F6881C1588B
:10428000D040ED969FADED97EF968FADEF97272F2E
:10429000362F492F582FDB01FC016B2F7A2F8F2FE0
:1042A0009E2F0E94E8389B01AC01C301B2010E941D
:1042B000C236C158DF4F6883CF57D040CF57DF4F4A
:1042C0007883C158D040ED968FAFED97EF969FAFB2
:1042D000EF970E9426372B013C01A4967FADA4974F
:1042E0002C966FAD2C97272F362F422D532DC501BD
:1042F000B4010E94E8384B015C012E967FAD2E97E9
:1043000060966FAD609766969FAD669768968FAD25
:104310006897272F362F492F582FAB966CAD7DAD60
:104320008EAD9FADAB970E94E8389B01AC01C501F3
:10433000B4010E94C2364B015C016C967FAD6C9754
:10434000A0966FADA09762969FAD6297E0968FADF5
:10435000E097272F362F492F582FAF966CAD7DADA4
:104360008EAD9FADAF970E94E8389B01AC01C501AF
:10437000B4010E94C2364B015C01A2967FADA297A8
:10438000A3966FADA397272F362F402F512FC7012C
:10439000B6010E94E8389B01AC01C501B4010E943E
:1043A000C23620E030E0A9010E94DD3818162CF456
:1043B00020E030E040E85FE304C020E030E040E887
:1043C0005FEBC301B2010E94E8385B018C01C15868
:1043D000DF4F5881CF57D040CF57DF4F4881C1586A
:1043E000D040ED963FADED97EF962FADEF97652F4F
:1043F000742F832F922F0E949B396B017C019B01AC
:10440000AC01E996BFADE997EA96AFADEA97EB96B6
:10441000FFADEB97EC96EFADEC976B2F7A2F8F2FCC
:104420009E2F0E9441372A2D3B2D402F512F0E9455
:10443000E838A4966FAFA4972C967FAF2C972E9652
:104440008FAF2E9760969FAF60974090D6055090A3
:10445000D7056090D8057090D905A7019601E4961C
:10446000BFADE497E696AFADE697E796FFADE79769
:10447000E896EFADE8976B2F7A2F8F2F9E2F0E9433
:1044800041372A2D3B2D402F512F0E94E838A301A0
:1044900092010E94E83820914802309149024091EF
:1044A0004A0250914B020E94C2361B018C0180903F
:1044B000A1069090A206A090A306B090A406750154
:1044C0006401F7FAF094F7F8F094A7019601732DC0
:1044D000912F0E943D3787FD0DC0A5019401622DEB
:1044E000732D802F912F0E94DD3818162CF41401A3
:1044F000850102C016018701822D932DA02FB12FB7
:104500008093480290934902A0934A02B0934B02D1
:10451000A3019201A496BFADA4972C96AFAD2C97A2
:104520002E96FFAD2E976096EFAD60976B2F7A2F8A
:104530008F2F9E2F0E94E83820914402309145022F
:1045400040914602509147020E94C2363B018C01C5
:10455000A7019601772D912F0E943D3787FD11C04D
:10456000A5019401662D772D802F912F0E94DD38B3
:1045700018161CF47501640104C0C62CD72CE02E5B
:10458000F12EC0924402D0924502E0924602F0928F
:104590004702109240021092410210924202109281
:1045A000430210923C0210923D0210923E02109281
:1045B0003F02109238021092390210923A02109281
:1045C0003B026091E2057091E3058091E4059091D2
:1045D000E50524E630E040E050E00E94EF3A31E0AB
:1045E000672B682B692B09F430E021E08091C2022F
:1045F0009091C302892B09F020E0632F62278DE0A0
:104600000E943A258091E2059091E305A091E4058E
:10461000B091E5050196A11DB11D8093E20590932F
:10462000E305A093E405B093E505C356DF4F0FB64D
:10463000F894DEBF0FBECDBFDF91CF911F910F91D8
:10464000FF90EF90DF90CF90BF90AF909F908F90B2
:104650007F906F905F904F903F902F900895CF93F1
:10466000DF9320E030E0A9016AE979E989E99EE376
:104670000E9441376093A1067093A2068093A3061F
:104680009093A4068CEF99EAA1E7BDEB8093A50671
:104690009093A606A093A706B093A8068DEC9CEC79
:1046A000ACE4BDE38093A9069093AA06A093AB0661
:1046B000B093AC061092AD061092AE061092AF0603
:1046C0001092B006C1E4D6E0CE010E94E02F2396FE
:1046D00086E0CD34D807C1F780E496E00E943630FA
:1046E0008AE096E00E94623124E630E04AE168E127
:1046F0008AEE95E0DF91CF910C9435351F920F92A1
:104700000FB60F9211242F933F938F939F93AF93E4
:10471000BF938091B1069091B206A091B306B0917B
:10472000B4063091B906232F2D5F2D3720F4019662
:10473000A11DB11D05C0232F2A570296A11DB11D31
:104740002093B9068093B1069093B206A093B30666
:10475000B093B4068091B5069091B606A091B706C5
:10476000B091B8060196A11DB11D8093B506909336
:10477000B606A093B706B093B806BF91AF919F91CC
:104780008F913F912F910F900FBE0F901F90189512
:104790000F931F938FB7F8940091B1061091B20652
:1047A0002091B3063091B4068FBFB801C9011F91A3
:1047B0000F9108950F931F939FB7F8940091B5063A
:1047C0001091B6062091B7063091B80686B5A89B21
:1047D00006C08F3F21F00F5F1F4F2F4F3F4F9FBFEE
:1047E000322F212F102F0027080F111D211D311DE1
:1047F00042E0000F111F221F331F4A95D1F7B80165
:10480000C9011F910F910895CF92DF92EF92FF920D
:10481000CF93DF936B017C010E94DA23EB010EC082
:104820000E94DA236C1B7D0B683E734038F081E0F8
:10483000C81AD108E108F108C851DC4FC114D104ED
:10484000E104F10469F7DF91CF91FF90EF90DF90E1
:10485000CF900895019739F0880F991F880F991FFD
:1048600002970197F1F70895789484B5826084BD2A
:1048700084B5816084BD85B5826085BD85B5816064
:1048800085BDEEE6F0E0808181608083E1E8F0E0C4
:104890001082808182608083808181608083E0E8F3
:1048A000F0E0808181608083E1EBF0E080818460D2
:1048B0008083E0EBF0E0808181608083E1E9F0E0DB
:1048C000808182608083808181608083E0E9F0E084
:1048D000808181608083E1EAF0E080818260808372
:1048E000808181608083E0EAF0E080818160808364
:1048F000E1E2F1E080818260808380818160808359
:10490000E0E2F1E0808181608083EAE7F0E080818D
:1049100084608083808182608083808181608083E5
:104920008081806880831092C1000895893009F4E5
:1049300043C088F4843029F138F4823059F1E8F426
:10494000813009F05EC023C0873061F188F5863080
:1049500009F057C023C08D3009F440C020F48B30DB
:10496000A9F1C0F52DC0803109F442C0813109F4AC
:1049700043C08F3009F045C037C0809180008F77E9
:1049800003C0809180008F7D80938000089584B55E
:104990008F7702C084B58F7D84BD08958091B0006B
:1049A0008F7703C08091B0008F7D8093B000089511
:1049B000809190008F7707C0809190008F7D03C019
:1049C00080919000877F8093900008958091A0004F
:1049D0008F7707C08091A0008F7D03C08091A000D9
:1049E000877F8093A0000895809120018F7707C072
:1049F000809120018F7D03C080912001877F80936B
:104A000020010895CF93DF9390E0FC01E851FE4F21
:104A10004491FC01E25DFD4F8491882341F190E0D7
:104A2000880F991FFC01E855FD4F25913491D9015C
:104A300082579D4FFC0185919491C82FD92F9FB724
:104A4000F8948C91611106C0409584238C938881E1
:104A5000842308C0623041F4242F209582238C9354
:104A60008881842B888302C0842B8C939FBFDF9125
:104A7000CF9108950F931F93CF93DF931F92CDB7DC
:104A8000DEB7282F30E0F901EE55FE4F8491F90191
:104A9000E851FE4F1491F901E25DFD4F04910023AE
:104AA000D1F0882321F069830E9496246981E02F48
:104AB000F0E0EE0FFF1FE257FD4F85919491DC016E
:104AC0009FB7F8948C91611103C01095812301C0A8
:104AD000812B8C939FBF0F90DF91CF911F910F91EE
:104AE0000895FC0184859585FC01E05CFF4F2081E1
:104AF0003181FC01EE5BFF4F80819181281B390BD6
:104B00002F733327C9010895FC0184859585FC0125
:104B1000E05CFF4F40815181FC01EE5BFF4F208143
:104B200031814217530741F00190F081E02DE80FE9
:104B3000F91F208130E002C02FEF3FEFC901089537
:104B4000FC0184859585FC01E05CFF4F408151812B
:104B5000FC01EE5BFF4F208131814217530781F04A
:104B6000A081B181A80FB91F8C91208131812F5F65
:104B70003F4F2F73332731832083282F30E002C02B
:104B80002FEF3FEFC9010895FC0186859785FC0151
:104B9000E05CFF4FDC01AE5BBF4F408151812D9146
:104BA0003C91119742175307C1F70895CF93DF93B4
:104BB000FC0186859785DC01A05CBF4F2D913C915F
:104BC00011972F5F3F4F2F733327EC01CE5BDF4FE1
:104BD0004881598124173507D9F30D90BC91A02D38
:104BE000A80FB91F6C93A685B785A05CBF4F11961F
:104BF0003C932E93A689B7892C9181E090E0058C97
:104C000002C0880F991F0A94E2F7282B2C9381E0A9
:104C100090E0DF91CF910895FB01E05CFF4F208190
:104C200031812F5F3F4F2F733327DB01AE5BBF4FC7
:104C30004D915C912417350739F0A081B181A60F01
:104C4000B71F8C9331832083089508951F920F928C
:104C50000FB60F9211240BB60F922F933F934F93E1
:104C60005F936F937F938F939F93AF93BF93EF93D4
:104C7000FF938091C60062E179E00E940C26FF91CB
:104C8000EF91BF91AF919F918F917F916F915F91C4
:104C90004F913F912F910F900BBE0F900FBE0F9031
:104CA0001F90189508951F920F920FB60F9211241E
:104CB0000BB60F922F933F934F935F936F937F9316
:104CC0008F939F93AF93BF93EF93FF938091CE0009
:104CD0006AE878E00E940C26FF91EF91BF91AF91B6
:104CE0009F918F917F916F915F914F913F912F9104
:104CF0000F900BBE0F900FBE0F901F901895089548
:104D00001F920F920FB60F9211240BB60F922F9392
:104D10003F934F935F936F937F938F939F93AF9343
:104D2000BF93EF93FF938091D60062E078E00E94FA
:104D30000C26FF91EF91BF91AF919F918F917F9141
:104D40006F915F914F913F912F910F900BBE0F90FC
:104D50000FBE0F901F90189508951F920F920FB6D7
:104D60000F9211240BB60F922F933F934F935F93A3
:104D70006F937F938F939F93AF93BF93EF93FF9323
:104D8000809136016AE777E00E940C26FF91EF914F
:104D9000BF91AF919F918F917F916F915F914F9153
:104DA0003F912F910F900BBE0F900FBE0F901F9051
:104DB000189587E197E00E947125892B11F00E94D8
:104DC000252688EF96E00E947125892B11F00E941C
:104DD000522689ED96E00E947125892B11F00E94E0
:104DE0007F268AEB96E00E947125892B11F00C94A6
:104DF000AC2608951F920F920FB60F9211240BB696
:104E00000F922F933F938F939F93EF93FF93209154
:104E10000E0930910F0980911009909111092817FE
:104E2000390731F48091C1008F7D8093C10014C097
:104E3000E0911009F0911109E253F74F2081809120
:104E400010099091110901968F7399279093110978
:104E5000809310092093C600FF91EF919F918F914D
:104E60003F912F910F900BBE0F900FBE0F901F9090
:104E700018951F920F920FB60F9211240BB60F9236
:104E80002F933F938F939F93EF93FF9320918608E7
:104E900030918708809188089091890828173907F0
:104EA00031F48091C9008F7D8093C90014C0E091D6
:104EB0008808F0918908EA5BF74F20818091880883
:104EC0009091890801968F73992790938908809310
:104ED00088082093CE00FF91EF919F918F913F9191
:104EE0002F910F900BBE0F900FBE0F901F90189533
:104EF0001F920F920FB60F9211240BB60F922F93A1
:104F00003F938F939F93EF93FF932091FE073091F0
:104F1000FF0780910008909101082817390731F4A4
:104F20008091D1008F7D8093D10014C0E091000862
:104F3000F0910108E254F84F20818091000890918F
:104F4000010801968F7399279093010880930008B8
:104F50002093D600FF91EF919F918F913F912F91D8
:104F60000F900BBE0F900FBE0F901F9018951F92C1
:104F70000F920FB60F9211240BB60F922F933F93FF
:104F80008F939F93EF93FF9320917607309177074C
:104F900080917807909179072817390731F480912B
:104FA00031018F7D8093310114C0E0917807F09139
:104FB0007907EA5CF84F2081809178079091790712
:104FC00001968F73992790937907809378072093A0
:104FD0003601FF91EF919F918F913F912F910F900B
:104FE0000BBE0F900FBE0F901F901895CF92DF92BF
:104FF000EF92FF92CF93DF93EC016A017B014115A1
:1050000081EE580761057105F9F0EC89FD8981E0B1
:1050100090E00E8C02C0880F991F0A94E2F78083FB
:1050200060E079E08DE390E0A70196010E94CD3A1F
:1050300021503109410951095695479537952795D2
:10504000211580E1380798F0EC89FD89108260E82D
:1050500074E88EE190E0A70196010E94CD3A2150BC
:105060003109410951095695479537952795E889A2
:10507000F9893083EA89FB892083EE89FF894081A1
:1050800081E090E09C010A8C02C0220F331F0A9439
:10509000E2F7422B4083EE89FF8940819C010B8C13
:1050A00002C0220F331F0A94E2F7422B4083EE899D
:1050B000FF8940819C010C8C02C0220F331F0A948F
:1050C000E2F7422B4083EE89FF8920810D8C02C0DC
:1050D000880F991F0A94E2F7809582238083DF91DD
:1050E000CF91FF90EF90DF90CF900895CF931092E3
:1050F0001A071092190788EE93E0A0E0B0E08093C1
:105100001B0790931C07A0931D07B0931E0729E16E
:1051100032E0309318072093170742E159E050938B
:105120002407409323074EEC58E050932607409302
:10513000250745EC50E0509328074093270744EC9F
:1051400050E050932A074093290740EC50E05093D9
:105150002C0740932B0741EC50E050932E074093CF
:105160002D0746EC50E05093300740932F07C4E0E2
:10517000C0933107F3E0F0933207E7E0E0933307A1
:1051800075E07093340761E0609335071092FB0679
:105190001092FA068093FC069093FD06A093FE06FB
:1051A000B093FF063093F9062093F8064AE858E0DA
:1051B000509305074093040746E458E050930707CF
:1051C000409306074DEC50E05093090740930807C1
:1051D0004CEC50E050930B0740930A0748EC50E02A
:1051E00050930D0740930C0749EC50E050930F0784
:1051F00040930E074EEC50E0509311074093100778
:10520000C0931207F0931307E093140770931507E8
:10521000609316071092DC061092DB068093DD0681
:105220009093DE06A093DF06B093E0063093DA0693
:105230002093D90642E058E05093E6064093E506F5
:105240004EEB57E05093E8064093E70645ED50E0FB
:105250005093EA064093E90644ED50E05093EC0683
:105260004093EB0640ED50E05093EE064093ED0680
:1052700041ED50E05093F0064093EF0646ED50E0CC
:105280005093F2064093F106C093F306F093F406B0
:10529000E093F5067093F6066093F7061092BD064C
:1052A0001092BC068093BE069093BF06A093C006E2
:1052B000B093C1063093BB062093BA068AE797E005
:1052C0009093C7068093C60686E397E09093C9063D
:1052D0008093C80685E391E09093CB068093CA063D
:1052E00084E391E09093CD068093CC0680E391E037
:1052F0009093CF068093CE0681E391E09093D10600
:105300008093D00686E391E09093D3068093D206F3
:10531000C093D406F093D506E093D6067093D706D3
:105320006093D806CF9108950E9434240E948D077F
:10533000C9EDD6E20E947C092097E1F30E94D926AC
:10534000F9CFCF92DF92EF92FF920F931F93CF93FB
:10535000DF936C01EB017A01E60EF71E00E010E02E
:105360000BC06991D601ED91FC910190F081E02D87
:10537000C6011995080F191FCE15DF0591F7C80151
:10538000DF91CF911F910F91FF90EF90DF90CF9021
:105390000895DB010D900020E9F7AD01415051095E
:1053A000461B570BDC01ED91FC910280F381E02D4F
:1053B00019940C94C929DC01ED91FC910190F081C4
:1053C000E02D19940F931F93CF93DF93EC016DE0C1
:1053D0000E94DB298C016AE0CE010E94DB299C013E
:1053E000200F311FC901DF91CF911F910F910895B7
:1053F0000F931F93CF93DF93EC010E94C9298C0177
:10540000CE010E94E2299801280F391FC901DF91BE
:10541000CF911F910F9108954F925F926F927F925B
:105420009F92AF92BF92CF92DF92EF92FF920F9333
:105430001F93CF93DF93CDB7DEB7A1970FB6F89444
:10544000DEBF0FBECDBF5C016A017B01922E19A2A7
:1054500081E0821710F08AE0982E8E010F5D1F4FB9
:10546000492C512C612C712CC701B601A30192016A
:105470000E94CD3A8C2D929E801911240150110961
:105480008A3010F4805D01C0895CF8018083690175
:105490007A01C114D104E104F10431F7B801C50166
:1054A0000E94C929A1960FB6F894DEBF0FBECDBFEA
:1054B000DF91CF911F910F91FF90EF90DF90CF90F0
:1054C000BF90AF909F907F906F905F904F900895A6
:1054D000CF92DF92EF92FF920F931F93CF93DF93C0
:1054E000EC016A017B012115310579F4E881F9812C
:1054F0000190F081E02D642FDF91CF911F910F91EA
:10550000FF90EF90DF90CF9019942A30310519F475
:1055100077FD0EC02AE0B701A601CE01DF91CF9141
:105520001F910F91FF90EF90DF90CF900C940C2A79
:105530006DE20E94DB298C0144275527BA014C19E2
:105540005D096E097F092AE0CE010E940C2A080F2E
:10555000191FC801DF91CF911F910F91FF90EF901C
:10556000DF90CF9008957F928F929F92AF92BF92DB
:10557000CF92DF92EF92FF920F931F93CF93DF931F
:105580008C014A015B01F22E20E030E0A901C50147
:10559000B4010E943D3787FF0AC06DE2C8010E9436
:1055A000DB29EC01B7FAB094B7F8B09402C0C0E0C0
:1055B000D0E0E12C60E070E080E09FE307C020E0F5
:1055C00030E040E251E40E944137E394EF10F7CF1E
:1055D000262F372F482F592FC501B4010E94C236FC
:1055E000762E872E982EA92E0E94AE37B62EC72E65
:1055F000D82EE92E0E94DA379B01AC01672D782D59
:10560000892D9A2D0E94C136A62E972E882E792E8E
:105610002AE04B2D5C2D6D2D7E2DC8010E940C2A99
:10562000C80FD91FFF20B9F165E272E0C8010E94DE
:10563000C929C80FD91F2FC020E030E040E251E453
:105640006A2D792D882D972D0E94E838762EC72E49
:10565000D82EE92E0E94A9374B01AA2497FCA094CA
:10566000BA2C2AE030E0B501A401C8010E94682AE2
:10567000C80FD91FC501B4010E94DC379B01AC01E2
:10568000672D7C2D8D2D9E2D0E94C136A62E972E26
:10569000882E792EFA94F110CFCFCE01DF91CF91E1
:1056A0001F910F91FF90EF90DF90CF90BF90AF9040
:1056B0009F908F907F9008950C94B32A0F931F931F
:1056C000CF93DF93EC010E94B32A8C01CE010E949C
:1056D000E2299801280F391FC901DF91CF911F914D
:1056E0000F9108952091860930E080918709281B49
:1056F0003109C90108958091870990918609891718
:1057000050F4E82FF0E0E857F64F208130E08F5F4B
:105710008093870902C02FEF3FEFC9010895E09100
:10572000870980918609E81730F4F0E0E857F64FD2
:10573000208130E002C02FEF3FEFC90108950895A6
:10574000CF92DF92EF92FF920F931F93CF93DF934D
:105750007C01CB018A0120916209222391F0EB01A7
:105760006B01C40ED51E09C06991D701ED91FC9162
:105770000190F081E02DC7011995CC15DD05A1F749
:1057800003C0642F0E94072DC801DF91CF911F91A4
:105790000F91FF90EF90DF90CF900895CF93DF931C
:1057A0001F92CDB7DEB76983209162092223D1F021
:1057B00020916309203240F021E030E0FC01338386
:1057C000228320E030E015C080916409E82FF0E0EA
:1057D000EB59F64F998190838F5F80936409809392
:1057E000630905C061E0CE0101960E94072D21E00A
:1057F00030E0C9010F90DF91CF910895FC01138231
:10580000128248EE53E060E070E044835583668383
:1058100077838BE292E091838083089510928709C9
:105820001092860910926409109263090C94512C0D
:10583000862F413208F040E268E879E00E946F2C40
:105840001092870980938609089521E00C94182C02
:1058500021E00C94182C81E0809362096093850903
:10586000109264091092630908950C942B2C0F93E5
:10587000062F21E04091630965E679E08091850972
:105880000E94B42C1092640910926309109262096C
:105890000F91089561E00C94372C86E599E00C9403
:1058A000FE2B1092B10981E08093AF091092AE09EE
:1058B00061E084E10E943A2561E085E10E943A2599
:1058C000E9EBF0E080818E7F808380818D7F808313
:1058D00088E48093B80085E48093BC000895413249
:1058E00008F03FC09091B1099111FCCF91E09093E5
:1058F000B1092093AF092FEF2093A8091092AD09A9
:10590000242F21502093AC099093B0099091B009B5
:10591000880F892B8093B0098091AE09813041F4C2
:105920001092AE098091B0098093BB0085EC01C054
:1059300085EE8093BC008091B1098130E1F38091C4
:10594000AD09841710F44091AD0922EB39E0FB0159
:10595000D90102C08D9181938A2F821B8417D0F3C5
:1059600001C040E0842F08950F93413208F046C0F3
:105970009091B1099111FCCF92E09093B1090093FD
:10598000AF099FEF9093A8091092AD094093AC091D
:10599000FB0162EB79E0DB0102C091919D939A2FAC
:1059A000961B9417D0F31092B0099091B009880F0C
:1059B000892B8093B0098091AE09813041F4109217
:1059C000AE098091B0098093BB0085EC01C085EEE3
:1059D0008093BC00222321F08091B1098230E1F351
:1059E0008091A8098F3F61F08091A809803251F021
:1059F0008091A809803341F483E007C081E005C0AD
:105A000080E003C082E001C084E00F91089561321C
:105A100098F42091B109243089F46093AA09FC011B
:105A200082ED99E0DC0102C021912D932A2F281BE1
:105A30002617D0F380E0089581E0089582E008956C
:105A400085ED8093BC008091BC0084FDFCCF10925A
:105A5000B109089585EC8093BC001092B1090895B6
:105A60001F920F920FB60F9211240BB60F922F9325
:105A70003F934F935F936F937F938F939F93AF93D6
:105A8000BF93EF93FF938091B900887F803609F42C
:105A90009FC058F5883209F45BC090F4803109F456
:105AA00052C038F4882309F4F8C0883009F0F9C0EE
:105AB0004AC0883109F44CC0803209F0F2C05CC0A1
:105AC000803409F46BC038F4803309F455C088334E
:105AD00009F0E7C054C0803509F454C0883509F492
