:100000000C9464010C9495010C9495010C94950149
:100010000C9495010C9495010C9495010C94950108
:100020000C9495010C9495010C9495010C949501F8
:100030000C9495010C949D430C9495010C9495019E
:100040000C9495010C94353C0C9495010C949501FD
:100050000C9495010C9495010C9495010C948730A7
:100060000C9495010C942F330C9403340C9495014B
:100070000C9495010C9495010C9495010C949501A8
:100080000C94623C0C9495010C9495010C94950190
:100090000C945C330C9442340C9495010C94393AD2
:1000A0000C9495010C9495010C948F3C0C94950143
:1000B0000C9495010C9495010C9495010C94BC3C06
:1000C0000C9495010C9495010C9495010C94893332
:1000D0000C9481340C9495010C94B6330C94C03478
:1000E0000C949501036EDB363D9A9999993DABAA24
:1000F000AA2A3E000000803F072C7AA5BA6CC59062
:10010000DA3B9365FC8BBC53F810FD3C5692834D53
:10011000BD879D3AB63DCBC9BF5BBE73DA0FC93F01
:1001200007634236B79BD8A71A39685618AEBAABE0
:10013000558C1D3CB7CC5763BD6DEDFD753EF61774
:100140007231BF000000803F08000000BE922449C9
:10015000123EABAAAA2ABECDCCCC4C3E00000080F9
:10016000BEABAAAAAA3E00000000BF000000803F6C
:100170000000000000084178D3BB4387D1133D192C
:100180000E3CC3BD4282AD2B3E68EC8276BED98F59
:10019000E1A93E4C80EFFFBE01C4FF7F3F0000009D
:1001A00000000000090A02080B0C0D0706030401F9
:1001B000000000000000000000000000000000003F
:1001C000000000000000000000000000000011100E
:1001D0000F00000000000000000000000000000010
:1001E000000000000000000001021020200808109C
:1001F0002040102040800201020108040201010297
:10020000040810204080804020100804020180046F
:1002100002018040201008040201080402010102CA
:1002200004081020408001020408102040800505C9
:100230000505070508080808020202020A0A08085C
:10024000040404040101010101010101030303038A
:1002500003030303040707070C0C0C0C0C0C0C0C19
:100260000202020206060606060606060B0B0B0B2A
:100270000B0B0B0B000020002300260029002C0094
:100280002F003200000100000301060109010000F7
:100290002200250028002B002E003100340002012E
:1002A0000000050108010B010000210024002700C7
:1002B0002A002D0030003300010100000401070175
:1002C0000A010D307F35563911241FBECFEFD1E220
:1002D000DEBFCDBF00E00CBF12E0A0E0B2E0E4E37F
:1002E000F0E900E00BBF02C007900D92A833B10700
:1002F000D9F71AE0A8E3B2E001C01D92AD3AB10708
:10030000E1F712E0C8ECD2E000E006C02297010954
:10031000FE010BBF0E941448C23CD10780E00807D1
:10032000A9F70E949D360C9418480C9400008AEEA0
:1003300095E00E940343882341F08091EA05909163
:10034000EB059093C1028093C00208952F923F92D3
:100350004F925F926F927F928F929F92AF92BF92D5
:10036000CF92DF92EF92FF920F931F93CF93DF9381
:10037000CDB7DEB7CE5BD1090FB6F894DEBF0FBEA6
:10038000CDBF25969FAF8EAF25976B0123965FAFAC
:100390004EAF239719016196ECAEFDAE0EAF1FAFC5
:1003A0006197DB012D913D914D915C91FC01608144
:1003B0007181828193810E94F145D1012D913D91FE
:1003C0004D915C910E94CB437B018C01862F9F2D28
:1003D000A02FB12FF10180839183A283B383D60133
:1003E0001C962D913D914D915C911F972596EEADF8
:1003F000FFAD259764857585868597850E94F145B3
:100400009B01AC016E2D7F2D802F912F0E94CB433D
:100410004B015C01D1016D937D938D939C93139758
:10042000F60124813581468157812596AEADBFAD59
:1004300025976D917D918D919C910E94F145F101DF
:1004400024813581468157810E94CB437B018C01F9
:10045000862F9F2DA02FB12FF10184839583A68332
:10046000B783D60150962D913D914D915C91539754
:100470002596EEADFFAD25976485758586859785B4
:100480000E94F1459B01AC016E2D7F2D802F912F95
:100490000E94CB4365966CAF7DAF8EAF9FAF6597E3
:1004A000D10114966D937D938D939C931797F601CC
:1004B00020853185428553852596AEADBFAD259704
:1004C0006D917D918D919C910E94F145F101208566
:1004D0003185428553850E94CB437B018C01862F59
:1004E0009F2DA02FB12FF10180879187A287B3871D
:1004F000D60154962D913D914D915C91579725963B
:10050000EEADFFAD259764857585868597850E943C
:10051000F1459B01AC016E2D7F2D802F912F0E9404
:10052000CB4369966CAF7DAF8EAF9FAF6997D1011A
:1005300018966D937D938D939C931B97F601208164
:100540003181428153812596AEADBFAD259714967A
:100550006D917D918D919C9117970E94F145F101CC
:1005600024853585468557850E94CB43162F072F56
:10057000F82EE92EA8019701852F942FA32FB22FD3
:10058000F10184879587A687B787D6011C962D91A0
:100590003D914D915C911F972596EEADFFAD25974E
:1005A00060897189828993890E94F1459B01AC0120
:1005B000D801F7016B2F7A2F8F2F9E2F0E94CB43EC
:1005C0006D966CAF7DAF8EAF9FAF6D97D1011C96CE
:1005D0006D937D938D939C931F97F60124813581B4
:1005E000468157812596AEADBFAD259714966D9186
:1005F0007D918D919C9117970E94F145F101208981
:100600003189428953890E94CB43162F072FF82E38
:10061000E92EA8019701852F942FA32FB22FF10166
:10062000808B918BA28BB38BD60150962D913D91EF
:100630004D915C9153972596EEADFFAD259760895E
:100640007189828993890E94F1459B01AC01D8018F
:10065000F7016B2F7A2F8F2F9E2F0E94CB432B01F8
:100660003C01D10150966D937D938D939C9353974C
:10067000F60120853185428553852596AEADBFAD07
:10068000259714966D917D918D919C9117970E945D
:10069000F145F10124893589468957890E94CB4368
:1006A000162F072FF82EE92EA8019701852F942FDA
:1006B000A32FB22FF101848B958BA68BB78BD6011C
:1006C00054962D913D914D915C9157972596EEADA5
:1006D000FFAD259760897189828993890E94F145D0
:1006E0009B01AC01D801F7016B2F7A2F8F2F9E2F22
:1006F0000E94CB43A1966CAF7DAF8EAF9FAFA19709
:10070000D10154966D937D938D939C935797F601E9
:1007100020813181428153812596AEADBFAD2597B1
:1007200018966D917D918D919C911B970E94F1453A
:10073000F101208D318D428D538D0E94CB43162FB8
:10074000072FF82EE92EA8019701852F942FA32FAC
:10075000B22FF101808F918FA28FB38FD6011C969B
:100760002D913D914D915C911F972596EEADFFAD7A
:10077000259764897589868997890E94F1459B012F
:10078000AC01D801F7016B2F7A2F8F2F9E2F0E947B
:10079000CB43A5966CAF7DAF8EAF9FAFA597D10130
:1007A00058966D937D938D939C935B97F60124816E
:1007B0003581468157812596AEADBFAD25971896F8
:1007C0006D917D918D919C911B970E94F145F10156
:1007D000248D358D468D578D0E94CB43162F072FC4
:1007E000F82EE92EA8019701852F942FA32FB22F61
:1007F000F101848F958FA68FB78FD60150962D91DA
:100800003D914D915C9153972596EEADFFAD2597A7
:1008100064897589868997890E94F1459B01AC019D
:10082000D801F7016B2F7A2F8F2F9E2F0E94CB4379
:10083000A9966CAF7DAF8EAF9FAFA997D1015C96A3
:100840006D937D938D939C935F97F6012085318501
:10085000428553852596AEADBFAD259718966D910F
:100860007D918D919C911B970E94F145F10120A1F2
:1008700031A142A153A10E94CB43162F072FF82E7E
:10088000E92EA8019701852F942FA32FB22FF101F4
:1008900080A391A3A2A3B3A3D60154962D913D9119
:1008A0004D915C9157972596EEADFFAD25976489E4
:1008B0007589868997890E94F1459B01AC01D80111
:1008C000F7016B2F7A2F8F2F9E2F0E94CB436B0146
:1008D0007C01D10190966D937D938D939C9393971A
:1008E000A3019201C501B4010E94CB43A701960167
:1008F0000E94CB4361962CAD3DAD4EAD5FAD61978F
:100900000E94CB4369837A838B839C83A9962CAD09
:100910003DAD4EAD5FADA997A1966CAD7DAD8EADF1
:100920009FADA1970E94CA436D837E838F83988772
:1009300069962CAD3DAD4EAD5FAD6997A5966CAD9A
:100940007DAD8EAD9FADA5970E94CA4369877A871A
:100950008B879C876D962CAD3DAD4EAD5FAD6D9791
:1009600065966CAD7DAD8EAD9FAD65970E94CA4317
:100970006D877E878F87988BA3019201C501B40193
:100980000E94CA43A70196010E94CA4361962CADFA
:100990003DAD4EAD5FAD61970E94CB436D8B7E8BBD
:1009A0008F8B988F6D962CAD3DAD4EAD5FAD6D9735
:1009B00065966CAD7DAD8EAD9FAD65970E94CB43C6
:1009C000698F7A8F8B8F9C8F69962CAD3DAD4EAD24
:1009D0005FAD6997A5966CAD7DAD8EAD9FADA597CA
:1009E0000E94CB436D8F7E8F8F8F98A3A5019401BA
:1009F000C301B2010E94CA43A70196010E94CA43E3
:100A000061962CAD3DAD4EAD5FAD61970E94CB437D
:100A100069A77AA78BA79CA7A9962CAD3DAD4EAD33
:100A20005FADA997A1966CAD7DAD8EAD9FADA19741
:100A30000E94CB436DA77EA78FA798ABC501B401D9
:100A40009058A30192010E94CA439B01AC01C701C7
:100A5000B6010E94CB4361962CAD3DAD4EAD5FAD6E
:100A600061970E94CB4321966CAF7DAF8EAF9FAF55
:100A7000219761E070E08B01000F111F000F111F23
:100A800081E090E08C0F9D1F080F191FAB0142956C
:100A90005295507F5427407F5427480F591F20E01C
:100AA00030E0F80180819181A281B381FA018193C4
:100AB0009193A193B193AF012F5F3F4F005F1F4F01
:100AC0002617370774F36F5F7F4F6430710599F60F
:100AD0008D8D9E8DAF8DB8A1C956DF4F88839983C8
:100AE000AA83BB83C759D0408D899E89AF89B88DB1
:100AF000C556DF4F88839983AA83BB83CB59D040E7
:100B000089899A89AB89BC89C156DF4F88839983CB
:100B1000AA83BB83CF59D0408D859E85AF85B88988
:100B2000CD55DF4F88839983AA83BB83C35AD040B6
:100B300089819A81AB81BC81C955DF4F88839983B4
:100B4000AA83BB83C75AD0402396AEADBFAD2397CF
:100B50001896BC916A96BFAF6A972396EEADFFAD2B
:100B60002397F1856E96FFAF6E972396AEADBFAD1E
:100B700023971A96BC91A296BFAFA2972396EEAD8B
:100B8000FFAD2397F385A696FFAFA69789859A8533
:100B9000AB85BC85C555DF4F88839983AA83BB830A
:100BA000CB5AD0402396AEADBFAD23971496BC91DF
:100BB0002496BFAF24972396EEADFFAD2397F58122
:100BC0002E96FFAF2E972396AEADBFAD2397169608
:100BD000BC916296BFAF62972396EEADFFAD2397AF
:100BE000F7816696FFAF66978D819E81AF81B8854C
:100BF000CD56DF4F88839983AA83BB83C359D040E6
:100C00002396AEADBFAD2397BC91AE96BFAFAE9766
:100C10002396EEADFFAD2397F181AF96FFAFAF976F
:100C20002396AEADBFAD23971296BC91E096BFAFB1
:100C3000E0972396EEADFFAD2397F381E196FFAFEA
:100C4000E197898D9A8DAB8DBC8DC157DF4F88831D
:100C50009983AA83BB83CF58D04089A19AA1ABA125
:100C6000BCA1C957DF4F88839983AA83BB83C75828
:100C7000D0408DA19EA1AFA1B8A5C557DF4F8883F5
:100C80009983AA83BB83CB58D04089A59AA5ABA5ED
:100C9000BCA5CD57DF4F88839983AA83BB83C358F4
:100CA000D0408DA59EA5AFA5B8A9C158DF4F8883B8
:100CB0009983AA83BB83CF57D04089A99AA9ABA9AE
:100CC000BCA9C155DF4F88839983AA83BB83CF5AC0
:100CD000D0408DA99EA9AFA9B8ADCD54DF4F888370
:100CE0009983AA83BB83C35BD04089AD9AADABAD7A
:100CF000BCADC954DF4F88839983AA83BB83C75B8C
:100D0000D04021968CAD9DADAEADBFAD2197C55401
:100D1000DF4F88839983AA83BB83CB5BD040239624
:100D2000AEADBFAD23971C96BC91AA96BFAFAA9754
:100D30002396EEADFFAD2397F585AB96FFAFAB974E
:100D40002396AEADBFAD23971E96BC91AC96BFAFB8
:100D5000AC972396EEADFFAD2397F785AD96FFAF29
:100D6000AD9704E610E05801AE96BFADAE97AF96D2
:100D7000AFADAF97C955DF4F288139814A815B817B
:100D8000C75AD040E096FFADE097E196EFADE1970E
:100D90006B2F7A2F8F2F9E2F0E94F14520E030E09D
:100DA000A9010E94CB437B018C0124967FAD24973F
:100DB0002E966FAD2E9762969FAD629766968FAD19
:100DC0006697272F362F492F582FCD56DF4F688132
:100DD00079818A819B81C359D0400E94F1452E2D93
:100DE0003F2D402F512F0E94CB437B018C01C555D5
:100DF000DF4F288139814A815B81CB5AD0406A9686
:100E0000BFAD6A976E96AFAD6E97A296FFADA297F3
:100E1000A696EFADA6976B2F7A2F8F2F9E2F0E944D
:100E2000F1459B01AC016E2D7F2D802F912F0E94EB
:100E3000CB437B018C01AA967FADAA97AB966FAD91
:100E4000AB97AC969FADAC97AD968FADAD97272F76
:100E5000362F492F582FCD55DF4F688179818A81F0
:100E60009B81C35AD0400E94F1452E2D3F2D402F2B
:100E7000512F0E94CB43362E272E26968FAF2697D2
:100E800027969FAF2797C156DF4F288139814A8126
:100E90005B81CF59D040AE96BFADAE97AF96AFADA8
:100EA000AF97E096FFADE097E196EFADE1976B2F3E
:100EB0007A2F8F2F9E2F0E94F14520E030E0A9016C
:100EC0000E94CB437B018C01C556DF4F28813981BD
:100ED0004A815B81CB59D0402496BFAD24972E9692
:100EE000AFAD2E976296FFAD62976696EFAD6697AF
:100EF0006B2F7A2F8F2F9E2F0E94F1452E2D3F2D85
:100F0000402F512F0E94CB437B018C016A967FAD0D
:100F10006A976E966FAD6E97A2969FADA297A696B2
:100F20008FADA697272F362F492F582FC157DF4F48
:100F3000688179818A819B81CF58D0400E94F14598
:100F40002E2D3F2D402F512F0E94CB437B018C0132
:100F5000AA967FADAA97AB966FADAB97AC969FADB7
:100F6000AC97AD968FADAD97272F362F492F582FC1
:100F7000C956DF4F688179818A819B81C759D040EA
:100F80000E94F1459B01AC016E2D7F2D802F912F8A
:100F90000E94CB4328966FAF289729967FAF299759
:100FA0002A968FAF2A972B969FAF2B97AE967FAD41
:100FB000AE97AF966FADAF97E0969FADE097E19695
:100FC0008FADE197272F362F492F582FC957DF4F65
:100FD000688179818A819B81C758D0400E94F14500
:100FE00020E030E0A9010E94CB437B018C012496D4
:100FF0007FAD24972E966FAD2E9762969FAD629728
:1010000066968FAD6697272F362F492F582FC557D5
:10101000DF4F688179818A819B81CB58D0400E94C3
:10102000F1459B01AC016E2D7F2D802F912F0E94E9
:10103000CB437B018C016A967FAD6A976E966FAD4C
:101040006E97A2969FADA297A6968FADA697272FD3
:10105000362F492F582FCD57DF4F688179818A81EC
:101060009B81C358D0400E94F1459B01AC016E2D7D
:101070007F2D802F912F0E94CB437B018C01AA965C
:101080007FADAA97AB966FADAB97AC969FADAC9783
:10109000AD968FADAD97272F362F492F582FC158BA
:1010A000DF4F688179818A819B81CF57D0400E9430
:1010B000F1459B01AC016E2D7F2D802F912F0E9459
:1010C000CB432C966FAF2C972D967FAF2D97E29642
:1010D0008FAFE297E3969FAFE397C155DF4F28812B
:1010E00039814A815B81CF5AD040AE96BFADAE9771
:1010F000AF96AFADAF97E096FFADE097E196EFAD5D
:10110000E1976B2F7A2F8F2F9E2F0E94F14520E0C1
:1011100030E0A9010E94CB437B018C01CD54DF4F0D
:10112000288139814A815B81C35BD0402496BFAD61
:1011300024972E96AFAD2E976296FFAD6297669676
:10114000EFAD66976B2F7A2F8F2F9E2F0E94F14560
:101150009B01AC016E2D7F2D802F912F0E94CB43E0
:101160007B018C01C954DF4F288139814A815B8121
:10117000C75BD0406A96BFAD6A976E96AFAD6E976B
:10118000A296FFADA297A696EFADA6976B2F7A2FEA
:101190008F2F9E2F0E94F1459B01AC016E2D7F2D5C
:1011A000802F912F0E94CB437B018C01C554DF4FD0
:1011B000288139814A815B81CB5BD040AA96BFAD43
:1011C000AA97AB96AFADAB97AC96FFADAC97AD968B
:1011D000EFADAD976B2F7A2F8F2F9E2F0E94F14589
:1011E0009B01AC016E2D7F2D802F912F0E94CB4350
:1011F000E4966FAFE497E5967FAFE597E6968FAFFD
:10120000E697E7969FAFE797C955DF4F2881398169
:101210004A815B81C75AD040D1012696FFAD2697FF
:101220002796EFAD27976B2F7A2F8F2F9E2F0E9437
:10123000F14520E030E0A9010E94CB437B018C0105
:1012400028967FAD289729966FAD29972A969FAD4E
:101250002A972B968FAD2B97272F362F492F582F54
:10126000CD56DF4F688179818A819B81C359D040F7
:101270000E94F1459B01AC016E2D7F2D802F912F97
:101280000E94CB437B018C01C555DF4F28813981FA
:101290004A815B81CB5AD0402C96BFAD2C972D96BE
:1012A000AFAD2D97E296FFADE297E396EFADE397F2
:1012B0006B2F7A2F8F2F9E2F0E94F1459B01AC013F
:1012C0006E2D7F2D802F912F0E94CB436B017C01CF
:1012D000CD55DF4F288139814A815B81C35AD04087
:1012E000E496BFADE497E596AFADE597E696FFAD22
:1012F000E697E796EFADE7976B2F7A2F8F2F9E2F0C
:101300000E94F1459B01AC01C701B6010E94CB438D
:10131000EC966FAFEC97ED967FAFED97EE968FAFB3
:10132000EE97EF969FAFEF97762FED966FADED9717
:10133000982FEF968FADEF97272F362F492F582FE5
:10134000DB01FC016B2F7A2F8F2F9E2F0E94F1451E
:1013500020E030E0A9010E94CB43D62EC72E982E64
:10136000892EC156DF4F288139814A815B81CF594F
:10137000D040D1012696FFAD26972796EFAD27974F
:101380006B2F7A2F8F2F9E2F0E94F14520E030E0A7
:10139000A9010E94CB437B018C01C556DF4F2881F8
:1013A00039814A815B81CB59D0402896BFAD2897BF
:1013B0002996AFAD29972A96FFAD2A972B96EFADC8
:1013C0002B976B2F7A2F8F2F9E2F0E94F1459B0119
:1013D000AC016E2D7F2D802F912F0E94CB437B017E
:1013E0008C012C967FAD2C972D966FAD2D97E296A4
:1013F0009FADE297E3968FADE397272F362F492FC6
:10140000582FC157DF4F688179818A819B81CF58DE
:10141000D0400E94F1459B01AC016E2D7F2D802FA5
:10142000912F0E94CB437B018C01C956DF4F28814D
:1014300039814A815B81C759D040E496BFADE497BA
:10144000E596AFADE597E696FFADE697E796EFAD8B
:10145000E7976B2F7A2F8F2F9E2F0E94F1459B01CC
:10146000AC016E2D7F2D802F912F0E94CB432B013D
:10147000182F092F762FC801272F352D492F582FC8
:10148000F801642D752D8F2F9E2F0E94F1459B0131
:10149000AC01D601F4016B2F7A2F8F2F9E2F0E9463
:1014A000CB43E8966FAFE897E9967FAFE997EA9666
:1014B0008FAFEA97EB969FAFEB97C957DF4F288125
:1014C00039814A815B81C758D040D1012696FFAD52
:1014D00026972796EFAD27976B2F7A2F8F2F9E2F6A
:1014E0000E94F14520E030E0A9010E94CB436B014E
:1014F0007C0128967FAD289729966FAD29972A966B
:101500009FAD2A972B968FAD2B97272F362F492FDC
:10151000582FC557DF4F688179818A819B81CB58CD
:10152000D0400E94F1459B01AC016C2D7D2D8E2D8C
:101530009F2D0E94CB436B017C012C967FAD2C9795
:101540002D966FAD2D97E2969FADE297E3968FAD06
:10155000E397272F362F492F582FCD57DF4F68811C
:1015600079818A819B81C358D0400E94F1459B01BB
:10157000AC016C2D7D2D8E2D9F2D0E94CB436B01D8
:101580007C01E4967FADE497E5966FADE597E6962E
:101590009FADE697E7968FADE797272F362F492F18
:1015A000582FC158DF4F688179818A819B81CF573D
:1015B000D0400E94F1459B01AC016C2D7D2D8E2DFC
:1015C0009F2D0E94CB433B014C01762F272F372DB7
:1015D000482D592D662D772D882D992D0E94F14586
:1015E0009B01AC01E896BFADE897E996AFADE997EE
:1015F000EA96FFADEA97EB96EFADEB976B2F7A2F5C
:101600008F2F9E2F0E94CB43E8966FAFE897E99605
:101610007FAFE997EA968FAFEA97EB969FAFEB978C
:10162000C155DF4F288139814A815B81CF5AD04033
:10163000D1012696FFAD26972796EFAD27976B2F02
:101640007A2F8F2F9E2F0E94F14520E030E0A901D4
:101650000E94CB436B017C01CD54DF4F288139813F
:101660004A815B81C35BD0402896BFAD28972996FD
:10167000AFAD29972A96FFAD2A972B96EFAD2B9702
:101680006B2F7A2F8F2F9E2F0E94F1459B01AC016B
:101690006C2D7D2D8E2D9F2D0E94CB436B017C01E7
:1016A000C954DF4F288139814A815B81C75BD040B3
:1016B0002C96BFAD2C972D96AFAD2D97E296FFAD32
:1016C000E297E396EFADE3976B2F7A2F8F2F9E2F44
:1016D0000E94F1459B01AC016C2D7D2D8E2D9F2D1F
:1016E0000E94CB436B017C01C554DF4F28813981B7
:1016F0004A815B81CB5BD040E496BFADE497E59631
:10170000AFADE597E696FFADE697E796EFADE797C5
:101710006B2F7A2F8F2F9E2F0E94F1459B01AC01DA
:101720006C2D7D2D8E2D9F2D0E94CB4326966FAF65
:10173000269727967FAF279728968FAF28972996C9
:101740009FAF2997762F27966FAD2797982F2996C9
:101750008FAD2997272F362F492F582FDB01FC01FA
:101760006B2F7A2F8F2F9E2F0E94F1459B01AC018A
:10177000E896BFADE897E996AFADE997EA96FFAD79
:10178000EA97EB96EFADEB976B2F7A2F8F2F9E2F6B
:101790000E94CB436B017C0120E030E0A9017D2D4C
:1017A0009F2D0E944644882309F4A3C16C2D7D2DF2
:1017B0008E2D9F2D0E94A4466B017C019B01AC01E4
:1017C000EC96BFADEC97ED96AFADED97EE96FFAD15
:1017D000EE97EF96EFADEF976B2F7A2F8F2F9E2F0F
:1017E0000E944A442A966FAF2A972B967FAF2B9779
:1017F0002C968FAF2C972D969FAF2D97A701960112
:10180000F801642D752D8F2F902F0E944A44362E9B
:10181000272E2C01B101982F272F362F492F552D18
:101820002496BFAD24972E96AFAD2E976296FFAD4E
:1018300062976696EFAD66976B2F7A2F8F2F9E2F4C
:101840000E94CA439F772AE037ED43EA5BE30E9498
:10185000E64518160CF4E6C02A967FAD2A972B961B
:101860006FAD2B972C969FAD2C972D968FAD2D9706
:10187000272F362F492F582FAE96BFADAE97AF9674
:10188000AFADAF97E096FFADE097E196EFADE19792
:101890006B2F7A2F8F2F9E2F0E94CA439F7701E0D4
:1018A0002AE037ED43EA5BE30E94E64518160CF0A8
:1018B00035C1B1E00B2710E0A7019601662D772D09
:1018C000882D992D0E944A44962E872E782E692EB7
:1018D000B401C301272F362F492F582F6A96BFAD69
:1018E0006A976E96AFAD6E97A296FFADA297A69639
:1018F000EFADA6976B2F7A2F8F2F9E2F0E94CA4392
:101900009F772AE037ED43EA5BE30E94E64518162D
:1019100014F400E010E0A70196012696BFAD2697CB
:101920002796AFAD27972896FFAD28972996EFAD5C
:1019300029976B2F7A2F8F2F9E2F0E944A446B017D
:101940007C01762F272F3D2D4E2D5F2DAA96BFAD02
:10195000AA97AB96AFADAB97AC96FFADAC97AD96F3
:10196000EFADAD976B2F7A2F8F2F9E2F0E94CA431A
:101970009F772AE037ED43EA5BE30E94E6451816BD
:101980000CF453C08C2D9D2DAE2DBF2D2396EEADA6
:10199000FFAD239784879587A687B787012B09F426
:1019A00050C02A965FAD2A972B964FAD2B972C9659
:1019B0003FAD2C972D962FAD2D97852F942FA32FCC
:1019C000B22F80839183A283B383A101852F922DAF
:1019D000A42DB52D84839583A683B783A401930199
:1019E000852F982DA32FB62D80879187A287B38747
:1019F000C254DF4F0FB6F894DEBF0FBECDBFDF91EC
:101A0000CF911F910F91FF90EF90DF90CF90BF90FB
:101A1000AF909F908F907F906F905F904F903F908E
:101A20002F90089500E010E047CF8C2D9D2DAE2D16
:101A3000BF2D2396EEADFFAD239784879587A687AC
:101A4000B787F1E0AF1AB108A9F42A965FAD2A97DB
:101A50002B964FAD2B972C963FAD2C972D962FADF7
:101A60002D97852F942FA32FB22F2396EEADFFAD88
:101A70002397A7CFAA96CFAEAA97AB96DFAEAB9728
:101A8000AC96EFAEAC97AD96FFAEAD972A96FFAD94
:101A90002A97AE96FFAFAE972B968FAD2B97AF964A
:101AA0008FAFAF972C969FAD2C97E0969FAFE097A6
:101AB0002D96AFAD2D97E196AFAFE19724963FAE4F
:101AC00024972E962FAE2E9762964FAE629766960B
:101AD0005FAE66976A969FAE6A976E968FAE6E9768
:101AE000A2967FAEA297A6966FAEA697BF2FA82FFD
:101AF00041C92A961FAE2A972B961FAE2B9790E8C6
:101B00002C969FAF2C97AFE32D96AFAF2D97C12C9E
:101B1000D12C80E8E82E8FE3F82E70CE00E0C9CEFD
:101B200080E090E0ACE1B2EC809324039093250335
:101B3000A0932603B093270380E090E0A0E3B1E4F4
:101B40008093280390932903A0932A03B0932B0337
:101B500080E090E0A0E3B1EC80932C0390932D0300
:101B6000A0932E03B0932F0380E090ECA1E8B4E49F
:101B70008093300390933103A0933203B0933303E7
:101B800080E090ECA0E8B4E48093340390933503B4
:101B9000A0933603B093370380E090E8A0E8B4E464
:101BA0008093380390933903A0933A03B0933B0397
:101BB00080E090E0A8E9B2E480933C0390933D0379
:101BC000A0933E03B0933F0380E090E0A2EEB2EC1E
:101BD0008093400390934103A0934203B093430347
:101BE00080E090E0A8EEB1EC80934403909345032D
:101BF000A0934603B093470380E090E0A5E1B4E4EE
:101C00008093480390934903A0934A03B0934B03F6
:101C100080E090ECA5E1B4E480934C0390934D03F5
:101C2000A0934E03B0934F0380E090E8A9EFB3E494
:101C30008093500390935103A0935203B0935303A6
:101C4000109255031092540386E696E2ACE9B3EC89
:101C50008093560390935703A0935803B09359036E
:101C600080E090E8A3EEB2E480935A0390935B0384
:101C7000A0935C03B0935D0383E393E5A9E7B4E429
:101C800080935E0390935F03A0936003B09361031E
:101C900086E696EEA6E8B3E480936203909363032E
:101CA000A0936403B093650383E393EBA6ECB2ECDB
:101CB0008093660390936703A0936803B0936903CE
:101CC0008AE999EDADEFB3EC80936A0390936B03CF
:101CD000A0936C03B0936D0386E696E6A1E4B4E4AA
:101CE00080937E0390937F03A0938003B09381033E
:101CF0008AE999E1A7E0B3EC809382039093830390
:101D0000A0938403B09385038DEC9CE1AEE1B4E431
:101D10008093860390938703A0938803B0938903ED
:101D20008DEC9CECA9E5B2EC80938A0390938B0335
:101D3000A0938C03B0938D0383E393E3AFEAB1E404
:101D400080938E0390938F03A0939003B09391039D
:101D500083E393EAA9E0B4E480939203909393031E
:101D6000A0939403B093950386E696EEA6EFB2ECAB
:101D70008093A6039093A703A093A803B093A9030D
:101D800083E393EFACE3B4EC8093AA039093AB03AB
:101D9000A093AC03B093AD0380E090E8A0E3B4E47B
:101DA0008093AE039093AF03A093B003B093B103BD
:101DB0008DEC9CEEA1E0B4EC8093B2039093B3035E
:101DC000A093B403B093B50386E696E6A6E9B0E423
:101DD0008093B6039093B703A093B803B093B9036D
:101DE00086E696EEADECB2EC8093BA039093BB031B
:101DF000A093BC03B093BD038DEC9CEEAAE6B4ECBB
:101E00008093CE039093CF03A093D003B093D103DC
:101E100080E090E0A1E7B3EC8093D2039093D303EA
:101E2000A093D403B093D50386E696EAABEDB3EC6A
:101E30008093D6039093D703A093D803B093D9038C
:101E400080E090EFAFE2B4E48093DA039093DB0399
:101E5000A093DC03B093DD0386E696E6AEECB1E436
:101E60008093DE039093DF03A093E003B093E1033C
:101E70008DEC9CE0A4E0B3E48093E2039093E30351
:101E8000A093E403B093E50380E090E4A9EEB3E40B
:101E90008093F6039093F703A093F803B093F903AC
:101EA00080E090E4A0E4B4EC8093FA039093FB0309
:101EB000A093FC03B093FD0383E393EBA4EEB3EC98
:101EC0008093FE039093FF03A0930004B09301045A
:101ED00086E696E0A8E8B3E48093020490930304B6
:101EE000A0930404B09305048AE999E6A6E3B4EC50
:101EF0008093060490930704A0930804B093090408
:101F00008DEC9CE4A3E3B3E480930A0490930B0468
:101F1000A0930C04B0930D048DEC9CECACE5B2ECFA
:101F200080931E0490931F04A0932004B093210477
:101F30008DEC9CE2ACE6B4E48093220490932304FD
:101F4000A0932404B093250483E393E1ADECB3ECB8
:101F50008093260490932704A0932804B093290427
:101F600086E696EEA8E5B3E480932A0490932B04CA
:101F7000A0932C04B0932D048AE999EDA7EFB3E464
:101F800080932E0490932F04A0933004B0933104D7
:101F90008AE999EDAFE0B3E480933204909333047F
:101FA000A0933404B09335041092180310921903CF
:101FB00010921A0310921B0310921C0310921D031F
:101FC00010921E0310921F031092200310922103FF
:101FD0001092220310922303089561E08DE00E9485
:101FE0000B3240E052EC61E070E087E197E00E9444
:101FF000FF346CED75E081E496E00E94053D6CEDE8
:1020000075E084E496E00E94053D6CED75E087E4A0
:1020100096E00E94053D6CED75E08AE496E00E9432
:10202000053D68EE73E080E090E00E940D3186E5AA
:1020300099E00E94173962E080E496E00E945D3EDC
:1020400080E496E00E94643D4AEF60E180E496E01F
:102050000E94433D42E063E08AE096E00E94F34044
:102060008AE096E00E94F63E42E060E08CEF95E068
:102070000E9421428CEF95E00E94454140E163E2DD
:102080008CEF95E00E9424418DE69FEBABE8BEE328
:102090008093140390931503A0931603B093170332
:1020A00085E194E7A2E8BFE38093100390931103C6
:1020B000A0931203B093130380E090E0A8ECB2E485
:1020C00080930C0390930D03A0930E03B0930F0322
:1020D00082EF93E2AEE9BEE38093000390930103A5
:1020E000A0930203B093030381E295E0AEEBBCE35F
:1020F0008093040390930503A0930603B093070312
:1021000082E199E6A3E7BFE3809308039093090374
:10211000A0930A03B0930B031092F4021092F502FD
:102120001092F6021092F7021092F8021092F90241
:102130001092FA021092FB0280E090E0A0E8BFEB60
:102140008093FC029093FD02A093FE02B093FF02E5
:1021500080E090E0A0ECBFE38093B4029093B502DE
:10216000A093B602B093B7021092B8021092B902CF
:102170001092BA021092BB021092BC021092BD02E1
:102180001092BE021092BF02109290021092910221
:10219000109292021092930210926C0210926D02B1
:1021A00010926E0210926F02109294021092950299
:1021B0001092960210929702109270021092710281
:1021C0001092720210927302109298021092990269
:1021D00010929A0210929B02109274021092750251
:1021E000109276021092770210929C0210929D0239
:1021F00010929E0210929F02109278021092790221
:1022000010927A0210927B021092A0021092A10208
:102210001092A2021092A30210927C0210927D02F0
:1022200010927E0210927F021092A4021092A502D8
:102230001092A6021092A7021092800210928102C0
:1022400010928202109283021092A8021092A902A8
:102250001092AA021092AB02109284021092850290
:1022600010928602109287021092AC021092AD0278
:102270001092AE021092AF02109288021092890260
:1022800010928A0210928B021092B0021092B10248
:102290001092B2021092B30210928C0210928D0230
:1022A00010928E0210928F0280E090E0A0E8BFE3CF
:1022B00080935C0290935D02A0935E02B0935F02F4
:1022C00010926002109261021092620210926302F8
:1022D00010926402109265021092660210926702D8
:1022E000109268021092690210926A0210926B02B8
:1022F00080934C0290934D02A0934E02B0934F02F4
:1023000010925002109251021092520210925302F7
:1023100010925402109255021092560210925702D7
:10232000109258021092590210925A0210925B02B7
:10233000109248021092490210924A0210924B02E7
:1023400010924402109245021092460210924702E7
:102350001092DA051092DB051092DC051092DD0573
:1023600081E090E09093E7058093E6050E94900D50
:1023700084E690E09093E9058093E8051092E205E9
:102380001092E3051092E4051092E5051092DE0527
:102390001092DF051092E0051092E1051092D6052B
:1023A0001092D7051092D8051092D9051092C30249
:1023B0001092C2021092C1021092C00208952F9290
:1023C0003F924F925F926F927F928F929F92AF92C5
:1023D000BF92CF92DF92EF92FF920F931F93CF9312
:1023E000DF93CDB7DEB7CA5CD1090FB6F894DEBF74
:1023F0000FBECDBF8AE096E00E94BD408CEF95E015
:102400000E94704180E496E00E94D73D6093CC0228
:102410007093CD028093CE029093CF0280E496E039
:102420000E94103E6093C4027093C5028093C6025E
:102430009093C7020E94E3306B017C018091DA0522
:102440009091DB05A091DC05B091DD05A701960117
:10245000281B390B4A0B5B0BCA01B9010E94E344EC
:102460002DEB37E346E855E30E94F1456093D6052E
:102470007093D7058093D8059093D905C092DA055B
:10248000D092DB05E092DC05F092DD052091280377
:102490003091290340912A0350912B0360910E063D
:1024A00070910F0680911006909111060E94CA4308
:1024B0002091340330913503409136035091370316
:1024C0000E944A441B012C0120912C0330912D03C2
:1024D00040912E0350912F036091120670911306C4
:1024E00080911406909115060E94CA4320913803EA
:1024F0003091390340913A0350913B030E944A4482
:102500003B018C0120912403309125034091260347
:102510005091270360910A0670910B0680910C067A
:1025200090910D060E94CA432091300330913103EF
:1025300040913203509133030E944A446B017C0165
:10254000F7FAF094F7F8F09422EE37E64AE75FE303
:10255000C701B6010E94F1454B015C012FEC36EE3C
:1025600044E55EE3662D772D802F912F0E94F14583
:102570009B01AC01C501B4010E94CB436093DC0216
:102580007093DD028093DE029093DF02822D932D03
:10259000A42DB52D8093E0029093E102A093E20276
:1025A000B093E3022FEC36EE44E55EE3C701B601DB
:1025B0000E94F1456B017C0122EE37E64AE75FE3BA
:1025C000662D772D802F912F0E94F1459B01AC0144
:1025D000C701B6010E94CA436093E4027093E5020A
:1025E0008093E6029093E7022091400330914103EB
:1025F000409142035091430360911A0670911B066B
:1026000080911C0690911D060E94CA4320914C03A4
:1026100030914D0340914E0350914F030E944A4424
:102620001B012C0120914403309145034091460346
:102630005091470360911E0670911F0680912006FD
:10264000909121060E94CA4320915003309151037A
:1026500040915203509153030E944A443B018C0124
:1026600020913C0330913D0340913E0350913F0344
:1026700060911606709117068091180690911906C0
:102680000E94CA43209148033091490340914A0374
:1026900050914B030E944A446B017C01F7FAF0947D
:1026A000F7F8F09422EE37E64AE75FE3C701B60198
:1026B0000E94F1454B015C012FEC36EE44E55EE3F0
:1026C000662D772D802F912F0E94F1459B01AC0143
:1026D000C501B4010E94CB436093E8027093E90204
:1026E0008093EA029093EB02822D932DA42DB52DB9
:1026F0008093EC029093ED02A093EE02B093EF0270
:102700002FEC36EE44E55EE3C701B6010E94F145C9
:102710006B017C0122EE37E64AE75FE3662D772DF9
:10272000802F912F0E94F1459B01AC01C701B6019A
:102730000E94CA436093F0027093F1028093F20208
:102740009093F30220911C0330911D0340911E03CE
:1027500050911F036091000670910106809102065E
:10276000909103060E94CA4329E732E240EA59E306
:102770000E94F1451B012C0120912003309121037F
:102780004091220350912303609104067091050645
:1027900080910606909107060E94CA4329E732E21B
:1027A00040EA59E30E94F1453B018C012091180356
:1027B0003091190340911A0350911B036091FC055D
:1027C0007091FD058091FE059091FF050E94CA431E
:1027D00029E732E240EA59E30E94F1456B017C01AE
:1027E000F7FAF094F7F8F09422EE37E64AE75FE361
:1027F000C701B6010E94F1454B015C012FEC36EE9A
:1028000044E55EE3662D772D802F912F0E94F145E0
:102810009B01AC01C501B4010E94CB436093D0027F
:102820007093D1028093D2029093D302822D932D84
:10283000A42DB52D8093D4029093D502A093D602F7
:10284000B093D7022FEC36EE44E55EE3C701B60144
:102850000E94F1456B017C0122EE37E64AE75FE317
:10286000662D772D802F912F0E94F1459B01AC01A1
:10287000C701B6010E94CA436093D8027093D9027F
:102880008093DA029093DB026091CC027091CD02CA
:102890008091CE029091CF0220E030E54DE754E4E4
:1028A0000E94263E6093C8027093C9028093CA02B8
:1028B0009093CB028091C0029091C1029093C30289
:1028C0008093C20267E971E08AEE95E00E9482433C
:1028D00020E030E040E05FE36091DC027091DD02D7
:1028E0008091DE029091DF020E94F14560934D06D7
:1028F00070934E0680934F06909350066091E802C5
:102900007091E9028091EA029091EB029B01AC0187
:102910000E94CB436093590670935A0680935B06DE
:1029200090935C0620E030E040E05FE36091F402C9
:102930007091F5028091F6029091F7020E94F145A4
:1029400060936506709366068093670690936806A9
:102950006091000370910103809102039091030341
:102960009B01AC010E94CB43609371067093720689
:10297000809373069093740620E030E040E05FE3BC
:102980006091E0027091E1028091E2029091E30295
:102990000E94F1456093510670935206809353064E
:1029A000909354066091EC027091ED028091EE02DA
:1029B0009091EF029B01AC010E94CB4360935D06B6
:1029C00070935E0680935F069093600620E030E08F
:1029D00040E05FE36091F8027091F9028091FA02A1
:1029E0009091FB020E94F1456093690670936A061C
:1029F00080936B0690936C066091040370910503BD
:102A000080910603909107039B01AC010E94CB4388
:102A10006093750670937606809377069093780698
:102A200020E030E040E05FE36091E4027091E50275
:102A30008091E6029091E7020E94F145609355066D
:102A40007093560680935706909358066091F00253
:102A50007091F1028091F2029091F3029B01AC011E
:102A60000E94CB4360936106709362068093630675
:102A70009093640620E030E040E05FE36091FC0268
:102A80007091FD028091FE029091FF020E94F1453B
:102A900060936D0670936E0680936F069093700638
:102AA000609108037091090380910A0390910B03D0
:102AB0009B01AC010E94CB436093790670937A0628
:102AC00080937B0690937C06C090D605D090D70566
:102AD000E090D805F090D9052091D0023091D10234
:102AE0004091D2025091D302C701B6010E94F14534
:102AF00020E030E040E05FE30E94F145362E472EB3
:102B0000582E692E2091D4023091D5024091D602E0
:102B10005091D702C701B6010E94F14520E030E094
:102B200040E05FE30E94F145762E872E982EA92E75
:102B30002091D8023091D9024091DA025091DB0203
:102B4000C701B6010E94F14520E030E040E05FE3BC
:102B50000E94F145B62E072F182F292E232D342D34
:102B6000452D562D632D742D852D962D0E94F145F2
:102B700020E030E040E85FE30E94CB436B017C0142
:102B8000272D382D492D5A2D672D782D892D9A2DD9
:102B90000E94F1459B01AC01C701B6010E94CB43E5
:102BA0006B017C012B2D302F412F522D6B2D702F5F
:102BB000812F922D0E94F1459B01AC01C701B60106
:102BC0000E94CB430E94A4466B017C019B01AC0197
:102BD00060E070E080E89FE30E944A44A4966FAFF3
:102BE000A497A8967FAFA897A9968FAFA997AA9602
:102BF0009FAFAA97A7019601632D742D852D962D61
:102C00000E944A44AB966FAFAB97AF967FAFAF973A
:102C1000E3968FAFE397E4969FAFE497A701960101
:102C2000672D782D892D9A2D0E944A44E5966FAF25
:102C3000E597E8967FAFE897EC968FAFEC97C15891
:102C4000DF4F9883CF57D040A70196016B2D702F8F
:102C5000812F922D0E944A44CD57DF4F6883C3587D
:102C6000D040CC57DF4F7883C458D040E6968FAF22
:102C7000E697E7969FAFE797C0905C02D0905D0221
:102C8000E0905E02F0905F0280916002909161029C
:102C9000A0916202B09163026F968CAF9DAFAEAF10
:102CA000BFAF6F9720916402309165024091660238
:102CB00050916702A3962CAF3DAF4EAF5FAFA39785
:102CC0008090680290906902A0906A02B0906B02B6
:102CD000A7019601A496BFADA497A896AFADA897FB
:102CE000A996FFADA997AA96EFADAA976B2F7A2F59
:102CF0008F2F9E2F0E94F1452B013C016F962CAD2A
:102D00003DAD4EAD5FAD6F97AB96BFADAB97AF9698
:102D1000AFADAF97E396FFADE397E496EFADE497E1
:102D20006B2F7A2F8F2F9E2F0E94F1459B01AC01B4
:102D3000C301B2010E94CA432B013C01A3962CADF2
:102D40003DAD4EAD5FADA397E596BFADE597E89677
:102D5000AFADE897EC96FFADEC97C158DF4FE88137
:102D6000CF57D0406B2F7A2F8F2F9E2F0E94F14587
:102D70009B01AC01C301B2010E94CA432B013C017B
:102D8000A5019401CD57DF4FB881C358D040CC572F
:102D9000DF4FA881C458D040E696FFADE697E7968E
:102DA000EFADE7976B2F7A2F8F2F9E2F0E94F14563
:102DB0009B01AC01C301B2010E94CA432C966FAFC4
:102DC0002C9760967FAF609764968FAF64976696F6
:102DD0009FAF66976F962CAD3DAD4EAD5FAD6F97D3
:102DE000A496BFADA497A896AFADA897A996FFAD3E
:102DF000A997AA96EFADAA976B2F7A2F8F2F9E2FA8
:102E00000E94F1452B013C01A7019601AB96BFAD95
:102E1000AB97AF96AFADAF97E396FFADE397E49670
:102E2000EFADE4976B2F7A2F8F2F9E2F0E94F145E5
:102E30009B01AC01C301B2010E94CB432B013C01B9
:102E4000A5019401E596BFADE597E896AFADE8978B
:102E5000EC96FFADEC97C158DF4FE881CF57D040DB
:102E60006B2F7A2F8F2F9E2F0E94F1459B01AC0173
:102E7000C301B2010E94CA432B013C01A3962CADB1
:102E80003DAD4EAD5FADA397CD57DF4FB881C35871
:102E9000D040CC57DF4FA881C458D040E696FFAD54
:102EA000E697E796EFADE7976B2F7A2F8F2F9E2F40
:102EB0000E94F1459B01AC01C301B2010E94CB43CA
:102EC000362E272E68968FAF68976A969FAF6A97BF
:102ED000A3962CAD3DAD4EAD5FADA397A496BFAD0F
:102EE000A497A896AFADA897A996FFADA997AA9663
:102EF000EFADAA976B2F7A2F8F2F9E2F0E94F1454F
:102F00002B013C01A7019601E596BFADE597E89638
:102F1000AFADE897EC96FFADEC97C158DF4FE88175
:102F2000CF57D0406B2F7A2F8F2F9E2F0E94F145C5
:102F30009B01AC01C301B2010E94CB432B013C01B8
:102F40006F962CAD3DAD4EAD5FAD6F97CD57DF4F5A
:102F5000B881C358D040CC57DF4FA881C458D04067
:102F6000E696FFADE697E796EFADE7976B2F7A2FE2
:102F70008F2F9E2F0E94F1459B01AC01C301B2012E
:102F80000E94CA432B013C01A5019401AB96BFAD41
:102F9000AB97AF96AFADAF97E396FFADE397E496EF
:102FA000EFADE4976B2F7A2F8F2F9E2F0E94F14564
:102FB0009B01AC01C301B2010E94CB43162F072F26
:102FC000782E692EA5019401A496BFADA497A8966A
:102FD000AFADA897A996FFADA997AA96EFADAA970E
:102FE0006B2F7A2F8F2F9E2F0E94F1454B015C0192
:102FF000A7019601CD57DF4FB881C358D040CC57B9
:10300000DF4FA881C458D040E696FFADE697E7961B
:10301000EFADE7976B2F7A2F8F2F9E2F0E94F145F0
:103020009B01AC01C501B4010E94CB436B017C0143
:10303000A3962CAD3DAD4EAD5FADA397AB96BFADA6
:10304000AB97AF96AFADAF97E396FFADE397E4963E
:10305000EFADE4976B2F7A2F8F2F9E2F0E94F145B3
:103060009B01AC01C701B6010E94CA436B017C0100
:103070006F962CAD3DAD4EAD5FAD6F97E596BFAD94
:10308000E597E896AFADE897EC96FFADEC97C158A1
:10309000DF4FE881CF57D0406B2F7A2F8F2F9E2F95
:1030A0000E94F1459B01AC01C701B6010E94CB43D0
:1030B0006B017C012C965FAD2C9760964FAD6097AD
:1030C00064963FAD649766962FAD6697852F942FD3
:1030D000A32FB22F80935C0290935D02A0935E02B7
:1030E000B0935F02A10168963FAD68976A962FADD5
:1030F0006A97852F942FA32FB22F8093600290930D
:103100006102A0936202B0936302A8019301852F2C
:10311000942FA32FB22F8093640290936502A09303
:103120006602B09367028C2D9D2DAE2DBF2D80932E
:10313000680290936902A0936A02B0936B022C9686
:103140007FAD2C9760966FAD609764969FAD649746
:1031500066968FAD6697272F362F492F582FDB01A4
:10316000FC016B2F7A2F8F2F9E2F0E94F145A49682
:103170006FAFA497A8967FAFA897A9968FAFA9978E
:10318000AA969FAFAA97B10168969FAD68976A9675
:103190008FAD6A97272F362F492F582FD101FC0169
:1031A0006B2F7A2F8F2F9E2F0E94F145AB966FAF1A
:1031B000AB97AF967FAFAF97E3968FAFE397E49669
:1031C0009FAFE497B801C301272F362F492F582FFF
:1031D000D801F3016B2F7A2F8F2F9E2F0E94F1457C
:1031E000B62EA72E982E892E2C2D3D2D4E2D5F2DDF
:1031F0006C2D7D2D8E2D9F2D0E94F145562E472E34
:103200006C968FAF6C97A0969FAFA097AB967FAD53
:10321000AB97AF966FADAF97E3969FADE397E4960C
:103220008FADE497272F362F492F582FA496BFAD87
:10323000A497A896AFADA897A996FFADA997AA960F
:10324000EFADAA976B2F7A2F8F2F9E2F0E94CB4323
:10325000D501F4012B2F3A2F4F2F5E2F0E94CA4326
:10326000D2016C96FFAD6C97A096EFADA0972B2F77
:103270003A2F4F2F5E2F0E94CA4360937D067093B2
:103280007E0680937F0690938006B801C301272FA6
:10329000362F492F582FD1016896FFAD68976A964F
:1032A000EFAD6A976B2F7A2F8F2F9E2F0E94F145DB
:1032B000E5966FAFE597E8967FAFE897EC968FAF0E
:1032C000EC97C158DF4F9883CF57D0402C2D3D2D20
:1032D0004E2D5F2D2C96BFAD2C976096AFAD6097AD
:1032E0006496FFAD64976696EFAD66976B2F7A2F65
:1032F0008F2F9E2F0E94F145CD57DF4F6883C35813
:10330000D040CC57DF4F7883C458D040E6968FAF7B
:10331000E697E7969FAFE797762FCC57DF4F688108
:10332000C458D040982FE7968FADE797272F362FB8
:10333000492F582FE596BFADE597E896AFADE897D2
:10334000EC96FFADEC97C158DF4FE881CF57D040E6
:103350006B2F7A2F8F2F9E2F0E94CB439B01AC01A6
:103360000E94CB436093810670938206809383060C
:10337000909384062C2D3D2D4E2D5F2DD101689606
:10338000FFAD68976A96EFAD6A976B2F7A2F8F2FF4
:103390009E2F0E94F145CB57DF4F6883C558D04020
:1033A000CA57DF4F7883C658D040C957DF4F88834C
:1033B000C758D040C857DF4F9883C858D040B8018D
:1033C000C301272F362F492F582F2C96BFAD2C978E
:1033D0006096AFAD60976496FFAD64976696EFAD6B
:1033E00066976B2F7A2F8F2F9E2F0E94F145C7571C
:1033F000DF4F6883C958D040C657DF4F7883CA581B
:10340000D040C557DF4F8883CB58D040C457DF4FDB
:103410009883CC58D040762FC657DF4F6881CA5862
:10342000D040982FC457DF4F8881CC58D040272FE9
:10343000362F492F582FCB57DF4FB881C558D04072
:10344000CA57DF4FA881C658D040C957DF4FF8810F
:10345000C758D040C857DF4FE881C858D0406B2FBD
:103460007A2F8F2F9E2F0E94CA439B01AC010E948E
:10347000CB4360938506709386068093870690936E
:103480008806CD57DF4F7881C358D040CC57DF4FE7
:103490006881C458D040E6969FADE697E7968FAD19
:1034A000E797272F362F492F582FE596BFADE59781
:1034B000E896AFADE897EC96FFADEC97C158DF4FBB
:1034C000E881CF57D0406B2F7A2F8F2F9E2F0E94ED
:1034D000CA439B01AC010E94CB4360938906709361
:1034E0008A0680938B0690938C06AB967FADAB9744
:1034F000AF966FADAF97E3969FADE397E4968FAD30
:10350000E497272F362F492F582FA496BFADA497A5
:10351000A896AFADA897A996FFADA997AA96EFADCB
:10352000AA976B2F7A2F8F2F9E2F0E94CA43A496A3
:103530006FAFA497A8967FAFA897A9968FAFA997CA
:10354000AA969FAFAA97762FA8966FADA897982FA7
:10355000AA968FADAA97272F362F492F582FD5011E
:10356000F4016B2F7A2F8F2F9E2F0E94CB43D20115
:103570006C96FFAD6C97A096EFADA0972B2F3A2FCE
:103580004F2F5E2F0E94CA4360938D0670938E0664
:1035900080938F06909390062C2D3D2D4E2D5F2D00
:1035A000D801F3016B2F7A2F8F2F9E2F0E94F145A8
:1035B000D62EC72E782E692EB10168969FAD6897DA
:1035C0006A968FAD6A97272F362F492F582F2C9642
:1035D000BFAD2C976096AFAD60976496FFAD6497D2
:1035E0006696EFAD66976B2F7A2F8F2F9E2F0E94D6
:1035F000F1457B018C01762F272F3F2D402F512F36
:10360000D601F3016B2F7A2F8F2F9E2F0E94CB4371
:103610009B01AC010E94CB4360939106709392068C
:103620008093930690939406C757DF4F7881C958CB
:10363000D040C657DF4F6881CA58D040C557DF4FCA
:103640009881CB58D040C457DF4F8881CC58D040A8
:10365000272F362F492F582FCB57DF4FB881C5580A
:10366000D040CA57DF4FA881C658D040C957DF4F56
:10367000F881C758D040C857DF4FE881C858D040BC
:103680006B2F7A2F8F2F9E2F0E94CB439B01AC0173
:103690000E94CB436093950670939606809397069D
:1036A000909398062E2D3F2D402F512FD601F301D8
:1036B0006B2F7A2F8F2F9E2F0E94CA439B01AC0144
:1036C0000E94CB436093990670939A0680939B0661
:1036D00090939C06B501C401272F362F492F582FF0
:1036E000A496BFADA497A896AFADA897A996FFAD35
:1036F000A997AA96EFADAA976B2F7A2F8F2F9E2F9F
:103700000E94CA439B01AC01D2016C96FFAD6C973D
:10371000A096EFADA0976B2F7A2F8F2F9E2F0E9430
:10372000CB4360939D0670939E0680939F06909373
:10373000A0068091E8059091E905181619060CF08D
:103740004DC010927D0610927E0610927F06109258
:1037500080061092810610928206109283061092C3
:1037600084061092850610928606109287061092A3
:1037700088061092890610928A0610928B06109283
:103780008C0610928D0610928E0610928F06109263
:103790009006109291061092920610929306109243
:1037A0009406109295061092960610929706109223
:1037B00098061092990610929A0610929B06109203
:1037C0009C0610929D0610929E0610929F061092E3
:1037D000A00601979093E9058093E805E12CF12C70
:1037E00087012DE736E04CE552E065E676E08DE4B2
:1037F00096E00E94A601C0906002D0906102E09025
:103800006202F090630240906802509069026090FA
:103810006A0270906B0280905C0290905D02A090B2
:103820005E02B0905F028091640290916502A09167
:103830006602B09167022F968CAF9DAFAEAFBFAF5F
:103840002F97A3019201C701B6010E94F14563962B
:103850006CAF7DAF8EAF9FAF63972F962CAD3DAD14
:103860004EAD5FAD2F97C501B4010E94F1459B019C
:10387000AC0163966CAD7DAD8EAD9FAD63970E943C
:10388000CA439B01AC010E94CB43C355DF4F688301
:10389000CD5AD040C255DF4F7883CE5AD040C15563
:1038A000DF4F8883CF5AD040C055DF4F9883C05B2D
:1038B000D040472F382F292F862F942FA32FB22F98
:1038C0008093850690938606A0938706B09388061A
:1038D0002F962CAD3DAD4EAD5FAD2F97C301B2011C
:1038E0000E94F14563966CAF7DAF8EAF9FAF63973B
:1038F000A5019401C701B6010E94F1459B01AC01ED
:1039000063966CAD7DAD8EAD9FAD63970E94CB434A
:103910009B01AC010E94CB43CF54DF4F6883C15B56
:10392000D040CE54DF4F7883C25BD040CD54DF4FC0
:103930008883C35BD040CC54DF4F9883C45BD040B6
:10394000472F382F292F862F942FA32FB22F809304
:10395000910690939206A0939306B0939406A501C6
:103960009401C501B4010E94F1454B015C01A7011E
:103970009601C701B6010E94F1459B01AC01C5014A
:10398000B4010E94CA436B017C012F962CAD3DAD62
:103990004EAD5FAD2F97CA01B9010E94F1459B0161
:1039A000AC01C701B6010E94CA436B017C01A301AF
:1039B0009201C301B2010E94F1459B01AC01C70114
:1039C000B6010E94CB43CB54DF4F6883C55BD04028
:1039D000CA54DF4F7883C65BD040C954DF4F888319
:1039E000C75BD040C854DF4F9883C85BD040472F97
:1039F000382F292F862F942FA32FB22F80939D0627
:103A000090939E06A0939F06B093A006DE01959624
:103A10002B96BFAFAEAF2B9784E21D928A95E9F744
:103A200080E090E0A0E8BFE38DA39EA3AFA3B8A77A
:103A30008DAB9EABAFABB8AF29968CAF9DAFAEAFA1
:103A4000BFAF29972091D6053091D7054091D80571
:103A50005091D905A7962CAF3DAF4EAF5FAFA7975A
:103A600029A73AA74BA75CA7CA01B9010E94F14553
:103A700020E030E040E05FE30E94F1456DA77EA7C3
:103A80008FA798ABA7968CAD9DADAEADBFADA797F8
:103A900089AF9AAFABAFBCAFC090B802D090B902BB
:103AA000E090BA02F090BB022091BC023091BD02BE
:103AB0004091BE025091BF02C158DF4F2883398325
:103AC0004A835B83CF57D040A7019601BC01CD014B
:103AD0000E94F1452091B4023091B5024091B602A6
:103AE0005091B7020E94CB434B015C0120E030E0D3
:103AF00040E05FE3C158DF4F688179818A819B8113
:103B0000CF57D0400E94F1459B01AC01A7966CAD08
:103B10007DAD8EAD9FADA7970E94F1459B01AC0195
:103B2000A7966CAD7DAD8EAD9FADA7970E94F14578
:103B30009B01AC01C501B4010E94CB43C754DF4FC8
:103B40006883C95BD040C654DF4F7883CA5BD040DE
:103B5000C554DF4F8883CB5BD040C454DF4F98837C
:103B6000CC5BD040C158DF4F288139814A815B81CD
:103B7000CF57D040A7966CAD7DAD8EAD9FADA797CA
:103B80000E94F1459B01AC01C701B6010E94CB43E5
:103B9000C953DF4F6883C75CD040C853DF4F788379
:103BA000C85CD040C753DF4F8883C95CD040C65340
:103BB000DF4F9883CA5CD0406D961FAE1EAE6D97E6
:103BC0006D962EAD3FAD6D97220F331F6D964EADA6
:103BD0005FAD6D97240F351F220F331F220F331F48
:103BE00020573D4F6B963FAF2EAF6B9765961FAE3C
:103BF0001EAE659742955295507F5427407F5427BB
:103C000085E290E08C0F9D1F840F951FA1969FAFBA
:103C10008EAFA197A1964EAD5FADA19767965FAFAE
:103C20004EAF67976D96AEACBFAC6D97212C312C23
:103C3000912C812C65968EAD9FAD6597829592955E
:103C4000907F9827807F9827A5E2B0E0AC0FBD1F3A
:103C5000A80FB91F6996BFAFAEAF69976196BFAEA7
:103C6000AEAE61976796AEADBFAD67974D905D9074
:103C70006D907D906796BFAFAEAF679761960EADC2
:103C80001FAD6197000F111F6196EEADFFAD6197FB
:103C90000E0F1F1F65962EAD3FAD6597020F131FC8
:103CA000000F111F000F111F04591D4F69964EADD3
:103CB0005FAD69972D965FAF4EAF2D975901D80133
:103CC0006D917D918D919D918D012D96EEADFFAD04
:103CD0002D97C190D190E190F1902D96FFAFEEAF6E
:103CE0002D97A30192010E94F145A70196010E9420
:103CF000F1459B01AC01F401622D732D8F2F982D9E
:103D00000E94CB431B01982E892EFFEFAF1ABF0AEA
:103D100023E0A216B1049CF261964EAD5FAD6197AF
:103D20004F5F5F4F61965FAF4EAF61974330510574
:103D30000CF498CFCB01A92DB82D6B96EEADFFAD4D
:103D40006B9781939193A193B1936B96FFAFEEAF75
:103D50006B9765962EAD3FAD65972F5F3F4F65968C
:103D60003FAF2EAF65972330310509F053CF6D96E5
:103D7000EEADFFAD6D9731966D96FFAFEEAF6D97DF
:103D8000339709F01DCF20E030E04AE754E4A796CE
:103D90006CAD7DAD8EAD9FADA7970E94F1457B01C7
:103DA0008C012091B0023091B1024091B202509149
:103DB000B3027F2D912F0E94CB4360966FAF609727
:103DC00064967FAF649766968FAF669768969FAF4D
:103DD0006897472F382F292F862F942FA32FB22F84
:103DE0008093B0029093B102A093B202B093B30259
:103DF0002E2D3F2D402F512FA7966CAD7DAD8EAD52
:103E00009FADA7970E94F145D62EC72EB82EA92E9A
:103E100020E030E040E05FE3D601F5016B2F7A2F20
:103E20008F2F9E2F0E94F1457B018C012091AC02C7
:103E30003091AD024091AE025091AF027F2D912F93
:103E40000E94CB43CD57DF4F6883C358D040CC5737
:103E5000DF4F7883C458D040E6968FAFE697E79659
:103E60009FAFE797472F382F292F862F942FA32F07
:103E7000B22F8093AC029093AD02A093AE02B093A8
:103E8000AF022091A4023091A5024091A602509168
:103E9000A7026E2D7F2D802F912F0E94CB43A896D5
:103EA0006FAFA897A9967FAFA997AA968FAFAA9749
:103EB000AB969FAFAB97472F382F292F862F942F84
:103EC000A32FB22F8093A4029093A502A093A602E1
:103ED000B093A702B601C501272F362F492F582FBF
:103EE000A7966CAD7DAD8EAD9FADA7970E94F145B5
:103EF000162F072FF82EE92E20E030E040EC50E49A
:103F0000D801F7016B2F7A2F8F2F9E2F0E944A44E2
:103F1000D62EC72EB82EA92E209198023091990244
:103F200040919A0250919B02D601F5016B2F7A2F96
:103F30008F2F9E2F0E94CB43F62FE72F382F292F4C
:103F4000862F9E2FA32FB22F2F968CAF9DAFAEAF93
:103F5000BFAF2F974F2F5E2F632F722F4093980282
:103F60005093990260939A0270939B0220E030E094
:103F700040E450E4D801F7016B2F7A2F8F2F9E2F4A
:103F80000E944A442091A0023091A1024091A202D5
:103F90005091A3020E94CB43CB57DF4F6883C55893
:103FA000D040CA57DF4F7883C658D040C957DF4F3B
:103FB0008883C758D040C857DF4F9883C858D0402F
:103FC000472F382F292F862F942FA32FB22F80937E
:103FD000A0029093A102A093A202B093A302209109
:103FE000A8023091A9024091AA025091AB02D601D9
:103FF000F5016B2F7A2F8F2F9E2F0E94CB43C7572F
:10400000DF4F6883C958D040C657DF4F7883CA58FE
:10401000D040C557DF4F8883CB58D040C457DF4FBF
:104020009883CC58D040472F382F292F862F942F94
:10403000A32FB22F8093A8029093A902A093AA0263
:10404000B093AB02B801C701272F362F492F582F45
:10405000A7966CAD7DAD8EAD9FADA7970E94F14543
:10406000D62EC72EB82EA92E20E030E040E05EE329
:10407000D601F5016B2F7A2F8F2F9E2F0E94F145CD
:104080007B018C012091940230919502409196021F
:10409000509197027F2D912F0E94CB43AF966FAF27
:1040A000AF97E3967FAFE397E4968FAFE497E596FB
:1040B0009FAFE597472F382F292F862F942FA32FB7
:1040C000B22F8093940290939502A0939602B0939E
:1040D000970220919C0230919D0240919E02509146
:1040E0009F026E2D7F2D802F912F0E94CB43C956AA
:1040F000DF4F6883C759D040C856DF4F7883C8590F
:10410000D040C756DF4F8883C959D040C656DF4FCD
:104110009883CA59D040472F382F292F862F942FA4
:10412000A32FB22F80939C0290939D02A0939E0296
:10413000B0939F02B601C501272F362F492F582F64
:10414000A7966CAD7DAD8EAD9FADA7970E94F14552
:1041500020E030E040EA51E40E944A44209190027D
:104160003091910240919202509193020E94CB4370
:104170006A966FAF6A976C967FAF6C97A0968FAF79
:10418000A097A4969FAFA497472F382F292F862F4B
:10419000942FA32FB22F8093900290939102A0931B
:1041A0009202B0939302A091C202B091C302C5558E
:1041B000DF4FB983A883CB5AD040AB2B11F00C94BE
:1041C000FA2F60E074E284E799E46A96BFAD6A97DB
:1041D0006C96AFAD6C97A096FFADA097A496EFAD8F
:1041E000A4972B2F3A2F4F2F5E2F0E94CB43562E92
:1041F000472E382E292E2BE037ED43E25DE3609603
:10420000BFAD60976496AFAD64976696FFAD669755
:104210006896EFAD68976B2F7A2F8F2F9E2F0E9495
:10422000CB43B62EA72E982E892EB501C401272F79
:10423000362F492F582FD201F1016B2F7A2F8F2F54
:104240009E2F0E94F1456B017C012F962CAD3DAD58
:104250004EAD5FAD2F97CA01B9010E94F1459B0198
:10426000AC01C701B6010E94CA43162F072FF82ED2
:10427000E92EB801C701272F362F492F582FD50116
:10428000F4016B2F7A2F8F2F9E2F0E944A44962E77
:10429000872E782E692EB801C701272F362F492F78
:1042A000582FD201F1016B2F7A2F8F2F9E2F0E9452
:1042B0004A44562E472E382E292E2F966CAD7DADB2
:1042C0008EAD9FAD2F979058D801F7012B2F3A2F25
:1042D0004F2F5E2F0E944A44162F072FB82EA92E6B
:1042E000B801C501272F362F492F582F2F966CADB7
:1042F0007DAD8EAD9FAD2F970E94F145C357DF4F27
:104300006883CD58D040CF56DF4F7883C159D04015
:10431000CB56DF4F8883C559D040CA56DF4F9883AC
:10432000C659D040B401C301272F362F492F582F2B
:104330006A96BFAD6A976C96AFAD6C97A096FFADCD
:10434000A097A496EFADA4976B2F7A2F8F2F9E2F57
:104350000E94F145C357DF4FB881CD58D040CF56AA
:10436000DF4FA881C159D040CB56DF4FF881C559E6
:10437000D040CA56DF4FE881C659D0402B2F3A2F84
:104380004F2F5E2F0E94CB43C354DF4F6883CD5B1A
:10439000D040C254DF4F7883CE5BD040C154DF4F52
:1043A0008883CF5BD040C054DF4F9883C05CD0403F
:1043B000B801C501272F362F492F582F6A96BFAD58
:1043C0006A976C96AFAD6C97A096FFADA097A49638
:1043D000EFADA4976B2F7A2F8F2F9E2F0E94F14560
:1043E0006B017C01B201C101272F362F492F582FB5
:1043F0002F966CAD7DAD8EAD9FAD2F970E94F14590
:104400009B01AC01C701B6010E94CB43C556DF4FEB
:104410006883CB59D040C456DF4F7883CC59D04005
:10442000C356DF4F8883CD59D040C256DF4F9883A3
:10443000CE59D0406B017C01CD53DF4FC882D98269
:10444000EA82FB82C35CD040B401C301272F362F20
:10445000492F582FAF96BFADAF97E396AFADE39717
:10446000E496FFADE497E596EFADE5976B2F7A2FD5
:104470008F2F9E2F0E94F1456B017C01B801C50171
:10448000272F362F492F582FA896BFADA897A9964A
:10449000AFADA997AA96FFADAA97AB96EFADAB9734
:1044A0006B2F7A2F8F2F9E2F0E94F1459B01AC011D
:1044B000C701B6010E94CB43C156DF4F6883CF5975
:1044C000D040C056DF4F7883C05AD040CF55DF4F21
:1044D0008883C15AD040CE55DF4F9883C25AD0400E
:1044E000CB01CF55DF4FA881C15AD040CE55DF4F09
:1044F000B881C25AD040EB968CAF9DAFAEAFBFAF84
:10450000EB97B801C501272F362F492F582FAF96AB
:10451000BFADAF97E396AFADE397E496FFADE497F9
:10452000E596EFADE5976B2F7A2F8F2F9E2F0E9488
:10453000F1456B017C01B201C101272F362F492FB4
:10454000582FA896BFADA897A996AFADA997AA96E0
:10455000FFADAA97AB96EFADAB976B2F7A2F8F2F4E
:104560009E2F0E94F1459B01AC01C701B6010E943C
:10457000CB43CD55DF4F6883C35AD040CC55DF4F76
:104580007883C45AD040CB55DF4F8883C55AD0407A
:10459000CA55DF4F9883C65AD040CB01CB55DF4F69
:1045A000A881C55AD040CA55DF4FB881C65AD040FD
:1045B000EF968CAF9DAFAEAFBFAFEF97B401C30125
:1045C000272F362F492F582F2F966CAD7DAD8EADEE
:1045D0009FAD2F970E94F1456B017C01B801C50189
:1045E000272F362F492F582F6096BFAD60976496BE
:1045F000AFAD64976696FFAD66976896EFAD689726
:104600006B2F7A2F8F2F9E2F0E94F1459B01AC01BB
:10461000C701B6010E94CB43C955DF4F6883C75A13
:10462000D040C855DF4F7883C85AD040C755DF4FB8
:104630008883C95AD040C655DF4F9883CA5AD040A4
:104640004B015C01B201C101272F362F492F582F92
:104650006096BFAD60976496AFAD64976696FFAD08
:1046600066976896EFAD68976B2F7A2F8F2F9E2FE6
:104670000E94F1459B01AC01C357DF4FB881CD5873
:10468000D040CF56DF4FA881C159D040CB56DF4F25
:10469000F881C559D040CA56DF4FE881C659D0408D
:1046A0006B2F7A2F8F2F9E2F0E94CB43CB56DF4F3D
:1046B0006883C559D040CA56DF4F7883C659D04069
:1046C000CF53DF4F8883C15CD040CE53DF4F9883F8
:1046D000C25CD040FE01319684E2DF011D928A95D2
:1046E000E9F7C354DF4F7881CD5BD040C254DF4F30
:1046F0006881CE5BD040C154DF4F9881CF5BD04002
:10470000C054DF4F8881C05CD040272F362F492FFF
:10471000582F60E070E080E89FE30E94CA432B01BD
:104720003C01CD53DF4FC880D980EA80FB80C35C59
:10473000D040F7FAF094F7F8F094EB962CAD3DAD3D
:104740004EAD5FADEB975058EB962CAF3DAF4EAFF3
:104750005FAFEB97EF968CAD9DADAEADBFADEF9774
:10476000B058EF968CAF9DAFAEAFBFAFEF97A5013E
:1047700094015058C357DF4F288339834A835B83A2
:10478000CD58D040CB56DF4F7881C559D040CA565E
:10479000DF4F6881C659D040CF53DF4F9881C15C4D
:1047A000D040CE53DF4F8881C25CD040272F362FB8
:1047B000492F582F60E070E080E89FE30E94CA43D1
:1047C000CF56DF4F688379838A839B83C159D0405A
:1047D000A30192016A96BFAD6A976C96AFAD6C97D4
:1047E000A096FFADA097A496EFADA4976B2F7A2F5C
:1047F0008F2F9E2F0E94F14520E030E0A9010E94FA
:10480000CB43162F072F382E292E8D809E80AF8008
:10481000B884A5019401C956DF4FB881C759D0406B
:10482000C856DF4FA881C859D040C756DF4FF8811E
:10483000C959D040C656DF4FE881CA59D0406B2FC6
:104840007A2F8F2F9E2F0E94F1459B01AC01D8013A
:10485000F1016B2F7A2F8F2F9E2F0E94CB43162FA3
:10486000072F382E292EA7019601C757DF4FB88191
:10487000C958D040C657DF4FA881CA58D040C55745
:10488000DF4FF881CB58D040C457DF4FE881CC5878
:10489000D0406B2F7A2F8F2F9E2F0E94F1459B01C6
:1048A000AC01D801F1016B2F7A2F8F2F9E2F0E9420
:1048B000CB4360936C0270936D0280936E02909371
:1048C0006F02A3019201AF96BFADAF97E396AFAD74
:1048D000E397E496FFADE497E596EFADE5976B2F90
:1048E0007A2F8F2F9E2F0E94F14520E030E0A90102
:1048F0000E94CB43162F072F382E292EA501940195
:10490000CB57DF4FB881C558D040CA57DF4FA88179
:10491000C658D040C957DF4FF881C758D040C85754
:10492000DF4FE881C858D0406B2F7A2F8F2F9E2FF2
:104930000E94F1459B01AC01D801F1016B2F7A2F48
:104940008F2F9E2F0E94CB43162F072F382E292EF4
:10495000A7019601CD57DF4FB881C358D040CC573F
:10496000DF4FA881C458D040E696FFADE697E796A2
:10497000EFADE7976B2F7A2F8F2F9E2F0E94F14577
:104980009B01AC01D801F1016B2F7A2F8F2F9E2F45
:104990000E94CB4360937002709371028093720205
:1049A00090937302A30192012F966CAD7DAD8EADF5
:1049B0009FAD2F970E94F14520E030E0A9010E94B1
:1049C000CB43162F072F782E692EA5019401A896A8
:1049D000BFADA897A996AFADA997AA96FFADAA9724
:1049E000AB96EFADAB976B2F7A2F8F2F9E2F0E9438
:1049F000F1459B01AC01D801F3016B2F7A2F8F2F6A
:104A00009E2F0E94CB43162F072FB82EA92EA70149
:104A100096016096BFAD60976496AFAD6497669659
:104A2000FFAD66976896EFAD68976B2F7A2F8F2F43
:104A30009E2F0E94F1459B01AC01D801F5016B2F1F
:104A40007A2F8F2F9E2F0E94CB4360937402709316
:104A500075028093760290937702EB962CAD3DAD74
:104A60004EAD5FADEB976A96BFAD6A976C96AFADF2
:104A70006C97A096FFADA097A496EFADA4976B2F6F
:104A80007A2F8F2F9E2F0E94F14520E030E0A90160
:104A90000E94CB43162F072FF82EE92E20E030E09E
:104AA00040E85FE3C956DF4FB881C759D040C856C8
:104AB000DF4FA881C859D040C756DF4FF881C95988
:104AC000D040C656DF4FE881CA59D0406B2F7A2FAD
:104AD0008F2F9E2F0E94F1459B01AC01D801F70159
:104AE0006B2F7A2F8F2F9E2F0E94CB43162F072FCD
:104AF000F82EE92EEF962CAD3DAD4EAD5FADEF97A4
:104B0000C757DF4FB881C958D040C657DF4FA8817B
:104B1000CA58D040C557DF4FF881CB58D040C45752
:104B2000DF4FE881CC58D0406B2F7A2F8F2F9E2FEC
:104B30000E94F1459B01AC01D801F7016B2F7A2F40
:104B40008F2F9E2F0E94CB4360937802709379023F
:104B500080937A0290937B02EB962CAD3DAD4EADE7
:104B60005FADEB97AF96BFADAF97E396AFADE39771
:104B7000E496FFADE497E596EFADE5976B2F7A2FBE
:104B80008F2F9E2F0E94F14520E030E0A9010E9466
:104B9000CB43162F072FF82EE92E20E030E040E817
:104BA0005FE3CB57DF4FB881C558D040CA57DF4FBE
:104BB000A881C658D040C957DF4FF881C758D040A8
:104BC000C857DF4FE881C858D0406B2F7A2F8F2FFE
:104BD0009E2F0E94F1459B01AC01D801F7016B2F7C
:104BE0007A2F8F2F9E2F0E94CB43162F072FF82E40
:104BF000E92EEF962CAD3DAD4EAD5FADEF97CD57A5
:104C0000DF4FB881C358D040CC57DF4FA881C4587C
:104C1000D040E696FFADE697E796EFADE7976B2FAE
:104C20007A2F8F2F9E2F0E94F1459B01AC01D80156
:104C3000F7016B2F7A2F8F2F9E2F0E94CB4360930B
:104C40007C0270937D0280937E0290937F02EB96AC
:104C50002CAD3DAD4EAD5FADEB972F966CAD7DAD00
:104C60008EAD9FAD2F970E94F14520E030E0A90165
:104C70000E94CB43162F072FF82EE92E20E030E0BC
:104C800040E85FE3A896BFADA897A996AFADA997F6
:104C9000AA96FFADAA97AB96EFADAB976B2F7A2F85
:104CA0008F2F9E2F0E94F1459B01AC01D801F70187
:104CB0006B2F7A2F8F2F9E2F0E94CB43162F072FFB
:104CC000F82EE92EEF962CAD3DAD4EAD5FADEF97D2
:104CD0006096BFAD60976496AFAD64976696FFAD82
:104CE00066976896EFAD68976B2F7A2F8F2F9E2F60
:104CF0000E94F1459B01AC01D801F7016B2F7A2F7F
:104D00008F2F9E2F0E94CB4360938002709381026D
:104D10008093820290938302C357DF4F28813981A9
:104D20004A815B81CD58D0406A96BFAD6A976C9638
:104D3000AFAD6C97A096FFADA097A496EFADA497EA
:104D40006B2F7A2F8F2F9E2F0E94F14520E030E0AD
:104D5000A9010E94CB43162F072FB82EA92ECD8C68
:104D6000DE8CEF8CF8A0A7019601C956DF4FB88101
:104D7000C759D040C856DF4FA881C859D040C75640
:104D8000DF4FF881C959D040C656DF4FE881CA5974
:104D9000D0406B2F7A2F8F2F9E2F0E94F1459B01C1
:104DA000AC01D801F5016B2F7A2F8F2F9E2F0E9417
:104DB000CB43162F072FB82EA92ECF56DF4F2881B1
:104DC00039814A815B81C159D040C757DF4FB881D3
:104DD000C958D040C657DF4FA881CA58D040C557E0
:104DE000DF4FF881CB58D040C457DF4FE881CC5813
:104DF000D0406B2F7A2F8F2F9E2F0E94F1459B0161
:104E0000AC01D801F5016B2F7A2F8F2F9E2F0E94B6
:104E1000CB436093840270938502809386029093C3
:104E20008702C357DF4F288139814A815B81CD5882
:104E3000D040AF96BFADAF97E396AFADE397E496A2
:104E4000FFADE497E596EFADE5976B2F7A2F8F2FA7
:104E50009E2F0E94F14520E030E0A9010E94CB4343
:104E6000162F072FB82EA92EA7019601CB57DF4F7B
:104E7000B881C558D040CA57DF4FA881C658D04026
:104E8000C957DF4FF881C758D040C857DF4FE88176
:104E9000C858D0406B2F7A2F8F2F9E2F0E94F1453C
:104EA0009B01AC01D801F5016B2F7A2F8F2F9E2F1C
:104EB0000E94CB43162F072FB82EA92ECF56DF4FB7
:104EC000288139814A815B81C159D040CD57DF4F5C
:104ED000B881C358D040CC57DF4FA881C458D040C8
:104EE000E696FFADE697E796EFADE7976B2F7A2F43
:104EF0008F2F9E2F0E94F1459B01AC01D801F50137
:104F00006B2F7A2F8F2F9E2F0E94CB4360938802A6
:104F10007093890280938A0290938B02C357DF4F6C
:104F2000288139814A815B81CD58D0402F966CAD64
:104F30007DAD8EAD9FAD2F970E94F14520E030E012
:104F4000A9010E94CB435B018C01A7019601A896A1
:104F5000BFADA897A996AFADA997AA96FFADAA979E
:104F6000AB96EFADAB976B2F7A2F8F2F9E2F0E94B2
:104F7000F1459B01AC016A2D7B2D802F912F0E9462
:104F8000CB437B018C01CF56DF4F288139814A8189
:104F90005B81C159D0406096BFAD60976496AFAD5C
:104FA00064976696FFAD66976896EFAD68976B2F2E
:104FB0007A2F8F2F9E2F0E94F1459B01AC016E2D01
:104FC0007F2D802F912F0E94CB4360938C02709392
:104FD0008D0280938E0290938F02C555DF4F4881DA
:104FE0005981CB5AD040BA0180E090E00E94E3445E
:104FF00020E030E040E05FE30E94F14526E636E243
:105000004AEA53E40E94F1452DEB37E346E855E3C5
:105010000E94F145C754DF4FB881C95BD040C654E8
:10502000DF4FA881CA5BD040C554DF4FF881CB5B0E
:10503000D040C454DF4FE881CC5BD0402B2F3A2FB7
:105040004F2F5E2F0E94CA43762E872E982EA92EB0
:105050002091DC023091DD024091DE025091DF02AE
:10506000C355DF4FB881CD5AD040C255DF4FA8811C
:10507000CE5AD040C155DF4FF881CF5AD040C055ED
:10508000DF4FE881C05BD0406B2F7A2F8F2F9E2F90
:105090000E94F1456B017C012091E0023091E10218
:1050A0004091E2025091E302CF54DF4FB881C15BDF
:1050B000D040CE54DF4FA881C25BD040CD54DF4FEB
:1050C000F881C35BD040CC54DF4FE881C45BD04053
:1050D0006B2F7A2F8F2F9E2F0E94F1459B01AC01E1
:1050E000C701B6010E94CB436B017C012091E40211
:1050F0003091E5024091E6025091E702CB54DF4F38
:10510000B881C55BD040CA54DF4FA881C65BD04090
:10511000C954DF4FF881C75BD040C854DF4FE881E6
:10512000C85BD0406B2F7A2F8F2F9E2F0E94F145A6
:105130009B01AC01C701B6010E94CB439B01AC01AE
:1051400060E070E080E89FEB0E94CA4328EB3EE1FC
:105150004DE151E40E94F145C158DF4F288139816A
:105160004A815B81CF57D0400E94CA43B62E072F99
:10517000182F692E272D382D492D5A2DC354DF4F56
:10518000B881CD5BD040C254DF4FA881CE5BD04008
:10519000C154DF4FF881CF5BD040C054DF4FE8816E
:1051A000C05CD0406B2F7A2F8F2F9E2F0E94F1452D
:1051B0009B01AC01C754DF4FB881C95BD040C654D6
:1051C000DF4FA881CA5BD040C554DF4FF881CB5B6D
:1051D000D040C454DF4FE881CC5BD0406B2F7A2F96
:1051E0008F2F9E2F0E94CB436B017C012B2D302FE4
:1051F000412F562DC556DF4F6881CB59D040C4563C
:10520000DF4F7881CC59D040C356DF4F8881CD59CC
:10521000D040C256DF4F9881CE59D0400E94F14510
:105220009B01AC01C701B6010E94CB436093B4025D
:105230007093B5028093B6029093B702272D382D54
:10524000492D5A2DC156DF4F6881CF59D040C056E5
:10525000DF4F7881C05AD040CF55DF4F8881C15A87
:10526000D040CE55DF4F9881C25AD0400E94F145C0
:105270009B01AC01C953DF4FB881C75CD040C85314
:10528000DF4FA881C85CD040C753DF4FF881C95CAD
:10529000D040C653DF4FE881CA5CD0406B2F7A2FD5
:1052A0008F2F9E2F0E94CB436B017C012B2D302F23
:1052B000412F562DCD55DF4F6881C35AD040CC5574
:1052C000DF4F7881C45AD040CB55DF4F8881C55A13
:1052D000D040CA55DF4F9881C65AD0400E94F14550
:1052E0009B01AC01C701B6010E94CB436093B80299
:1052F0007093B9028093BA029093BB02272D382D88
:10530000492D5A2DC955DF4F6881C75AD040C8551D
:10531000DF4F7881C85AD040C755DF4F8881C95ABE
:10532000D040C655DF4F9881CA5AD0400E94F145FF
:105330009B01AC01C158DF4F688179818A819B81D3
:10534000CF57D0400E94CB436B017C012B2D302FD7
:10535000412F562DCB56DF4FB881C559D040CA5684
:10536000DF4FA881C659D040CF53DF4FF881C15CD1
:10537000D040CE53DF4FE881C25CD0406B2F7A2FF4
:105380008F2F9E2F0E94F1459B01AC01C701B601F2
:105390000E94CB436093BC027093BD028093BE0217
:1053A0009093BF0261E072E087E197E00E94E236ED
:1053B0004091DC025091DD026091DE027091DF02CB
:1053C00022E030E087E197E00E94653864E172E016
:1053D00087E197E00E94E2364091E0025091E102BD
:1053E0006091E2027091E30222E030E087E197E011
:1053F0000E94653864E172E087E197E00E94E2363E
:105400004091E4025091E5026091E6027091E7025A
:1054100022E030E087E197E00E94653864E172E0C5
:1054200087E197E00E94E2364091E8025091E9025C
:105430006091EA027091EB0222E030E087E197E0B0
:105440000E94653864E172E087E197E00E94E236ED
:105450004091EC025091ED026091EE027091EF02EA
:1054600022E030E087E197E00E94653864E172E075
:1054700087E197E00E94E2364091F0025091F102FC
:105480006091F2027091F30222E030E087E197E050
:105490000E94653864E172E087E197E00E94E2369D
:1054A0004091C8025091C9026091CA027091CB022A
:1054B00022E030E087E197E00E94653864E172E025
:1054C00087E197E00E94E2364091C4025091C50204
:1054D0006091C6027091C70222E030E087E197E058
:1054E0000E94653864E172E087E197E00E94E2364D
:1054F0004091D0025091D1026091D2027091D302BA
:1055000022E030E087E197E00E94653864E172E0D4
:1055100087E197E00E94E2364091D4025091D50293
:105520006091D6027091D70222E030E087E197E0E7
:105530000E94653864E172E087E197E00E94E236FC
:105540004091D8025091D9026091DA027091DB0249
:1055500022E030E087E197E00E94673868E072E07F
:1055600087E197E00E94E23620E030E048EC52E428
:1055700060915C0270915D0280915E0290915F0289
:105580000E94F145AB01BC0122E030E087E197E0E9
:105590000E94653864E172E087E197E00E94E2369C
:1055A00020E030E048EC52E46091600270916102CA
:1055B00080916202909163020E94F145AB01BC01AF
:1055C00022E030E087E197E00E94653864E172E014
:1055D00087E197E00E94E23620E030E048EC52E4B8
:1055E00060916402709165028091660290916702F9
:1055F0000E94F145AB01BC0122E030E087E197E079
:105600000E94653864E172E087E197E00E94E2362B
:1056100020E030E048EC52E4609168027091690249
:1056200080916A0290916B020E94F145AB01BC012E
:1056300022E030E087E197E00E94653864E172E0A3
:1056400087E197E00E94E23665E172E087E197E04A
:105650000E94013760E172E087E197E00E94E23644
:1056600020E030E048EC52E46091B4027091B50261
:105670008091B6029091B7020E94F145AB01BC0146
:1056800022E030E087E197E00E94653864E172E053
:1056900087E197E00E94E23620E030E048EC52E4F7
:1056A00060916C0270916D0280916E0290916F0218
:1056B0000E94F145AB01BC0122E030E087E197E0B8
:1056C0000E94653865E172E087E197E00E9401374A
:1056D00082E00E945E30BC01882777FD8095982F7C
:1056E0000E94E54424E134E144EC5CE30E94F1458E
:1056F000AB01BC0122E030E087E197E00E94653811
:1057000065E172E087E197E00E94013780905C02DA
:1057100090905D02A0905E02B0905F02C09068021F
:10572000D0906902E0906A02F0906B02A5019401AA
:10573000C501B4010E94F1452B013C01A70196016E
:10574000C701B6010E94F1459B01AC01C301B20142
:105750000E94CB430E94A4469B01AC0160E070E034
:1057600080E89FE30E944A442B013C01762F272FBB
:10577000352D462D572DC501B4010E94F145162F38
:10578000072F382E292EA8019101852F942FA32FA2
:10579000B22F80934C0290934D02A0934E02B0938F
:1057A0004F02C701B6019058242D352D462D572D97
:1057B0000E94F14520E030E040E050E80E94F145D1
:1057C0002C966FAF2C9760967FAF609764968FAFE3
:1057D000649766969FAF6697472F382F292F862F9D
:1057E000942FA32FB22F8093500290935102A09335
:1057F0005202B093530220E030E040E050E8D8017C
:10580000F1016B2F7A2F8F2F9E2F0E94F145689602
:105810006FAF68976A967FAF6A976C968FAF6C97F9
:10582000A0969FAFA097472F382F292F862F942F10
:10583000A32FB22F8093540290935502A093560247
:10584000B0935702242D352D462D572DC701B60193
:105850000E94F145A4966FAFA497A8967FAFA89732
:10586000A9968FAFA997AA969FAFAA97472F382FCF
:10587000292F862F942FA32FB22F80935802909315
:105880005902A0935A02B0935B02809160029091FA
:105890006102A0916202B0916302AE968CAF9DAF9F
:1058A000AEAFBFAFAE9720916402309165024091D8
:1058B000660250916702E2962CAF3DAF4EAF5FAFEC
:1058C000E2972C967FAD2C9760966FAD60976496AB
:1058D0009FAD649766968FAD6697272F362F492F19
:1058E000582FC501B4010E94F1452B013C01AE9631
:1058F0002CAD3DAD4EAD5FADAE97D801F1016B2F34
:105900007A2F8F2F9E2F0E94F1459B01AC01C3017E
:10591000B2010E94CA432B013C01E2962CAD3DAD81
:105920004EAD5FADE297A496BFADA497A896AFAD7C
:10593000A897A996FFADA997AA96EFADAA976B2F46
:105940007A2F8F2F9E2F0E94F1459B01AC01C3013E
:10595000B2010E94CA432B013C0168967FAD689753
:105960006A966FAD6A976C969FAD6C97A0968FAD57
:10597000A097272F362F492F582FC701B6010E9415
:10598000F1459B01AC01C301B2010E94CB43E396F8
:105990006FAFE397E4967FAFE497E5968FAFE59717
:1059A000E8969FAFE89768967FAD68976A966FAD67
:1059B0006A976C969FAD6C97A0968FADA097272F96
:1059C000362F492F582FC501B4010E94F1452B01F4
:1059D0003C01AE962CAD3DAD4EAD5FADAE97A496FD
:1059E000BFADA497A896AFADA897A996FFADA9970C
:1059F000AA96EFADAA976B2F7A2F8F2F9E2F0E941A
:105A0000F1459B01AC01C301B2010E94CB432B01C4
:105A10003C01E2962CAD3DAD4EAD5FADE297D801B5
:105A2000F1016B2F7A2F8F2F9E2F0E94F1459B0142
:105A3000AC01C301B2010E94CA432B013C012C9668
:105A40007FAD2C9760966FAD609764969FAD64971D
:105A500066968FAD6697272F362F492F582FC7018F
:105A6000B6010E94F1459B01AC01C301B2010E9445
:105A7000CA43EC966FAFEC97C158DF4F7883CF578E
:105A8000D040CD57DF4F8883C358D040CC57DF4F2D
:105A90009883C458D040A4967FADA497A8966FADC4
:105AA000A897A9969FADA997AA968FADAA97272FD9
:105AB000362F492F582FC501B4010E94F1452B0103
:105AC0003C01AE962CAD3DAD4EAD5FADAE97689648
:105AD000BFAD68976A96AFAD6A976C96FFAD6C974D
