:100000000C9439010C946A010C946A010C946A01F5
:100010000C946A010C946A010C946A010C946A01B4
:100020000C946A010C946A010C946A010C946A01A4
:100030000C946A010C946A010C946A010C946A0194
:100040000C946A010C94F61A0C946A010C946A01DF
:100050000C946A010C946A010C946A010C94E50EEC
:100060000C946A010C9483110C9457120C946A013D
:100070000C946A010C946A010C946A010C946A0154
:100080000C94231B0C946A010C946A010C946A0171
:100090000C94B0110C9496120C946A010C94FA18FA
:1000A0000C946A010C946A010C94501B0C946A0124
:1000B0000C946A010C946A010C946A010C947D1BE7
:1000C0000C946A010C946A010C946A010C94DD1181
:1000D0000C94D5120C946A010C940A120C9414130B
:1000E0000C946A0107634236B79BD8A71A39685641
:1000F00018AEBAAB558C1D3CB7CC5763BD6DEDFD4A
:10010000753EF6177231BF000000803F0800000006
:10011000BE922449123EABAAAA2ABECDCCCC4C3EFC
:1001200000000080BEABAAAAAA3E00000000BF00EB
:100130000000803F0000000000084178D3BB4387E7
:10014000D1133D190E3CC3BD4282AD2B3E68EC82FB
:1001500076BED98FE1A93E4C80EFFFBE01C4FF7F80
:100160003F00000000000000090A02080B0C0D0708
:100170000603040100000000000000000000000071
:10018000000000000000000000000000000000006F
:10019000000011100F00000000000000000000002F
:1001A000000000000000000000000000010210201C
:1001B000200808102040102040800201020108049D
:1001C0000201010204081020408080402010080431
:1001D000020180040201804020100804020108048A
:1001E00002010102040810204080010204081020CE
:1001F00040800505050507050808080802020202F7
:100200000A0A0808040404040101010101010101B2
:100210000303030303030303040707070C0C0C0C7D
:100220000C0C0C0C02020202060606060606060666
:100230000B0B0B0B0B0B0B0B0000220025002800F7
:100240002B002E00310034000201000005010801DE
:100250000B0100002100240027002A002D0030009F
:10026000330001010000040107010A01AC0ED313A1
:10027000171811241FBECFEFD1E2DEBFCDBF00E0C3
:100280000CBF12E0A0E0B2E0E8E0FCE400E00BBF4D
:1002900002C007900D92AE34B107D9F717E0AEE473
:1002A000B2E001C01D92AB3DB107E1F712E0C2E739
:1002B000D2E000E006C022970109FE010BBF0E94B8
:1002C000B724CC36D10780E00807A9F70E94F114C3
:1002D0000C9402260C940000660F771F680F791F9C
:1002E000FB0120813181440F551F480F591FFA012E
:1002F00080819181FB0191838083FA013183208386
:1003000008952F923F924F925F926F927F928F92B9
:100310009F92AF92BF92CF92DF92EF92FF920F9394
:100320001F93CF93DF93CDB7DEB72C970FB6F8941A
:10033000DEBF0FBECDBF4C015B0169011C830B8387
:10034000F80180E090E005C0119211921192119293
:1003500001968C159D05C1F73A0121E0621A7108DA
:10036000260131E0431A5108440C551C4E0C5F1C09
:100370008A01000F111F080D191D1FC0D2018D9198
:100380009C91880F991F880F991FD801FE91EE91BB
:100390008D01E80FF91F80819181A281B381BC0199
:1003A000CD019F7725E93FEB46ED53E30E94A5225F
:1003B00018163CF0B1E06B1A710877FEDFCF612CA4
:1003C000712CF601EE0FFF1FEE0DFF1DFA83E9837E
:1003D000C301880F991F9401280F391F38872F8375
:1003E000D701A80FB91FBE83AD834301880C991CA8
:1003F000880C991C8A0C9B1C1C861B86F601319765
:10040000FA87E98709851A854F8058842B853C85B2
:10041000420E531EE12CF12CA12CB12CC12CD12C5D
:1004200031C0601671064CF5E981FA81EE0DFF1DB1
:10043000329780819181880F991F880F991F6B8156
:100440007C81680F791FD201ED91FC91E80FF91FB3
:100450002081318142815381FB01608171818281E0
:1004600093810E94B0229B01AC016A2D7B2D8C2DC3
:100470009D2D0E94CD205B016C0101501109F2E01D
:10048000EF1AF10817FFCDCFED81FE812B853C855A
:10049000E20FF31F00811181000F111F000F111FC8
:1004A000D201ED91FC91E00FF11F2080318042805C
:1004B000538025E93FEB46ED53E3C201B1010E94B1
:1004C000A522EB81FC810E0F1F1F1816DCF4EB85B3
:1004D000FC85EE0FFF1FE80DF91D2A2D3B2D4C2D3D
:1004E0005D2D60817181828193810E94CC20A20167
:1004F00091010E943521D8016D937D938D939C933A
:10050000139705C0F8011082118212821382F1E064
:100510006F1A71082B853C85225031093C872B8747
:100520003FEF6316730609F06DCF2C960FB6F89463
:10053000DEBF0FBECDBFDF91CF911F910F91FF9016
:10054000EF90DF90CF90BF90AF909F908F907F9073
:100550006F905F904F903F902F9008952F923F9211
:100560004F925F926F927F928F929F92AF92BF92C3
:10057000CF92DF92EF92FF920F931F93CF93DF936F
:100580006B0159014901000F111F000F111FE501F7
:10059000CC0FDD1FC80FD91F612C712C212C312CE1
:1005A000412C512C20C0FE01E60DF71D0190F08179
:1005B000E02DE00FF11F60817181828193819B01A9
:1005C000AC010E94B0229B01AC01622D732D842DE1
:1005D000952D0E94CD201B012C018FEF881A980ABF
:1005E000E2E06E0E711C8C149D04E8F220E030E015
:1005F000A901622D732D842D952D0E943121882310
:1006000009F482C0622D732D842D952D0E946323E1
:100610009B01AC01E881F981E00FF11F60817181DC
:10062000828193810E94CC20F70161937193819321
:10063000919381E090E0CA18DB0813C0DC01AA0F97
:10064000BB1FAC0FBD1F0D90BC91A02DA00FB11F03
:100650004D915D916D917C91419351936193719313
:1006600001968C159D0550F3E701812C912CA12C4E
:10067000B12C00E010E016C0F701619171918191F9
:1006800091917F019B01AC010E94B0229B01AC01C2
:10069000682D792D8A2D9B2D0E94CD204B015C0168
:1006A0000F5F1F4F0C151D0539F720E030E0A90141
:1006B000682D792D8A2D9B2D0E943121882321F1CF
:1006C000682D792D8A2D9B2D0E9463234B015C019F
:1006D00000E010E016C0A501940160E070E080E841
:1006E0009FE30E9435219B01AC01688179818A8159
:1006F0009B810E94B02269937993899399930F5FAC
:100700001F4F0C151D0539F7DF91CF911F910F91E8
:10071000FF90EF90DF90CF90BF90AF909F908F9021
:100720007F906F905F904F903F902F9008952F9201
:100730003F924F925F926F927F928F929F92AF9271
:10074000BF92CF92DF92EF92FF920F931F93CF93BE
:10075000DF93CDB7DEB76E970FB6F894DEBF0FBE4E
:10076000CDBF988F8F8B7A8F698F5A8749873A8B45
:10077000298BFC8AEB8A9A012E193F093A83298337
:10078000C901880F991F0E94BB248B8F9C8FE98021
:10079000FA80EE0CFF1CEE0CFF1C8B839C838B807D
:1007A0009C80A12CB12C0DC0C7010E94BB24D40198
:1007B0008C9311969C93B2E08B0E911CEFEFAE1AC6
:1007C000BE0A29813A81A216B30674F349845A8479
:1007D000440C551CC2010E94BB248D839E83A988B2
:1007E000BA88AA0CBB1CAA0CBB1C8D819E819E8B57
:1007F0008D8B7C01812C912C0DC0C5010E94BB24E6
:10080000D7018C9311969C93B2E0EB0EF11CEFEFA5
:100810008E1A9E0A29853A858216930671F7C901B8
:10082000880F991F880F991F0E94BB248B879C8774
:1008300020E030E01FC0D7016D907C90640E751EE3
:10084000FC01A081B181A40FB51F8D909D90AD904A
:10085000BC90D3018D929D92AD92BC9213976F5F25
:100860007F4F4C5F5F4FE989FA896E177F0719F751
:100870002E5F3F4F2415350539F4E98CFA8CAB8592
:10088000BC8580E090E018C040E050E060E070E09F
:10089000ED80FE80E20EF31E8F89988D820F931FEC
:1008A000E2CFF70141915191619171917F014D9397
:1008B0005D936D937D93019629853A858217930701
:1008C00081F78B819C81988B8F870D8F1E8F212CB8
:1008D000312CA12CB12C75C0EA14FB0401F1AD85BB
:1008E000BE858D909C90820C931C20E030E040E00F
:1008F00050ECED8DFE8D60817181828193810E942B
:10090000B022AF81B8852D913D914D915C910E94AF
:10091000B022F401608371838283938324C0AD8D00
:10092000BE8D4D905D906D907C90EF85F8898080B4
:100930009180820C931CA3019201C301B2010E9419
:10094000CD20A30192010E94B0229B01AC0160E086
:1009500070E080E89FE30E94CC20D4016D937D93EA
:100960008D939C931397BFEFEB1AFB0AED85FE85E1
:100970003296FE87ED872F8138852C5F3F4F388771
:100980002F8308C00F8318878B819C819E878D875A
:10099000E12CF12CA981BA81EA16FB060CF49CCF5C
:1009A000BFEFAB1ABB0AE4E02E0E311C2D8D3E8D3D
:1009B0002C5F3F4F3E8F2D8F8F8598890296988BA5
:1009C0008F87A981BA81AA16BB06E4F2CD86DE869E
:1009D0002B883C88220C331CED81FE81E20DF31D37
:1009E000F887EF832F89388D220E331E412C512C2E
:1009F00075C0D5016D917C916C0D7D1DD701AA0F3D
:100A0000BB1FEF81F885AE0FBF1FED85FE8580818E
:100A10009181880F991F880F991F0D90BC91A02D6F
:100A2000A80FB91F2D913D914D915C91DB016D9106
:100A30007D918D919C910E94B0229B01AC01662D0D
:100A4000772D882D992D0E94CD203B014C01BFEFC1
:100A5000EB1AFB0AE4E0CE0ED11C08C0C12CD12C4D
:100A6000612C712C812C912CE12CF12C29813A8163
:100A7000E216F3060CF4BDCFF801EE0FFF1FE20DF6
:100A8000F31DAD85BE858D919C91880F991F880FB0
:100A9000991F0190F081E02DE80FF91F862D972D09
:100AA000A82DB92D80839183A283B3830F5F1F4F3D
:100AB000B2E0AB0EB11C04C0AB80BC8000E010E023
:100AC000E981FA810E171F074CF2FFEF4F1A5F0AF8
:100AD0002D853E852E5F3F4F3E872D8789899A89D8
:100AE0004816590649F72B883C88220C331C220CE7
:100AF000331C4B845C84420C531CA98DBA8D2A0E86
:100B00003B1E18861F82C12CD12C3DC0D501ED9112
:100B1000FD915D012F813885E20FF31FD201AE0DEB
:100B2000BF1D2D913D914D915C91608171818281BC
:100B300093810E94B0229B01AC01662D772D882DF8
:100B4000992D0E94CD203B014C010F5F1F4F34E0D7
:100B5000E30EF11C89819A8108171907BCF2EF8115
:100B6000F885E20DF31D862D972DA82DB92D8083D4
:100B70009183A283B3839FEFC91AD90AAF81B88545
:100B80001496B887AF83E981FA81CE16DF06B4F4F4
:100B9000AB80BC80E12CF12C612C712C812C912C30
:100BA00000E010E0D7CFAB81BC818D919D91BC83DB
:100BB000AB830E9456250F5F1F4F02C000E010E07C
:100BC000E981FA810E171F0771F700E010E00AC0F3
:100BD000AD89BE898D919D91BE8BAD8B0E945625AE
:100BE0000F5F1F4FE985FA850E171F0789F78B8D59
:100BF0009C8D0E9456258D819E810E9456258B8555
:100C00009C856E960FB6F894DEBF0FBECDBFDF9108
:100C1000CF911F910F91FF90EF90DF90CF90BF90F9
:100C2000AF909F908F907F906F905F904F903F908C
:100C30002F900C9456252F923F924F925F926F9275
:100C40007F928F929F92AF92BF92CF92DF92EF925C
:100C5000FF920F931F93CF93DF9300D000D0CDB7B7
:100C6000DEB76C017C836B837A013901CA01880F7E
:100C7000991F880F991F0E94BB2489839A838D83B3
:100C80009E832801C301880F991FC80ED91E0D81AC
:100C90001E81212C312C43C0D8011D921D921D9222
:100CA0001C9213975301812C912C2CC0F601E80D56
:100CB000F91DD2018D919C91880F991F880F991F62
:100CC0000190F081E02DE80FF91F60817181828130
:100CD00093819B01AC010E94B0229B01AC01F80101
:100CE00060817181828193810E94CD20D8016D93B2
:100CF0007D938D939C931397BFEFAB1ABB0AE2E0F1
:100D00008E0E911C8B819C81A816B90678F29FEFFC
:100D1000291A390A0C5F1F4FA2E04A0E511C2E14EB
:100D20003F0409F0B9CF45E9B42E5FEBA52E66ED7F
:100D3000962E73E3872ECC24CA94DC2C00E010E0BE
:100D400023C0ED81FE8140805180628073803496A3
:100D5000FE83ED83B501C401272F3A2D492F582D6D
:100D6000642D752D862D972D0E94A52218162CF026
:100D70004B2C5A2C692C782C01C068010F5F1F4F37
:100D8000B42CA52C962C872C0E151F05D1F6898125
:100D90009A810E945625C60126960FB6F894DEBFAA
:100DA0000FBECDBFDF91CF911F910F91FF90EF90BC
:100DB000DF90CF90BF90AF909F908F907F906F907B
:100DC0005F904F903F902F9008952F923F924F92B7
:100DD0005F926F927F928F929F92AF92BF92CF92CB
:100DE000DF92EF92FF920F931F93CF93DF93CDB7D4
:100DF000DEB72A970FB6F894DEBF0FBECDBF4C0109
:100E00007C836B8358874F8319015801C801880F71
:100E1000991F0E94BB243C01C101880F991F880FB4
:100E2000991F0E94BB242C0169827A82E981FA8190
:100E300080E090E004C080839183329601968A1509
:100E40009B05C9F71A8619862EC0830129853A8524
:100E5000A501B101C4010E941B0697FD06C0AC01AB
:100E600069857A85C3010E946C01A981BA810D91BF
:100E70001D91BA83A98372012D813E81A501B10123
:100E8000C4010E94AE026301ED80FE8082019501E3
:100E9000A1016B817C81C4010E949703E985FA85D9
:100EA0003196FA87E987F985FD838A858E83A9853E
:100EB000BA85AA15BB0549F673010F8118859D01F6
:100EC000A1016B817C81C4010E948101C3010E9448
:100ED0005625C2012A960FB6F894DEBF0FBECDBFCD
:100EE000DF91CF911F910F91FF90EF90DF90CF9006
:100EF000BF90AF909F908F907F906F905F904F903A
:100F00003F902F900C94562561E08DE00E945F1079
:100F100040E052EC61E070E083E494E00E945313FF
:100F200082E896E00E94D81762E086ED93E00E9486
:100F3000EB1C86ED93E00E94F21B42E063E080EA46
:100F400093E00E94811F80EA93E00E94841D42E0AA
:100F500060E082E993E00E94AF2082E993E00E9482
:100F6000D31F81E090E090939103809390031092BF
:100F70004F0210924E0208952F923F924F925F922D
:100F80006F927F928F929F92AF92BF92CF92DF9299
:100F9000EF92FF920F931F93CF93DF93CDB7DEB7FE
:100FA000C853D2400FB6F894DEBF0FBECDBF83E466
:100FB00094E00E94CE10892B09F4ABC520E230E00A
:100FC000AE014F515E4F6AE083E494E00E940D173A
:100FD000892B09F49EC545E050E067E072E0CE0140
:100FE0008F519E4F0E94F425009721F461E08DE01F
:100FF0000E94971046E050E06DE072E0CE018F5104
:101000009E4F0E94F425009721F460E08DE00E943D
:10101000971043E050E064E172E0CE018F519E4FA3
:101020000E94F425009709F074C580919003909177
:101030009103019709F06DC580914E0290914F0286
:1010400040970CF066C50AE010E060E08DE00E9479
:10105000971064E670E080E090E00E946B0F61E022
:101060008DE00E94971064E670E080E090E00E94BE
:101070006B0F0150110949F78E010F5F1F4F580187
:101080007E012FE6E21A2EEFF20A80EA93E00E9438
:101090004B1F6091A0037091A1038091A2039091D6
:1010A000A3030E949D21D8016D937C936091A403BA
:1010B0007091A5038091A6039091A7030E949D21A2
:1010C000F801738362836091A8037091A9038091F2
:1010D000AA039091AB030E949D21D80115967C93A1
:1010E0006E9314976091AC037091AD038091AE0341
:1010F0009091AF030E949D21F801778366836091F0
:10110000B0037091B1038091B2039091B3030E9438
:101110009D21D80119967C936E9318976091B40322
:101120007091B5038091B6039091B7030E949D2101
:10113000F8017387628782E993E00E94FE1F609145
:1011400092037091930380919403909195030E9470
:101150009D21D8011D967C936E931C9760919603F8
:101160007091970380919803909199030E949D211B
:10117000F8017787668760919A0370919B0380914D
:101180009C0390919D030E949D21D80151967C93D0
:101190006E93509786ED93E00E94651C20E030E549
:1011A0004DE754E40E94B41C0E949D21F801738B0A
:1011B000628B64E670E080E090E00E946B0F0C5E52
:1011C0001F4F0E151F0509F060CF9E0127543E4F9B
:1011D000CB5DDD4F39832883C552D2406E013FE697
:1011E000C31A3EEFD30ACB5DDD4FE880F980C552CC
:1011F000D2406AE0262E312CD7011D921D921D92FD
:101200001C921397612C11967C90119712968C90DA
:10121000129713969C9000E010E0F501E00FF11F8B
:1012200060817181882777FD8095982F0E94D02159
:101230009B01AC01662D772D882D992D0E94CD2024
:101240003B014C010C5E1F4F0039B1E01B0729F731
:10125000862F972DA82DB92DF70180839183A28326
:10126000B38320E030E040EA51E4662D772D882DED
:10127000992D0E943521C35EDD4F6883CD51D24048
:10128000CF5DDD4F7883C152D2408C01472F862F2E
:10129000942FA02FB12FF70180839183A283B38372
:1012A000D6011D921D921D921C921397412C1196EE
:1012B0005C90119712966C90129713967C90812CEB
:1012C000912CF501E80DF91D60817181882777FD6A
:1012D0008095982F0E94D021C35EDD4FB881CD51FB
:1012E000D240CF5DDD4FA881C152D2402B2F3A2F83
:1012F000402F512F0E94CC20262F372F482F592FB7
:101300000E94B0229B01AC01642D752D862D972D76
:101310000E94CD202B013C01B4E18B0E911CE0E931
:101320008E16E1E09E0669F6862F952DA62DB72D27
:10133000F60180839183A283B38320E030E048E903
:1013400051E4642D752D862D972D0E943521D601EF
:101350006D937D938D939D936D01B1E02B1A3108B0
:10136000E4E0EE0EF11CF2E0AF0EB11C21143104EA
:1013700009F042CFCF56DE4F688179818A819B8107
:10138000C159D140CB56DE4F88809980AA80BB805E
:10139000C559D140C756DE4FC880D980EA80FB804E
:1013A000C959D1409B01AC010E94B0222B013C01E4
:1013B000A5019401C501B4010E94B0229B01AC01BA
:1013C000C301B2010E94CD204B015C01A70196012F
:1013D000C701B6010E94B0229B01AC01C501B40156
:1013E0000E94CD20162F072F382E292EC754DE4FEE
:1013F000288139814A815B81C95BD140C35EDD4F61
:10140000288339834A835B83CD51D240C354DE4F56
:1014100088819981AA81BB81CD5BD140CF5DDD4FB1
:1014200088839983AA83BB83C152D240CF53DE4FB6
:10143000488059806A807B80C15CD140C356DE4FB2
:10144000688179818A819B81CD59D140CF55DE4F0A
:1014500088809980AA80BB80C15AD140CB55DE4F8D
:10146000C880D980EA80FB80C55AD140CB53DE4F7B
:10147000288139814A815B81C55CD140C95DDD4FDE
:10148000288339834A835B83C752D240C753DE4FD8
:10149000288139814A815B81C95CD140C55DDD4FBE
:1014A000288339834A835B83CB52D240C353DE4FB8
:1014B000288139814A815B81CD5CD140C15DDD4F9E
:1014C000288339834A835B83CF52D2409B01AC018E
:1014D0000E94B022CD5CDD4F688379838A839B8331
:1014E000C353D240A5019401C501B4010E94B022AA
:1014F0009B01AC01CD5CDD4F688179818A819B8144
:10150000C353D2400E94CD204B015C01A70196013C
:10151000C701B6010E94B0229B01AC01C501B40114
:101520000E94CD206B017C01C95DDD4F288139818E
:101530004A815B81C752D240CA01B9010E94B022E0
:101540004B015C01C55DDD4F288139814A815B819A
:10155000CB52D240CA01B9010E94B0229B01AC011A
:10156000C501B4010E94CD204B015C01C15DDD4F7E
:10157000288139814A815B81CF52D240CA01B901A9
:101580000E94B0229B01AC01C501B4010E94CD2094
:101590002DEC3CEC4CE45DE30E94B0222DEC3CECE5
:1015A0004CE45DE30E94B0229B01AC01C701B6018F
:1015B0000E94A52218160CF44EC0C35EDD4F288190
:1015C00039814A815B81CD51D240CA01B9010E9463
:1015D000B0226B017C01CF5DDD4F288139814A81CA
:1015E0005B81C152D240CA01B9010E94B0229B0165
:1015F000AC01C701B6010E94CD206B017C01A301A3
:101600009201C301B2010E94B0229B01AC01C7014B
:10161000B6010E94CD202DEC3CEC4CE45DE30E9431
:10162000B0222DEC3CEC4CE45DE30E94B0229B0127
:10163000AC01FF24F394D801F1016B2F7A2F8F2F87
:101640009E2F0E94A52218160CF0F12C81E08F2508
:10165000E82EF12C02C0E12CF12C20E030E040E833
:1016600050E4CB54DE4F688179818A819B81C55BD0
:10167000D1400E94A522181614F4E12CF12C68E147
:1016800072E083E494E00E94361522E030E0C35E0D
:10169000DD4F488159816A817B81CD51D24083E4FD
:1016A00094E00E94C7166BE172E083E494E00E942C
:1016B000361522E030E0CF5DDD4F488159816A81E7
:1016C0007B81C152D24083E494E00E94C7166BE153
:1016D00072E083E494E00E94361522E030E0B3012A
:1016E000A20183E494E00E94C7166BE172E083E4F8
:1016F00094E00E943615A8019101652F702F832F69
:10170000922D0E946323AB01BC0122E030E083E410
:1017100094E00E94C916EF2809F4F7C1C0904E0268
:10172000D0904F0284E18C9D70018D9DF00C1124AE
:1017300040E552E0E40EF51E00E010E0CB5DDD4F29
:10174000A881B981C552D2406D917D918D919D91B5
:10175000CB5DDD4FB983A883C552D2405701A00E9F
:10176000B11E0E949D21F501718360830E5F1F4FA2
:101770000431110519F7FFEFCF1ADF0AD0924F029B
:10178000C0924E0204E110E060E08DE00E949710EC
:1017900064E170E080E090E00E946B0F61E08DE01A
:1017A0000E94971064E170E080E090E00E946B0F6F
:1017B0000150110949F720904E0230904F0227E066
:1017C000221631040CF4A1C1C101880F991F0E9497
:1017D000BB242C01C101880F991F880F991F0E94FB
:1017E000BB243C01C35EDD4F4882CD51D240C25E76
:1017F000DD4F5882CE51D24040E552E0CF5DDD4F03
:1018000059834883C152D240CB5DDD4F8883C55296
:10181000D240CA5DDD4F7882C652D240C35EDD4FF2
:1018200088819981CD51D240C55DDD4F99838883F0
:10183000CB52D240A12CB12CC12CD12C50E8E52E9A
:101840005FE3F52E8CE190E00E94BB248C01C55D26
:10185000DD4FA881B981CB52D2408D939D93C55D58
:10186000DD4FB983A883CB52D240CF5DDD4FE881F5
:10187000F981C152D24020813181229FB001239F42
:10188000700D700D1124882777FD8095982FC95C05
:10189000DD4F2883C753D240C85CDD4F3883C8531F
:1018A000D2400E94D021D8016D937D938D939C935B
:1018B0001397CF5DDD4FE881F981C152D24082801C
:1018C0009380889CB001899C700D700D112488272D
:1018D00077FD8095982F0E94D021D80114966D93A2
:1018E0007D938D939C931797CF5DDD4FE881F981B0
:1018F000C152D2400480F581E02DC95DDD4FF983EE
:10190000E883C752D240EE9FB001EF9F700D700D7B
:101910001124882777FD8095982F0E94D021D80127
:1019200018966D937D938D939C931B97C95CDD4FA7
:101930002881C753D240C85CDD4F3881C853D2409C
:10194000B901882777FD8095982F0E94D02120E04B
:1019500030E040E050EC0E94B022F80164877587C7
:1019600086879787B401882777FD8095982F0E94F6
:10197000D02120E030E040E050EC0E94B022D801BD
:1019800050966D937D938D939C935397C95DDD4FD6
:10199000E881F981C752D240BF01882777FD809541
:1019A000982F0E94D02120E030E040E050EC0E94CF
:1019B000B022D80154966D937D938D939C93579745
:1019C000F801C08ED18EE28EF38ECB5DDD4FA88103
:1019D000B981C552D240CD92DD92ED92FD92CB5DA0
:1019E000DD4FB983A883C552D240BFEFAB1ABB0A03
:1019F000CF5DDD4FE881F981C152D2407496CF5D51
:101A0000DD4FF983E883C152D240A214B30409F038
:101A100019CF07E010E09501AE014F5F5D4FB301B4
:101A2000C2010E94E50600E010E012C0C35EDD4F77
:101A3000A881B981CD51D2408D919D91C35EDD4F7A
:101A4000B983A883CD51D2400E9456250F5F1F4F06
:101A500080914E0290914F02081719073CF3C20182
:101A60000E945625C3010E9456256DE172E083E471
:101A700094E00E943615CF5FDD4F488159816A811D
:101A80007B81C150D24022E030E083E494E00E94A8
:101A9000C7166BE172E083E494E00E943615CB5FD9
:101AA000DD4F488159816A817B81C550D24022E057
:101AB00030E083E494E00E94C7166BE172E083E4B7
:101AC00094E00E943615C75FDD4F488159816A81D5
:101AD0007B81C950D24022E030E083E494E00E9450
:101AE000C7166BE172E083E494E00E943615C35F91
:101AF000DD4F488159816A817B81CD50D24022E0FF
:101B000030E083E494E00E94C91660E08DE00E941A
:101B1000971086E30E94BC0E87E30E94BC0E80EA09
:101B200093E00E944B1F65E272E083E494E00E9420
:101B300036156091AC037091AD038091AE03909126
:101B4000AF030E949D214AE050E083E494E00E94AC
:101B5000FC156BE172E083E494E00E94361560911D
:101B6000B0037091B1038091B2039091B3030E94CE
:101B70009D214AE050E083E494E00E94FC156BE173
:101B800072E083E494E00E9436156091B403709192
:101B9000B5038091B6039091B7030E949D214AE05E
:101BA00050E083E494E00E94FC156BE172E083E472
:101BB00094E00E9436156091A0037091A10380917A
:101BC000A2039091A3030E949D214AE050E083E488
:101BD00094E00E94FC156BE172E083E494E00E94C3
:101BE00036156091A4037091A5038091A60390918E
:101BF000A7030E949D214AE050E083E494E00E9404
:101C0000FC156BE172E083E494E00E94361560916C
:101C1000A8037091A9038091AA039091AB030E943D
:101C20009D214AE050E083E494E00E94FC156BE1C2
:101C300072E083E494E00E94361586ED93E00E9402
:101C4000651C20E030E54DE754E40E94B41C4B01D4
:101C50005C0186ED93E00E949E1C6B017C0120E0FC
:101C600030E0A901C501B4010E94CD20AB01BC0147
:101C700022E030E083E494E00E94C7166BE172E05A
:101C800083E494E00E94361522E030E0B701A6011B
:101C900083E494E00E94C7166BE172E083E494E071
:101CA0000E94361582E993E00E94FE1F6091920324
:101CB0007091930380919403909195030E949D21CC
:101CC0004AE050E083E494E00E94FC156BE172E08E
:101CD00083E494E00E943615609196037091970317
:101CE00080919803909199030E949D214AE050E0D1
:101CF00083E494E00E94FC156BE172E083E494E0DD
:101D00000E94361560919A0370919B0380919C0309
:101D100090919D030E949D214AE050E083E494E06D
:101D20000E940416C85CDD4F0FB6F894DEBF0FBEEC
:101D3000CDBFDF91CF911F910F91FF90EF90DF907A
:101D4000CF90BF90AF909F908F907F906F905F905B
:101D50004F903F902F9008958AED93E00E94AA1B28
:101D600087ED93E00E94AA1B86ED93E00E94CD1BB5
:101D700080EA93E00C94F91C863308F08653209196
:101D80007B00982F9870277F922B90937B00877011
:101D90002091060240E4249F90011124822B80931D
:101DA0007C0080917A00806480937A0080917A0030
:101DB00086FDFCCF2091780030917900932F80E050
:101DC000AC01422B9A01C90108951F920F920FB6E0
:101DD0000F9211242F933F938F939F93AF93BF93B1
:101DE0008091DD039091DE03A091DF03B091E003C9
:101DF0003091E503232F2D5F2D3720F40196A11D8F
:101E0000B11D05C0232F2A570296A11DB11D209395
:101E1000E5038093DD039093DE03A093DF03B0938B
:101E2000E0038091E1039091E203A091E303B0917C
:101E3000E4030196A11DB11D8093E1039093E20399
:101E4000A093E303B093E403BF91AF919F918F916F
:101E50003F912F910F900FBE0F901F9018950F93E9
:101E60001F938FB7F8940091DD031091DE0320914A
:101E7000DF033091E0038FBFB801C9011F910F91BB
:101E800008950F931F939FB7F8940091E103109169
:101E9000E2032091E3033091E40386B5A89B06C0DA
:101EA0008F3F21F00F5F1F4F2F4F3F4F9FBF322FAC
:101EB000212F102F0027080F111D211D311D42E079
:101EC000000F111F221F331F4A95D1F7B801C90116
:101ED0001F910F910895CF92DF92EF92FF92CF93CF
:101EE000DF936B017C010E94410FEB010EC00E9449
:101EF000410F6C1B7D0B683E734038F081E0C81ABF
:101F0000D108E108F108C851DC4FC114D104E10443
:101F1000F10469F7DF91CF91FF90EF90DF90CF90C0
:101F20000895789484B5826084BD84B5816084BD51
:101F300085B5826085BD85B5816085BDEEE6F0E042
:101F4000808181608083E1E8F0E01082808182609E
:101F50008083808181608083E0E8F0E0808181601F
:101F60008083E1EBF0E0808184608083E0EBF0E04F
:101F7000808181608083E1E9F0E0808182608083FC
:101F8000808181608083E0E9F0E0808181608083EE
:101F9000E1EAF0E0808182608083808181608083DB
:101FA000E0EAF0E0808181608083E1E2F1E080811D
:101FB00082608083808181608083E0E2F1E08081C3
:101FC00081608083EAE7F0E08081846080838081A3
:101FD000826080838081816080838081806880834B
:101FE0001092C1000895893009F443C088F4843008
:101FF00029F138F4823059F1E8F4813009F05EC0FB
:1020000023C0873061F188F5863009F057C023C0BE
:102010008D3009F440C020F48B30A9F1C0F52DC0FB
:10202000803109F442C0813109F443C08F3009F096
:1020300045C037C0809180008F7703C080918000B9
:102040008F7D80938000089584B58F7702C084B51A
:102050008F7D84BD08958091B0008F7703C08091FB
:10206000B0008F7D8093B0000895809190008F77AD
:1020700007C0809190008F7D03C080919000877F82
:102080008093900008958091A0008F7707C0809181
:10209000A0008F7D03C08091A000877F8093A00067
:1020A0000895809120018F7707C0809120018F7D56
:1020B00003C080912001877F809320010895CF93F2
:1020C000DF9390E0FC01E455FE4F4491FC01EE509B
:1020D000FE4F8491882341F190E0880F991FFC0105
:1020E000EE5AFD4F25913491D901885C9D4FFC013A
:1020F00085919491C82FD92F9FB7F8948C91611135
:1021000006C0409584238C938881842308C0623064
:1021100041F4242F209582238C938881842B8883FB
:1021200002C0842B8C939FBFDF91CF9108950F93B2
:102130001F93CF93DF931F92CDB7DEB7282F30E0E8
:10214000F901EA59FE4F8491F901E455FE4F1491CB
:10215000F901EE50FE4F04910023D1F0882321F0C5
:1021600069830E94F30F6981E02FF0E0EE0FFF1FFB
:10217000E85CFD4F85919491DC019FB7F8948C91B8
:10218000611103C01095812301C0812B8C939FBFE7
:102190000F90DF91CF911F910F910895FC018485DD
:1021A0009585FC01E05CFF4F20813181FC01EE5BF5
:1021B000FF4F80819181281B390B2F733327C90171
:1021C0000895FC0184859585FC01E05CFF4F40810A
:1021D0005181FC01EE5BFF4F208131814217530793
:1021E00041F00190F081E02DE80FF91F208130E0EF
:1021F00002C02FEF3FEFC9010895FC01848595854A
:10220000FC01E05CFF4F40815181FC01EE5BFF4F20
:10221000208131814217530781F0A081B181A80F3D
:10222000B91F8C91208131812F5F3F4F2F7333274E
:1022300031832083282F30E002C02FEF3FEFC90108
:102240000895FC0186859785FC01E05CFF4FDC0169
:10225000AE5BBF4F408151812D913C911197421748
:102260005307C1F70895CF93DF93FC0186859785C7
:10227000DC01A05CBF4F2D913C9111972F5F3F4F28
:102280002F733327EC01CE5BDF4F48815981241730
:102290003507D9F30D90BC91A02DA80FB91F6C93F1
:1022A000A685B785A05CBF4F11963C932E93A68957
:1022B000B7892C9181E090E0058C02C0880F991FAE
:1022C0000A94E2F7282B2C9381E090E0DF91CF91E4
:1022D0000895FB01E05CFF4F208131812F5F3F4F6C
:1022E0002F733327DB01AE5BBF4F4D915C912417F9
:1022F000350739F0A081B181A60FB71F8C933183C8
:102300002083089508951F920F920FB60F92112403
:102310000BB60F922F933F934F935F936F937F93DF
:102320008F939F93AF93BF93EF93FF938091C600DA
:102330006EE376E00E946911FF91EF91BF91AF913A
:102340009F918F917F916F915F914F913F912F91CD
:102350000F900BBE0F900FBE0F901F901895089511
:102360001F920F920FB60F9211240BB60F922F935C
:102370003F934F935F936F937F938F939F93AF930D
:10238000BF93EF93FF938091CE0066EB75E00E94C0
:102390006911FF91EF91BF91AF919F918F917F91C3
:1023A0006F915F914F913F912F910F900BBE0F90C6
:1023B0000FBE0F901F90189508951F920F920FB6A1
:1023C0000F9211240BB60F922F933F934F935F936D
:1023D0006F937F938F939F93AF93BF93EF93FF93ED
:1023E0008091D6006EE275E00E946911FF91EF9135
:1023F000BF91AF919F918F917F916F915F914F911D
:102400003F912F910F900BBE0F900FBE0F901F901A
:10241000189508951F920F920FB60F9211240BB6C4
:102420000F922F933F934F935F936F937F938F936D
:102430009F93AF93BF93EF93FF938091360166EA2A
:1024400074E00E946911FF91EF91BF91AF919F914C
:102450008F917F916F915F914F913F912F910F904D
:102460000BBE0F900FBE0F901F90189583E494E061
:102470000E94CE10892B11F00E94821184E294E018
:102480000E94CE10892B11F00E94AF1185E094E0DC
:102490000E94CE10892B11F00E94DC1186EE93E091
:1024A0000E94CE10892B11F00C94091208951F92EE
:1024B0000F920FB60F9211240BB60F922F933F93EA
:1024C0008F939F93EF93FF9320913A0630913B06B1
:1024D00080913C0690913D062817390731F4809190
:1024E000C1008F7D8093C10014C0E0913C06F09143
:1024F0003D06E650FA4F208180913C0690913D06C2
:1025000001968F73992790933D0680933C06209304
:10251000C600FF91EF919F918F913F912F910F9066
:102520000BBE0F900FBE0F901F9018951F920F9229
:102530000FB60F9211240BB60F922F933F938F93E8
:102540009F93EF93FF932091B2053091B305809153
:10255000B4059091B5052817390731F48091C90069
:102560008F7D8093C90014C0E091B405F091B5054A
:10257000EE58FA4F20818091B4059091B5050196EF
:102580008F7399279093B5058093B4052093CE005F
:10259000FF91EF919F918F913F912F910F900BBEE3
:1025A0000F900FBE0F901F9018951F920F920FB6AD
:1025B0000F9211240BB60F922F933F938F939F93FB
:1025C000EF93FF9320912A0530912B0580912C05E4
:1025D00090912D052817390731F48091D1008F7D16
:1025E0008093D10014C0E0912C05F0912D05E651A7
:1025F000FB4F208180912C0590912D0501968F73C2
:10260000992790932D0580932C052093D600FF9158
:10261000EF919F918F913F912F910F900BBE0F9053
:102620000FBE0F901F9018951F920F920FB60F922A
:1026300011240BB60F922F933F938F939F93EF9399
:10264000FF932091A2043091A3048091A40490915F
:10265000A5042817390731F4809131018F7D8093CB
:10266000310114C0E091A404F091A504EE59FB4F90
:1026700020818091A4049091A50401968F739927DD
:102680009093A5048093A40420933601FF91EF91C9
:102690009F918F913F912F910F900BBE0F900FBE86
:1026A0000F901F901895CF92DF92EF92FF92CF93E9
:1026B000DF93EC016A017B01411581EE580761054A
:1026C0007105F9F0EC89FD8981E090E00E8C02C083
:1026D000880F991F0A94E2F7808360E079E08DE328
:1026E00090E0A70196010E949524215031094109EB
:1026F00051095695479537952795211580E138075B
:1027000098F0EC89FD89108260E874E88EE190E031
:10271000A70196010E9495242150310941095109D0
:102720005695479537952795E889F9893083EA8941
:10273000FB892083EE89FF89408181E090E09C0144
:102740000A8C02C0220F331F0A94E2F7422B408307
:10275000EE89FF8940819C010B8C02C0220F331F40
:102760000A94E2F7422B4083EE89FF8940819C0165
:102770000C8C02C0220F331F0A94E2F7422B4083D5
:10278000EE89FF8920810D8C02C0880F991F0A9461
:10279000E2F7809582238083DF91CF91FF90EF90C5
:1027A000DF90CF900895CF93109246041092450485
:1027B00088EE93E0A0E0B0E0809347049093480453
:1027C000A0934904B0934A0420E332E030934404D8
:1027D000209343044EE356E05093500440934F043B
:1027E0004AEF55E0509352044093510445EC50E0B9
:1027F000509354044093530444EC50E050935604D7
:102800004093550440EC50E05093580440935704D3
:1028100041EC50E050935A044093590446EC50E088
:1028200050935C0440935B04C4E0C0935D04F3E008
:10283000F0935E04E7E0E0935F0475E0709360045A
:1028400061E0609361041092270410922604809343
:10285000280490932904A0932A04B0932B04309366
:1028600025042093240446EB55E050933104409313
:10287000300442E755E050933304409332044DEC6A
:1028800050E050933504409334044CEC50E05093A6
:1028900037044093360448EC50E050933904409399
:1028A000380449EC50E050933B0440933A044EEC1A
:1028B00050E050933D0440933C04C0933E04F09399
:1028C0003F04E093400470934104609342041092EB
:1028D0000804109207048093090490930A04A093BB
:1028E0000B04B0930C0430930604209305044EE2CD
:1028F00055E050931204409311044AEE54E0509373
:1029000014044093130445ED50E050931604409393
:10291000150444ED50E0509318044093170440ED23
:1029200050E050931A044093190441ED50E0509345
:102930001C0440931B0446ED50E050931E0440934A
:102940001D04C0931F04F0932004E09321047093AE
:102950002204609323041092E9031092E803809309
:10296000EA039093EB03A093EC03B093ED03309351
:10297000E7032093E60386EA94E09093F3038093C1
:10298000F20382E694E09093F5038093F40385E3E9
:1029900091E09093F7038093F60384E391E09093A2
:1029A000F9038093F80380E391E09093FB03809315
:1029B000FA0381E391E09093FD038093FC0386E3A7
:1029C00091E09093FF038093FE03C0930004F09383
:1029D0000104E09302047093030460930404CF9114
:1029E00008950E94910F0E948407C6E3D2E10E94DD
:1029F000BC072097E1F30E943612F9CFCF92DF9205
:102A0000EF92FF920F931F93CF93DF936C01EB0133
:102A10007A01E60EF71E00E010E00BC06991D601C6
:102A2000ED91FC910190F081E02DC6011995080F00
:102A3000191FCE15DF0591F7C801DF91CF911F91C6
:102A40000F91FF90EF90DF90CF900895DB010D90F4
:102A50000020E9F7AD0141505109461B570BDC013D
:102A6000ED91FC910280F381E02D19940C942615D0
:102A7000DC01ED91FC910190F081E02D19940F9310
:102A80001F93CF93DF93EC016DE00E9438158C010A
:102A90006AE0CE010E9438159C01200F311FC90148
:102AA000DF91CF911F910F9108954F925F926F9296
:102AB0007F929F92AF92BF92CF92DF92EF92FF925E
:102AC0000F931F93CF93DF93CDB7DEB7A1970FB6C8
:102AD000F894DEBF0FBECDBF5C016A017B01922E70
:102AE00019A281E0821710F08AE0982E8E010F5D06
:102AF0001F4F492C512C612C712CC701B601A30129
:102B000092010E9495248C2D929E801911240150CF
:102B100011098A3010F4805D01C0895CF80180835E
:102B200069017A01C114D104E104F10431F7B8015B
:102B3000C5010E942615A1960FB6F894DEBF0FBE00
:102B4000CDBFDF91CF911F910F91FF90EF90DF905C
:102B5000CF90BF90AF909F907F906F905F904F907D
:102B60000895CF92DF92EF92FF920F931F93CF932E
:102B7000DF93EC016A017B012115310579F4E881CD
:102B8000F9810190F081E02D642FDF91CF911F91A9
:102B90000F91FF90EF90DF90CF9019942A3031057C
:102BA00019F477FD0EC02AE0B701A601CE01DF912E
:102BB000CF911F910F91FF90EF90DF90CF900C94E9
:102BC00055156DE20E9438158C0144275527BA012E
:102BD0004C195D096E097F092AE0CE010E94551546
:102BE000080F191FC801DF91CF911F910F91FF901E
:102BF000EF90DF90CF9008959A01AB01662757FDC3
:102C00006095762F0C94B1150F931F93CF93DF939C
:102C1000EC019A01AB01662757FD6095762F0E9463
:102C2000B1158C01CE010E943F159801280F391F64
:102C3000C901DF91CF911F910F9108957F928F92DB
:102C40009F92AF92BF92CF92DF92EF92FF920F933B
:102C50001F93CF93DF938C014A015B01F22E20E09A
:102C600030E0A901C501B4010E94312187FF0AC0EB
:102C70006DE2C8010E943815EC01B7FAB094B7F8BC
:102C8000B09402C0C0E0D0E0E12C60E070E080E0F1
:102C90009FE307C020E030E040E251E40E9435218C
:102CA000E394EF10F7CF262F372F482F592FC50168
:102CB000B4010E94CD20762E872E982EA92E0E9438
:102CC000A221B62EC72ED82EE92E0E94CE219B011E
:102CD000AC01672D782D892D9A2D0E94CC20A62E2F
:102CE000972E882E792E2AE04B2D5C2D6D2D7E2D72
:102CF000C8010E945515C80FD91FFF20B9F16CE318
:102D000072E0C8010E942615C80FD91F2FC020E00D
:102D100030E040E251E46A2D792D882D972D0E94F4
:102D2000B022762EC72ED82EE92E0E949D214B016F
:102D3000AA2497FCA094BA2C2AE030E0B501A401A3
:102D4000C8010E94B115C80FD91FC501B4010E9466
:102D5000D0219B01AC01672D7C2D8D2D9E2D0E94D5
:102D6000CC20A62E972E882E792EFA94F110CFCF54
:102D7000CE01DF91CF911F910F91FF90EF90DF90E7
:102D8000CF90BF90AF909F908F907F9008950C94BC
:102D90001E160F931F93CF93DF93EC010E941E1614
:102DA0008C01CE010E943F159801280F391FC901DF
:102DB000DF91CF911F910F9108950F931F93CF93A0
:102DC000DF93EC010E942F0F688779878A879B87A2
:102DD000E881F9810680F781E02DCE0119959C01EB
:102DE00097FF15C00E942F0F088519852A853B85FE
:102DF000601B710B820B930B0C811D812E813F8117
:102E0000601771078207930718F32FEF3FEFC9018F
:102E1000DF91CF911F910F910895AF92BF92CF9202
:102E2000DF92EF92FF920F931F93CF93DF936C018A
:102E30008A017901C0E0D0E02115310589F0A62E84
:102E4000B12CC6010E94DD1697FD0AC08A159B05AC
:102E500039F0F80181938F012196CE15DF0589F7AE
:102E6000CE01DF91CF911F910F91FF90EF90DF90F6
:102E7000CF90BF90AF9008952091B20630E080913E
:102E8000B306281B3109C90108958091B3069091BA
:102E9000B206891750F4E82FF0E0EC54F94F208186
:102EA00030E08F5F8093B30602C02FEF3FEFC90180
:102EB0000895E091B3068091B206E81730F4F0E08F
:102EC000EC54F94F208130E002C02FEF3FEFC901F1
:102ED00008950895CF92DF92EF92FF920F931F9380
:102EE000CF93DF937C01CB018A0120918E062223B0
:102EF00091F0EB016B01C40ED51E09C06991D70199
:102F0000ED91FC910190F081E02DC7011995CC1550
:102F1000DD05A1F703C0642F0E94D118C801DF911D
:102F2000CF911F910F91FF90EF90DF90CF90089578
:102F3000CF93DF931F92CDB7DEB7698320918E06C2
:102F40002223D1F020918F06203240F021E030E0A2
:102F5000FC013383228320E030E015C0809190068D
:102F6000E82FF0E0EF56F94F998190838F5F8093BF
:102F7000900680938F0605C061E0CE0101960E9405
:102F8000D11821E030E0C9010F90DF91CF91089571
:102F9000FC011382128248EE53E060E070E044834B
:102FA00055836683778382E492E0918380830895DA
:102FB0001092B3061092B2061092900610928F06ED
:102FC0000C941B18862F413208F040E264EB76E047
:102FD0000E9439181092B3068093B206089521E03A
:102FE0000C94E21721E00C94E21781E080938E06A6
:102FF0006093B1061092900610928F0608950C947B
:10300000F5170F93062F21E040918F0661E976E0D6
:103010008091B1060E947E181092900610928F0641
:1030200010928E060F91089561E00C94011882E8C9
:1030300096E00C94C8171092DD0681E08093DB06C1
:103040001092DA0661E084E10E94971061E085E168
:103050000E949710E9EBF0E080818E7F8083808171
:103060008D7F808388E48093B80085E48093BC00E2
:103070000895413208F03FC09091DD069111FCCFD8
:1030800091E09093DD062093DB062FEF2093D4068A
:103090001092D906242F21502093D8069093DC0655
:1030A0009091DC06880F892B8093DC068091DA06EC
:1030B000813041F41092DA068091DC068093BB00E7
:1030C00085EC01C085EE8093BC008091DD068130E7
:1030D000E1F38091D906841710F44091D9062EEDC2
:1030E00036E0FB01D90102C08D9181938A2F821BAA
:1030F0008417D0F301C040E0842F08950F9341322C
:1031000008F046C09091DD069111FCCF92E09093BB
:10311000DD060093DB069FEF9093D4061092D9064C
:103120004093D806FB016EED76E0DB0102C0919181
:103130009D939A2F961B9417D0F31092DC069091D2
:10314000DC06880F892B8093DC068091DA068130BB
:1031500041F41092DA068091DC068093BB0085EC86
:1031600001C085EE8093BC00222321F08091DD0612
:103170008230E1F38091D4068F3F61F08091D406D4
:10318000803251F08091D406803341F483E007C04F
:1031900081E005C080E003C082E001C084E00F91BF
:1031A0000895613298F42091DD06243089F460930B
:1031B000D606FC018EEF96E0DC0102C021912D9332
:1031C0002A2F281B2617D0F380E0089581E0089568
:1031D00082E0089585ED8093BC008091BC0084FD61
:1031E000FCCF1092DD06089585EC8093BC00109210
:1031F000DD0608951F920F920FB60F9211240BB6A1
:103200000F922F933F934F935F936F937F938F937F
:103210009F93AF93BF93EF93FF938091B900887F03
:10322000803609F49FC058F5883209F45BC090F4E9
:10323000803109F452C038F4882309F4F8C088308A
:1032400009F0F9C04AC0883109F44CC0803209F055
:10325000F2C05CC0803409F46BC038F4803309F4E8
:1032600055C0883309F0E7C054C0803509F454C014
:10327000883509F462C0883409F0DDC0DAC08839C5
:1032800009F4CBC0A8F4883709F46CC038F4883648
:1032900009F468C0803709F0CEC064C0883809F4EA
:1032A000BCC0803909F464C0803809F0C4C060C073
:1032B000803B09F48AC038F4803A09F46BC0883A3C
:1032C00009F0B9C082C0803C09F4ABC0883C09F465
:1032D000A8C0883B09F0AFC08DC08091DC06809308
:1032E000BB0012C09091D9068091D806981788F536
:1032F0008091D906E82FF0E0E252F94F9081909347
:10330000BB008F5F8093D90685EC88C08093D4067C
:1033100090C08093D40656C08091D9069091BB008E
:10332000E82FF0E0E252F94F90838F5F8093D90647
:103330009091D9068091D8066DC08091D906909160
:10334000BB00E82FF0E0E252F94F90838F5F80934B
:10335000D9068091DB0681116CC081E08093DA068A
:1033600084EA60C083E08093DD061092D506CCCF5E
:103370008091D506803208F050C08091D50690919A
:10338000BB00E82FF0E0EE5DF84F90838F5F8093F5
:10339000D506BACF8091D506803230F4E091D506BB
:1033A000F0E0EE5DF84F10820E94EA186091D506B9
:1033B000E0911E07F0911F0770E082E297E01995F7
:1033C0001092D5060E94F41836C084E08093DD0682
:1033D0001092D7061092D606E0912007F0912107AF
:1033E00019958091D606811105C081E08093D6069B
:1033F0001092FE068091D706E82FF0E0E250F94FD8
:1034000090819093BB008F5F8093D7069091D706F1
:103410008091D606981708F477CF85E88093BC0092
:103420000AC085EC8093BC001092DD0604C01092A7
:10343000D4060E94EA18FF91EF91BF91AF919F913E
:103440008F917F916F915F914F913F912F910F904D
:103450000BBE0F900FBE0F901F901895EF92FF922A
:103460000F931F93CF93DF938B017A01C82FD0E086
:10347000DE01AD5BB84F8C9187FF05C0DB01119673
:103480001C921E9222C02CE02C9FC0012D9F900DFB
:1034900011242C91AC01420F511D27FD5A9520910A
:1034A000420730E04217530784F42C91FC01E20FED
:1034B000F11D27FDFA959F01EE0FFF1FE20FF31F8D
:1034C000E95BF84F208126FD45C0FE01ED5BF84F1A
:1034D00080818F5F80832CE02C9FC0012D9F900DF9
:1034E00011242081AC01420F511D27FD5A952091D6
:1034F000420730E0421753070CF03EC020812C30C9
:103500000CF442C039C02081820F911D27FD9A958D
:10351000FC01EE0FFF1FE80FF91FE95BF84F8081F8
:1035200061E08F73DF91CF911F910F91FF90EF902A
:103530000C94971080E49CE904C0F801808191818B
:103540000496D70111969C938E93CD5BD84F8FEF45
:10355000888345C02C91820F911D27FD9A95FC010F
:10356000EE0FFF1FE80FF91FE95BF84F808160E065
:103570008F730E949710A9CFF801808191810496E2
:1035800080349C49B8F2D9CFD8012D913C9140812B
:10359000BC01640F711D47FD7A95AB01DB01AA0FD9
:1035A000BB1FA40FB51FA95BB84F11964D915C913D
:1035B0001297240F351FD70111963C932E9320812B
:1035C000AC01420F511D27FD5A95DA01AA0FBB1F0E
:1035D000A40FB51FA95BB84F2C9126FD94CFDF91A6
:1035E000CF911F910F91FF90EF9008951F920F922E
:1035F0000FB60F9211240BB60F922F933F934F9358
:103600005F936F937F938F939F93AF93BF93EF934A
:10361000FF9348E850E064E870E081E00E942E1AD1
:10362000FF91EF91BF91AF919F918F917F916F919A
:103630005F914F913F912F910F900BBE0F900FBE56
:103640000F901F9018951F920F920FB60F92112492
:103650000BB60F922F933F934F935F936F937F938C
:103660008F939F93AF93BF93EF93FF9348E950E0FD
:1036700064E970E082E00E942E1AFF91EF91BF9101
:10368000AF919F918F917F916F915F914F913F91FA
:103690002F910F900BBE0F900FBE0F901F9018959B
:1036A0001F920F920FB60F9211240BB60F922F9309
:1036B0003F934F935F936F937F938F939F93AF93BA
:1036C000BF93EF93FF9348EA50E064EA70E083E031
:1036D0000E942E1AFF91EF91BF91AF919F918F9110
:1036E0007F916F915F914F913F912F910F900BBE02
:1036F0000F900FBE0F901F9018951F920F920FB64C
:103700000F9211240BB60F922F933F934F935F9319
:103710006F937F938F939F93AF93BF93EF93FF9399
:1037200048E251E064E271E080E00E942E1AFF91CD
:10373000EF91BF91AF919F918F917F916F915F9129
:103740004F913F912F910F900BBE0F900FBE0F9096
:103750001F901895209142072033A0F4FC0120838C
:10376000822F8F5F80934207822F90E0FC01EE0F43
:10377000FF1FE80FF91FE95BF84F88EB9BE092838E
:10378000818308952FEFFC0120830895DC01ED91E2
:10379000FC910190F081E02D19942DE5FC0120832E
:1037A00008951F93CF93DF931F92CDB7DEB7162FE7
:1037B000FC01608182E896E049830E94F517612F41
:1037C00082E896E00E9498174981642F82E896E08B
:1037D0000E94981782E896E00F90DF91CF911F9199
:1037E0000C94141840EE60E20C94D11B1F93CF93FD
:1037F000DF93EC01162F688182E896E00E94F517AE
:10380000612F82E896E00E94981760E082E896E0D7
:103810000E94011841E0688182E896E00E94EF175B
:1038200082E896E00E944517C82F82E896E00E9441
:1038300014188C2FDF91CF911F910895FF920F9351
:103840001F93CF93DF938C01FC01608182E896E0A7
:103850000E94F51768EA70E082E896E00E94C61BB5
:1038600082E896E00E94141843E0F801608182E843
:1038700096E00E94EF1782E896E00E943C170397BB
:10388000D4F382E896E00E944517082F82E896E07C
:103890000E944517F82E82E896E00E94451710E036
:1038A00020E030E0282BDF2DF0E0CF2FCE01A0E08C
:1038B000B0E0082B192B2A2B3B2BB801C901DF9153
:1038C000CF911F910F91FF9008950E941E1C0E949E
:1038D000D02120E030E040E859E30E94B022089572
:1038E000CF93DF93EC01688182E896E00E94F517A0
:1038F0006BEA70E082E896E00E94C61B82E896E0E0
:103900000E94141842E0688182E896E00E94EF1756
:1039100082E896E00E943C170297D4F382E896E092
:103920000E944517C82F82E896E00E944517382F5D
:1039300022272C2BC901DF91CF9108950E94701C82
:10394000BC01882777FD8095982F0E94D02120E028
:1039500030E040EF53E40E94352120E030E04AE2BD
:1039600052E40E94CD2008950E9435212EE434EDCA
:1039700042E45EE30E941323262F372F482F592F4E
:1039800060E070E080E89FE30E94CC202DEC3AE2FA
:103990004DE257E40E94B02208956FE00E94F61BAA
:1039A00091E08B3B09F090E0892F0895CF93DF934E
:1039B000EC018CE58883CE010E94CD1C811107C0EB
:1039C0008DE58883CE01DF91CF910C94CD1C81E0F1
:1039D000DF91CF910895662319F0613041F402C060
:1039E0002CE501C02DE5FC0120830C94CD1C0C942A
:1039F000D61CFC0180E090E0A7E0B4E4808F918FBA
:103A0000A28FB38F80E090E0AAEFB3E4848F958F0C
:103A1000A68FB78F80E090E0A4E3B3E480A391A3E6
:103A2000A2A3B3A340E050E062E074EC44A355A32A
:103A300066A377A340E050E86EE074EC40A751A77E
:103A400062A773A740E050E860E474EC44A755A770
:103A500066A777A783E081AB88E182AB14AA13AA9B
:103A600015AA0895EF92FF921F93CF93DF931F92B1
:103A7000CDB7DEB77C01162FFC0162A982E896E083
:103A800049830E94F517612F82E896E00E949817FB
:103A90004981642F82E896E00E94981782E896E0B8
:103AA0000E941418F70180AB0F90DF91CF911F9106
:103AB000FF90EF900895EF92FF921F93CF93DF93C3
:103AC0001F92CDB7DEB77C01162F6EE170E082E861
:103AD00096E049830E94FF17612F82E896E00E94DA
:103AE00098174981642F82E896E00E94981782E82F
:103AF00096E00E941418F70180AB0F90DF91CF91F0
:103B00001F91FF90EF900895CF93DF93EC0147E270
:103B100060E20E94321D89A9823029F448E063E204
:103B2000CE010E94321D40E062E0CE01DF91CF91D4
:103B30000C945B1D0F931F93CF93DF938C01EB01CC
:103B400077FF31C06D3F8FEF7807C1F02CF46C3FE9
:103B5000FFEF7F0741F517C06E3F8FEF780749F001
:103B60006F3FEFEF7E07F9F4F80181A9811110C0D2
:103B700015C0F80181A981110EC013C0F80181A9F7
:103B800081110CC005C0F80181A981110AC003C0D0
:103B9000C7E0D0E008C0C8E0D0E005C0C5E0D0E094
:103BA00002C0C6E0D0E06EE170E082E896E00E94DC
:103BB000FF17BE0182E896E00E94C61B82E896E0ED
:103BC0000E941418F80180AB41E050E06EE170E013
:103BD00082E896E00E94F21782E896E00E9445177C
:103BE000C82F82E896E00E9414188C2FDF91CF91A5
:103BF0001F910F9108956F927F928F929F92AF9233
:103C0000BF92CF92DF92EF92FF920F931F93CF93C9
:103C1000DF93EC016AA982E896E00E94F51768EA52
:103C200070E082E896E00E94C61B82E896E00E945F
:103C3000141888AB46E06AA982E896E00E94EF1764
:103C40000E942F0F6B011DAA0EC08BA99CA9892B66
:103C500051F00E942F0F6C197D098BA99CA9861722
:103C6000970708F45EC082E896E00E943C1706972A
:103C700064F382E896E00E944517782E82E896E089
:103C80000E944517682E82E896E00E944517982EFC
:103C900082E896E00E944517882E82E896E00E940E
:103CA0004517D82E82E896E00E944517C82EB62CFC
:103CB000A12CA72884E0B594A7948A95E1F7B501D3
:103CC000882777FD8095982F0E94D021688379837B
:103CD0008A839B83F82CE12CE92894E0F594E794FF
:103CE0009A95E1F7B701882777FD8095982F0E9474
:103CF000D0216C837D838E839F831C2D00E00D2952
:103D000024E0159507952A95E1F7B801882777FDF6
:103D10008095982F0E94D021688779878A879B8712
:103D200002C081E08DABDF91CF911F910F91FF9089
:103D3000EF90DF90CF90BF90AF909F908F907F904B
:103D40006F900895AF92BF92CF92DF92EF92FF9261
:103D50000F931F93CF93DF93EC016EE170E082E845
:103D600096E00E94FF1763E070E082E896E00E9410
:103D7000C61B82E896E00E94141888AB46E050E02B
:103D80006EE170E082E896E00E94F2170E942F0F29
:103D90008B011DAA0EC08BA99CA9892B51F00E94F2
:103DA0002F0F601B710B8BA99CA98617970708F42E
:103DB00065C082E896E00E943C17069764F382E8AB
:103DC00096E00E944517A82E82E896E00E944517CB
:103DD000B82E89A9811115C082E896E00E94451786
:103DE000C82E82E896E00E944517D82E82E896E019
:103DF0000E944517082F82E896E00E944517182F69
:103E000014C082E896E00E944517082F82E896E0E9
:103E10000E944517182F82E896E00E944517C82E89
:103E200082E896E00E944517D82EFA2CE12CEB2868
:103E3000B701882777FD8095982F0E94D0216C8745
:103E40007D878E879F877C2D60E06D29882777FD91
:103E50008095982F0E94D021688B798B8A8B9B8BC1
:103E6000702F60E0612B882777FD8095982F0E9446
:103E7000D0216C8B7D8B8E8B9F8B02C081E08DABB4
:103E8000DF91CF911F910F91FF90EF90DF90CF9036
:103E9000BF90AF900895CF93DF93EC010E94FB1D7C
:103EA000CE01DF91CF910C94A21ECF93DF93EC0152
:103EB00068E170E082E896E00E94FF1760E270E03F
:103EC00082E896E00E94C61B82E896E00E941418E1
:103ED00088AB41E050E068E170E082E896E00E9443
:103EE000F21782E896E00E943C17892B31F082E8B5
:103EF00096E00E94451780E001C081E0DF91CF91FC
:103F00000895CF93DF93EC0169AB623018F0623013
:103F100089F40DC0411101C008C0413009F407C047
:103F20000E94551F813009F402C088E101C089E177
:103F30008AAB15C00E94551F813029F489E18AABF4
:103F400082E089AB0CC088E18AAB6FE070E0CE0103
:103F50000E949A1D91E08C3309F090E099ABDF91BB
:103F6000CF9108951F93CF93DF931F92CDB7DEB704
:103F7000162FFC01658582E896E049830E94F517BB
:103F8000612F82E896E00E9498174981642F82E8A9
:103F900096E00E94981782E896E00F90DF91CF910B
:103FA0001F910C9414184FE060E20C94B21F1F9301
:103FB000CF93DF93EC01162F6D8582E896E00E9487
:103FC000F517612F82E896E00E94981782E896E044
:103FD0000E94141841E06D8582E896E00E94EF1778
:103FE00082E896E00E944517C82F82E896E00E947A
:103FF00014188C2FDF91CF911F9108956F927F92AB
:104000008F929F92AF92BF92CF92DF92EF92FF92E8
:104010000F931F93CF93DF93EC016D8582E896E0B9
:104020000E94F517E0918206F09183060190F081DD
:10403000E02D68EA82E896E0199582E896E00E9411
:10404000141846E06D8582E896E00E94EF1782E83A
:1040500096E00E943C170697D4F382E896E00E940F
:104060004517782E82E896E00E944517682E82E870
:1040700096E00E944517982E82E896E00E94451728
:10408000882E82E896E00E944517D82E82E896E0B6
:104090000E944517C82EB62CA12CA728B501882749
:1040A00077FD8095982F0E94D021688379838A8339
:1040B0009B83F82CE12CE928B701882777FD8095B0
:1040C000982F0E94D0216C837D838E839F831C2D2B
:1040D00000E00D29B801882777FD8095982F0E9470
:1040E000D021688779878A879B87DF91CF911F913D
:1040F0000F91FF90EF90DF90CF90BF90AF909F9087
:104100008F907F906F900895CF93DF93EC0188E6B6
:104110008D876FE0CE010E94D71F833D11F491E09F
:104120001AC089E68D876FE0CE010E94D71F833DBC
:10413000B1F38AE68D876FE0CE010E94D71F843DE0
:1041400071F38BE68D876FE0CE010E94D71F91E05F
:10415000843D09F090E0892FDF91CF910895FC0113
:104160006487613019F0623099F408C0411102C0CF
:1041700028E607C0413061F429E603C0411104C0BC
:104180002AE6FC01258706C0413011F42BE6F9CF61
:104190000C94842081E008955058BB27AA270ED0A4
:1041A0009AC18BD130F090D120F031F49F3F11F4BF
:1041B0001EF45BC10EF4E095E7FB51C1E92F9CD1E1
:1041C00080F3BA17620773078407950718F071F434
:1041D0009EF5B4C10EF4E0950B2EBA2FA02D0B0165
:1041E000B90190010C01CA01A0011124FF27591B3C
:1041F00099F0593F50F4503E68F11A16F040A22F42
:10420000232F342F4427585FF3CF469537952795B2
:10421000A795F0405395C9F77EF41F16BA0B620BB1
:10422000730B840BBAF09150A1F0FF0FBB1F661FF8
:10423000771F881FC2F70EC0BA0F621F731F841F3B
:1042400048F4879577956795B795F7959E3F08F061
:10425000B3CF9395880F08F09927EE0F9795879520
:104260000895D9D008F481E008950CD034C12CD140
:1042700040F023D130F021F45F3F19F0F0C051112C
:104280005EC1F3C039D198F39923C9F35523B1F333
:10429000951B550BBB27AA2762177307840738F0B5
:1042A0009F5F5F4F220F331F441FAA1FA9F333D014
:1042B0000E2E3AF0E0E830D091505040E695001CC8
:1042C000CAF729D0FE2F27D0660F771F881FBB1F84
:1042D000261737074807AB07B0E809F0BB0B802D5E
:1042E000BF01FF2793585F4F2AF09E3F510568F0AA
:1042F000B6C025C15F3FECF3983EDCF38695779519
:104300006795B795F7959F5FC9F7880F911D9695AB
:10431000879597F90895E1E0660F771F881FBB1F07
:10432000621773078407BA0720F0621B730B840BB4
:10433000BA0BEE1F88F7E095089504D06894B11188
:10434000FEC00895E1D088F09F5790F0B92F9927CB
:10435000B751A0F0D1F0660F771F881F991F1AF090
:10436000BA95C9F712C0B13081F0E8D0B1E0089534
:10437000E5C0672F782F8827B85F39F0B93FCCF3B5
:10438000869577956795B395D9F73EF49095809586
:10439000709561957F4F8F4F9F4F0895E89409C0A6
:1043A00097FB3EF490958095709561957F4F8F4F68
:1043B0009F4F9923A9F0F92F96E9BB279395F6957E
:1043C000879577956795B795F111F8CFFAF4BB0FFC
:1043D00011F460FF1BC06F5F7F4F8F4F9F4F16C060
:1043E000882311F096E911C0772321F09EE8872FEA
:1043F000762F05C0662371F096E8862F70E060E0A6
:104400002AF09A95660F771F881FDAF7880F96951E
:10441000879597F90895990F0008550FAA0BE0E8C2
:10442000FEEF16161706E807F907C0F01216130676
:10443000E407F50798F0621B730B840B950B39F4B6
:104440000A2661F0232B242B252B21F408950A261C
:1044500009F4A140A6958FEF811D811D089597F95C
:104460009F6780E870E060E008959FEF80EC08951A
:10447000DF93CF931F930F93FF92EF92DF927B0115
:104480008C01689405C0DA2EEF0176D0FE01E89425
:10449000A5912591359145915591AEF3EF018EDEB1
:1044A000FE019701A801DA9479F7DF90EF90FF9071
:1044B0000F911F91CF91DF91089500240A94161651
:1044C000170618060906089500240A941216130602
:1044D000140605060895092E0394000C11F4882390
:1044E00052F0BB0F40F4BF2B11F460FF04C06F5FAC
:1044F0007F4F8F4F9F4F089557FD9058440F551F82
:1045000059F05F3F71F04795880F97FB991F61F055
:104510009F3F79F087950895121613061406551FCC
:10452000F2CF4695F1DF08C0161617061806991F38
:10453000F1CF86957105610508940895E894BB272D
:1045400066277727CB0197F9089565DF08F48FEF89
:1045500008959B01AC0160E070E080E89FE385CEA8
:104560000BD0B9CFAADF28F0AFDF18F0952309F000
:1045700076CF7BCF1124E3CFBFDFA0F3959FD1F39C
:10458000950F50E0551F629FF001729FBB27F00D01
:10459000B11D639FAA27F00DB11DAA1F649F662756
:1045A000B00DA11D661F829F2227B00DA11D621FA5
:1045B000739FB00DA11D621F839FA00D611D221F5F
:1045C000749F3327A00D611D231F849F600D211D43
:1045D000822F762F6A2F11249F5750408AF0E1F0E6
:1045E00088234AF0EE0FFF1FBB1F661F771F881F2F
:1045F00091505040A9F79E3F510570F030CF9FCFAA
:104600005F3FECF3983EDCF3869577956795B79519
:10461000F795E7959F5FC1F7FE2B880F911D969543
:10462000879597F90895FA01EE0FFF1F309621053F
:10463000310599F16115710561F48038BFE39B077D
:1046400049F168949038810561F08038BFEF9B078D
:1046500041F0992342F5FF3FE1053105210511F1B4
:10466000E8940894E795D901AA2329F4AB2FBE2F2B
:10467000F85FD0F310C0FF5F70F4A695E0F7F7394C
:1046800050F019F0FF3A38F49F779F930CD00F90B9
:1046900007FC905808953EF0E8CE60E070E080E8B6
:1046A0009FE308954FE79F775F934F933F932F9337
:1046B000C9D02F913F914F915F9152DF47C011F4C4
:1046C0000EF4D3CE6FC020DFD0F39923D9F3CEF30D
:1046D0009F57550B87FF74D00024A0E640EA900155
:1046E00080585695979528F4805C660F771F881F31
:1046F00020F026173707480730F4621B730B840B32
:10470000202931294A2BA695179407942025312575
:104710004A2758F7660F771F881F20F0261737079C
:10472000480730F4620B730B840B200D311D411DC3
:10473000A09581F7B901842F9158880F9695879598
:10474000089519F40EF08BCEF9CE8FCEDDDEC8F3CE
:104750009638C0F707F80F92E8942BE33AEA48EB53
:104760005FE70CDF0F920F920F924DB75EB70F927B
:10477000A9D0E4EEF0E07CDE4F915F91EF91FF91E4
:10478000E595EE1FFF1F49F0FE57E0684427EE0F46
:10479000441FFA95E1F74195550B1BD00F9007FE8A
:1047A000D8CE08959F3F31F0915020F487957795AA
:1047B0006795B795880F911D9695879597F90895F8
:1047C00091505040660F771F881FD2F7089547CE4B
:1047D000E9CF9ADEE8F39923D9F3940F511DBBF387
:1047E0009150504094F059F0882332F0660F771FB3
:1047F000881F91505040C1F79E3F510544F7880FE4
:10480000911D9695879597F908955F3FACF0983E76
:104810009CF0BB27869577956795B79508F4B160AE
:104820009395C1F7BB0F58F711F460FFE8CF6F5FA6
:104830007F4F8F4F9F4FE3CF82CE0EF0B3CF15CE79
:1048400068940DCE61DEC8F39923D1F3C6F3DF93EC
:10485000CF931F930F93FF92C92FDD2788232AF050
:104860002197660F771F881FDAF720E030E040E8D5
:104870005FEB9FE3883920F0803E30F021968F7700
:104880008CDCECE0F1E003C088DCE9E3F1E0F0DD92
:104890008B01BE01EC01FB2E6F5771097595771FD7
:1048A000880B990B7DDD28E132E741E35FE364DEAD
:1048B000AF2D9801AE01FF900F911F91CF91DF9125
:1048C0007DDC09CEFA01DC01AA0FBB1F9B01AC0104
:1048D000BF5728F422273327442750781FC0B751E9
:1048E00088F4AB2F0024469537952795011CA39596
:1048F000D2F3002069F0220F331F441FB395DAF37F
:104900000DD04ACC61307105A0E88A07B94630F471
:104910009B01AC016627772788279078309621F095
:1049200020833183428353830895A1E21A2EAA1B68
:10493000BB1BFD010DC0AA1FBB1FEE1FFF1FA2174F
:10494000B307E407F50720F0A21BB30BE40BF50B4C
:10495000661F771F881F991F1A9469F760957095D5
:10496000809590959B01AC01BD01CF010895079002
:10497000F691E02D19940F931F93CF93DF9382301C
:10498000910510F482E090E0E091D907F091DA0708
:1049900020E030E0C0E0D0E023C0408151814817E2
:1049A0005907A8F04817590761F48281938120972D
:1049B00019F09B838A832EC09093DA078093D907DE
:1049C00029C02115310529F04217530710F0A9011C
:1049D00002C0BE01DF0102811381EF019A01F801DB
:1049E0003097D9F62115310509F1281B390B2430F0
:1049F000310590F412968D919C9113976115710574
:104A000021F0FB019383828304C09093DA078093A3
:104A1000D907FD01329644C0FD01E20FF31F8193D7
:104A20009193225031092D933C933AC02091D7079E
:104A30003091D807232B41F42091020230910302D8
:104A40003093D8072093D7072091000230910102BC
:104A50002115310541F42DB73EB740910402509124
:104A60000502241B350BE091D707F091D807E21718
:104A7000F307A0F42E1B3F0B2817390778F0AC0181
:104A80004E5F5F4F2417350748F04E0F5F1F50935E
:104A9000D8074093D7078193919302C0E0E0F0E0FC
:104AA000CF01DF91CF911F910F910895EF92FF9267
:104AB0000F931F93CF93DF93009709F48EC0DC010F
:104AC000129713961C921E921297E090D907F090BD
:104AD000DA07E114F10489F42D913C911197280F24
:104AE000391F8091D7079091D8078217930789F5CE
:104AF000B093D807A093D70770C0E70120E030E05B
:104B000001C0EA01CA17DB0738F44A815B819E01C4
:104B100041155105B1F722C0AC0142505109FA01CB
:104B2000D383C28300811181BC01600F711F6C1798
:104B30007D0761F468817981600F711F6E5F7F4F1F
:104B4000718360836A817B81738362832115310560
:104B500029F4B093DA07A093D9073FC0F901B383D2
:104B6000A283E90149915991C40FD51FAC17BD0724
:104B700071F4DC019E918E91840F951F02969183B2
:104B8000808312968D919C91139793838283A0E0EA
:104B9000B0E002C0D7017C01F701828193810097C8
:104BA000C9F7C701029620813181820F931F20919E
:104BB000D7073091D8072817390779F4109729F4C7
:104BC0001092DA071092D90704C013961C921E9215
:104BD0001297F092D807E092D707DF91CF911F91FB
:104BE0000F91FF90EF900895FB01DC014150504080
:104BF00030F08D910190801919F40020B9F7881BCD
:084C0000990B0895F894FFCF11
:104C08000000DB072000016C65644F6E006C656472
:104C18004F66660063616C0063616C2C0063616CB5
:104C28005265732C0073746172742C0000000000CC
:104C38003311FE14CE10FD10E11021112E000000DA
:0E4C4800000098176A173C174517591769178F
:00000001FF
