:100000000C9464010C9495010C9495010C94950149
:100010000C9495010C9495010C9495010C94950108
:100020000C9495010C9495010C9495010C949501F8
:100030000C9495010C94FD510C9495010C94950130
:100040000C9495010C94EB490C9495010C9495013A
:100050000C9495010C9495010C9495010C94DE3D43
:100060000C9495010C9486400C945A410C94950183
:100070000C9495010C9495010C9495010C949501A8
:100080000C94184A0C9495010C9495010C949501CC
:100090000C94B3400C9499410C9495010C94EF4747
:1000A0000C9495010C9495010C94454A0C9495017F
:1000B0000C9495010C9495010C9495010C94724A42
:1000C0000C9495010C9495010C9495010C94E040CE
:1000D0000C94D8410C9495010C940D410C9417424A
:1000E0000C949501036EDB363D9A9999993DABAA24
:1000F000AA2A3E000000803F072C7AA5BA6CC59062
:10010000DA3B9365FC8BBC53F810FD3C5692834D53
:10011000BD879D3AB63DCBC9BF5BBE73DA0FC93F01
:1001200007634236B79BD8A71A39685618AEBAABE0
:10013000558C1D3CB7CC5763BD6DEDFD753EF61774
:100140007231BF000000803F08000000BE922449C9
:10015000123EABAAAA2ABECDCCCC4C3E00000080F9
:10016000BEABAAAAAA3E00000000BF000000803F6C
:100170000000000000084178D3BB4387D1133D192C
:100180000E3CC3BD4282AD2B3E68EC8276BED98F59
:10019000E1A93E4C80EFFFBE01C4FF7F3F0000009D
:1001A00000000000090A02080B0C0D0706030401F9
:1001B000000000000000000000000000000000003F
:1001C000000000000000000000000000000011100E
:1001D0000F00000000000000000000000000000010
:1001E000000000000000000001021020200808109C
:1001F0002040102040800201020108040201010297
:10020000040810204080804020100804020180046F
:1002100002018040201008040201080402010102CA
:1002200004081020408001020408102040800505C9
:100230000505070508080808020202020A0A08085C
:10024000040404040101010101010101030303038A
:1002500003030303040707070C0C0C0C0C0C0C0C19
:100260000202020206060606060606060B0B0B0B2A
:100270000B0B0B0B000020002300260029002C0094
:100280002F003200000100000301060109010000F7
:100290002200250028002B002E003100340002012E
:1002A0000000050108010B010000210024002700C7
:1002B0002A002D0030003300010100000401070175
:1002C0000A015E3DD6420C4711241FBECFEFD1E29A
:1002D000DEBFCDBF00E00CBF12E0A0E0B2E0E0E482
:1002E000FDEA00E00BBF02C007900D92A836B107EF
:1002F000D9F71BE0A8E6B2E001C01D92A432B10715
:10030000E1F712E0C8ECD2E000E006C02297010954
:10031000FE010BBF0E948C56C23CD10780E008074B
:10032000A9F70E94F4430C949E560C94000088E5B3
:1003300096E00E94A651882341F080915806909142
:1003400059069093350380933403089580E090E03C
:10035000ACE1B2EC8093960390939703A09398033B
:10036000B093990380E090E0A0E3B1E480939A0316
:1003700090939B03A0939C03B0939D0380E090E037
:10038000A0E3B1EC80939E0390939F03A093A003FE
:10039000B093A10380E090ECA1E8B4E48093A203C1
:1003A0009093A303A093A403B093A50380E090ECE3
:1003B000A0E8B4E48093A6039093A703A093A803B6
:1003C000B093A90380E090E8A0E8B4E48093AA0386
:1003D0009093AB03A093AC03B093AD0380E090E0A7
:1003E000A8E9B2E48093AE039093AF03A093B00367
:1003F000B093B10380E090E0A2EEB2EC8093B20340
:100400009093B303A093B403B093B50380E090E05E
:10041000A8EEB1EC8093B6039093B703A093B80312
:10042000B093B90380E090E0A5E1B4E48093BA030F
:100430009093BB03A093BC03B093BD0380E090EC0A
:10044000A5E1B4E48093BE039093BF03A093C003DF
:10045000B093C10380E090E8A9EFB3E48093C203B6
:100460009093C303A093C403B093C5031092C70332
:100470001092C60386E696E2ACE9B3EC8093C8031B
:100480009093C903A093CA03B093CB0380E090E894
:10049000A3EEB2E48093CC039093CD03A093CE035C
:1004A000B093CF0383E393E5A9E7B4E48093D0034B
:1004B0009093D103A093D203B093D30386E696EE34
:1004C000A6E8B3E48093D4039093D503A093D60316
:1004D000B093D70383E393EBA6ECB2EC8093D803FD
:1004E0009093D903A093DA03B093DB038AE999EDE3
:1004F000ADEFB3EC8093DC039093DD03A093DE03B8
:10050000B093DF0386E696E6A1E4B4E48093F003BB
:100510009093F103A093F203B093F3038AE999E176
:10052000A7E0B3EC8093F4039093F503A093F60354
:10053000B093F7038DEC9CE1AEE1B4E48093F80353
:100540009093F903A093FA03B093FB038DEC9CEC1A
:10055000A9E5B2EC8093FC039093FD03A093FE0306
:10056000B093FF0383E393E3AFEAB1E48093000425
:1005700090930104A0930204B093030483E393EAED
:10058000A9E0B4E48093040490930504A0930604C6
:10059000B093070486E696EEA6EFB2EC80931804BB
:1005A00090931904A0931A04B0931B0483E393EF70
:1005B000ACE3B4EC80931C0490931D04A0931E0440
:1005C000B0931F0480E090E8A0E3B4E4809320049B
:1005D00090932104A0932204B09323048DEC9CEE0D
:1005E000A1E0B4EC8093240490932504A093260406
:1005F000B093270486E696E6A6E9B0E48093280443
:1006000090932904A0932A04B0932B0486E696EED7
:10061000ADECB2EC80932C0490932D04A0932E04A7
:10062000B0932F048DEC9CEEAAE6B4EC80934004CA
:1006300090934104A0934204B093430480E090E07F
:10064000A1E7B3EC8093440490934504A09346043F
:10065000B093470486E696EAABEDB3EC809348048A
:1006600090934904A0934A04B0934B0480E090EF28
:10067000AFE2B4E480934C0490934D04A0934E04F5
:10068000B0934F0486E696E6AEECB1E48093500456
:1006900090935104A0935204B09353048DEC9CE0CA
:1006A000A4E0B3E48093540490935504A0935604BB
:1006B000B093570480E090E4A9EEB3E4809368041B
:1006C00090936904A0936A04B0936B0480E090E473
:1006D000A0E4B4EC80936C0490936D04A0936E043A
:1006E000B0936F0483E393EBA4EEB3EC80937004B8
:1006F00090937104A0937204B093730486E696E01D
:10070000A8E8B3E48093740490937504A0937604EE
:10071000B09377048AE999E6A6E3B4EC8093780471
:1007200090937904A0937A04B0937B048DEC9CE4BD
:10073000A3E3B3E480937C0490937D04A0937E04B0
:10074000B0937F048DEC9CECACE5B2EC809390040C
:1007500090939104A0939204B09393048DEC9CE247
:10076000ACE6B4E48093940490939504A09396042B
:10077000B093970483E393E1ADECB3EC80939804DA
:1007800090939904A0939A04B0939B0486E696EE06
:10079000A8E5B3E480939C0490939D04A0939E04E9
:1007A000B0939F048AE999EDA7EFB3E48093A00486
:1007B0009093A104A093A204B093A3048AE999EDB5
:1007C000AFE0B3E48093A4049093A504A093A6049F
:1007D000B093A70410928A0310928B0310928C039B
:1007E00010928D0310928E0310928F03109290033B
:1007F000109291031092920310929303109294031B
:10080000109295030895CF92DF92EF92FF9261E0EC
:100810008DE00E94623F40E052EC61E070E08EE8C3
:1008200097E00E94564267E070E08FEB96E00E94EE
:10083000684B68EE73E080E090E00E94643E8DECCF
:1008400099E00E94CD4662E08FEA96E00E94C64C95
:100850008FEA96E00E94CD4B4AEF60E18FEA96E086
:100860000E94AC4B42E063E089E796E00E945C4F57
:1008700089E796E00E945F4D42E060E08BE696E0FB
:100880000E948A508BE696E00E94AE4F40E163E200
:100890008BE696E00E948D4F8DE69FEBABE8BEE3C2
:1008A0008093860390938703A0938803B093890372
:1008B00085E194E7A2E8BFE38093820390938303EA
:1008C000A0938403B093850380E090E0A8ECB2E4A9
:1008D00080937E0390937F03A0938003B093810362
:1008E00082EF93E2AEE9BEE38093720390937303C9
:1008F000A0937403B093750381E295E0AEEBBCE383
:100900008093760390937703A0937803B093790351
:1009100082E199E6A3E7BFE380937A0390937B0398
:10092000A0937C03B0937D0310926603109267033B
:10093000109268031092690310926A0310926B037D
:1009400010926C0310926D03C12CD12C30E8E32E71
:100950003FEBF32EC0926E03D0926F03E0927003D0
:10096000F092710380E090E0A0E8BFE38093200361
:1009700090932103A0932203B093230310922403A6
:100980001092250310922603109227031092280339
:100990001092290310922A0310922B0310922C0319
:1009A00010922D0310922E0310922F031092A40286
:1009B0001092A5021092A6021092A7021092A8020D
:1009C0001092A9021092AA021092AB021092AC02ED
:1009D0001092AD021092AE021092AF021092B002CD
:1009E0001092B1021092B2021092B3021092B802A9
:1009F0001092B9021092BA021092BB021092BC027D
:100A00001092BD021092BE021092BF021092C0025C
:100A10001092C1021092C2021092C3021092C4023C
:100A20001092C5021092C6021092C7021092CC0218
:100A30001092CD021092CE021092CF021092D002EC
:100A40001092D1021092D2021092D3021092D402CC
:100A50001092D5021092D6021092D7021092D802AC
:100A60001092D9021092DA021092DB028093A00257
:100A70009093A102A093A202B093A30240E050E0A1
:100A800060E870E44093B4025093B5026093B602FC
:100A90007093B7028093C8029093C902A093CA02D0
:100AA000B093CB0240E25CEB6EEB7CE44093DC0263
:100AB0005093DD026093DE027093DF028093900218
:100AC00090939102A0939202B09393021092940299
:100AD000109295021092960210929702109298022C
:100AE0001092990210929A0210929B0210929C020C
:100AF00010929D0210929E0210929F02809380029B
:100B000090938102A0938202B09383021092840298
:100B1000109285021092860210928702109288022B
:100B20001092890210928A0210928B0210928C020B
:100B300010928D0210928E0210928F0210927C02FF
:100B400010927D0210927E0210927F021092780223
:100B50001092790210927A0210927B0210924C0647
:100B600010924D0610924E0610924F0681E090E0D2
:100B700090935506809354060E94A60184E690E067
:100B80009093570680935606109250061092510685
:100B9000109252061092530610924806109249067F
:100BA00010924A0610924B061092300310923103B5
:100BB00010923203109233031092350310923403D3
:100BC000C0926802D0926902E0926A02F0926B02CF
:100BD000FF90EF90DF90CF9008952F923F924F9229
:100BE0005F926F927F928F929F92AF92BF92CF92BD
:100BF000DF92EF92FF920F931F93CF93DF93CDB7C6
:100C0000DEB7C057D1400FB6F894DEBF0FBECDBFE0
:100C10008EE897E00E94D13F892B11F00C94BE3CE6
:100C200089E796E00E94264F8BE696E00E94D94F16
:100C30008FEA96E00E94404C60933E0370933F031E
:100C400080934003909341038FEA96E00E94794C91
:100C5000609336037093370380933803909339037E
:100C600088E596E00E94FA518111A1C06091340399
:100C70007091350380E090E00E944353609330030D
:100C80007093310380933203909333036091A002F9
:100C90007091A1028091A2029091A3020E9404553A
:100CA00020E030E040E450E40E94515420912003C1
:100CB0003091210340912203509123030E942B5233
:100CC0002DEC3CEC4CEC5DE30E942B527B018C0143
:100CD00020E030E040E05FE37F2D912F0E94A6529C
:100CE00087FD02C00C94AB3C4AE350E0EAE7FBE02E
:100CF0005093C3064093C2069F0167E971E088E5FF
:100D000096E00E945D5124EF38E642E359E360919A
:100D100030037091310380913203909133030E942C
:100D200051547B018C01862F9F2DA02FB12F8093D2
:100D3000300390933103A0933203B0933303209197
:100D400020033091210340912203509123036E2D03
:100D50007F2D802F912F0E942A52262F372F482F28
:100D6000592F0E9451544B015C0120E030E040E1DA
:100D700051E46091A0027091A1028091A202909131
:100D8000A3020E9451549B01AC01C501B4010E9411
:100D90004654181664F02DEC3CEC4CE45DE36E2DEB
:100DA0007F2D802F912F0E94A65287FF0CC080E0DC
:100DB00090E0A0E8BFEB8093300390933103A093C1
:100DC0003203B09333030E943A3E6B017C01809161
:100DD0004C0690914D06A0914E06B0914F06A7018A
:100DE0009601281B390B4A0B5B0BCA01B9010E9403
:100DF00043532DEB37E346E855E30E94515460938B
:100E000048067093490680934A0690934B06C09219
:100E10004C06D0924D06E0924E06F0924F0620917D
:100E20009A0330919B0340919C0350919D036091E4
:100E30007D0670917E0680917F06909180060E94CB
:100E40002A522091A6033091A7034091A803509104
:100E5000A9030E94AA521B012C0120919E033091EC
:100E60009F034091A0035091A1036091810670916E
:100E7000820680918306909184060E942A522091D6
:100E8000AA033091AB034091AC035091AD030E9493
:100E9000AA523B018C012091960330919703409117
:100EA0009803509199036091790670917A06809128
:100EB0007B0690917C060E942A522091A2033091D9
:100EC000A3034091A4035091A5030E94AA526B0171
:100ED0007C01F7FAF094F7F8F09422EE37E64AE74F
:100EE0005FE3C701B6010E9451544B015C012FEC36
:100EF00036EE44E55EE3662D772D802F912F0E941C
:100F000051549B01AC01C501B4010E942B52609366
:100F10004E0370934F038093500390935103822D9F
:100F2000932DA42DB52D8093520390935303A0933A
:100F30005403B09355032FEC36EE44E55EE3C7014E
:100F4000B6010E9451546B017C0122EE37E64AE75C
:100F50005FE3662D772D802F912F0E9451549B01C6
:100F6000AC01C701B6010E942A52609356037093E8
:100F7000570380935803909359032091B203309103
:100F8000B3034091B4035091B50360918906709109
:100F90008A0680918B0690918C060E942A5220919D
:100FA000BE033091BF034091C0035091C1030E9422
:100FB000AA521B012C012091B6033091B703409136
:100FC000B8035091B90360918D0670918E0680919F
:100FD0008F06909190060E942A522091C203309170
:100FE000C3034091C4035091C5030E94AA523B0120
:100FF0008C012091AE033091AF034091B00350912A
:10100000B103609185067091860680918706909164
:1010100088060E942A522091BA033091BB03409166
:10102000BC035091BD030E94AA526B017C01F7FAE8
:10103000F094F7F8F09422EE37E64AE75FE3C70151
:10104000B6010E9451544B015C012FEC36EE44E591
:101050005EE3662D772D802F912F0E9451549B01C6
:10106000AC01C501B4010E942B5260935A037093E6
:101070005B0380935C0390935D03822D932DA42DDD
:10108000B52D80935E0390935F03A0936003B093AC
:1010900061032FEC36EE44E55EE3C701B6010E9422
:1010A00051546B017C0122EE37E64AE75FE3662D7F
:1010B000772D802F912F0E9451549B01AC01C701C5
:1010C000B6010E942A526093620370936303809377
:1010D00064039093650320918E0330918F034091B8
:1010E00090035091910360916F067091700680910A
:1010F0007106909172060E942A5229E732E240EA74
:1011000059E30E9451541B012C012091920330910C
:1011100093034091940350919503609173067091ED
:10112000740680917506909176060E942A5229E7EE
:1011300032E240EA59E30E9451543B018C01209174
:101140008A0330918B0340918C0350918D03609101
:101150006B0670916C0680916D0690916E060E94F0
:101160002A5229E732E240EA59E30E9451546B01C6
:101170007C01F7FAF094F7F8F09422EE37E64AE7AC
:101180005FE3C701B6010E9451544B015C012FEC93
:1011900036EE44E55EE3662D772D802F912F0E9479
:1011A00051549B01AC01C501B4010E942B526093C4
:1011B0004203709343038093440390934503822D2D
:1011C000932DA42DB52D8093460390934703A093B0
:1011D0004803B09349032FEC36EE44E55EE3C701C4
:1011E000B6010E9451546B017C0122EE37E64AE7BA
:1011F0005FE3662D772D802F912F0E9451549B0124
:10120000AC01C701B6010E942A5260934A03709351
:101210004B0380934C0390934D0360913E03709178
:101220003F03809140039091410320E030E54DE77A
:1012300054E40E948F4CCD5BDE4F688379838A83B0
:101240009B83C354D14060933A0370933B038093D4
:101250003C0390933D0320E030E040E05FE3609189
:101260004E0370914F0380915003909151030E945F
:1012700051546093C4067093C5068093C60690933C
:10128000C70660915A0370915B0380915C03909153
:101290005D039B01AC010E942B526093D0067093BA
:1012A000D1068093D2069093D30620E030E040E050
:1012B0005FE360916603709167038091680390918A
:1012C00069030E9451546093DC067093DD0680939D
:1012D000DE069093DF066091720370917303809134
:1012E0007403909175039B01AC010E942B52609393
:1012F000E8067093E9068093EA069093EB0620E0F7
:1013000030E040E05FE360915203709153038091BD
:101310005403909155030E9451546093C8067093F2
:10132000C9068093CA069093CB0660915E037091C4
:101330005F0380916003909161039B01AC010E9467
:101340002B526093D4067093D5068093D606909363
:10135000D70620E030E040E05FE360916A037091DF
:101360006B0380916C0390916D030E9451546093C4
:10137000E0067093E1068093E2069093E3066091A5
:1013800076037091770380917803909179039B01A4
:10139000AC010E942B526093EC067093ED06809393
:1013A000EE069093EF0620E030E040E05FE36091CE
:1013B00056037091570380915803909159030E94EE
:1013C00051546093CC067093CD068093CE069093D3
:1013D000CF066091620370916303809164039091E2
:1013E00065039B01AC010E942B526093D806709359
:1013F000D9068093DA069093DB0620E030E040E0E7
:101400005FE360916E0370916F0380917003909120
:1014100071030E9451546093E4067093E506809333
:10142000E6069093E70660917A0370917B038091C2
:101430007C0390917D039B01AC010E942B52609331
:10144000F0067093F1068093F2069093F306809174
:10145000480690914906A0914A06B0914B06C9549E
:10146000DF4F88839983AA83BB83C75BD0402091D9
:101470004203309143034091440350914503BC0122
:10148000CD010E94515420E030E040E05FE30E9433
:101490005154162F072FB82EA92E209146033091B4
:1014A00047034091480350914903C954DF4F688175
:1014B00079818A819B81C75BD0400E94515420E092
:1014C00030E040E05FE30E945154962E872E782E44
:1014D000692E20914A0330914B0340914C03509167
:1014E0004D03C954DF4F688179818A819B81C75B35
:1014F000D0400E94515420E030E040E05FE30E9481
:101500005154562E472E382E292EB801C501272FAB
:10151000362F492F582FD801F5016B2F7A2F8F2F97
:101520009E2F0E94515420E030E040E85FE30E948B
:101530002B526B017C01B401C301272F362F492F99
:10154000582FD401F3016B2F7A2F8F2F9E2F0E94DB
:1015500051549B01AC01C701B6010E942B526B0193
:101560007C01B201C101272F362F492F582FD201FC
:10157000F1016B2F7A2F8F2F9E2F0E9451549B01C8
:10158000AC01C701B6010E942B520E9404556B01A9
:101590007C019B01AC0160E070E080E89FE30E9469
:1015A000AA52C554DF4F6883CB5BD040C454DF4F91
:1015B0007883CC5BD040C354DF4F8883CD5BD04071
:1015C000C254DF4F9883CE5BD040A7019601D8016B
:1015D000F5016B2F7A2F8F2F9E2F0E94AA52CE5388
:1015E000DF4F6883C25CD040C753DF4F7883C95C4C
:1015F000D040C653DF4F8883CA5CD040C253DF4F10
:101600009883CE5CD040A7019601D401F3016B2FE3
:101610007A2F8F2F9E2F0E94AA52C153DF4F6883CB
:10162000CF5CD040C053DF4F7883C05DD040CF52F5
:10163000DF4F8883C15DD040CE52DF4F9883C25DBB
:10164000D040A7019601D201F1016B2F7A2F8F2F85
:101650009E2F0E94AA52CD52DF4F6883C35DD040B7
:10166000CA53DF4F7883C65CD040C953DF4F8883AD
:10167000C75CD040C853DF4F9883C85CD040C0904F
:101680009002D0909102E0909202F090930220910B
:101690009402309195024091960250919702C15563
:1016A000DF4F288339834A835B83CF5AD0408091B0
:1016B000980290919902A0919A02B0919B02CD5408
:1016C000DF4F88839983AA83BB83C35BD04080901C
:1016D0009C0290909D02A0909E02B0909F02A70154
:1016E0009601C554DF4FB881CB5BD040C454DF4F67
:1016F000A881CC5BD040C354DF4FF881CD5BD04094
:10170000C254DF4FE881CE5BD0406B2F7A2F8F2FF2
:101710009E2F0E9451542B013C01C155DF4F28815F
:1017200039814A815B81CF5AD040CE53DF4FB88197
:10173000C25CD040C753DF4FA881C95CD040C653BC
:10174000DF4FF881CA5CD040C253DF4FE881CE5CE6
:10175000D0406B2F7A2F8F2F9E2F0E9451549B01C8
:10176000AC01C301B2010E942A522B013C01CD54AD
:10177000DF4F288139814A815B81C35BD040C153EF
:10178000DF4FB881CF5CD040C053DF4FA881C05D30
:10179000D040CF52DF4FF881C15DD040CE52DF4FF5
:1017A000E881C25DD0406B2F7A2F8F2F9E2F0E9431
:1017B00051549B01AC01C301B2010E942A522B017A
:1017C0003C01A5019401CD52DF4FB881C35DD040EB
:1017D000CA53DF4FA881C65CD040C953DF4FF881A0
:1017E000C75CD040C853DF4FE881C85CD0406B2F46
:1017F0007A2F8F2F9E2F0E9451549B01AC01C30161
:10180000B2010E942A52CD55DF4F6883C35AD0409F
:10181000CB55DF4F7883C55AD040C955DF4F8883F9
:10182000C75AD040C755DF4F9883C95AD040C155D9
:10183000DF4F288139814A815B81CF5AD040C5541E
:10184000DF4FB881CB5BD040C454DF4FA881CC5B65
:10185000D040C354DF4FF881CD5BD040C254DF4F3E
:10186000E881CE5BD0406B2F7A2F8F2F9E2F0E9466
:1018700051542B013C01A7019601CE53DF4FB88193
:10188000C25CD040C753DF4FA881C95CD040C6536B
:10189000DF4FF881CA5CD040C253DF4FE881CE5C95
:1018A000D0406B2F7A2F8F2F9E2F0E9451549B0177
:1018B000AC01C301B2010E942B522B013C01A501D6
:1018C0009401C153DF4FB881CF5CD040C053DF4F8C
:1018D000A881C05DD040CF52DF4FF881C15DD040BC
:1018E000CE52DF4FE881C25DD0406B2F7A2F8F2F11
:1018F0009E2F0E9451549B01AC01C301B2010E9472
:101900002A522B013C01CD54DF4F288139814A8175
:101910005B81C35BD040CD52DF4FB881C35DD04007
:10192000CA53DF4FA881C65CD040C953DF4FF8814E
:10193000C75CD040C853DF4FE881C85CD0406B2FF4
:101940007A2F8F2F9E2F0E9451549B01AC01C3010F
:10195000B2010E942B52362E272EC555DF4F8883A9
:10196000CB5AD040C355DF4F9883CD5AD040CD5489
:10197000DF4F288139814A815B81C35BD040C554E8
:10198000DF4FB881CB5BD040C454DF4FA881CC5B24
:10199000D040C354DF4FF881CD5BD040C254DF4FFD
:1019A000E881CE5BD0406B2F7A2F8F2F9E2F0E9425
:1019B00051542B013C01A7019601C153DF4FB8815F
:1019C000CF5CD040C053DF4FA881C05DD040CF5224
:1019D000DF4FF881C15DD040CE52DF4FE881C25D5C
:1019E000D0406B2F7A2F8F2F9E2F0E9451549B0136
:1019F000AC01C301B2010E942B522B013C01C15525
:101A0000DF4F288139814A815B81CF5AD040CD5246
:101A1000DF4FB881C35DD040CA53DF4FA881C65C99
:101A2000D040C953DF4FF881C75CD040C853DF4F67
:101A3000E881C85CD0406B2F7A2F8F2F9E2F0E9499
:101A400051549B01AC01C301B2010E942A522B01E7
:101A50003C01A5019401CE53DF4FB881C25CD04058
:101A6000C753DF4FA881C95CD040C653DF4FF88110
:101A7000CA5CD040C253DF4FE881CE5CD0406B2FB0
:101A80007A2F8F2F9E2F0E9451549B01AC01C301CE
:101A9000B2010E942B52162F072F782E692EA50116
:101AA0009401C554DF4FB881CB5BD040C454DF4FA5
:101AB000A881CC5BD040C354DF4FF881CD5BD040D0
:101AC000C254DF4FE881CE5BD0406B2F7A2F8F2F2F
:101AD0009E2F0E9451544B015C01A7019601CD52EB
:101AE000DF4FB881C35DD040CA53DF4FA881C65CC9
:101AF000D040C953DF4FF881C75CD040C853DF4F97
:101B0000E881C85CD0406B2F7A2F8F2F9E2F0E94C8
:101B100051549B01AC01C501B4010E942B526B01D1
:101B20007C01CD54DF4F288139814A815B81C35BC1
:101B3000D040CE53DF4FB881C25CD040C753DF4F97
:101B4000A881C95CD040C653DF4FF881CA5CD04041
:101B5000C253DF4FE881CE5CD0406B2F7A2F8F2F9E
:101B60009E2F0E9451549B01AC01C701B6010E94F7
:101B70002A526B017C01C155DF4F288139814A818E
:101B80005B81CF5AD040C153DF4FB881CF5CD0408A
:101B9000C053DF4FA881C05DD040CF52DF4FF881E6
:101BA000C15DD040CE52DF4FE881C25DD0406B2F87
:101BB0007A2F8F2F9E2F0E9451549B01AC01C70199
:101BC000B6010E942B526B017C01CD55DF4F58812D
:101BD000C35AD040CB55DF4F4881C55AD040C95574
:101BE000DF4F3881C75AD040C755DF4F2881C95AC7
:101BF000D040852F942FA32FB22F809390029093E3
:101C00009102A0939202B0939302A101C555DF4FB8
:101C10003881CB5AD040C355DF4F2881CD5AD040B0
:101C2000852F942FA32FB22F809394029093950227
:101C3000A0939602B0939702A8019301852F942F49
:101C4000A32FB22F8093980290939902A0939A02A7
:101C5000B0939B028C2D9D2DAE2DBF2D80939C02A9
:101C600090939D02A0939E02B0939F02CD55DF4FAB
:101C70007881C35AD040CB55DF4F6881C55AD040D8
:101C8000C955DF4F9881C75AD040C755DF4F88816B
:101C9000C95AD040272F362F492F582FDB01FC017E
:101CA0006B2F7A2F8F2F9E2F0E945154C554DF4FD8
:101CB0006883CB5BD040C454DF4F7883CC5BD0408B
:101CC000C354DF4F8883CD5BD040C254DF4F98832D
:101CD000CE5BD040B101C555DF4F9881CB5AD04083
:101CE000C355DF4F8881CD5AD040272F362F492F3B
:101CF000582FD101FC016B2F7A2F8F2F9E2F0E941E
:101D00005154CE53DF4F6883C25CD040C753DF4F7E
:101D10007883C95CD040C653DF4F8883CA5CD0400B
:101D2000C253DF4F9883CE5CD040B801C301272F48
:101D3000362F492F582FD801F3016B2F7A2F8F2F71
:101D40009E2F0E945154B62EA72E982E892E2C2DF0
:101D50003D2D4E2D5F2D6C2D7D2D8E2D9F2D0E94A6
:101D60005154562E472EC155DF4F8883CF5AD0404D
:101D7000CD54DF4F9883C35BD040CE53DF4F788183
:101D8000C25CD040C753DF4F6881C95CD040C653A6
:101D9000DF4F9881CA5CD040C253DF4F8881CE5C50
:101DA000D040272F362F492F582FC554DF4FB881E9
:101DB000CB5BD040C454DF4FA881CC5BD040C35430
:101DC000DF4FF881CD5BD040C254DF4FE881CE5B5E
:101DD000D0406B2F7A2F8F2F9E2F0E942B52D50130
:101DE000F4012B2F3A2F4F2F5E2F0E942A52D2013F
:101DF000C155DF4FF881CF5AD040CD54DF4FE88135
:101E0000C35BD0402B2F3A2F4F2F5E2F0E942A52B8
:101E10006093F4067093F5068093F6069093F706A8
:101E2000B801C301272F362F492F582FD101C5558F
:101E3000DF4FF881CB5AD040C355DF4FE881CD5AF0
:101E4000D0406B2F7A2F8F2F9E2F0E945154C15359
:101E5000DF4F6883CF5CD040C053DF4F7883C05DD5
:101E6000D040CF52DF4F8883C15DD040CE52DF4F8C
:101E70009883C25DD0402C2D3D2D4E2D5F2DCD552C
:101E8000DF4FB881C35AD040CB55DF4FA881C55A28
:101E9000D040C955DF4FF881C75AD040C755DF4FF2
:101EA000E881C95AD0406B2F7A2F8F2F9E2F0E9426
:101EB0005154CD52DF4F6883C35DD040CA53DF4FCA
:101EC0007883C65CD040C953DF4F8883C75CD0405D
:101ED000C853DF4F9883C85CD040762FCA53DF4F7A
:101EE0006881C65CD040982FC853DF4F8881C85C9A
:101EF000D040272F362F492F582FC153DF4FB8819D
:101F0000CF5CD040C053DF4FA881C05DD040CF52DE
:101F1000DF4FF881C15DD040CE52DF4FE881C25D16
:101F2000D0406B2F7A2F8F2F9E2F0E942B529B0118
:101F3000AC010E942B526093F8067093F9068093CF
:101F4000FA069093FB062C2D3D2D4E2D5F2DD101D1
:101F5000C555DF4FF881CB5AD040C355DF4FE881DC
:101F6000CD5AD0406B2F7A2F8F2F9E2F0E94515425
:101F7000CA52DF4F6883C65DD040C150DF4F7883BF
:101F8000CF5FD040C050DF4F8883C050D140C9528E
:101F9000DF4F9883C75DD040B801C301272F362F8C
:101FA000492F582FCD55DF4FB881C35AD040CB555C
:101FB000DF4FA881C55AD040C955DF4FF881C75AB5
:101FC000D040C755DF4FE881C95AD0406B2F7A2FD8
:101FD0008F2F9E2F0E945154C552DF4F6883CB5DD7
:101FE000D040CD51DF4F7883C35ED040CC52DF4F1D
:101FF0008883C45DD040CB52DF4F9883C55DD0400D
:10200000762FCD51DF4F6881C35ED040982FCB52E1
:10201000DF4F8881C55DD040272F362F492F582F9D
:10202000CA52DF4FB881C65DD040C150DF4FA88192
:10203000CF5FD040C050DF4FF881C050D140C9526F
:10204000DF4FE881C75DD0406B2F7A2F8F2F9E2FF7
:102050000E942A529B01AC010E942B52CD5ADE4FA6
:102060006883C355D140CC5ADE4F7883C455D140E4
:10207000CB5ADE4F8883C555D140CA5ADE4F98836C
:10208000C655D140472F382F292F862F942FA32FA5
:10209000B22F8093FC069093FD06A093FE06B093AA
:1020A000FF06CD52DF4F7881C35DD040CA53DF4F6A
:1020B0006881C65CD040C953DF4F9881C75CD0406F
:1020C000C853DF4F8881C85CD040272F362F492F57
:1020D000582FC153DF4FB881CF5CD040C053DF4F82
:1020E000A881C05DD040CF52DF4FF881C15DD040A4
:1020F000CE52DF4FE881C25DD0406B2F7A2F8F2FF9
:102100009E2F0E942A529B01AC010E942B52609389
:102110000007709301078093020790930307CE5343
:10212000DF4F7881C25CD040C753DF4F6881C95C04
:10213000D040C653DF4F9881CA5CD040C253DF4FB6
:102140008881CE5CD040272F362F492F582FC55479
:10215000DF4FB881CB5BD040C454DF4FA881CC5B4C
:10216000D040C354DF4FF881CD5BD040C254DF4F25
:10217000E881CE5BD0406B2F7A2F8F2F9E2F0E944D
:102180002A52C554DF4F6883CB5BD040C454DF4F25
:102190007883CC5BD040C354DF4F8883CD5BD04085
:1021A000C254DF4F9883CE5BD040762FC454DF4FAC
:1021B0006881CC5BD040982FC254DF4F8881CE5BC2
:1021C000D040272F362F492F582FD501F4016B2FE0
:1021D0007A2F8F2F9E2F0E942B52D201C155DF4F95
:1021E000F881CF5AD040CD54DF4FE881C35BD04057
:1021F0002B2F3A2F4F2F5E2F0E942A5260930407F5
:102200007093050780930607909307072C2D3D2DAB
:102210004E2D5F2DD801F3016B2F7A2F8F2F9E2F1C
:102220000E945154D62EC72E782E692EB101C55565
:10223000DF4F9881CB5AD040C355DF4F8881CD5AAC
:10224000D040272F362F492F582FCD55DF4FB8813B
:10225000C35AD040CB55DF4FA881C55AD040C9558D
:10226000DF4FF881C75AD040C755DF4FE881C95AC0
:10227000D0406B2F7A2F8F2F9E2F0E945154162FF4
:10228000072FF82EE92EB801C701272F362F492F27
:10229000582FD601F3016B2F7A2F8F2F9E2F0E947C
:1022A0002B529B01AC010E942B52C95ADE4F68830E
:1022B000C755D140C85ADE4F7883C855D140C75A58
:1022C000DE4F8883C955D140C65ADE4F9883CA5520
:1022D000D140472F382F292F862F942FA32FB22F8D
:1022E0008093080790930907A0930A07B0930B0700
:1022F000C552DF4F7881CB5DD040CD51DF4F688133
:10230000C35ED040CC52DF4F9881C45DD040CB52E9
:10231000DF4F8881C55DD040272F362F492F582F9A
:10232000CA52DF4FB881C65DD040C150DF4FA8818F
:10233000CF5FD040C050DF4FF881C050D140C9526C
:10234000DF4FE881C75DD0406B2F7A2F8F2F9E2FF4
:102350000E942B529B01AC010E942B5260930C07F0
:1023600070930D0780930E0790930F07B801C70174
:10237000272F362F492F582FD601F3016B2F7A2F95
:102380008F2F9E2F0E942A529B01AC010E942B523C
:1023900060931007709311078093120790931307AF
:1023A000B501C401272F362F492F582FC554DF4FB1
:1023B000B881CB5BD040C454DF4FA881CC5BD04008
:1023C000C354DF4FF881CD5BD040C254DF4FE8816A
:1023D000CE5BD0406B2F7A2F8F2F9E2F0E942A52D8
:1023E0009B01AC01D201C155DF4FF881CF5AD040DB
:1023F000CD54DF4FE881C35BD0406B2F7A2F8F2FF6
:102400009E2F0E942B52C55ADE4F6883CB55D14078
:10241000C45ADE4F7883CC55D140C35ADE4F8883EF
:10242000CD55D140C25ADE4F9883CE55D140472F6B
:10243000382F292F862F942FA32FB22F8093140784
:1024400090931507A0931607B0931707809156062F
:102450009091570618161906ACF51092F4061092D2
:10246000F5061092F6061092F7061092F8061092F2
:10247000F9061092FA061092FB06109200071092CD
:10248000010710920207109203071092040710929E
:102490000507109206071092070710920C0710927A
:1024A0000D0710920E0710920F071092100710924E
:1024B0001107109212071092130701979093570675
:1024C00080935606DE01AF5BBF4FCF55DF4FB98318
:1024D000A883C15AD04080E41D928A95E9F780E034
:1024E00090E0A0E8BFE325968CAF9DAFAEAFBFAF45
:1024F000259769968CAF9DAFAEAFBFAF6997AD968C
:102500008CAF9DAFAEAFBFAFAD97C358DF4F8883E1
:102510009983AA83BB83CD57D040C954DF4F28810C
:1025200039814A815B81C75BD04029962CAF3DAF92
:102530004EAF5FAF2997CA01B9010E94515420E004
:1025400030E040E05FE30E9451542D966CAF7DAFC8
:102550008EAF9FAF2D97C954DF4F88819981AA8193
:10256000BB81C75BD0406D968CAF9DAFAEAFBFAFA8
:102570006D97C0902403D0902503E0902603F0903F
:102580002703209128033091290340912A03509179
:102590002B03C55CDE4F288339834A835B83CB538F
:1025A000D140A7019601BC01CD010E945154209158
:1025B00020033091210340912203509123030E9474
:1025C0002B524B015C0120E030E040E05FE3C55C52
:1025D000DE4F688179818A819B81CB53D1400E94F3
:1025E00051549B01AC01C954DF4F688179818A81C4
:1025F0009B81C75BD0400E9451549B01AC01C954E0
:10260000DF4F688179818A819B81C75BD0400E94BE
:1026100051549B01AC01C501B4010E942B52C15C15
:10262000DE4F6883CF53D140C05CDE4F7883C05407
:10263000D140CF5BDE4F8883C154D140CE5BDE4FAB
:102640009883C254D140C55CDE4F288139814A81CC
:102650005B81CB53D140C954DF4F688179818A8136
:102660009B81C75BD0400E9451549B01AC01C701C4
:10267000B6010E942B52C959DE4F6883C756D1401C
:10268000C859DE4F7883C856D140C759DE4F88837A
:10269000C956D140C659DE4F9883CA56D140809161
:1026A0002C0390912D03A0912E03B0912F03C95BB1
:1026B000DE4F88839983AA83BB83C754D140C15519
:1026C000DF4F19821882CF5AD040C155DF4FA88101
:1026D000B981CF5AD040A295B295B07FBA27A07FDA
:1026E000BA27A052BD4FC355DF4FB983A883CD5A37
:1026F000D040C955DF4F19821882C75AD04044E1F3
:10270000C155DF4F28813981CF5AD040429FF00117
:10271000439FF00D112481E490E08C0F9D1F8E0FDC
:102720009F1FCD54DF4F99838883C35BD040CD5426
:10273000DF4F48815981C35BD040C755DF4F598374
:102740004883C95AD040C155DF4F88819981CF5AFB
:10275000D040CB55DF4F99838883C55AD040212C78
:10276000312C912C812C24E1C955DF4FE881F9816E
:10277000C75AD0402E9FD0012F9FB00D112441E4A5
:1027800050E04C0F5D1F4A0F5B1FC555DF4F59834B
:102790004883CB5AD040C755DF4FA881B981C95A69
:1027A000D0404D905D906D907D90C755DF4FB983BF
:1027B000A883C95AD040CB55DF4F08811981C55A2B
:1027C000D040000F111F000F111FC955DF4FE881C6
:1027D000F981C75AD0400E0F1F1F000F111F000FA5
:1027E000111F00561D4FC555DF4F28813981CB5A27
:1027F000D040CD55DF4F39832883C35AD0405F0185
:10280000D8016D917D918D919D918D01CD55DF4FB9
:10281000E881F981C35AD040C190D190E190F19004
:10282000CD55DF4FF983E883C35AD040A30192010D
:102830000E945154A70196010E9451549B01AC0182
:10284000F401622D732D8F2F982D0E942B521B01A6
:10285000982E892EFFEFAF1ABF0A24E0A216B1040A
:102860007CF2CB55DF4F48815981C55AD0404F5F2C
:102870005F4FCB55DF4F59834883C55AD040443012
:1028800051050CF488CFCB01A92DB82DC355DF4FCE
:10289000E881F981CD5AD04081939193A193B1936E
:1028A000C355DF4FF983E883CD5AD040C955DF4F78
:1028B00028813981C75AD0402F5F3F4FC955DF4F1C
:1028C00039832883C75AD0402430310509F02FCFEF
:1028D000C155DF4F88819981CF5AD0400196C155AB
:1028E000DF4F99838883CF5AD040049709F0EDCE0B
:1028F00020E030E04AE755E4C954DF4F6881798130
:102900008A819B81C75BD0400E945154162F072FAC
:10291000F82EE92E209108033091090340910A0313
:1029200050910B03D801F7016B2F7A2F8F2F9E2F19
:102930000E942B52CD54DF4F6883C35BD040C554F7
:10294000DF4F7883CB5BD040C454DF4F8883CC5BB0
:10295000D040C354DF4F9883CD5BD040472F382FF2
:10296000292F862F942FA32FB22F809308039093A3
:102970000903A0930A03B0930B03B801C701272FE3
:10298000362F492F582FC954DF4F688179818A81AA
:102990009B81C75BD0400E945154D62EC72EB82EC3
:1029A000A92E20E030E040E05FE3D601F5016B2F77
:1029B0007A2F8F2F9E2F0E945154162F072FF82EFB
:1029C000E92E2091040330910503409106035091B4
:1029D0000703D801F7016B2F7A2F8F2F9E2F0E94AC
:1029E0002B52C55EDE4F6883CB51D140C45EDE4FB3
:1029F0007883CC51D140C35EDE4F8883CD51D14026
:102A0000C25EDE4F9883CE51D140472F382F292FF9
:102A1000862F942FA32FB22F809304039093050346
:102A2000A0930603B09307032091F8023091F902B6
:102A30004091FA025091FB02D801F7016B2F7A2FD7
:102A40008F2F9E2F0E942B52C253DF4F6883CE5C84
:102A5000D040C153DF4F7883CF5CD040C053DF4FAD
:102A60008883C05DD040CF52DF4F9883C15DD04096
:102A7000472F382F292F862F942FA32FB22F8093E3
:102A8000F8029093F902A093FA02B093FB02B60108
:102A9000C501272F362F492F582FC954DF4F688182
:102AA00079818A819B81C75BD0400E945154162F47
:102AB000072FF82EE92E20E030E040EC50E4D8015A
:102AC000F7016B2F7A2F8F2F9E2F0E94AA52D62E9E
:102AD000C72EB82EA92E2091E8023091E90240912C
:102AE000EA025091EB02D601F5016B2F7A2F8F2F5E
:102AF0009E2F0E942B52362E272ECD55DF4F8883D6
:102B0000C35AD040CB55DF4F9883C55AD040A1015E
:102B1000382F292F852F942FA32FB22F8093E802CF
:102B20009093E902A093EA02B093EB0220E030E038
:102B300040E450E4D801F7016B2F7A2F8F2F9E2F9E
:102B40000E94AA522091F4023091F5024091F602BF
:102B50005091F7020E942B52C15EDE4F6883CF5125
:102B6000D140C05EDE4F7883C052D140CF5DDE4F92
:102B70008883C152D140CE5DDE4F9883C252D1408E
:102B8000472F382F292F862F942FA32FB22F8093D2
:102B9000F4029093F502A093F602B093F70220910D
:102BA0000003309101034091020350910303D601C9
:102BB000F5016B2F7A2F8F2F9E2F0E942B52CE5212
:102BC000DF4F6883C25DD040CD52DF4F7883C35D55
:102BD000D040CA53DF4F8883C65CD040C953DF4F13
:102BE0009883C75CD040472F382F292F862F942FEA
:102BF000A32FB22F8093000390930103A0930203AD
:102C0000B0930303B801C701272F362F492F582F40
:102C1000C954DF4F688179818A819B81C75BD0402D
:102C20000E945154D62EC72EB82EA92E20E030E097
:102C300040E05EE3D601F5016B2F7A2F8F2F9E2F98
:102C40000E945154162F072FF82EE92E2091E402EE
:102C50003091E5024091E6025091E702D801F70178
:102C60006B2F7A2F8F2F9E2F0E942B52CD5DDE4F20
:102C70006883C352D140CC5DDE4F7883C452D140CB
:102C8000CB5DDE4F8883C552D140CA5DDE4F98834D
:102C9000C652D140472F382F292F862F942FA32F8C
:102CA000B22F8093E4029093E502A093E602B093E2
:102CB000E7022091F0023091F1024091F20250912E
:102CC000F302D801F7016B2F7A2F8F2F9E2F0E94CE
:102CD0002B52C853DF4F6883C85CD040CA52DF4FC5
:102CE0007883C65DD040C150DF4F8883CF5FD0402E
:102CF000C050DF4F9883C050D140472F382F292F25
:102D0000862F942FA32FB22F8093F0029093F1027D
:102D1000A093F202B093F302B601C501272F362F1C
:102D2000492F582FC954DF4F688179818A819B814F
:102D3000C75BD0400E94515420E030E040EA51E4AB
:102D40000E94AA522091E0023091E1024091E202F9
:102D50005091E3020E942B52C955DF4F6883C75A36
:102D6000D040C755DF4F7883C95AD040C555DF4F93
:102D70008883CB5AD040C355DF4F9883CD5AD0407B
:102D8000472F382F292F862F942FA32FB22F8093D0
:102D9000E0029093E102A093E202B093E3022FE2FB
:102DA00039E64DE95CE3C954DF4F688179818A8156
:102DB0009B81C75BD0400E94515420911C033091ED
:102DC0001D0340911E0350911F030E942B52C954B2
:102DD000DF4F6883C75BD040C254DF4F7883CE5B40
:102DE000D040CE53DF4F8883C25CD040C753DF4F03
:102DF0009883C95CD040472F382F292F862F942FD6
:102E0000A32FB22F80931C0390931D03A0931E0346
:102E1000B0931F030091C2061091C30620913003A6
:102E2000309131034091320350913303C55BDE4F43
:102E3000288339834A835B83CB54D14020E030E040
:102E4000A901C55BDE4F688179818A819B81CB5462
:102E5000D1400E94A65287FF02C00C942F3DB801BA
:102E600080E090E00E9443532DEB37E346E055E3CA
:102E70000E9451542FE135E24AEA53E40E94515432
:102E8000262F372F482F592F0E94515427E137EB17
:102E900041ED59E30E942B52C955DF4FB881C75A03
:102EA000D040C755DF4FA881C95AD040C555DF4F24
:102EB000F881CB5AD040C355DF4FE881CD5AD0407E
:102EC0002B2F3A2F4F2F5E2F0E942B52C451DF4FD2
:102ED0006883CC5ED040C051DF4F7883C05FD04064
:102EE000CC50DF4F8883C45FD040C850DF4F9883F9
:102EF000C85FD0408091EC029091ED02A091EE026B
:102F0000B091EF02C155DF4F88839983AA83BB83B9
:102F1000CF5AD0409C01AD01C955DF4FB881C75A87
:102F2000D040C755DF4FA881C95AD040C555DF4FA3
:102F3000F881CB5AD040C355DF4FE881CD5AD040FD
:102F40006B2F7A2F8F2F9E2F0E942A52162F072F1A
:102F5000B82EA92E2CEE31E548EB5DE3CD54DF4FC2
:102F6000B881C35BD040C554DF4FA881CB5BD04054
:102F7000C454DF4FF881CC5BD040C354DF4FE881AD
:102F8000CD5BD0406B2F7A2F8F2F9E2F0E942B521C
:102F9000C450DF4F6883CC5FD040C350DF4F78838D
:102FA000CD5FD040C250DF4F8883CE5FD040C15F3D
:102FB000DE4F9883CF50D14020910C0330910D0308
:102FC00040910E0350910F03C653DF4F288339837E
:102FD0004A835B83CA5CD040D101CD55DF4FF88175
:102FE000C35AD040CB55DF4FE881C55AD0406B2F34
:102FF000722D8F2F9E2F0E942A52962E872E782E6A
:10300000692EC954DF4F7881C75BD040C254DF4F6F
:103010006881CE5BD040CE53DF4F9881C25CD040F8
:10302000C753DF4F8881C95CD040272F362F492FE7
:10303000582FC955DF4FB881C75AD040C755DF4F09
:10304000A881C95AD040C555DF4FF881CB5AD0402E
:10305000C355DF4FE881CD5AD0406B2F7A2F8F2F89
:103060009E2F0E942B526B017C01C155DF4F28819E
:1030700039814A815B81CF5AD040CA01B9010E948F
:103080002B529B01AC01C701B6010E942A5220E0DD
:1030900030E048EC52E40E942B52CD51DF4F688360
:1030A000C35ED040C951DF4F7883C75ED040C8515E
:1030B000DF4F8883C85ED040C751DF4F9883C95E19
:1030C000D040C450DF4F7881CC5FD040C350DF4F39
:1030D0006881CD5FD040C250DF4F9881CE5FD04035
:1030E000C15FDE4F8881CF50D140272F362F492F27
:1030F000582FC451DF4FB881CC5ED040C051DF4F54
:10310000A881C05FD040CC50DF4FF881C45FD04071
:10311000C850DF4FE881C85FD0406B2F7A2F8F2FC8
:103120009E2F0E945154C05FDE4F6883C051D14032
:10313000CF5EDE4F7883C151D140CE5EDE4F8883B3
:10314000C251D140CD5EDE4F9883C351D140B4010E
:10315000C301272F362F492F582FD101CD55DF4FCF
:10316000F881C35AD040CB55DF4FE881C55AD040D3
:103170006B2F722D8F2F9E2F0E945154CC52DF4FF8
:103180006883C45DD040CB52DF4F7883C55DD040AB
:10319000C651DF4F8883CA5ED040C551DF4F988348
:1031A000CB5ED040B801C501272F362F492F582FAD
:1031B000D101CD55DF4FF881C35AD040CB55DF4FF9
:1031C000E881C55AD0406B2F722D8F2F9E2F0E9401
:1031D0005154CC5EDE4F6883C451D140CB5EDE4F8C
:1031E0007883C551D140CA5EDE4F8883C651D14035
:1031F000C95EDE4F9883C751D140B401C301272F68
:10320000362F492F582FC451DF4FB881CC5ED040A4
:10321000C051DF4FA881C05FD040CC50DF4FF88154
:10322000C45FD040C850DF4FE881C85FD0406B2FEB
:103230007A2F8F2F9E2F0E945154C85EDE4F6883D5
:10324000C851D140C75EDE4F7883C951D140C65EB8
:10325000DE4F8883CA51D140C95DDE4F9883C75283
:10326000D140B101CD55DF4F9881C35AD040CB55E5
:10327000DF4F8881C55AD040272F322D492F582F34
:10328000D101FC016B2F722D8F2F9E2F0E94515464
:10329000C55DDE4F6883CB52D140C15DDE4F788380
:1032A000CF52D140CD5CDE4F8883C353D140C95C3F
:1032B000DE4F9883C753D140C450DF4F7881CC5F35
:1032C000D040C350DF4F6881CD5FD040C250DF4F48
:1032D0009881CE5FD040C15FDE4F8881CF50D14012
:1032E000272F362F492F582FD801F5016B2F7A2F12
:1032F0008F2F9E2F0E945154C750DF4F6883C95FA4
:10330000D040C650DF4F7883CA5FD040C550DF4FF2
:103310008883CB5FD040CE5FDE4F9883C250D140D0
:10332000CD51DF4F7881C35ED040C951DF4F6881F6
:10333000C75ED040C851DF4F9881C85ED040C751AA
:10334000DF4F8881C95ED040272F362F492F582F55
:10335000C05FDE4FB881C051D140CF5EDE4FA88143
:10336000C151D140CE5EDE4FF881C251D140CD5E19
:10337000DE4FE881C351D1406B2F7A2F8F2F9E2FC4
:103380000E9451546B017C01CC52DF4F7881C45DA7
:10339000D040CB52DF4F6881C55DD040C651DF4F72
:1033A0009881CA5ED040C551DF4F8881CB5ED04046
:1033B000272F362F492F582FD101CD55DF4FF881B8
:1033C000C35AD040CB55DF4FE881C55AD0406B2F50
:1033D000722D8F2F9E2F0E9451549B01AC01C7016B
:1033E000B6010E942B526B017C01B401C301272F4F
:1033F000362F492F582FCC5EDE4FB881C451D140B3
:10340000CB5EDE4FA881C551D140CA5EDE4FF88148
:10341000C651D140C95EDE4FE881C751D1406B2F04
:103420007A2F8F2F9E2F0E9451549B01AC01C70110
:10343000B6010E942B526B017C01B401C301272FFE
:10344000362F492F582FC85EDE4FB881C851D14062
:10345000C75EDE4FA881C951D140C65EDE4FF881FC
:10346000CA51D140C95DDE4FE881C752D1406B2FB0
:103470007A2F8F2F9E2F0E9451549B01AC01C701C0
:10348000B6010E942A526B017C01CD51DF4F788139
:10349000C35ED040C951DF4F6881C75ED040C8517C
:1034A000DF4F9881C85ED040C751DF4F8881C95E29
:1034B000D040272F362F492F582FC55DDE4FB881BA
:1034C000CB52D140C15DDE4FA881CF52D140CD5CFF
:1034D000DE4FF881C353D140C95CDE4FE881C7534A
:1034E000D1406B2F7A2F8F2F9E2F0E9451549B011A
:1034F000AC01C701B6010E942A526B017C01B801E0
:10350000C501272F362F492F582FC750DF4FB881BD
:10351000C95FD040C650DF4FA881CA5FD040C550B8
:10352000DF4FF881CB5FD040CE5FDE4FE881C250E5
:10353000D1406B2F7A2F8F2F9E2F0E9451549B01C9
:10354000AC01C701B6010E942A52562E472EC9521D
:10355000DF4F8883C75DD040C552DF4F9883CB5D76
:10356000D040B401C301272F362F492F582FD8013F
:10357000F5016B2F7A2F8F2F9E2F0E9451546B01D4
:103580007C01CD51DF4F7881C35ED040C951DF4F00
:103590006881C75ED040C851DF4F9881C85ED04077
:1035A000C751DF4F8881C95ED040272F362F492F62
:1035B000582FD101CD55DF4FF881C35AD040CB559C
:1035C000DF4FE881C55AD0406B2F722D8F2F9E2F71
:1035D0000E9451549B01AC01C701B6010E942A52BE
:1035E000D201C952DF4FF881C75DD040C552DF4FCD
:1035F000E881CB5DD0402B2F3A2F4F2F5E2F0E94BA
:10360000AA52CF5FDE4F6883C150D140CD5FDE4FFD
:103610007883C350D140C95FDE4F8883C750D14003
:10362000C55FDE4F9883CB50D140C750DF4F7881C4
:10363000C95FD040C650DF4F6881CA5FD040C550D7
:10364000DF4F9881CB5FD040CE5FDE4F8881C25084
:10365000D140272F362F492F582FCC52DF4FB8811A
:10366000C45DD040CB52DF4FA881C55DD040C6516C
:10367000DF4FF881CA5ED040C551DF4FE881CB5E95
:10368000D0406B2F7A2F8F2F9E2F0E942A52D2016B
:10369000C952DF4FF881C75DD040C552DF4FE88186
:1036A000CB5DD0402B2F3A2F4F2F5E2F0E94AA5276
:1036B000CC52DF4F6883C45DD040CB52DF4F78835C
:1036C000C55DD040C651DF4F8883CA5ED040C5512A
:1036D000DF4F9883CB5ED040CD51DF4F7881C35E02
:1036E000D040C951DF4F6881C75ED040C851DF4F1D
:1036F0009881C85ED040C751DF4F8881C95ED040F5
:10370000272F362F492F582FC451DF4FB881CC5E59
:10371000D040C051DF4FA881C05FD040CC50DF4FB8
:10372000F881C45FD040C850DF4FE881C85FD04007
:103730006B2F7A2F8F2F9E2F0E9451546B017C018B
:10374000B801C501272F362F492F582FD801F50171
:103750006B2F7A2F8F2F9E2F0E9451549B01AC010B
:10376000C701B6010E942A52D201C952DF4FF88127
:10377000C75DD040C552DF4FE881CB5DD0402B2FD5
:103780003A2F4F2F5E2F0E94AA52C750DF4F6883F7
:10379000C95FD040C650DF4F7883CA5FD040C55064
:1037A000DF4F8883CB5FD040CE5FDE4F9883C2501F
:1037B000D140C85EDE4F7881C851D140C75EDE4F30
:1037C0006881C951D140C65EDE4F9881CA51D1404F
:1037D000C95DDE4F8881C752D140272F362F492F30
:1037E000582FCC5EDE4FB881C451D140CB5EDE4F46
:1037F000A881C551D140CA5EDE4FF881C651D14083
:10380000C95EDE4FE881C751D1406B2F7A2F8F2FD1
:103810009E2F0E942A52D201C952DF4FF881C75D04
:10382000D040C552DF4FE881CB5DD0402B2F3A2FDF
:103830004F2F5E2F0E94AA52162F072FB82EA92EA7
:10384000C55DDE4F7881CB52D140C15DDE4F6881CE
:10385000CF52D140CD5CDE4F9881C353D140C95C7B
:10386000DE4F8881C753D140272F362F492F582F3D
:10387000C05FDE4FB881C051D140CF5EDE4FA8811E
:10388000C151D140CE5EDE4FF881C251D140CD5EF4
:10389000DE4FE881C351D1406B2F7A2F8F2F9E2F9F
:1038A0000E942A52D201C952DF4FF881C75DD04031
:1038B000C552DF4FE881CB5DD0402B2F3A2F4F2FE1
:1038C0005E2F0E94AA52C451DF4F6883CC5ED04065
:1038D000C051DF4F7883C05FD040CC50DF4F88832A
:1038E000C45FD040C850DF4F9883C85FD040CD51EF
:1038F000DF4F7881C35ED040C951DF4F6881C75E1A
:10390000D040C851DF4F9881C85ED040C751DF4FCB
:103910008881C95ED040272F362F492F582FC45099
:10392000DF4FB881CC5FD040C350DF4FA881CD5F5F
:10393000D040C250DF4FF881CE5FD040C15FDE4F34
:10394000E881CF50D1406B2F7A2F8F2F9E2F0E946E
:1039500051546B017C01B401C301272F362F492F2D
:10396000582FD401F3016B2F7A2F8F2F9E2F0E9497
:1039700051549B01AC01C701B6010E942A52D201E9
:10398000C952DF4FF881C75DD040C552DF4FE88193
:10399000CB5DD0402B2F3A2F4F2F5E2F0E94AA5283
:1039A000CC52DF4FB881C45DD040CB52DF4FA881ED
:1039B000C55DD040C651DF4FF881CA5ED040C551C9
:1039C000DF4FE881CB5ED0402B2F3A2F4F2F5E2F59
:1039D0000E942B52962E872E782E692EB401C30199
:1039E000272F362F492F582FC955DF4FB881C75A77
:1039F000D040C755DF4FA881C95AD040C555DF4FC9
:103A0000F881CB5AD040C355DF4FE881CD5AD04022
:103A10006B2F7A2F8F2F9E2F0E9451546B017C01A8
:103A2000CF5FDE4F7881C150D140CD5FDE4F6881DE
:103A3000C350D140C95FDE4F9881C750D140C55FA8
:103A4000DE4F8881CB50D140272F362F492F582F5A
:103A5000D101CD55DF4FF881C35AD040CB55DF4F50
:103A6000E881C55AD0406B2F722D8F2F9E2F0E9458
:103A700051549B01AC01C701B6010E942B526B014E
:103A80007C01CC52DF4F7881C45DD040CB52DF4FF8
:103A90006881C55DD040C651DF4F9881CA5ED04075
:103AA000C551DF4F8881CB5ED040272F362F492F5D
:103AB000582FC155DF4F688179818A819B81CF5A08
:103AC000D0400E9451549B01AC01C701B6010E9435
:103AD0002A52C15ADE4F6883CF55D140C05ADE4FBB
:103AE0007883C056D140CF59DE4F8883C156D1402C
:103AF000CE59DE4F9883C256D140B801C501272F59
:103B0000362F492F582FCF5FDE4FB881C150D1409B
:103B1000CD5FDE4FA881C350D140C95FDE4FF88131
:103B2000C750D140C55FDE4FE881CB50D1406B2FED
:103B30007A2F8F2F9E2F0E942B52562E472EC9511F
:103B4000DF4F8883C75ED040C851DF4F9883C85E7F
:103B5000D040B201982FC851DF4F8881C85ED04055
:103B6000272F362F492F582FC955DF4FB881C75AF5
:103B7000D040C755DF4FA881C95AD040C555DF4F47
:103B8000F881CB5AD040C355DF4FE881CD5AD040A1
:103B90006B2F7A2F8F2F9E2F0E9451546B017C0127
:103BA000C750DF4F7881C95FD040C650DF4F688172
:103BB000CA5FD040C550DF4F9881CB5FD040CE5F09
:103BC000DE4F8881C250D140272F362F492F582FE2
:103BD000D101CD55DF4FF881C35AD040CB55DF4FCF
:103BE000E881C55AD0406B2F722D8F2F9E2F0E94D7
:103BF00051549B01AC01C701B6010E942B526B01CD
:103C00007C01B801C501272F362F492F582FC155E8
:103C1000DF4F688179818A819B81CF5AD0400E9491
:103C200051549B01AC01C701B6010E942A52462F94
:103C3000572F682F792FC95DDE4F488359836A83D8
:103C40007B83C752D140C451DF4F7881CC5ED040D6
:103C5000C051DF4F6881C05FD040CC50DF4F9881AA
:103C6000C45FD040C850DF4F8881C85FD040272F45
:103C7000362F492F582FCC52DF4FB881C45DD0402A
:103C8000CB52DF4FA881C55DD040C651DF4FF881D0
:103C9000CA5ED040C551DF4FE881CB5ED0406B2F6C
:103CA0007A2F8F2F9E2F0E942B52C751DF4F688390
:103CB000C95ED040C450DF4F7883CC5FD040C35042
:103CC000DF4F8883CD5FD040C250DF4F9883CE5FF7
:103CD000D040762FC450DF4F6881CC5FD040982F02
:103CE000C250DF4F8881CE5FD040272F362F492F1B
:103CF000582FC955DF4FB881C75AD040C755DF4F3D
:103D0000A881C95AD040C555DF4FF881CB5AD04061
:103D1000C355DF4FE881CD5AD0406B2F7A2F8F2FBC
:103D20009E2F0E9451546B017C01B801C501272FC1
:103D3000362F492F582FD101CD55DF4FF881C35A67
:103D4000D040CB55DF4FE881C55AD0406B2F722D44
:103D50008F2F9E2F0E9451549B01AC01C701B601C9
:103D60000E942B526B017C01C451DF4F7881CC5EE5
:103D7000D040C051DF4F6881C05FD040CC50DF4F92
:103D80009881C45FD040C850DF4F8881C85FD04061
:103D9000272F362F492F582FC155DF4F6881798142
:103DA0008A819B81CF5AD0400E9451549B01AC0123
:103DB000C701B6010E942A52C15FDE4F6883CF500F
:103DC000D140C05FDE4F7883C051D140CF5EDE4F1F
:103DD0008883C151D140CE5EDE4F9883C251D1401D
:103DE0008091FC029091FD02A091FE02B091FF0231
:103DF000C952DF4F88839983AA83BB83C75DD040B4
:103E0000B401C301272F362F492F582FC853DF4F36
:103E1000B881C85CD040CA52DF4FA881C65DD0408F
:103E2000C150DF4FF881CF5FD040C050DF4FE881F5
:103E3000C050D1406B2F7A2F8F2F9E2F0E9451544C
:103E40006B017C01CF5FDE4F7881C150D140CD5FE7
:103E5000DE4F6881C350D140C95FDE4F9881C750A3
:103E6000D140C55FDE4F8881CB50D140272F362F00
:103E7000492F582FC253DF4FB881CE5CD040C15379
:103E8000DF4FA881CF5CD040C053DF4FF881C05DC9
:103E9000D040CF52DF4FE881C15DD0406B2F7A2FE9
:103EA0008F2F9E2F0E9451549B01AC01C701B60178
:103EB0000E942B526B017C01CC52DF4F7881C45D94
:103EC000D040CB52DF4F6881C55DD040C651DF4F37
:103ED0009881CA5ED040C551DF4F8881CB5ED0400B
:103EE000272F362F492F582FC952DF4F68817981EC
:103EF0008A819B81C75DD0400E9451549B01AC01D7
:103F0000C701B6010E942A52462F572F682F792FDA
:103F1000C55DDE4F488359836A837B83CB52D14092
:103F2000B201C951DF4F9881C75ED040C851DF4F01
:103F30008881C85ED040272F362F492F582FC8536D
:103F4000DF4FB881C85CD040CA52DF4FA881C65D40
:103F5000D040C150DF4FF881CF5FD040C050DF4F1D
:103F6000E881C050D1406B2F7A2F8F2F9E2F0E9457
:103F700051546B017C01C750DF4F7881C95FD0403D
:103F8000C650DF4F6881CA5FD040C550DF4F98816F
:103F9000CB5FD040CE5FDE4F8881C250D140272F0B
:103FA000362F492F582FC253DF4FB881CE5CD040F7
:103FB000C153DF4FA881CF5CD040C053DF4FF881A1
:103FC000C05DD040CF52DF4FE881C15DD0406B2F44
:103FD0007A2F8F2F9E2F0E9451549B01AC01C70155
:103FE000B6010E942B526B017C01C952DF4F288120
:103FF00039814A815B81C75DD040D801F5016B2FC3
:104000007A2F8F2F9E2F0E9451549B01AC01C70124
:10401000B6010E942A52462F572F682F792FC15D73
:10402000DE4F488359836A837B83CF52D140C75187
:10403000DF4F7881C95ED040C450DF4F6881CC5FCC
:10404000D040C350DF4F9881CD5FD040C250DF4F8A
:104050008881CE5FD040272F362F492F582FC85345
:10406000DF4FB881C85CD040CA52DF4FA881C65D1F
:10407000D040C150DF4FF881CF5FD040C050DF4FFC
:10408000E881C050D1406B2F7A2F8F2F9E2F0E9436
:1040900051546B017C01B801C501272F362F492FE0
:1040A000582FC253DF4FB881CE5CD040C153DF4F91
:1040B000A881CF5CD040C053DF4FF881C05DD040B5
:1040C000CF52DF4FE881C15DD0406B2F7A2F8F2F09
:1040D0009E2F0E9451549B01AC01C701B6010E9462
:1040E0002B526B017C01C952DF4F288139814A81F3
:1040F0005B81C75DD040C451DF4FB881CC5ED040FA
:10410000C051DF4FA881C05FD040CC50DF4FF88155
:10411000C45FD040C850DF4FE881C85FD0406B2FEC
:104120007A2F8F2F9E2F0E9451549B01AC01C70103
:10413000B6010E942A52CD5EDE4F6883C351D14042
:10414000CC5EDE4F7883C451D140CB5EDE4F888396
:10415000C551D140CA5EDE4F9883C651D140B401EB
:10416000C301272F362F492F582FCE52DF4FB8814A
:10417000C25DD040CD52DF4FA881C35DD040CA534D
:10418000DF4FF881C65CD040C953DF4FE881C75C80
:10419000D0406B2F7A2F8F2F9E2F0E9451546B018E
:1041A0007C01CF5FDE4F7881C150D140CD5FDE4FC3
:1041B0006881C350D140C95FDE4F9881C750D1405C
:1041C000C55FDE4F8881CB50D140272F362F492F36
:1041D000582FCD54DF4FB881C35BD040C554DF4F5B
:1041E000A881CB5BD040C454DF4FF881CC5BD0407A
:1041F000C354DF4FE881CD5BD0406B2F7A2F8F2FD8
:104200009E2F0E9451549B01AC01C701B6010E9430
:104210002B526B017C01CC52DF4F7881C45DD040C2
:10422000CB52DF4F6881C55DD040C651DF4F9881CA
:10423000CA5ED040C551DF4F8881CB5ED040272F6A
:10424000362F492F582FC653DF4F688179818A81D5
:104250009B81CA5CD0400E9451549B01AC01C701B4
:10426000B6010E942A52462F572F682F792FCD5C16
:10427000DE4F488359836A837B83C353D140B201A5
:10428000C951DF4F9881C75ED040C851DF4F888148
:10429000C85ED040272F362F492F582FCE52DF4FE0
:1042A000B881C25DD040CD52DF4FA881C35DD04000
:1042B000CA53DF4FF881C65CD040C953DF4FE88155
:1042C000C75CD0406B2F7A2F8F2F9E2F0E945154A6
:1042D0006B017C01C750DF4F7881C95FD040C65069
:1042E000DF4F6881CA5FD040C550DF4F9881CB5FF8
:1042F000D040CE5FDE4F8881C250D140272F362F6D
:10430000492F582FCD54DF4FB881C35BD040C554DF
:10431000DF4FA881CB5BD040C454DF4FF881CC5B2A
:10432000D040C354DF4FE881CD5BD0406B2F7A2F54
:104330008F2F9E2F0E9451549B01AC01C701B601E3
:104340000E942B526B017C01B801C501272F362F2B
:10435000492F582FC653DF4F688179818A819B810D
:10436000CA5CD0400E9451549B01AC01C701B60108
:104370000E942A52CD59DE4F6883C356D140CC5992
:10438000DE4F7883C456D140CB59DE4F8883C55663
:10439000D140CA59DE4F9883C656D140C751DF4F2E
:1043A0007881C95ED040C450DF4F6881CC5FD04077
:1043B000C350DF4F9881CD5FD040C250DF4F88811E
:1043C000CE5FD040272F362F492F582FCE52DF4FA8
:1043D000B881C25DD040CD52DF4FA881C35DD040CF
:1043E000CA53DF4FF881C65CD040C953DF4FE88124
:1043F000C75CD0406B2F7A2F8F2F9E2F0E94515475
:104400006B017C01B801C501272F362F492F582F8A
:10441000CD54DF4FB881C35BD040C554DF4FA88176
:10442000CB5BD040C454DF4FF881CC5BD040C35449
:10443000DF4FE881CD5BD0406B2F7A2F8F2F9E2FDF
:104440000E9451549B01AC01C701B6010E942B523E
:104450006B017C01C451DF4F7881CC5ED040C051EC
:10446000DF4F6881C05FD040CC50DF4F9881C45F80
:10447000D040C850DF4F8881C85FD040272F362FEB
:10448000492F582FC653DF4F688179818A819B81DC
:10449000CA5CD0400E9451549B01AC01C701B601D7
:1044A0000E942A52C95EDE4F6883C751D140C85E60
:1044B000DE4F7883C851D140C75EDE4F8883C95133
:1044C000D140C65EDE4F9883CA51D140209110037F
:1044D000309111034091120350911303C552DF4FE5
:1044E000288339834A835B83CB5DD0408091180356
:1044F00090911903A0911A03B0911B03CD51DF4F86
:1045000088839983AA83BB83C35ED040D401F3011F
:104510006B2F7A2F8F2F9E2F0E9451546B017C019D
:10452000CF5FDE4F7881C150D140CD5FDE4F6881D3
:10453000C350D140C95FDE4F9881C750D140C55F9D
:10454000DE4F8881CB50D140272F362F492F582F4F
:10455000CD51DF4F688179818A819B81C35ED040D4
:104560000E9451549B01AC01C701B6010E942B521D
:104570006B017C01CC52DF4F7881C45DD040CB52BF
:10458000DF4F6881C55DD040C651DF4F9881CA5E5C
:10459000D040C551DF4F8881CB5ED040272F362FCA
:1045A000492F582FC954DF4FB881C75BD040C25440
:1045B000DF4FA881CE5BD040CE53DF4FF881C25C85
:1045C000D040C753DF4FE881C95CD0406B2F7A2FB2
:1045D0008F2F9E2F0E9451549B01AC01C701B60141
:1045E0000E942A52462F572F682F792FC95CDE4F21
:1045F000488359836A837B83C753D140C552DF4FB9
:10460000288139814A815B81CB5DD040D201C9517B
:10461000DF4FF881C75ED040C851DF4FE881C85EE8
:10462000D0406B2F7A2F8F2F9E2F0E9451546B01F9
:104630007C01CD51DF4F288139814A815B81C35E86
:10464000D040C750DF4FB881C95FD040C650DF4F60
:10465000A881CA5FD040C550DF4FF881CB5FD04002
:10466000CE5FDE4FE881C250D1406B2F7A2F8F2F63
:104670009E2F0E9451549B01AC01C701B6010E94BC
:104680002B526B017C01B801C501272F362F492F12
:10469000582FC954DF4FB881C75BD040C254DF4F99
:1046A000A881CE5BD040CE53DF4FF881C25CD040B2
:1046B000C753DF4FE881C95CD0406B2F7A2F8F2F13
:1046C0009E2F0E9451549B01AC01C701B6010E946C
:1046D0002A52462F572F682F792FC15BDE4F488310
:1046E00059836A837B83CF54D140C552DF4F2881E1
:1046F00039814A815B81CB5DD040C751DF4FB881A2
:10470000C95ED040C450DF4FA881CC5FD040C350B9
:10471000DF4FF881CD5FD040C250DF4FE881CE5FE0
:10472000D0406B2F7A2F8F2F9E2F0E9451546B01F8
:104730007C01CD51DF4F288139814A815B81C35E85
:10474000D040D801F5016B2F7A2F8F2F9E2F0E941A
:1047500051549B01AC01C701B6010E942B526B0161
:104760007C01C451DF4F7881CC5ED040C051DF4F17
:104770006881C05FD040CC50DF4F9881C45FD0408B
:10478000C850DF4F8881C85FD040272F362F492F70
:10479000582FC954DF4FB881C75BD040C254DF4F98
:1047A000A881CE5BD040CE53DF4FF881C25CD040B1
:1047B000C753DF4FE881C95CD0406B2F7A2F8F2F12
:1047C0009E2F0E9451549B01AC01C701B6010E946B
:1047D0002A52CE5FDE4F6883C250D140C450DF4FB3
:1047E0007883CC5FD040C350DF4F8883CD5FD0400B
:1047F000C250DF4F9883CE5FD040FE01319680E4F7
:10480000DF011D928A95E9F7C15ADE4F7881CF55B5
:10481000D140C05ADE4F6881C056D140CF59DE4FDB
:104820009881C156D140CE59DE4F8881C256D140C1
:10483000272F362F492F582F60E070E080E89FE344
:104840000E942A52C15FDE4FB881CF50D140C05F75
:10485000DE4FA881C051D140CF5EDE4FF881C151FB
:10486000D140CE5EDE4FE881C251D1402B2F3A2F8E
:104870004F2F5E2F0E942A522B013C01C95DDE4F53
:10488000C880D980EA80FB80C752D140F7FAF09403
:10489000F7F8F094C15FDE4F1881CF50D140C05F70
:1048A000DE4F0881C051D140CF5EDE4FB881C1518B
:1048B000D140C651DF4FB883CA5ED040CE5EDE4FD6
:1048C000E881C251D140C551DF4FE883CB5ED04073
:1048D000C55DDE4F688179818A819B81CB52D14051
:1048E0009058CD5EDE4FB881C351D140CC5EDE4FD3
:1048F000A881C451D140CB5EDE4FF881C551D14073
:10490000CA5EDE4FE881C651D1402B2F3A2F4F2F80
:104910005E2F0E942A52C95FDE4F688379838A83A3
:104920009B83C750D140C15DDE4F288139814A81C8
:104930005B81CF52D1405058C55FDE4F2883398309
:104940004A835B83CB50D140CD5EDE4F3881C3516B
:10495000D140C951DF4F3883C75ED040CC5EDE4FB7
:104960004881C451D140C851DF4F4883C85ED04010
:10497000CB5EDE4F5881C551D140C751DF4F5883C0
:10498000C95ED040CA5EDE4F8881C651D140CF5F3C
:10499000DE4F8883C150D140CD5CDE4F6881798184
:1049A0008A819B81C353D1409058C95EDE4FB88144
:1049B000C751D140C85EDE4FA881C851D140C75E03
:1049C000DE4FF881C951D140C65EDE4FE881CA5141
:1049D000D1402B2F3A2F4F2F5E2F0E942A52C451C5
:1049E000DF4F688379838A839B83CC5ED040CD5927
:1049F000DE4F7881C356D140CC59DE4F6881C45612
:104A0000D140CB59DE4F9881C556D140CA59DE4FAF
:104A10008881C656D140272F362F492F582F60E066
:104A200070E080E89FE30E942A52C051DF4F688304
:104A300079838A839B83C05FD040C95EDE4F9881B3
:104A4000C751D140C850DF4F9883C85FD040C85E7F
:104A5000DE4FA881C851D140C750DF4FA883C95F3E
:104A6000D040C75EDE4FB881C951D140C650DF4F3C
:104A7000B883CA5FD040C65EDE4FE881CA51D140DC
:104A8000C550DF4FE883CB5FD040C95CDE4F688103
:104A900079818A819B81C753D1409058CE5FDE4F88
:104AA000B881C250D140C450DF4FA881CC5FD04004
:104AB000C350DF4FF881CD5FD040C250DF4FE88157
:104AC000CE5FD0402B2F3A2F4F2F5E2F0E942A52BD
:104AD000C559DE4F6883CB56D140C459DE4F788329
:104AE000CC56D140C359DE4F8883CD56D140C259F0
:104AF000DE4F9883CE56D140C15BDE4F288139818D
:104B00004A815B81CF54D1405058CC50DF4F28832D
:104B100039834A835B83C45FD04020E030E040E8C3
:104B20005FE3CE5FDE4FB881C250D140C450DF4F4B
:104B3000A881CC5FD040C350DF4FF881CD5FD0401B
:104B4000C250DF4FE881CE5FD0406B2F7A2F8F2F7E
:104B50009E2F0E942B52C159DE4F6883CF56D14001
:104B6000C059DE4F7883C057D140CC52DF4F888385
:104B7000C45DD040CB52DF4F9883C55DD04080915B
:104B8000140390911503A0911603B0911703CD5F04
:104B9000DE4F88839983AA83BB83C350D140A3018E
:104BA0009201C955DF4FB881C75AD040C755DF4F72
:104BB000A881C95AD040C555DF4FF881CB5AD040A3
:104BC000C355DF4FE881CD5AD0406B2F7A2F8F2FFE
:104BD0009E2F0E94515420E030E0A9010E942B52E8
:104BE000C152DF4F6883CF5DD040C052DF4F788322
:104BF000C05ED040CF51DF4F8883C15ED040CE51E0
:104C0000DF4F9883C25ED0408D809E80AF80B88495
:104C1000A5019401C853DF4FB881C85CD040CA5287
:104C2000DF4FA881C65DD040C150DF4FF881CF5F14
:104C3000D040C050DF4FE881C050D1406B2F7A2F59
:104C40008F2F9E2F0E9451549B01AC01C152DF4F08
:104C5000B881CF5DD040C052DF4FA881C05ED04048
:104C6000CF51DF4FF881C15ED040CE51DF4FE88198
:104C7000C25ED0406B2F7A2F8F2F9E2F0E942B5217
:104C8000C152DF4F6883CF5DD040C052DF4F788381
:104C9000C05ED040CF51DF4F8883C15ED040CE513F
:104CA000DF4F9883C25ED040A7019601CE52DF4FFE
:104CB000B881C25DD040CD52DF4FA881C35DD040E6
:104CC000CA53DF4FF881C65CD040C953DF4FE8813B
:104CD000C75CD0406B2F7A2F8F2F9E2F0E9451548C
:104CE0009B01AC01C152DF4FB881CF5DD040C052B3
:104CF000DF4FA881C05ED040CF51DF4FF881C15E49
:104D0000D040CE51DF4FE881C25ED0406B2F7A2F6A
:104D10008F2F9E2F0E942B52C152DF4F6883CF5D91
:104D2000D040C052DF4F7883C05ED040CF51DF4FBC
:104D30008883C15ED040CE51DF4F9883C25ED040A1
:104D4000212F302FC651DF4F4881CA5ED040C55158
:104D5000DF4F5881CB5ED040C552DF4F68817981EB
:104D60008A819B81CB5DD0400E9451549B01AC0154
:104D7000C152DF4FB881CF5DD040C052DF4FA88114
:104D8000C05ED040CF51DF4FF881C15ED040CE51E0
:104D9000DF4FE881C25ED0406B2F7A2F8F2F9E2F7E
:104DA0000E942B526093A0027093A1028093A202F2
:104DB0009093A302A3019201CD5DDE4FB881C3524F
:104DC000D140CC5DDE4FA881C452D140CB5DDE4FD7
:104DD000F881C552D140CA5DDE4FE881C652D1404C
:104DE0006B2F7A2F8F2F9E2F0E94515420E030E09E
:104DF000A9010E942B52C152DF4F6883CF5DD04082
:104E0000C052DF4F7883C05ED040CF51DF4F8883E0
:104E1000C15ED040CE51DF4F9883C25ED040A50125
:104E20009401C15EDE4FB881CF51D140C05EDE4FEC
:104E3000A881C052D140CF5DDE4FF881C152D14030
:104E4000CE5DDE4FE881C252D1406B2F7A2F8F2F7B
:104E50009E2F0E9451549B01AC01C152DF4FB8817B
:104E6000CF5DD040C052DF4FA881C05ED040CF514F
:104E7000DF4FF881C15ED040CE51DF4FE881C25E86
:104E8000D0406B2F7A2F8F2F9E2F0E942B52C15212
:104E9000DF4F6883CF5DD040C052DF4F7883C05E64
:104EA000D040CF51DF4F8883C15ED040CE51DF4F1D
:104EB0009883C25ED040A7019601C55EDE4FB881DF
:104EC000CB51D140C45EDE4FA881CC51D140C35EEE
:104ED000DE4FF881CD51D140C25EDE4FE881CE5128
:104EE000D1406B2F7A2F8F2F9E2F0E9451549B0100
:104EF000AC01C152DF4FB881CF5DD040C052DF4F0F
:104F0000A881C05ED040CF51DF4FF881C15ED04054
:104F1000CE51DF4FE881C25ED0406B2F7A2F8F2FAA
:104F20009E2F0E942B52C152DF4F6883CF5DD0402D
:104F3000C052DF4F7883C05ED040CF51DF4F8883AF
:104F4000C15ED040CE51DF4F9883C25ED040CD5F6E
:104F5000DE4F288139814A815B81C350D140612F66
:104F6000702FC651DF4F8881CA5ED040C551DF4FD8
:104F70009881CB5ED0400E9451549B01AC01C1523C
:104F8000DF4FB881CF5DD040C052DF4FA881C05EF7
:104F9000D040CF51DF4FF881C15ED040CE51DF4FBE
:104FA000E881C25ED0406B2F7A2F8F2F9E2F0E94F8
:104FB0002B526093A4027093A5028093A602909353
:104FC000A702A3019201D101CD55DF4FF881C35A49
:104FD000D040CB55DF4FE881C55AD0406B2F722DA2
:104FE0008F2F9E2F0E94515420E030E0A9010E9493
:104FF0002B52C152DF4F6883CF5DD040C052DF4F8C
:105000007883C05ED040CF51DF4F8883C15ED040EF
:10501000CE51DF4F9883C25ED040A5019401C253A8
:10502000DF4FB881CE5CD040C153DF4FA881CF5C49
:10503000D040C053DF4FF881C05DD040CF52DF4F2A
:10504000E881C15DD0406B2F7A2F8F2F9E2F0E9459
:1050500051549B01AC01C152DF4FB881CF5DD040AC
:10506000C052DF4FA881C05ED040CF51DF4FF881E2
:10507000C15ED040CE51DF4FE881C25ED0406B2F81
:105080007A2F8F2F9E2F0E942B52C152DF4F6883A1
:10509000CF5DD040C052DF4F7883C05ED040CF514B
:1050A000DF4F8883C15ED040CE51DF4F9883C25E10
:1050B000D040A7019601CD54DF4FB881C35BD040EB
:1050C000C554DF4FA881CB5BD040C454DF4FF8817B
:1050D000CC5BD040C354DF4FE881CD5BD0406B2F19
:1050E0007A2F8F2F9E2F0E9451549B01AC01C152E9
:1050F000DF4FB881CF5DD040C052DF4FA881C05E86
:10510000D040CF51DF4FF881C15ED040CE51DF4F4C
:10511000E881C25ED0406B2F7A2F8F2F9E2F0E9486
:105120002B52C152DF4F6883CF5DD040C052DF4F5A
:105130007883C05ED040CF51DF4F8883C15ED040BE
:10514000CE51DF4F9883C25ED040212F302FC65101
:10515000DF4F4881CA5ED040C551DF4F5881CB5EDA
:10516000D040CD51DF4F688179818A819B81C35EB8
:10517000D0400E9451549B01AC01C152DF4FB88115
:10518000CF5DD040C052DF4FA881C05ED040CF512C
:10519000DF4FF881C15ED040CE51DF4FE881C25E63
:1051A000D0406B2F7A2F8F2F9E2F0E942B5260930F
:1051B000A8027093A9028093AA029093AB02A30164
:1051C0009201C155DF4F688179818A819B81CF5AD5
:1051D000D0400E94515420E030E0A9010E942B529F
:1051E000762E672E582E492EA5019401C952DF4F05
:1051F000688179818A819B81C75DD0400E9451542A
:105200009B01AC01D301F2016B2F7A2F8F2F9E2FC0
:105210000E942B52B62EA72E982E892EA7019601FA
:10522000C653DF4F688179818A819B81CA5CD040F7
:105230000E9451549B01AC01D501F4016B2F7A2FD0
:105240008F2F9E2F0E942B52F62EE72ED82EC92E7E
:10525000212F302FC651DF4F4881CA5ED040C55143
:10526000DF4F5881CB5ED040C954DF4FB881C75B58
:10527000D040C254DF4FA881CE5BD040CE53DF4F29
:10528000F881C25CD040C753DF4FE881C95CD04091
:105290006B2F7A2F8F2F9E2F0E9451549B01AC01B0
:1052A000D701F6016B2F7A2F8F2F9E2F0E942B5242
:1052B0006093AC027093AD028093AE029093AF0204
:1052C000C95FDE4F288139814A815B81C750D14057
:1052D000C955DF4FB881C75AD040C755DF4FA881A5
:1052E000C95AD040C555DF4FF881CB5AD040C3557D
:1052F000DF4FE881CD5AD0406B2F7A2F8F2F9E2F12
:105300000E94515420E030E0A9010E942B52162F38
:10531000072FF82EE92E20E030E040E85FE3C85385
:10532000DF4FB881C85CD040CA52DF4FA881C65D4C
:10533000D040C150DF4FF881CF5FD040C050DF4F29
:10534000E881C050D1406B2F7A2F8F2F9E2F0E9463
:1053500051549B01AC01D801F7016B2F7A2F8F2F8D
:105360009E2F0E942B52162F072FF82EE92EC55F75
:10537000DE4F288139814A815B81CB50D140CE52AA
:10538000DF4FB881C25DD040CD52DF4FA881C35DF1
:10539000D040CA53DF4FF881C65CD040C953DF4FBD
:1053A000E881C75CD0406B2F7A2F8F2F9E2F0E94F1
:1053B00051549B01AC01D801F7016B2F7A2F8F2F2D
:1053C0009E2F0E942B52162F072FF82EE92EC9511F
:1053D000DF4F2881C75ED040C851DF4F3881C85E9B
:1053E000D040C751DF4F4881C95ED040CF5FDE4F0C
:1053F0005881C150D140C552DF4F688179818A817F
:105400009B81CB5DD0400E9451549B01AC01D801DF
:10541000F7016B2F7A2F8F2F9E2F0E942B526093B4
:10542000B0027093B1028093B2029093B302C95F4D
:10543000DE4F288139814A815B81C750D140CD5DE3
:10544000DE4FB881C352D140CC5DDE4FA881C4523B
:10545000D140CB5DDE4FF881C552D140CA5DDE4FF1
:10546000E881C652D1406B2F7A2F8F2F9E2F0E943A
:10547000515420E030E0A9010E942B52162F072F33
:10548000F82EE92E20E030E040E85FE3C15EDE4F19
:10549000B881CF51D140C05EDE4FA881C052D1400B
:1054A000CF5DDE4FF881C152D140CE5DDE4FE88145
:1054B000C252D1406B2F7A2F8F2F9E2F0E945154B2
:1054C0009B01AC01D801F7016B2F7A2F8F2F9E2FF4
:1054D0000E942B52162F072FF82EE92EC55FDE4FA4
:1054E000288139814A815B81CB50D140C55EDE4F36
:1054F000B881CB51D140C45EDE4FA881CC51D140A0
:10550000C35EDE4FF881CD51D140C25EDE4FE881EF
:10551000CE51D1406B2F7A2F8F2F9E2F0E94515446
:105520009B01AC01D801F7016B2F7A2F8F2F9E2F93
:105530000E942B52162F072FF82EE92ECD5FDE4F3B
:10554000288139814A815B81C350D140C951DF4FE5
:105550006881C75ED040C851DF4F7881C85ED040B7
:10556000C751DF4F8881C95ED040CF5FDE4F988141
:10557000C150D1400E9451549B01AC01D801F701A8
:105580006B2F7A2F8F2F9E2F0E942B526093B40285
:105590007093B5028093B6029093B702C95FDE4F55
:1055A000288139814A815B81C750D140D101CD55D5
:1055B000DF4FF881C35AD040CB55DF4FE881C55A41
:1055C000D0406B2F722D8F2F9E2F0E94515420E0C0
:1055D00030E0A9010E942B52162F072FF82EE92E3A
:1055E00020E030E040E85FE3C253DF4FB881CE5C9B
:1055F000D040C153DF4FA881CF5CD040C053DF4FB4
:10560000F881C05DD040CF52DF4FE881C15DD0400E
:105610006B2F7A2F8F2F9E2F0E9451549B01AC012C
:10562000D801F7016B2F7A2F8F2F9E2F0E942B52BC
:10563000162F072FF82EE92EC55FDE4F28813981FE
:105640004A815B81CB50D140CD54DF4FB881C35BE1
:10565000D040C554DF4FA881CB5BD040C454DF4F4E
:10566000F881CC5BD040C354DF4FE881CD5BD040A4
:105670006B2F7A2F8F2F9E2F0E9451549B01AC01CC
:10568000D801F7016B2F7A2F8F2F9E2F0E942B525C
:10569000162F072FF82EE92EC951DF4F2881C75E3C
:1056A000D040C851DF4F3881C85ED040C751DF4F6E
:1056B0004881C95ED040CF5FDE4F5881C150D14094
:1056C000CD51DF4F688179818A819B81C35ED04053
:1056D0000E9451549B01AC01D801F7016B2F7A2F26
:1056E0008F2F9E2F0E942B526093B8027093B902A5
:1056F0008093BA029093BB02C95FDE4F2881398143
:105700004A815B81C750D140C155DF4F68817981A3
:105710008A819B81CF5AD0400E94515420E030E0D2
:10572000A9010E942B52C952DF4F288139814A8139
:105730005B81C75DD0400E942B52162F072FF82E99
:10574000E92EC55FDE4F288139814A815B81CB50CC
:10575000D140C653DF4F688179818A819B81CA5CC1
:10576000D0400E9451549B01AC01D801F7016B2F2E
:105770007A2F8F2F9E2F0E942B52162F072FF82E35
:10578000E92EC951DF4F2881C75ED040C851DF4F95
:105790003881C85ED040C751DF4F4881C95ED040D4
:1057A000CF5FDE4F5881C150D140C954DF4FB8811F
:1057B000C75BD040C254DF4FA881CE5BD040CE53F0
:1057C000DF4FF881C25CD040C753DF4FE881C95C2E
:1057D000D0406B2F7A2F8F2F9E2F0E9451549B0108
:1057E000AC01D801F7016B2F7A2F8F2F9E2F0E94CB
:1057F0002B526093BC027093BD028093BE029093C3
:10580000BF02C451DF4F288139814A815B81CC5E60
:10581000D040C955DF4FB881C75AD040C755DF4F78
:10582000A881C95AD040C555DF4FF881CB5AD04026
:10583000C355DF4FE881CD5AD0406B2F7A2F8F2F81
:105840009E2F0E94515420E030E0A9010E942B526B
:10585000162F072FB82EA92ECDA0DEA0EFA0F8A4FA
:10586000A7019601C853DF4FB881C85CD040CA5227
:10587000DF4FA881C65DD040C150DF4FF881CF5FB8
:10588000D040C050DF4FE881C050D1406B2F7A2FFD
:105890008F2F9E2F0E9451549B01AC01D801F5011E
:1058A0006B2F7A2F8F2F9E2F0E942B52162F072F90
:1058B000B82EA92EC051DF4F288139814A815B81E2
:1058C000C05FD040CE52DF4FB881C25DD040CD52D4
:1058D000DF4FA881C35DD040CA53DF4FF881C65C5B
:1058E000D040C953DF4FE881C75CD0406B2F7A2F7F
:1058F0008F2F9E2F0E9451549B01AC01D801F501BE
:105900006B2F7A2F8F2F9E2F0E942B52162F072F2F
:10591000782E692EC850DF4F8880C85FD040C750AE
:10592000DF4F9880C95FD040C650DF4FA880CA5F64
:10593000D040C550DF4FB880CB5FD040C850DF4F5C
:105940002881C85FD040C750DF4F3881C95FD04041
:10595000C650DF4F4881CA5FD040C550DF4F5881E5
:10596000CB5FD040C552DF4F688179818A819B81AE
:10597000CB5DD0400E9451549B01AC01D801F30192
:105980006B2F7A2F8F2F9E2F0E942B526093C00275
:105990007093C1028093C2029093C302C451DF4F3F
:1059A000288139814A815B81CC5ED040CD5DDE4F5C
:1059B000B881C352D140CC5DDE4FA881C452D140E2
:1059C000CB5DDE4FF881C552D140CA5DDE4FE88124
:1059D000C652D1406B2F7A2F8F2F9E2F0E94515489
:1059E00020E030E0A9010E942B52162F072F782EBD
:1059F000692EA7019601C15EDE4FB881CF51D1401B
:105A0000C05EDE4FA881C052D140CF5DDE4FF8812D
:105A1000C152D140CE5DDE4FE881C252D1406B2FE2
:105A20007A2F8F2F9E2F0E9451549B01AC01D801D9
:105A3000F3016B2F7A2F8F2F9E2F0E942B52162F40
:105A4000072F782E692EC051DF4F288139814A8176
:105A50005B81C05FD040C55EDE4FB881CB51D14085
:105A6000C45EDE4FA881CC51D140C35EDE4FF881C9
:105A7000CD51D140C25EDE4FE881CE51D1406B2F77
:105A80007A2F8F2F9E2F0E9451549B01AC01D80179
:105A9000F3016B2F7A2F8F2F9E2F0E942B52162FE0
:105AA000072F782E692ECD5FDE4F288139814A81FC
:105AB0005B81C350D140C850DF4F6881C85FD04080
:105AC000C750DF4F7881C95FD040C650DF4F888113
:105AD000CA5FD040C550DF4F9881CB5FD0400E9455
