:100000000C9456010C9487010C9487010C94870181
:100010000C9487010C9487010C9487010C94870140
:100020000C9487010C9487010C9487010C94870130
:100030000C9487010C9487010C9487010C94870120
:100040000C9487010C94A61A0C9487010C948701D8
:100050000C9487010C9487010C9487010C94F6147E
:100060000C9487010C9487010C9487010C948701F0
:100070000C9487010C9487010C9487010C948701E0
:100080000C94D31A0C9487010C9487010C9487016B
:100090000C9487010C9487010C9487010C94AA1886
:1000A0000C9487010C9487010C94001B0C9487011D
:1000B0000C9487010C9487010C9487010C942D1BE0
:1000C0000C9487010C9487010C9487010C94870190
:1000D0000C9487010C9487010C9487010C94870180
:1000E0000C948701036EDB363D9A9999993DABAA32
:1000F000AA2A3E000000803F072C7AA5BA6CC59062
:10010000DA3B9365FC8BBC53F810FD3C5692834D53
:10011000BD879D3AB63DCBC9BF5BBE73DA0FC93F01
:1001200007634236B79BD8A71A39685618AEBAABE0
:10013000558C1D3CB7CC5763BD6DEDFD753EF61774
:100140007231BF000000803F08000000BE922449C9
:10015000123EABAAAA2ABECDCCCC4C3E00000080F9
:10016000BEABAAAAAA3E00000000BF000000803F6C
:100170000000000000084178D3BB4387D1133D192C
:100180000E3CC3BD4282AD2B3E68EC8276BED98F59
:10019000E1A93E4C80EFFFBE01C4FF7F3F0000009D
:1001A00000000000090A02080B0C0D0706030401F9
:1001B000000000000000000000000000000000003F
:1001C000000000000000000000000000000011100E
:1001D0000F00000000000000000000000000000010
:1001E000000000000000000001021020200808109C
:1001F0002040102040800201020108040201010297
:10020000040810204080804020100804020180046F
:1002100002018040201008040201080402010102CA
:1002200004081020408001020408102040800505C9
:100230000505070508080808020202020A0A08085C
:10024000040404040101010101010101030303038A
:1002500003030303040707070C0C0C0C0C0C0C0C19
:100260000202020206060606060606060B0B0B0B2A
:100270000B0B0B0B00002200250028002B002E008A
:100280003100340002010000050108010B010000EB
:100290002100240027002A002D0030003300010136
:1002A0000000040107010A01C014C71711241FBE72
:1002B000CFEFD1E2DEBFCDBF00E00CBF12E0A0E087
:1002C000B2E0ECE7FBE400E00BBF02C007900D9248
:1002D000A033B107D9F717E0A0E3B2E001C01D9247
:1002E000A539B107E1F712E0CCEAD2E000E006C0A0
:1002F00022970109FE010BBF0E94B825C83AD10719
:1003000080E00807A9F70E94DF160C94BC250C9426
:1003100000002F923F924F925F926F927F928F9246
:100320009F92AF92BF92CF92DF92EF92FF920F9384
:100330001F93CF93DF93CDB7DEB7C058D1090FB667
:10034000F894DEBF0FBECDBF5C016B01EE964FAFE0
:10035000EE97EF965FAFEF973901AD96ECAEFDAE3D
:100360000EAF1FAFAD971C01E12CF12C9C01245F57
:100370003F4FEB963FAF2EAFEB97CB010C96C1589A
:10038000DF4F99838883CF57D0407BC0D8012D9110
:100390003D914D915C91F1016081718182819381E8
:1003A0000E948923A396AEADBFADA3972D913D9139
:1003B0004D915C910E946321A6966FAFA697AE9671
:1003C0007FAFAE97E2968FAFE297E6969FAFE69744
:1003D000472F382F292F862F942FA32FB22FA39684
:1003E000EEADFFADA39780839183A283B383F80121
:1003F000EC19FD09C158DF4F28813981CF57D04012
:10040000E20FF31F2081318142815381D4016D912C
:100410007D918D919C910E9489239B01AC01A696B0
:10042000BFADA697AE96AFADAE97E296FFADE297A1
:10043000E696EFADE6976B2F7A2F8F2F9E2F0E94B7
:100440006321A396EEADFFADA39761937193819362
:100450009193A396FFAFEEAFA397FFEF4F1A5F0AFA
:100460000C5F1F4F23E04216510409F08FCF3CE090
:10047000E30EF11C84E0280E311C94E2E916F1042D
:10048000A1F0D301AE0DBF1DA396BFAFAEAFA39732
:100490008601412C512C41018A189B08EB96EEAD48
:1004A000FFADEB978E0E9F1E71CFD3012D903D9027
:1004B0004D905C90139750968D909D90AD90BC9010
:1004C00053979096CD90DD90ED90FC909397A50179
:1004D0009401C201B1010E946321A70196010E940B
:1004E0006321AD962CAD3DAD4EAD5FADAD970E9495
:1004F000632169837A838B839C83D30154968D9186
:100500009D910D90BC91A02DA5968CAF9DAFAEAFE7
:10051000BFAFA597D3015C968D919D910D90BC9135
:10052000A02DA9968CAF9DAFAEAFBFAFA9979C0190
:10053000AD01A5966CAD7DAD8EAD9FADA5970E942A
:1005400062216D837E838F839887D30158968D9126
:100550009D910D90BC91A02DE1968CAF9DAFAEAF5B
:10056000BFAFE197D30118968D919D910D90BC91ED
:10057000A02DE5968CAF9DAFAEAFBFAFE5979C01C8
:10058000AD01E1966CAD7DAD8EAD9FADE1970E9462
:10059000622169877A878B879C87D30114968D9116
:1005A0009D910D90BC91A02DE9968CAF9DAFAEAF03
:1005B000BFAFE997D3011C968D919D910D90BC9191
:1005C000A02DED968CAF9DAFAEAFBFAFED979C0168
:1005D000AD01E9966CAD7DAD8EAD9FADE9970E9402
:1005E00062216D877E878F87988BA5019401C20158
:1005F000B1010E946221A70196010E946221AD967D
:100600002CAD3DAD4EAD5FADAD970E9463216D8BBE
:100610007E8B8F8B988FED962CAD3DAD4EAD5FAD43
:10062000ED97E9966CAD7DAD8EAD9FADE9970E94DB
:100630006321698F7A8F8B8F9C8FE1962CAD3DADB6
:100640004EAD5FADE197E5966CAD7DAD8EAD9FADE6
:10065000E5970E9463216D8F7E8F8F8F98A3A201F3
:100660009101C501B4010E946221A70196010E9477
:100670006221AD962CAD3DAD4EAD5FADAD970E9404
:10068000632169A77AA78BA79CA7A9962CAD3DAD3E
:100690004EAD5FADA997A5966CAD7DAD8EAD9FAD0E
:1006A000A5970E9463216DA77EA78FA798ABC20173
:1006B000B1019058A50194010E946221A701960101
:1006C0000E946321AD962CAD3DAD4EAD5FADAD97B3
:1006D0000E94632121966CAF7DAF8EAF9FAF2197B3
:1006E0005E01B5E0AB0EB11CDE01519681E090E0F9
:1006F00022C08501040F151FF801C080D180E2805F
:10070000F3808D01060F171FF801C082D182E282AB
:10071000F3822F5F3F4F405F5F4F6C5F7F4F281723
:1007200039073CF30196F4E0AF0EB11C50968430CB
:10073000910509F430C160E070E040E050E020E055
:1007400030E0D7CFD8011D921D921D921C921397B5
:10075000412C11965C90119712966C9012971396FB
:100760007C90EE96BFADEE97A296BFAFA297EF96A4
:10077000EFADEF97A396EFAFA397A3968EAC9FAC88
:10078000A397E12CF12CD4016D917D918D919D91D8
:100790004D01F501EE0DFF1D208131814281538114
:1007A0000E9489239B01AC01642D752D862D972D08
:1007B0000E9463212B013C01B4E0EB0EF11CE0E14F
:1007C000EE16F10401F7CB01D301F8018193919367
:1007D000A193B1938F01F0E1AF0EB11CE3962EAD62
:1007E0003FADE3970217130709F0ACCFCE018F5B43
:1007F0009F4FA7969FAF8EAFA7978C01612C712C4E
:10080000812C912CD8011D921D921D921C92139740
:10081000212C11963C90119712964C90129713969A
:100820005C9071E5A72EB12CAC0EBD1EE12CF12C15
:10083000F50161917191819191915F01F601EE0D48
:10084000FF1D20813181428153810E9489239B01B8
:10085000AC01622D732D842D952D0E9463211B0107
:100860002C01F4E0EF0EF11C20E1E216F10401F797
:10087000CB01D201F80181939193A193B1938F01A0
:10088000222D332D4A2F552D622D732D842D952D1C
:100890000E9489239B01AC01662D772D882D992D0F
:1008A0000E9463213B014C01F0E1CF0ED11CAF96B9
:1008B0002EAD3FADAF970217130709F0A3CF20E08D
:1008C00030E0A901772D992D0E94DE21811110C001
:1008D00080E090E0A0E8BFE325968CAF9DAFAEAF7F
:1008E000BFAF2597612C712C50E8852E6FE3962EB3
:1008F000662D772D882D992D0E943C246B017C015B
:1009000001E010E0A796AEADBFADA7976D917D91C8
:100910008D919D91A796BFAFAEAFA797A701960106
:100920000E94E2214B015C01762F272F392D4A2DA1
:100930005B2DA396EEADFFADA3976081718182819F
:1009400093810E9462219F772AE037ED43EA5BE3BF
:100950000E947E23181614F400E010E0C401D501B3
:10096000A396EEADFFADA39781939193A193B1931D
:10097000A396FFAFEEAFA397A7962EAD3FADA79777
:10098000AF968EAD9FADAF972817390709F0BACF54
:10099000012B79F519C0A5E6B0E0AB96BFAFAEAFBD
:1009A000AB97E1E5F0E0EC0FFD1F7096E396FFAF2B
:1009B000EEAFE39721E430E02C0F3D1F205F3F4F67
:1009C000AF963FAF2EAFAF97AB968EAD9FADAB97C7
:1009D0000197AB969FAF8EAFAB97892B51F0CC248C
:1009E000C394D12CCC0EDD1E56018E010F5A1F4F21
:1009F000A9CEC058DF4F0FB6F894DEBF0FBECDBFF3
:100A0000DF91CF911F910F91FF90EF90DF90CF90EA
:100A1000BF90AF909F908F907F906F905F904F901E
:100A20003F902F90089580E090E0ACE1B2EC80938D
:100A3000C4029093C502A093C602B093C70280E09F
:100A400090E0A0E4B0E48093C8029093C902A09320
:100A5000CA02B093CB0280E090E0A0E5B1E48093BD
:100A6000CC029093CD02A093CE02B093CF0280E04F
:100A700090EAA1E8B4E48093D0029093D102A093CD
:100A8000D202B093D30280E090E4A1E8B4E4809372
:100A9000D4029093D502A093D602B093D70280E0FF
:100AA00090E2A0E8B4E48093D8029093D902A09396
:100AB000DA02B093DB0280E090E0A4EAB2E4809333
:100AC000DC029093DD02A093DE02B093DF0280E0AF
:100AD00090E0A9E0B3EC8093E0029093E102A09350
:100AE000E202B093E30280E090E0A0E7B1E48093FB
:100AF000E4029093E502A093E602B093E70280E05F
:100B000090E8AEE1B4E48093E8029093E902A09308
:100B1000EA02B093EB0280E090E0A2E2B4E48093BA
:100B2000EC029093ED02A093EE02B093EF0280E00E
:100B300090E8A6E0B4E48093F0029093F102A093D1
:100B4000F202B093F30286E090E09093F502809376
:100B5000F40286E696E2ACE9B3EC8093F602909359
:100B6000F702A093F802B093F90280E090E8A3EEB8
:100B7000B2E48093FA029093FB02A093FC02B0933C
:100B8000FD0283E393E5A9E7B4E48093FE0290932A
:100B9000FF02A0930003B093010386E696EEA6E859
:100BA000B3E48093020390930303A0930403B093F0
:100BB000050383E393EBA6ECB2EC809306039093DA
:100BC0000703A0930803B09309038AE999EDADEFF9
:100BD000B3EC80930A0390930B03A0930C03B093A0
:100BE0000D0386E696E6A1E4B4E480931E03909399
:100BF0001F03A0932003B09321038AE999E1A7E0A2
:100C0000B3EC8093220390932303A0932403B09327
:100C100025038DEC9CE1AEE1B4E480932603909330
:100C20002703A0932803B09329038DEC9CECA9E53E
:100C3000B2EC80932A0390932B03A0932C03B093E0
:100C40002D0383E393E3AFEAB1E480932E03909303
:100C50002F03A0933003B093310383E393EAA9E019
:100C6000B4E48093320390933303A0933403B0939E
:100C7000350386E696EEA6EFB2EC8093460390939A
:100C80004703A0934803B093490383E393EFACE396
:100C9000B4EC80934A0390934B03A0934C03B0931E
:100CA0004D0380E090E8A0E3B4E480934E0390937A
:100CB0004F03A0935003B09351038DEC9CEEA1E041
:100CC000B4EC8093520390935303A0935403B093D6
:100CD000550386E696E6A6E9B0E480935603909322
:100CE0005703A0935803B093590386E696EEADECF4
:100CF000B2EC80935A0390935B03A0935C03B09390
:100D00005D038DEC9CEEAAE6B4EC80936E039093A9
:100D10006F03A0937003B093710380E090E0A1E7AC
:100D2000B3EC8093720390937303A0937403B09316
:100D3000750386E696EAABEDB3EC80937603909369
:100D40007703A0937803B093790380E090EFAFE24C
:100D5000B4E480937A0390937B03A0937C03B093D5
:100D60007D0386E696E6AEECB1E480937E03909335
:100D70007F03A0938003B09381038DEC9CE0A4E0FB
:100D8000B3E48093820390938303A0938403B0938E
:100D9000850380E090E4A9EEB3E4809396039093FA
:100DA0009703A0939803B093990380E090E4A0E4A4
:100DB000B4EC80939A0390939B03A0939C03B0930D
:100DC0009D0383E393EBA4EEB3EC80939E03909397
:100DD0009F03A093A003B093A10386E696E0A8E842
:100DE000B3E48093A2039093A303A093A403B093CE
:100DF000A5038AE999E6A6E3B4EC8093A603909351
:100E0000A703A093A803B093A9038DEC9CE4A3E3EC
:100E1000B3E48093AA039093AB03A093AC03B09385
:100E2000AD038DEC9CECACE5B2EC8093BE039093EB
:100E3000BF03A093C003B093C1038DEC9CE2ACE66A
:100E4000B4E48093C2039093C303A093C403B0930C
:100E5000C50383E393E1ADECB3EC8093C6039093B9
:100E6000C703A093C803B093C90386E696EEA8E52E
:100E7000B3E48093CA039093CB03A093CC03B093C5
:100E8000CD038AE999EDA7EFB3E48093CE03909365
:100E9000CF03A093D003B093D1038AE999EDAFE0DB
:100EA000B3E48093D2039093D303A093D403B0937D
:100EB000D5031092B8021092B9021092BA021092A1
:100EC000BB021092BC021092BD021092BE021092A0
:100ED000BF021092C0021092C1021092C202109280
:100EE000C3020895CF93DF9361E08DE00E947016F6
:100EF0006AE070E08BEC95E00E94231C69E070E0F2
:100F00008EEC95E00E94231C6CE070E081ED95E092
:100F10000E94231C6BE070E084ED95E00E94231C8E
:100F2000C0E0D0E0CE01880F991F8C0F9D1F6CEDA3
:100F300075E085539A4F0E94291C2196C430D10533
:100F400089F768EE73E080E090E00E947C1580E411
:100F500096E00E94881762E08AEC95E00E94811D6D
:100F60008AEC95E00E94881C4AEF60E18AEC95E0EB
:100F70000E94671C42E063E084E995E00E9417202C
:100F800084E995E00E941A1E42E060E086E895E060
:100F90000E94452186E895E00E94692040E163E2D5
:100FA00086E895E00E9448208DE69FEBABE8BEE323
:100FB0008093B4029093B502A093B602B093B702A7
:100FC00085E194E7A2E8BFE38093B0029093B10279
:100FD000A093B202B093B30280E090E0A8ECB2E438
:100FE0008093AC029093AD02A093AE02B093AF0297
:100FF00082EF93E2AEE9BEE38093A0029093A10258
:10100000A093A202B093A30281E295E0AEEBBCE311
:101010008093A4029093A502A093A602B093A70286
:1010200082E199E6A3E7BFE38093A8029093A90227
:10103000A093AA02B093AB02109294021092950270
:1010400010929602109297021092980210929902B2
:1010500010929A0210929B0280E090E0A0E8BFEB11
:1010600080939C0290939D02A0939E02B0939F0256
:1010700080E090E0A0E8BFE3809354029093550293
:10108000A0935602B0935702109258021092590240
:1010900010925A0210925B0210925C0210925D0252
:1010A00010925E0210925F02109260021092610232
:1010B0001092620210926302809344029093450260
:1010C000A0934602B0934702109248021092490240
:1010D00010924A0210924B0210924C0210924D0252
:1010E00010924E0210924F02109250021092510232
:1010F000109252021092530210924002109241023A
:10110000109242021092430210923C0210923D0251
:1011100010923E0210923F0210927A0510927B05C7
:1011200010927C0510927D0581E090E090938305FC
:10113000809382050E94130584E690E090938505D4
:101140008093840510927E0510927F051092800591
:10115000109281051092760510927705109278050D
:1011600010927905DF91CF9108952F923F924F927F
:101170005F926F927F928F929F92AF92BF92CF9227
:10118000DF92EF92FF920F931F93CF93DF93CDB730
:10119000DEB7EA970FB6F894DEBF0FBECDBF84E985
:1011A00095E00E94E11F86E895E00E9494208AEC79
:1011B00095E00E94FB1C60936C0270936D0280931B
:1011C0006E0290936F028AEC95E00E94341D60934A
:1011D00064027093650280936602909367020E9496
:1011E00052156B017C0180917A0590917B05A0914D
:1011F0007C05B0917D05A7019601281B390B4A0B90
:101200005B0BCA01B9010E947B222DEB37E346E854
:1012100055E30E9489236093760570937705809348
:10122000780590937905C0927A05D0927B05E0927B
:101230007C05F0927D052091C8023091C902409151
:10124000CA025091CB0260919805709199058091E6
:101250009A0590919B050E9462212091D4023091C1
:10126000D5024091D6025091D7020E94E2212B0173
:101270003C012091CC023091CD024091CE025091A0
:10128000CF0260919C0570919D0580919E05909183
:101290009F050E9462212091D8023091D90240918D
:1012A000DA025091DB020E94E2218B011C012091A5
:1012B000C4023091C5024091C6025091C7026091AC
:1012C00094057091950580919605909197050E94DF
:1012D00062212091D0023091D1024091D2025091EE
:1012E000D3020E94E2216B017C01F7FAF094F7F837
:1012F000F09422EE37E64AE75FE3C701B6010E94A9
:1013000089234B015C012FEC36EE44E55EE3602F50
:10131000712F822D932D0E9489239B01AC01C50161
:10132000B4010E94632160937C0270937D028093DC
:101330007E0290937F02842D952DA62DB72D80934C
:10134000800290938102A0938202B09383022FECDB
:1013500036EE44E55EE3C701B6010E9489236B01C6
:101360007C0122EE37E64AE75FE3602F712F822D82
:10137000932D0E9489239B01AC01C701B6010E94F5
:101380006221609384027093850280938602909319
:1013900087022091E0023091E1024091E2025091F7
:1013A000E3026091A4057091A5058091A605909136
:1013B000A7050E9462212091EC023091ED0240913C
:1013C000EE025091EF020E94E2212B013C0120919C
:1013D000E4023091E5024091E6025091E70260910B
:1013E000A8057091A9058091AA059091AB050E946E
:1013F00062212091F0023091F1024091F20250916D
:10140000F3020E94E2218B011C012091DC02309149
:10141000DD024091DE025091DF026091A0057091E3
:10142000A1058091A2059091A3050E9462212091BF
:10143000E8023091E9024091EA025091EB020E94E9
:10144000E2216B017C01F7FAF094F7F8F09422EEB8
:1014500037E64AE75FE3C701B6010E9489234B01E3
:101460005C012FEC36EE44E55EE3602F712F822D98
:10147000932D0E9489239B01AC01C501B4010E94F8
:101480006321609388027093890280938A0290930B
:101490008B02842D952DA62DB72D80938C029093D1
:1014A0008D02A0938E02B0938F022FEC36EE44E5AE
:1014B0005EE3C701B6010E9489236B017C0122EE25
:1014C00037E64AE75FE3602F712F822D932D0E944C
:1014D00089239B01AC01C701B6010E946221609380
:1014E00090027093910280939202909393022091C4
:1014F000BC023091BD024091BE025091BF0260918A
:101500008A0570918B0580918C0590918D050E94C4
:10151000622129E732E240EA59E30E9489232B0144
:101520003C012091C0023091C1024091C202509111
:10153000C30260918E0570918F0580919005909106
:1015400091050E94622129E732E240EA59E30E94B4
:1015500089238B011C012091B8023091B90240917E
:10156000BA025091BB026091860570918705809107
:101570008805909189050E94622129E732E240EABC
:1015800059E30E9489236B017C01F7FAF094F7F884
:10159000F09422EE37E64AE75FE3C701B6010E9406
:1015A00089234B015C012FEC36EE44E55EE3602FAE
:1015B000712F822D932D0E9489239B01AC01C501BF
:1015C000B4010E9463216093700270937102809352
:1015D000720290937302842D952DA62DB72D8093C2
:1015E000740290937502A0937602B09377022FEC69
:1015F00036EE44E55EE3C701B6010E9489236B0124
:101600007C0122EE37E64AE75FE3602F712F822DDF
:10161000932D0E9489239B01AC01C701B6010E9452
:101620006221609378027093790280937A0290939A
:101630007B0260916C0270916D0280916E029091BC
:101640006F0220E030E54DE754E40E944A1D6093AC
:1016500068027093690280936A0290936B02FCE7C0
:101660008F2EF2E09F2E07ED15E0A8E8AA2EA2E04B
:10167000BA2EB4E9CB2EB2E0DB2E8FEE482E85E0F9
:10168000582E90EA692E92E0792EE12CF12CD401AB
:101690006D917D918D919D914D0120E030E040E074
:1016A0005FE30E948923F8016083718382839383BF
:1016B000D5016D917D918D919D915D019B01AC0155
:1016C0000E946321F8016487758786879787D60112
:1016D0006D917D918D919D916D0120E030E040E014
:1016E0005FE30E948923F201608371838283938385
:1016F000D3016D917D918D919D913D019B01AC0137
:101700000E946321F2016487758786879787FFEFC0
:10171000EF1AFF0A0C5F1F4F24E0420E511C33E00A
:10172000E316F10409F0B3CFC0907605D0907705A9
:10173000E0907805F0907905209170023091710267
:101740004091720250917302C701B6010E94892331
:1017500020E030E040E05FE30E9489231B012C0180
:101760002091740230917502409176025091770277
:10177000C701B6010E94892320E030E040E05FE32A
:101780000E9489233B014C0120917802309179021B
:1017900040917A0250917B02C701B6010E948923D1
:1017A00020E030E040E05FE30E9489235B018C0190
:1017B000222D332D442D552D622D732D842D952DE5
:1017C0000E94892320E030E040E85FE30E9463212B
:1017D0006B017C01262D372D482D592D662D772D37
:1017E000882D992D0E9489239B01AC01C701B60168
:1017F0000E9463216B017C012A2D3B2D402F512F2C
:101800006A2D7B2D802F912F0E9489239B01AC0193
:10181000C701B6010E9463210E943C246B017C0138
:101820009B01AC0160E070E080E89FE30E94E22150
:101830006A8F79AB898F9FA3A7019601622D732DC3
:10184000842D952D0E94E2216D877BA78CA79DA7F3
:10185000A7019601662D772D882D992D0E94E221F2
:10186000698B7EA78FA798ABA70196016A2D7B2D68
:10187000802F912F0E94E221162F072F382E292E1C
:101880008091540290915502A0915602B091570256
:101890008D8B9E8BAF8BB88FC0905802D090590221
:1018A000E0905A02F0905B0280905C0290905D02A2
:1018B000A0905E02B0905F02409060025090610282
:1018C00060906202709063029C01AD01BA8DA9A97B
:1018D000E98DFFA16B2F7A2FCF010E9489236983A5
:1018E0007A838B839C83A7019601BD85ABA5ECA56C
:1018F000FDA56B2F7A2FCF010E9489239B01AC019C
:1019000069817A818B819C810E94622169837A83BB
:101910008B839C83A5019401B989AEA5EFA5F8A995
:101920006B2F7A2FCF010E9489239B01AC01698123
:101930007A818B819C810E94622169837A838B8367
:101940009C83A3019201D801F1016B2F7A2F8F2F75
:101950009E2F0E9489239B01AC0169817A818B8132
:101960009C810E94622169837E8F8F8F98A3A7013B
:101970009601BA8DA9A9E98DFFA16B2F7A2FCF010E
:101980000E9489236D837E838F8398877D856BA5D5
:101990009CA58DA5272F362F492F582F6D897E891D
:1019A0008F89988D0E9489239B01AC016D817E8176
:1019B0008F8198850E9463216D837E838F839887B2
:1019C000A3019201B989AEA5EFA5F8A96B2F7A2FD3
:1019D000CF010E9489239B01AC016D817E818F81A3
:1019E00098850E9462216D837E838F839887A501ED
:1019F0009401D801F1016B2F7A2F8F2F9E2F0E9417
:101A000089239B01AC016D817E818F8198850E9425
:101A100063216D8379A38AA39BA3A5019401BA8D49
:101A2000A9A9E98DFFA16B2F7A2FCF010E948923ED
:101A300069877A878B879C8779896EA59FA588A9F6
:101A4000272F362F492F582F6D897E898F89988DA2
:101A50000E9489239B01AC0169857A858B859C85D1
:101A60000E94632169877A878B879C87A7019601EB
:101A7000D801F1016B2F7A2F8F2F9E2F0E9489237F
:101A80009B01AC0169857A858B859C850E946221CA
:101A900069877A878B879C87A3019201BD85ABA557
:101AA000ECA5FDA56B2F7A2FCF010E9489239B0106
:101AB000AC0169857A858B859C850E946321698745
:101AC0007CA38DA39EA3A3019201BA8DA9A9798CB1
:101AD0006FA06B2F7A2F872D962D0E9489232B01C3
:101AE0003C01B801C101272F362F492F582F6D898E
:101AF0007E898F89988D0E9489239B01AC01C30147
:101B0000B2010E9463212B013C01A5019401BD8516
:101B1000ABA5ECA51DA56B2F7A2F8E2F912F0E94C0
:101B200089239B01AC01C301B2010E9462214B01D8
:101B30005C01A7019601B989AEA5EFA518A96B2F85
:101B40007A2F8E2F912F0E9489239B01AC01C50112
:101B5000B4010E9463218B018AAF9FAB59814E8DE6
:101B60003F8D28A1852F942FA32FB22F809354024D
:101B700090935502A0935602B09357025D8149A1FC
:101B80003AA12BA1852F942FA32FB22F8093580217
:101B900090935902A0935A02B0935B0259854CA1CD
:101BA0003DA12EA1852F942FA32FB22F80935C02ED
:101BB00090935D02A0935E02B0935F023AAD2FA9AD
:101BC000802F912FA32FB22F8093600290936102F8
:101BD000A0936202B093630279816E8D9F8D88A17C
:101BE000272F362F492F582FDB017C016B2F7A2F9F
:101BF0008F2D9E2D0E9489236FA37D878BA79CA785
:101C00007D8169A19AA18BA1272F362F492F582FAB
:101C1000DB017C016B2F7A2F8F2D9E2D0E94892353
:101C20006DA7798B8EA79FA779856CA19DA18EA1A9
:101C3000272F362F492F582FDB017C016B2F7A2F4E
:101C40008F2D9E2D0E9489236D8B798F1C019AAD5B
:101C50008FA9202F312F492F582FFC01602F712F72
:101C60008F2F9E2F0E9489236B017C017DA569899E
:101C70009EA58FA5272F362F492F582FBFA1AD85A1
:101C8000BBA4ACA46B2F7A2F8B2D9A2D0E946321BD
:101C9000BD89A98D2B2F3A2F422D532D0E946221F1
:101CA0002C2D3D2D4E2D5F2D0E9462216093070645
:101CB000709308068093090690930A0679856CA1B3
:101CC0009DA18EA1272F362F492F582FBD81A9A165
:101CD000BAA0ABA06B2F7A2F8B2D9A2D0E9489234F
:101CE0004B015C019AAD8FA9202F312F492F582F1E
:101CF000B981AE8D7F8C68A06B2F7A2F872D962DA2
:101D00000E9489232B013C01762F272F352D462D4C
:101D1000572D682D792D8A2D9B2D0E9463219B01C3
:101D2000AC010E94632160930B0670930C068093B4
:101D30000D0690930E069AAD8FA9202F312F492FB3
:101D4000582FBD81A9A1EAA1FBA16B2F7A2FCF014A
:101D50000E94892368AB7A8F89AB9AAB79856CA195
:101D60009DA18EA1272F362F492F582FB981AE8DD7
:101D7000EF8DF8A16B2F7A2FCF010E9489236BABD7
:101D80007CAB8DAB9EAB762F6CA9982F8EA9272F9D
:101D9000362F492F582FB8A9AA8DE9A9FAA96B2F78
:101DA0007A2FCF010E9462219B01AC010E94632126
:101DB00060930F067093100680931106909312069D
:101DC000242D352D462D572D682D792D8A2D9B2DAF
:101DD0000E9462219B01AC010E9463216093130663
:101DE0007093140680931506909316067DA5698955
:101DF0009EA58FA5272F362F492F582FBFA1AD8520
:101E0000BBA4ACA46B2F7A2F8B2D9A2D0E9462213C
:101E10004B015C017D89698D272F362F422D532D73
:101E2000682D792D8A2D9B2D0E9463212C2D3D2D0F
:101E30004E2D5F2D0E946221609317067093180645
:101E40008093190690931A069AAD8FA9202F312FEF
:101E5000492F582FB985ACA1EDA11EA16B2F7A2F68
:101E60008E2F912F0E9489238B018D8799877D81E9
:101E700069A19AA18BA1272F362F492F582FB981FD
:101E8000AE8D7F8C68A06B2F7A2F872D962D0E94A8
:101E900089232B013C01762F272F352D462D572DD9
:101EA000FD85E985602F712F8F2F9E2F0E94632162
:101EB0009B01AC010E94632160931B0670931C067A
:101EC00080931D0690931E067BA96CA99DA98EA9DF
:101ED000272F362F492F582FB8A9AA8DE9A9FAA97B
:101EE0006B2F7A2FCF010E9463219B01AC010E94CE
:101EF000632160931F0670932006809321069093C0
:101F00002206242D352D462D572DFD85E985602F80
:101F1000712F8F2F9E2F0E9462219B01AC010E9486
:101F20006321609323067093240680932506909383
:101F300026067D89698D272F362F422D532D682D3A
:101F4000792D8A2D9B2D0E9462212C2D3D2D4E2D09
:101F50005F2D0E946321609327067093280680936B
:101F6000290690932A06809184059091850518167C
:101F700019060CF04DC01092070610920806109238
:101F8000090610920A0610920B0610920C06109287
:101F90000D0610920E0610920F0610921006109267
:101FA0001106109212061092130610921406109247
:101FB0001506109216061092170610921806109227
:101FC000190610921A0610921B0610921C06109207
:101FD0001D0610921E0610921F06109220061092E7
:101FE00021061092220610922306109224061092C7
:101FF00025061092260610922706109228061092A7
:10200000290610922A0601979093850580938405EE
:10201000E12CF12C870127E036E044E552E06FEE39
:1020200075E087ED95E00E948901809054029090C0
:102030005502A0905602B0905702C0906002D09016
:102040006102E0906202F0906302A5019401C50173
:10205000B4010E9489232B013C01A7019601C7010D
:10206000B6010E9489239B01AC01C301B2010E9409
:1020700063210E943C249B01AC0160E070E080E899
:102080009FE30E94E2218B011C01762F272F312F25
:10209000422D532DC501B4010E9489232B013C011F
:1020A0002EE936E04FE75FE3752D972D0E948923D7
:1020B00069837E8F8F8F98A3472F382F292F862FE4
:1020C000942FA32FB22F8093440290934502A093A4
:1020D0004602B0934702C701B6019058202F312F16
:1020E000422D532D0E94892326EB3EE742EB5DEB08
:1020F0000E9489236D8379A38AA39BA3472F382F3E
:10210000292F862F942FA32FB22F809348029093CC
:102110004902A0934A02B0934B0226EB3EE742EB02
:102120005DEB642D752D862D972D0E94892369877F
:102130007CA38DA39EA3472F382F292F862F942F62
:10214000A32FB22F80934C0290934D02A0934E0286
:10215000B0934F02202F312F422D532DC701B601CE
:102160000E9489232EE936E04FE75FE30E9489232E
:102170006D8B798F1C01472F862F942FA22DB32DA5
:102180008093500290935102A0935202B093530255
:10219000409058025090590260905A0270905B0231
:1021A00020915C0230915D0240915E0250915F028D
:1021B0002FA338A749A75AA77D8169A19AA18BA10E
:1021C000272F362F492F582FC501B4010E9489238C
:1021D0006D877E878F87988B79816E8D9F8D88A183
:1021E000272F362F492F582FC301B2010E94892370
:1021F0009B01AC016D857E858F8598890E94622147
:102200006D877E878F87988B7D89698D272F362FE5
:10221000422D532D6FA178A589A59AA50E948923E7
:102220009B01AC016D857E858F8598890E94622116
:102230006D877E878F87988B79856CA19DA18EA1F4
:10224000272F362F492F582FC701B6010E94892307
:102250009B01AC016D857E858F8598890E946321E5
:102260006D877BA78CA79DA779856CA19DA18EA169
:10227000272F362F492F582FC501B4010E948923DB
:10228000698B7A8B8B8B9C8B7D89698D272F362F61
:10229000422D532DC301B2010E9489239B01AC0141
:1022A00069897A898B899C890E946321698B7A8BE1
:1022B0008B8B9C8B79816E8D9F8D88A1272F362FDC
:1022C000492F582F6FA178A589A59AA50E94892327
:1022D0009B01AC0169897A898B899C890E94622162
:1022E000698B7A8B8B8B9C8B7D8169A19AA18BA149
:1022F000272F362F492F582FC701B6010E94892357
:102300009B01AC0169897A898B899C890E94622131
:10231000698B7EA78FA798AB7D89698D272F362F74
:10232000422D532DC501B4010E9489236A8F7B8FF2
:102330008C8F9D8F79856CA19DA18EA1272F362F23
:10234000492F582FC301B2010E9489239B01AC0180
:102350006A8D7B8D8C8D9D8D0E9462216A8F7B8F13
:102360008C8F9D8F7D8169A19AA18BA1272F362FFC
:10237000492F582F6FA178A589A59AA50E94892376
:102380009B01AC016A8D7B8D8C8D9D8D0E9463219C
:102390006A8F7B8F8C8F9D8F79816E8D9F8D88A1A9
:1023A000272F362F492F582FC701B6010E948923A6
:1023B0009B01AC016A8D7B8D8C8D9D8D0E9462216D
:1023C00069AB7CAB182F092F7D856BA59CA58DA5CE
:1023D000272F362F492F582FDB01E92FF82F6B2F8E
:1023E0007A2FCF010E9489236A8F7B8F8C8F9D8FDC
:1023F00079896EA59FA588A9272F362F492F582F99
:10240000DB01E92FF82F6B2F7A2FCF010E94892350
:102410009B01AC016A8D7B8D8C8D9D8D0E9463210B
:102420006A8F7B8F8C8F9D8F79A96CA9C801272F0C
:10243000362F492F582FDB01F8016B2F7A2F8F2F62
:102440009E2F0E9489239B01AC016A8D7B8D8C8D10
:102450009D8D0E9463218B018AAB99AB712F0E94E5
:10246000C7216A8F7B8F8C8F9D8F79816E8D9F8D19
:1024700088A1272F362F492F582FC501B4010E945C
:1024800089234B015C017D8169A19AA18BA1272F32
:10249000362F492F582FC301B2010E9489239B0177
:1024A000AC01C501B4010E9463214B015C01798537
:1024B0006CA19DA18EA1272F362F492F582F6FA1D8
:1024C00078A589A59AA50E9489239B01AC01C50125
:1024D000B4010E9463214B015C017D89698D272F26
:1024E000362F422D532DC701B6010E9489239B012F
:1024F000AC01C501B4010E94632120E030E0A901D4
:102500000E947E2318162CF420E030E040E85FE3C0
:1025100004C020E030E040E85FEB6A8D7B8D8C8D5D
:102520009D8D0E9489232B013C013AA929A9602F86
:10253000712F832F922F0E943C246B017C019B0101
:10254000AC01BD85ABA5ECA51DA56B2F7A2F8E2FF9
:10255000912F0E94E221242D352D462D572D0E94CA
:1025600089238B011C014B015C01A7019601B989EC
:10257000AEA5FFA4E8A86B2F7A2F8F2D9E2D0E9469
:10258000E221242D352D462D572D0E948923C62E5C
:10259000D72EE82EF92E4090760550907705609062
:1025A000780570907905A3019201B801C1010E94DC
:1025B0008923209140023091410240914202509182
:1025C00043020E9463211B018C012AE037ED43E2A4
:1025D0005BEB732D912F0E94DE2187FD13C02AE053
:1025E00037ED43E25BE3622D732D802F912F0E9424
:1025F0007E2318166CF47AE0272EE7ED3E2E03E2D8
:102600001BE306C05AE0252E67ED362E03E21BEBD6
:10261000822D932DA02FB12F8093400290934102E1
:10262000A0934202B0934302A3019201C701B601F5
:102630000E94892320913C0230913D0240913E024C
:1026400050913F020E9463213B012C012AE037EDAB
:1026500043E25BEB772D952D0E94DE2187FD15C0AF
:102660002AE037ED43E25BE3662D772D842D952D2F
:102670000E947E2318168CF49AE0692E27ED722EA4
:1026800033E2432E4BE3542E08C0FAE06F2EA7ED41
:102690007A2EB3E24B2E8BEB582E862D972DA42D40
:1026A000B52D80933C0290933D02A0933E02B093DF
:1026B0003F02C501B401905820E030E040E752E409
:1026C0000E9489234B015C0120E030E048E453E4A0
:1026D000622D732D802F912F0E9489239B01AC01C5
:1026E000C501B4010E9462212091700230917102F3
:1026F00040917202509173020E9463215B018C0130
:1027000020E030E040EC5FEB7B2D912F0E94DE213A
:1027100087FD11C020E030E040EC5FE36A2D7B2DA7
:10272000802F912F0E947E2318164CF4A12CB12CDF
:1027300000EC1FE304C0A12CB12C00EC1FEB8A2D90
:102740009B2DA02FB12F8093380290933902A09334
:102750003A02B0933B02C701B601905820E030E046
:1027600040E752E40E9489236B017C0120E030E0C5
:1027700048E453E4662D772D842D952D0E948923FE
:102780009B01AC01C701B6010E9462212091740235
:102790003091750240917602509177020E94632138
:1027A0008B017C0120E030E040EC5FEB712F9F2D2E
:1027B0000E94DE2187FD13C020E030E040EC5FE3A3
:1027C000602F712F8E2D9F2D0E947E2318166CF482
:1027D00000E010E070ECE72EEFE3FE2E06C000E014
:1027E00010E050ECE52E6FEBF62E802F912FAE2DE2
:1027F000BF2D8093340290933502A0933602B0939C
:10280000370210923002109231021092320210926E
:10281000330200E012E040E1E42E42E0F42E212CED
:10282000312CD8016D917D918D919D918D01F70194
:1028300041905190619071907F01209138023091C8
:10284000390240913A0250913B020E9489234B0188
:102850005C01209134023091350240913602509152
:102860003702C301B2010E9489239B01AC01C5015B
:10287000B4010E9463215B016C0120E030E040E87C
:102880005FEB7B2D9D2D0E94DE2187FD1FC020E088
:1028900030E040E85FE36A2D7B2D8C2D9D2D0E945A
:1028A0007E231816B4F028E03FE144ED53E46A2D8E
:1028B0007B2D8C2D9D2D0E94892320E030E84BEB51
:1028C00054E40E9463210E944A2205C063E374E03D
:1028D00002C064E877E0C101880F991F820D931D43
:1028E00085539A4F0E94291CFFEF2F1A3F0A24E0BC
:1028F0002216310409F095CF60917E0570917F0515
:10290000809180059091810524E630E040E050E020
:102910000E949C2521E0672B682B692B09F020E0A1
:10292000622F8DE00E94A81680917E0590917F0510
:10293000A0918005B09181050196A11DB11D8093E4
:102940007E0590937F05A0938005B0938105EA965C
:102950000FB6F894DEBF0FBECDBFDF91CF911F91B0
:102960000F91FF90EF90DF90CF90BF90AF909F902E
:102970008F907F906F905F904F903F902F90089531
:10298000CF93DF938CEF99EAA1E7BDEB80932B0601
:1029900090932C06A0932D06B0932E068DEC9CEC04
:1029A000ACE4BDE380932F0690933006A0933106EC
:1029B000B093320610923306109234061092350608
:1029C00010923606CBECD5E0CE010E945A1B23961E
:1029D00085E0C73DD807C1F78AEC95E00E94631CEB
:1029E00084E995E0DF91CF910C948F1D1F920F9297
:1029F0000FB60F9211242F933F938F939F93AF9312
:102A0000BF938091370690913806A0913906B09116
:102A10003A0630913F06232F2D5F2D3720F4019683
:102A2000A11DB11D05C0232F2A570296A11DB11D5E
:102A300020933F068093370690933806A09339067B
:102A4000B0933A0680913B0690913C06A0913D06DA
:102A5000B0913E060196A11DB11D80933B06909357
:102A60003C06A0933D06B0933E06BF91AF919F9167
:102A70008F913F912F910F900FBE0F901F9018953F
:102A80000F931F938FB7F894009137061091380673
:102A90002091390630913A068FBFB801C9011F91C4
:102AA0000F9108950F931F939FB7F89400913B06E1
:102AB00010913C0620913D0630913E0686B5A89BBC
:102AC00006C08F3F21F00F5F1F4F2F4F3F4F9FBF1B
:102AD000322F212F102F0027080F111D211D311D0E
:102AE00042E0000F111F221F331F4A95D1F7B80192
:102AF000C9011F910F910895CF92DF92EF92FF923B
:102B0000CF93DF936B017C010E945215EB010EC045
:102B10000E9452156C1B7D0B683E734038F081E0BB
:102B2000C81AD108E108F108C851DC4FC114D1041A
:102B3000E104F10469F7DF91CF91FF90EF90DF900E
:102B4000CF900895789484B5826084BD84B5816007
:102B500084BD85B5826085BD85B5816085BDEEE6A5
:102B6000F0E0808181608083E1E8F0E01082808184
:102B700082608083808181608083E0E8F0E08081F2
:102B800081608083E1EBF0E0808184608083E0EB12
:102B9000F0E0808181608083E1E9F0E08081826003
:102BA0008083808181608083E0E9F0E080818160C2
:102BB0008083E1EAF0E080818260808380818160AF
:102BC0008083E0EAF0E0808181608083E1E2F1E0EF
:102BD000808182608083808181608083E0E2F1E097
:102BE000808181608083EAE7F0E080818460808377
:102BF0008081826080838081816080838081806821
:102C000080831092C1000895893009F443C088F48C
:102C1000843029F138F4823059F1E8F4813009F038
:102C20005EC023C0873061F188F5863009F057C057
:102C300023C08D3009F440C020F48B30A9F1C0F5D9
:102C40002DC0803109F442C0813109F443C08F3076
:102C500009F045C037C0809180008F7703C0809114
:102C600080008F7D80938000089584B58F7702C0A7
:102C700084B58F7D84BD08958091B0008F7703C0A7
:102C80008091B0008F7D8093B00008958091900076
:102C90008F7707C0809190008F7D03C08091900056
:102CA000877F8093900008958091A0008F7707C060
:102CB0008091A0008F7D03C08091A000877F8093CA
:102CC000A0000895809120018F7707C08091200196
:102CD0008F7D03C080912001877F8093200108951C
:102CE000CF93DF9390E0FC01E851FE4F4491FC014B
:102CF000E25DFD4F8491882341F190E0880F991F98
:102D0000FC01E257FD4F25913491D9018C589D4F1C
:102D1000FC0185919491C82FD92F9FB7F8948C917D
:102D2000611106C0409584238C938881842308C058
:102D3000623041F4242F209582238C938881842B48
:102D4000888302C0842B8C939FBFDF91CF9108951D
:102D50000F931F93CF93DF931F92CDB7DEB7282F2A
:102D600030E0F901EE55FE4F8491F901E851FE4F34
:102D70001491F901E25DFD4F04910023D1F0882305
:102D800021F069830E9404166981E02FF0E0EE0FC4
:102D9000FF1FEC58FD4F85919491DC019FB7F8948B
:102DA0008C91611103C01095812301C0812B8C93FC
:102DB0009FBF0F90DF91CF911F910F9108950E94B7
:102DC000A2150E947207C0E0D0E00E94B5082097CB
:102DD000E1F30E940000F9CF2091700630E080916D
:102DE0007106281B3109C9010895809171069091DF
:102DF0007006891750F4E82FF0E0EE58F94F208163
:102E000030E08F5F8093710602C02FEF3FEFC90162
:102E10000895E091710680917006E81730F4F0E0B3
:102E2000EE58F94F208130E002C02FEF3FEFC9018B
:102E300008950895CF92DF92EF92FF920F931F9320
:102E4000CF93DF937C01CB018A0120914C06222392
:102E500091F0EB016B01C40ED51E09C06991D70139
:102E6000ED91FC910190F081E02DC7011995CC15F1
:102E7000DD05A1F703C0642F0E948118C801DF910E
:102E8000CF911F910F91FF90EF90DF90CF90089519
:102E9000CF93DF931F92CDB7DEB7698320914C06A5
:102EA0002223D1F020914D06203240F021E030E085
:102EB000FC013383228320E030E015C080914E0670
:102EC000E82FF0E0E15BF94F998190838F5F809369
:102ED0004E0680934D0605C061E0CE0101960E942A
:102EE000811821E030E0C9010F90DF91CF91089562
:102EF000FC011382128248EE53E060E070E04483EC
:102F000055836683778384E292E09183808308957A
:102F1000109271061092700610924E0610924D0695
:102F20000C94CB17862F413208F040E262E776E03E
:102F30000E94E9171092710680937006089521E0AF
:102F40000C94921721E00C94921781E080934C0628
:102F500060936F0610924E0610924D0608950C94E1
:102F6000A5170F93062F21E040914D066FE476E000
:102F700080916F060E942E1810924E0610924D06F8
:102F800010924C060F91089561E00C94B11780E403
:102F900096E00C94781710929B0681E08093990636
:102FA0001092980661E084E10E94A81661E085E134
:102FB0000E94A816E9EBF0E080818E7F80838081FB
:102FC0008D7F808388E48093B80085E48093BC0083
:102FD0000895413208F03FC090919B069111FCCFBB
:102FE00091E090939B06209399062FEF20939206F1
:102FF00010929706242F21502093960690939A06BC
:1030000090919A06880F892B80939A068091980652
:10301000813041F41092980680919A068093BB000B
:1030200085EC01C085EE8093BC0080919B068130C9
:10303000E1F380919706841710F4409197062CE9EC
:1030400036E0FB01D90102C08D9181938A2F821B4A
:103050008417D0F301C040E0842F08950F934132CC
:1030600008F046C090919B069111FCCF92E090939E
:103070009B06009399069FEF9093920610929706F5
:1030800040939606FB016CE976E0DB0102C091916A
:103090009D939A2F961B9417D0F310929A069091B5
:1030A0009A06880F892B80939A0680919806813022
:1030B00041F41092980680919A068093BB0085ECAB
:1030C00001C085EE8093BC00222321F080919B06F5
:1030D0008230E1F3809192068F3F61F080919206F9
:1030E000803251F080919206803341F483E007C032
:1030F00081E005C080E003C082E001C084E00F9160
:103100000895613298F420919B06243089F46093ED
:103110009406FC018CEB96E0DC0102C021912D931A
:103120002A2F281B2617D0F380E0089581E0089508
:1031300082E0089585ED8093BC008091BC0084FD01
:10314000FCCF10929B06089585EC8093BC001092F2
:103150009B0608951F920F920FB60F9211240BB683
:103160000F922F933F934F935F936F937F938F9320
:103170009F93AF93BF93EF93FF938091B900887FA4
:10318000803609F49FC058F5883209F45BC090F48A
:10319000803109F452C038F4882309F4F8C088302B
:1031A00009F0F9C04AC0883109F44CC0803209F0F6
:1031B000F2C05CC0803409F46BC038F4803309F489
:1031C00055C0883309F0E7C054C0803509F454C0B5
:1031D000883509F462C0883409F0DDC0DAC0883966
:1031E00009F4CBC0A8F4883709F46CC038F48836E9
:1031F00009F468C0803709F0CEC064C0883809F48B
:10320000BCC0803909F464C0803809F0C4C060C013
:10321000803B09F48AC038F4803A09F46BC0883ADC
:1032200009F0B9C082C0803C09F4ABC0883C09F405
:10323000A8C0883B09F0AFC08DC080919A068093EA
:10324000BB0012C09091970680919606981788F55A
:1032500080919706E82FF0E0E456F94F9081909323
:10326000BB008F5F8093970685EC88C080939206A1
:1032700090C08093920656C0809197069091BB00B3
:10328000E82FF0E0E456F94F90838F5F8093970624
:1032900090919706809196066DC0809197069091C7
:1032A000BB00E82FF0E0E456F94F90838F5F8093E6
:1032B00097068091990681116CC081E080939806F1
:1032C00084EA60C083E080939B0610929306CCCF83
:1032D00080919306803208F050C0809193069091BF
:1032E000BB00E82FF0E0E052F94F90838F5F8093AE
:1032F0009306BACF80919306803230F4E091930622
:10330000F0E0E052F94F10820E949A186091930603
:10331000E091DC06F091DD0670E080EE96E0199514
:10332000109293060E94A41836C084E080939B06F6
:103330001092950610929406E091DE06F091DF0659
:10334000199580919406811105C081E080939406BF
:103350001092BC0680919506E82FF0E0E454F94FF6
:1033600090819093BB008F5F809395069091950616
:1033700080919406981708F477CF85E88093BC0075
:103380000AC085EC8093BC0010929B0604C010928A
:1033900092060E949A18FF91EF91BF91AF919F9171
:1033A0008F917F916F915F914F913F912F910F90EE
:1033B0000BBE0F900FBE0F901F901895EF92FF92CB
:1033C0000F931F93CF93DF938B017A01C82FD0E027
:1033D000DE01AF5FB84F8C9187FF05C0DB0111960E
:1033E0001C921E9222C02CE02C9FC0012D9F900D9C
:1033F00011242C91AC01420F511D27FD5A952091AB
:10340000000730E04217530784F42C91FC01E20FCF
:10341000F11D27FDFA959F01EE0FFF1FE20FF31F2D
:10342000EB5FF84F208126FD45C0FE01EF5FF84FAE
:1034300080818F5F80832CE02C9FC0012D9F900D99
:1034400011242081AC01420F511D27FD5A95209176
:10345000000730E0421753070CF03EC020812C30AB
:103460000CF442C039C02081820F911D27FD9A952E
:10347000FC01EE0FFF1FE80FF91FEB5FF84F808193
:1034800061E08F73DF91CF911F910F91FF90EF90CB
:103490000C94A81680E49CE904C0F8018081918115
:1034A0000496D70111969C938E93CF5FD84F8FEFE0
:1034B000888345C02C91820F911D27FD9A95FC01B0
:1034C000EE0FFF1FE80FF91FEB5FF84F808160E000
:1034D0008F730E94A816A9CFF8018081918104966C
:1034E00080349C49B8F2D9CFD8012D913C914081CC
:1034F000BC01640F711D47FD7A95AB01DB01AA0F7A
:10350000BB1FA40FB51FAB5FB84F11964D915C91D7
:103510001297240F351FD70111963C932E932081CB
:10352000AC01420F511D27FD5A95DA01AA0FBB1FAE
:10353000A40FB51FAB5FB84F2C9126FD94CFDF9140
:10354000CF911F910F91FF90EF9008951F920F92CE
:103550000FB60F9211240BB60F922F933F934F93F8
:103560005F936F937F938F939F93AF93BF93EF93EB
:10357000FF9348E850E064E870E081E00E94DE19C3
:10358000FF91EF91BF91AF919F918F917F916F913B
:103590005F914F913F912F910F900BBE0F900FBEF7
:1035A0000F901F9018951F920F920FB60F92112433
:1035B0000BB60F922F933F934F935F936F937F932D
:1035C0008F939F93AF93BF93EF93FF9348E950E09E
:1035D00064E970E082E00E94DE19FF91EF91BF91F3
:1035E000AF919F918F917F916F915F914F913F919B
:1035F0002F910F900BBE0F900FBE0F901F9018953C
:103600001F920F920FB60F9211240BB60F922F93A9
:103610003F934F935F936F937F938F939F93AF935A
:10362000BF93EF93FF9348EA50E064EA70E083E0D1
:103630000E94DE19FF91EF91BF91AF919F918F9101
:103640007F916F915F914F913F912F910F900BBEA2
:103650000F900FBE0F901F9018951F920F920FB6EC
:103660000F9211240BB60F922F933F934F935F93BA
:103670006F937F938F939F93AF93BF93EF93FF933A
:1036800048E251E064E271E080E00E94DE19FF91BF
:10369000EF91BF91AF919F918F917F916F915F91CA
:1036A0004F913F912F910F900BBE0F900FBE0F9037
:1036B0001F901895209100072033A0F4FC0120836F
:1036C000822F8F5F80930007822F90E0FC01EE0F26
:1036D000FF1FE80FF91FEB5FF84F88EB9BE0928329
:1036E000818308952FEFFC0120830895DF92EF92EC
:1036F000FF920F931F93CF93DF93EC01D62E7A01A5
:1037000089018881803308F091C061E08D2D0E948D
:1037100070168881A82FB0E0FD01EE0FFF1FEA0FA1
:10372000FB1FEB5FF84F2D2D2F739081907C922B18
:10373000908360E272E06E197F0977FF02C06D5FCF
:103740007F4F7595679575956795698340E659E054
:10375000401B510B57FF02C04D5F5F4F559547957A
:10376000559547954A832CE0622F0E946E25289F2D
:10377000B001112420E030E0A901460F571FFA01E3
:10378000EE0FFF1FE40FF51FEB5FF84F908196FDE2
:1037900041C02F5F3F4F2C30310571F749C0109267
:1037A000800082E080938100109285001092840056
:1037B000B19A80916F00826080936F002BC082303D
:1037C00061F41092900080939100109295001092F5
:1037D000940088BB809371001DC0833069F41092FF
:1037E000A00082E08093A1001092A5001092A40096
:1037F00089BB809372000EC081110CC01092200111
:1038000082E08093210110922501109224018ABB4D
:1038100080937300888190E0FC01EE0FFF1FE80F9A
:10382000F91FEB5FF84F808180648083888103C03B
:10383000813029F6B4CFDF91CF911F910F91FF9086
:10384000EF90DF90089520E639E040E252E00C94DA
:10385000761BFC018081803370F5918128E830E08F
:10386000291B310997FD3395220F331F220F331F78
:10387000621773077CF0928128E532E0291B310939
:1038800097FD3395220F331F220F331F62177307E3
:103890000CF49B014FB7F89490E0FC01EE0FFF1F72
:1038A000E80FF91FEB5FF84F22503109220F331F49
:1038B000328321834FBF0895DC01ED91FC9101908B
:1038C000F081E02D19942DE5FC01208308951F93CC
:1038D000CF93DF931F92CDB7DEB7162FFC01608127
:1038E00080E496E049830E94A517612F80E496E06A
:1038F0000E9448174981642F80E496E00E9448178F
:1039000080E496E00F90DF91CF911F910C94C41743
:1039100040EE60E20C94671C1F93CF93DF93EC01A1
:10392000162F688180E496E00E94A517612F80E43D
:1039300096E00E94481760E080E496E00E94B1178C
:1039400041E0688180E496E00E949F1780E496E061
:103950000E94F516C82F80E496E00E94C4178C2FB1
:10396000DF91CF911F910895FF920F931F93CF93F3
:10397000DF938C01FC01608180E496E00E94A51732
:1039800068EA70E080E496E00E945C1C80E496E0C7
:103990000E94C41743E0F801608180E496E00E9431
:1039A0009F1780E496E00E94EC160397D4F380E41E
:1039B00096E00E94F516082F80E496E00E94F51626
:1039C000F82E80E496E00E94F51610E020E030E04A
:1039D000282BDF2DF0E0CF2FCE01A0E0B0E0082BA8
:1039E000192B2A2B3B2BB801C901DF91CF911F91D5
:1039F0000F91FF9008950E94B41C0E947D2220E048
:103A000030E040E859E30E9489230895CF93DF9383
:103A1000EC01688180E496E00E94A5176BEA70E0F3
:103A200080E496E00E945C1C80E496E00E94C4174B
:103A300042E0688180E496E00E949F1780E496E06F
:103A40000E94EC160297D4F380E496E00E94F516EB
:103A5000C82F80E496E00E94F516382F22272C2BE1
:103A6000C901DF91CF9108950E94061DBC018827EE
:103A700077FD8095982F0E947D2220E030E040EF76
:103A800053E40E94E22120E030E04AE252E40E9446
:103A9000632108950E94E2212EE434ED42E45EE3C6
:103AA0000E94EC23262F372F482F592F60E070E01B
:103AB00080E89FE30E9462212DEC3AE24DE257E458
:103AC0000E94892308956FE00E948C1C91E08B3B3B
:103AD00009F090E0892F0895CF93DF93EC018CE5F6
:103AE0008883CE010E94631D811107C08DE5888304
:103AF000CE01DF91CF910C94631D81E0DF91CF91D6
:103B00000895662319F0613041F402C02CE501C02C
:103B10002DE5FC0120830C94631D0C946C1DFC01AD
:103B200080E090E0A7E0B4E4808F918FA28FB38F04
:103B300080E090E0AAEFB3E4848F958FA68FB78FD3
:103B400080E090E0A4E3B3E480A391A3A2A3B3A395
:103B500040E050E062E074EC44A355A366A377A371
:103B600040E050E86EE074EC40A751A762A773A74D
:103B700040E050E860E474EC44A755A766A777A737
:103B800083E081AB88E182AB14AA13AA15AA089539
:103B9000EF92FF921F93CF93DF931F92CDB7DEB7C3
:103BA0007C01162FFC0162A980E496E049830E9403
:103BB000A517612F80E496E00E9448174981642F81
:103BC00080E496E00E94481780E496E00E94C417C3
:103BD000F70180AB0F90DF91CF911F91FF90EF9095
:103BE0000895EF92FF921F93CF93DF931F92CDB76B
:103BF000DEB77C01162F6EE170E080E496E0498329
:103C00000E94AF17612F80E496E00E944817498117
:103C1000642F80E496E00E94481780E496E00E94BA
:103C2000C417F70180AB0F90DF91CF911F91FF90E8
:103C3000EF900895CF93DF93EC0147E260E20E949A
:103C4000C81D89A9823029F448E063E2CE010E94B0
:103C5000C81D40E062E0CE01DF91CF910C94F11DD0
:103C60000F931F93CF93DF938C01EB0177FF31C04C
:103C70006D3F8FEF7807C1F02CF46C3FFFEF7F07AB
:103C800041F517C06E3F8FEF780749F06F3FEFEFB8
:103C90007E07F9F4F80181A9811110C015C0F8015F
:103CA00081A981110EC013C0F80181A981110CC036
:103CB00005C0F80181A981110AC003C0C7E0D0E0A6
:103CC00008C0C8E0D0E005C0C5E0D0E002C0C6E052
:103CD000D0E06EE170E080E496E00E94AF17BE0194
:103CE00080E496E00E945C1C80E496E00E94C41789
:103CF000F80180AB41E050E06EE170E080E496E0D6
:103D00000E94A21780E496E00E94F516C82F80E476
:103D100096E00E94C4178C2FDF91CF911F910F91D5
:103D200008956F927F928F929F92AF92BF92CF929F
:103D3000DF92EF92FF920F931F93CF93DF93EC01EB
:103D40006AA980E496E00E94A51768EA70E080E422
:103D500096E00E945C1C80E496E00E94C41788AB49
:103D600046E06AA980E496E00E949F170E944015F1
:103D70006B011DAA0EC08BA99CA9892B51F00E9432
:103D800040156C197D098BA99CA98617970708F423
:103D90005EC080E496E00E94EC16069764F380E42F
:103DA00096E00E94F516782E80E496E00E94F516C3
:103DB000682E80E496E00E94F516982E80E496E046
:103DC0000E94F516882E80E496E00E94F516D82E03
:103DD00080E496E00E94F516C82EB62CA12CA728E8
:103DE00084E0B594A7948A95E1F7B501882777FD1B
:103DF0008095982F0E947D22688379838A839B8394
:103E0000F82CE12CE92894E0F594E7949A95E1F7F1
:103E1000B701882777FD8095982F0E947D226C83BB
:103E20007D838E839F831C2D00E00D2924E0159552
:103E300007952A95E1F7B801882777FD8095982F97
:103E40000E947D22688779878A879B8702C081E0EC
:103E50008DABDF91CF911F910F91FF90EF90DF908D
:103E6000CF90BF90AF909F908F907F906F9008956C
:103E7000AF92BF92CF92DF92EF92FF920F931F9378
:103E8000CF93DF93EC016EE170E080E496E00E9456
:103E9000AF1763E070E080E496E00E945C1C80E471
:103EA00096E00E94C41788AB46E050E06EE170E0F7
:103EB00080E496E00E94A2170E9440158B011DAA83
:103EC0000EC08BA99CA9892B51F00E944015601B44
:103ED000710B8BA99CA98617970708F465C080E42D
:103EE00096E00E94EC16069764F380E496E00E9448
:103EF000F516A82E80E496E00E94F516B82E89A942
:103F0000811115C080E496E00E94F516C82E80E469
:103F100096E00E94F516D82E80E496E00E94F516F1
:103F2000082F80E496E00E94F516182F14C080E454
:103F300096E00E94F516082F80E496E00E94F516A0
:103F4000182F80E496E00E94F516C82E80E496E0D3
:103F50000E94F516D82EFA2CE12CEB28B701882701
:103F600077FD8095982F0E947D226C877D878E87B4
:103F70009F877C2D60E06D29882777FD8095982F9D
:103F80000E947D22688B798B8A8B9B8B702F60E0DF
:103F9000612B882777FD8095982F0E947D226C8B5E
:103FA0007D8B8E8B9F8B02C081E08DABDF91CF919B
:103FB0001F910F91FF90EF90DF90CF90BF90AF9047
:103FC0000895CF93DF93EC010E94911ECE01DF9103
:103FD000CF910C94381FCF93DF93EC0168E170E030
:103FE00080E496E00E94AF1760E270E080E496E023
:103FF0000E945C1C80E496E00E94C41788AB41E0FC
:1040000050E068E170E080E496E00E94A21780E44E
:1040100096E00E94EC16892B31F080E496E00E9435
:10402000F51680E001C081E0DF91CF910895CF9334
:10403000DF93EC0169AB623018F0623089F40DC097
:10404000411101C008C0413009F407C00E94EB1FB4
:10405000813009F402C088E101C089E18AAB15C052
:104060000E94EB1F813029F489E18AAB82E089ABA1
:104070000CC088E18AAB6FE070E0CE010E94301E78
:1040800091E08C3309F090E099ABDF91CF910895E6
:104090001F93CF93DF931F92CDB7DEB7162FFC018E
:1040A000658580E496E049830E94A517612F80E42E
:1040B00096E00E9448174981642F80E496E00E94B0
:1040C000481780E496E00F90DF91CF911F910C94F8
:1040D000C4174FE060E20C9448201F93CF93DF9306
:1040E000EC01162F6D8580E496E00E94A517612FE4
:1040F00080E496E00E94481780E496E00E94C4178E
:1041000041E06D8580E496E00E949F1780E496E090
:104110000E94F516C82F80E496E00E94C4178C2FE9
:10412000DF91CF911F9108956F927F928F929F920E
:10413000AF92BF92CF92DF92EF92FF920F931F93B5
:10414000CF93DF93EC016D8580E496E00E94A51784
:10415000E0914006F09141060190F081E02D68EA7F
:1041600080E496E0199580E496E00E94C41746E04A
:104170006D8580E496E00E949F1780E496E00E949F
:10418000EC160697D4F380E496E00E94F516782E9C
:1041900080E496E00E94F516682E80E496E00E9486
:1041A000F516982E80E496E00E94F516882E80E49D
:1041B00096E00E94F516D82E80E496E00E94F5164F
:1041C000C82EB62CA12CA728B501882777FD80958D
:1041D000982F0E947D22688379838A839B83F82CA1
:1041E000E12CE928B701882777FD8095982F0E9458
:1041F0007D226C837D838E839F831C2D00E00D299F
:10420000B801882777FD8095982F0E947D226887C6
:1042100079878A879B87DF91CF911F910F91FF90BC
:10422000EF90DF90CF90BF90AF909F908F907F9056
:104230006F900895CF93DF93EC0188E68D876FE050
:10424000CE010E946D20833D11F491E01AC089E6F1
:104250008D876FE0CE010E946D20833DB1F38AE629
:104260008D876FE0CE010E946D20843D71F38BE657
:104270008D876FE0CE010E946D2091E0843D09F0B2
:1042800090E0892FDF91CF910895FC016487613020
:1042900019F0623099F408C0411102C028E607C045
:1042A000413061F429E603C0411104C02AE6FC0153
:1042B000258706C0413011F42BE6F9CF0C941A2162
:1042C00081E008955058BB27AA270ED0DDC1CED17A
:1042D00030F0D3D120F031F49F3F11F41EF48DC1A2
:1042E0000EF4E095E7FB83C1E92FDFD180F3BA1725
:1042F000620773078407950718F071F49EF5F7C1FC
:104300000EF4E0950B2EBA2FA02D0B01B9019001F0
:104310000C01CA01A0011124FF27591B99F0593F34
:1043200050F4503E68F11A16F040A22F232F342F7C
:104330004427585FF3CF469537952795A795F040CA
:104340005395C9F77EF41F16BA0B620B730B840BDF
:10435000BAF09150A1F0FF0FBB1F661F771F881F97
:10436000C2F70EC0BA0F621F731F841F48F48795EF
:1043700077956795B795F7959E3F08F0B3CF9395DE
:10438000880F08F09927EE0F9795879508959F93CA
:104390009F77EEE389379E0720F4E4EEF0E055D1F5
:1043A00009C0E6D09058A2EA2AED3FE049EC5FE36D
:1043B0009BDF6AD10F9007FC90580895F4D008F461
:1043C00081E008950CD060C158D140F04FD130F059
:1043D00021F45F3F19F00BC151118AC10EC165D1A3
:1043E00098F39923C9F35523B1F3951B550BBB27BC
:1043F000AA2762177307840738F09F5F5F4F220F69
:10440000331F441FAA1FA9F333D00E2E3AF0E0E861
:1044100030D091505040E695001CCAF729D0FE2FAD
:1044200027D0660F771F881FBB1F2617370748073F
:10443000AB07B0E809F0BB0B802DBF01FF279358F5
:104440005F4F2AF09E3F510568F0D1C051C15F3FD8
:10445000ECF3983EDCF3869577956795B795F795DD
:104460009F5FC9F7880F911D9695879597F90895D5
:10447000E1E0660F771F881FBB1F62177307840771
:10448000BA0720F0621B730B840BBA0BEE1F88F780
:10449000E095089504D06894B1112AC108950DD112
:1044A00088F09F5790F0B92F9927B751A0F0D1F01D
:1044B000660F771F881F991F1AF0BA95C9F712C0A7
:1044C000B13081F014D1B1E0089511C1672F782F78
:1044D0008827B85F39F0B93FCCF386957795679513
:1044E000B395D9F73EF490958095709561957F4F7F
:1044F0008F4F9F4F0895E89409C097FB3EF4909525
:104500008095709561957F4F8F4F9F4F9923A9F0AC
:10451000F92F96E9BB279395F6958795779567953B
:10452000B795F111F8CFFAF4BB0F11F460FF1BC07F
:104530006F5F7F4F8F4F9F4F16C0882311F096E912
:1045400011C0772321F09EE8872F762F05C06623C0
:1045500071F096E8862F70E060E02AF09A95660F79
:10456000771F881FDAF7880F9695879597F9089532
:10457000DF93CF931F930F938B01EC01E8EFF0E0F3
:104580003FD082D09801AE018B01EC0160E070E079
:1045900080E89FE397DE70D19801AE010F911F91E3
:1045A000CF91DF91C2C0990F0008550FAA0BE0E828
:1045B000FEEF16161706E807F907C0F012161306E5
:1045C000E407F50798F0621B730B840B950B39F425
:1045D0000A2661F0232B242B252B21F408950A268B
:1045E00009F4A140A6958FEF811D811D089597F9CB
:1045F0009F6780E870E060E008959FEF80EC089589
:10460000DF93CF931F930F93FF92EF92DF927B0183
:104610008C01689405C0DA2EEF0187D0FE01E89482
:10462000A5912591359145915591AEF3EF015CDE51
:10463000FE019701A801DA9479F7DF90EF90FF90DF
:104640000F911F91CF91DF9108959F938F937F9347
:104650006F93FF93EF939B01AC015BD0EF91FF91C0
:10466000CFDF2F913F914F915F9153C000240A9467
:104670001616170618060906089500240A9412163D
:104680001306140605060895092E0394000C11F470
:10469000882352F0BB0F40F4BF2B11F460FF04C01D
:1046A0006F5F7F4F8F4F9F4F089557FD9058440F76
:1046B000551F59F05F3F71F04795880F97FB991F81
:1046C00061F09F3F79F0879508951216130614063E
:1046D000551FF2CF4695F1DF08C0161617061806CB
:1046E000991FF1CF86957105610508940895E894A6
:1046F000BB2766277727CB0197F9089554DF08F485
:104700008FEF08959B01AC0160E070E080E89FE3CB
:1047100059CE0BD0B9CFAADF28F0AFDF18F0952320
:1047200009F065CF6ACF1124E3CFBFDFA0F3959FD7
:10473000D1F3950F50E0551F629FF001729FBB2788
:10474000F00DB11D639FAA27F00DB11DAA1F649F34
:104750006627B00DA11D661F829F2227B00DA11DE7
:10476000621F739FB00DA11D621F839FA00D611D6D
:10477000221F749F3327A00D611D231F849F600D8E
:10478000211D822F762F6A2F11249F5750408AF0C7
:10479000E1F088234AF0EE0FFF1FBB1F661F771F53
:1047A000881F91505040A9F79E3F510570F01FCFD0
:1047B0009FCF5F3FECF3983EDCF386957795679546
:1047C000B795F795E7959F5FC1F7FE2B880F911D71
:1047D0009695879597F90895FA01EE0FFF1F309689
:1047E0002105310599F16115710561F48038BFE348
:1047F0009B0749F168949038810561F08038BFEFDC
:104800009B0741F0992342F5FF3FE1053105210562
:1048100011F1E8940894E795D901AA2329F4AB2F64
:10482000BE2FF85FD0F310C0FF5F70F4A695E0F7DD
:10483000F73950F019F0FF3A38F49F779F930CD076
:104840000F9007FC905808953EF0D7CE60E070E0DE
:1048500080E89FE308954FE79F775F934F933F93DF
:104860002F93C9D02F913F914F915F9152DF47C055
:1048700011F40EF4C2CE6FC020DFD0F39923D9F328
:10488000CEF39F57550B87FF74D00024A0E640EA73
:10489000900180585695979528F4805C660F771F95
:1048A000881F20F026173707480730F4621B730B68
:1048B000840B202931294A2BA6951794079420258B
:1048C00031254A2758F7660F771F881F20F02617D3
:1048D0003707480730F4620B730B840B200D311D32
:1048E000411DA09581F7B901842F9158880F9695A5
:1048F0008795089519F40EF07ACEF9CE7ECEDDDEDE
:10490000C8F39638C0F707F80F92E8942BE33AEA19
:1049100048EB5FE70CDF0F920F920F924DB75EB737
:104920000F92A9D0E0E2F1E06BDE4F915F91EF9141
:10493000FF91E595EE1FFF1F49F0FE57E068442701
:10494000EE0F441FFA95E1F74195550B1BD00F90E0
:1049500007FED8CE08959F3F31F0915020F48795FF
:1049600077956795B795880F911D9695879597F9D7
:10497000089591505040660F771F881FD2F7089511
:1049800036CEE9CF9ADEE8F39923D9F3940F511D7F
:10499000BBF39150504094F059F0882332F0660FE9
:1049A000771F881F91505040C1F79E3F510544F733
:1049B000880F911D9695879597F908955F3FACF004
:1049C000983E9CF0BB27869577956795B79508F438
:1049D000B1609395C1F7BB0F58F711F460FFE8CFB2
:1049E0006F5F7F4F8F4F9F4FE3CF82CE0EF0B3CFDD
:1049F00004CE6894FCCD61DEC8F39923D1F3C6F3ED
:104A0000DF93CF931F930F93FF92C92FDD27882346
:104A10002AF02197660F771F881FDAF720E030E031
:104A200040E85FEB9FE3883920F0803E30F021962C
:104A30008F7749DCE8E4F1E003C045DCE5E7F1E02D
:104A4000DFDD8B01BE01EC01FB2E6F5771097595FF
:104A5000771F880B990B51DD28E132E741E35FE3D3
:104A600064DEAF2D9801AE01FF900F911F91CF91A1
:104A7000DF913ADC09CEFA01DC01AA0FBB1F9B01D2
:104A8000AC01BF5728F422273327442750781FC092
:104A9000B75188F4AB2F0024469537952795011C14
:104AA000A395D2F3002069F0220F331F441FB39562
:104AB000DAF30DD007CC61307105A0E88A07B9465A
:104AC00030F49B01AC0166277727882790783096D1
:104AD00021F020833183428353830895991B79E029
:104AE00004C0991F961708F0961B881F7A95C9F77E
:104AF00080950895A1E21A2EAA1BBB1BFD010DC0D3
:104B0000AA1FBB1FEE1FFF1FA217B307E407F5077D
:104B100020F0A21BB30BE40BF50B661F771F881F59
:104B2000991F1A9469F760957095809590959B01EF
:104B3000AC01BD01CF010895052E97FB16F400943A
:104B400007D057FD0DD00E947A2507FC09D07EF4CE
:104B500090958095709561957F4F8F4F9F4F0895E9
:104B600050954095309521953F4F4F4F5F4F089599
:0C4B70000790F691E02D1994F894FFCF07
:104B7C000AD72BBF48A663BE48A663BE0AD72BBF75
:104B8C00B136CE3E00C9143F00C914BFB136CEBEFB
:104B9C000000000048171A17EC16F516091719171C
:00000001FF
