:100000000C9456010C9487010C9487010C94870181
:100010000C9487010C9487010C9487010C94870140
:100020000C9487010C9487010C9487010C94870130
:100030000C9487010C9487010C9487010C94870120
:100040000C9487010C9477180C9487010C94870109
:100050000C9487010C9487010C9487010C94C712AF
:100060000C9487010C9487010C9487010C948701F0
:100070000C9487010C9487010C9487010C948701E0
:100080000C94A4180C9487010C9487010C9487019C
:100090000C9487010C9487010C9487010C947B16B7
:1000A0000C9487010C9487010C94D1180C9487014F
:1000B0000C9487010C9487010C9487010C94FE1812
:1000C0000C9487010C9487010C9487010C94870190
:1000D0000C9487010C9487010C9487010C94870180
:1000E0000C948701036EDB363D9A9999993DABAA32
:1000F000AA2A3E000000803F072C7AA5BA6CC59062
:10010000DA3B9365FC8BBC53F810FD3C5692834D53
:10011000BD879D3AB63DCBC9BF5BBE73DA0FC93F01
:1001200007634236B79BD8A71A39685618AEBAABE0
:10013000558C1D3CB7CC5763BD6DEDFD753EF61774
:100140007231BF000000803F08000000BE922449C9
:10015000123EABAAAA2ABECDCCCC4C3E00000080F9
:10016000BEABAAAAAA3E00000000BF000000803F6C
:100170000000000000084178D3BB4387D1133D192C
:100180000E3CC3BD4282AD2B3E68EC8276BED98F59
:10019000E1A93E4C80EFFFBE01C4FF7F3F0000009D
:1001A00000000000090A02080B0C0D0706030401F9
:1001B000000000000000000000000000000000003F
:1001C000000000000000000000000000000011100E
:1001D0000F00000000000000000000000000000010
:1001E000000000000000000001021020200808109C
:1001F0002040102040800201020108040201010297
:10020000040810204080804020100804020180046F
:1002100002018040201008040201080402010102CA
:1002200004081020408001020408102040800505C9
:100230000505070508080808020202020A0A08085C
:10024000040404040101010101010101030303038A
:1002500003030303040707070C0C0C0C0C0C0C0C19
:100260000202020206060606060606060B0B0B0B2A
:100270000B0B0B0B00002200250028002B002E008A
:100280003100340002010000050108010B010000EB
:100290002100240027002A002D0030003300010136
:1002A0000000040107010A01B112981511241FBEB4
:1002B000CFEFD1E2DEBFCDBF00E00CBF12E0A0E087
:1002C000B2E0EEE1F7E400E00BBF02C007900D9250
:1002D000A033B107D9F717E0A0E3B2E001C01D9247
:1002E000AF37B107E1F712E0CCEAD2E000E006C098
:1002F00022970109FE010BBF0E948923C83AD1074A
:1003000080E00807A9F70E94B0140C948D230C9488
:1003100000002F923F924F925F926F927F928F9246
:100320009F92AF92BF92CF92DF92EF92FF920F9384
:100330001F93CF93DF93CDB7DEB7C058D1090FB667
:10034000F894DEBF0FBECDBF5C016B01EE964FAFE0
:10035000EE97EF965FAFEF973901AD96ECAEFDAE3D
:100360000EAF1FAFAD971C01E12CF12C9C01245F57
:100370003F4FEB963FAF2EAFEB97CB010C96C1589A
:10038000DF4F99838883CF57D0407BC0D8012D9110
:100390003D914D915C91F1016081718182819381E8
:1003A0000E945A21A396AEADBFADA3972D913D916A
:1003B0004D915C910E94341FA6966FAFA697AE96A2
:1003C0007FAFAE97E2968FAFE297E6969FAFE69744
:1003D000472F382F292F862F942FA32FB22FA39684
:1003E000EEADFFADA39780839183A283B383F80121
:1003F000EC19FD09C158DF4F28813981CF57D04012
:10040000E20FF31F2081318142815381D4016D912C
:100410007D918D919C910E945A219B01AC01A696E1
:10042000BFADA697AE96AFADAE97E296FFADE297A1
:10043000E696EFADE6976B2F7A2F8F2F9E2F0E94B7
:10044000341FA396EEADFFADA39761937193819393
:100450009193A396FFAFEEAFA397FFEF4F1A5F0AFA
:100460000C5F1F4F23E04216510409F08FCF3CE090
:10047000E30EF11C84E0280E311C94E2E916F1042D
:10048000A1F0D301AE0DBF1DA396BFAFAEAFA39732
:100490008601412C512C41018A189B08EB96EEAD48
:1004A000FFADEB978E0E9F1E71CFD3012D903D9027
:1004B0004D905C90139750968D909D90AD90BC9010
:1004C00053979096CD90DD90ED90FC909397A50179
:1004D0009401C201B1010E94341FA70196010E943C
:1004E000341FAD962CAD3DAD4EAD5FADAD970E94C6
:1004F000341F69837A838B839C83D30154968D91B7
:100500009D910D90BC91A02DA5968CAF9DAFAEAFE7
:10051000BFAFA597D3015C968D919D910D90BC9135
:10052000A02DA9968CAF9DAFAEAFBFAFA9979C0190
:10053000AD01A5966CAD7DAD8EAD9FADA5970E942A
:10054000331F6D837E838F839887D30158968D9157
:100550009D910D90BC91A02DE1968CAF9DAFAEAF5B
:10056000BFAFE197D30118968D919D910D90BC91ED
:10057000A02DE5968CAF9DAFAEAFBFAFE5979C01C8
:10058000AD01E1966CAD7DAD8EAD9FADE1970E9462
:10059000331F69877A878B879C87D30114968D9147
:1005A0009D910D90BC91A02DE9968CAF9DAFAEAF03
:1005B000BFAFE997D3011C968D919D910D90BC9191
:1005C000A02DED968CAF9DAFAEAFBFAFED979C0168
:1005D000AD01E9966CAD7DAD8EAD9FADE9970E9402
:1005E000331F6D877E878F87988BA5019401C20189
:1005F000B1010E94331FA70196010E94331FAD96DF
:100600002CAD3DAD4EAD5FADAD970E94341F6D8BEF
:100610007E8B8F8B988FED962CAD3DAD4EAD5FAD43
:10062000ED97E9966CAD7DAD8EAD9FADE9970E94DB
:10063000341F698F7A8F8B8F9C8FE1962CAD3DADE7
:100640004EAD5FADE197E5966CAD7DAD8EAD9FADE6
:10065000E5970E94341F6D8F7E8F8F8F98A3A20124
:100660009101C501B4010E94331FA70196010E94A8
:10067000331FAD962CAD3DAD4EAD5FADAD970E9435
:10068000341F69A77AA78BA79CA7A9962CAD3DAD6F
:100690004EAD5FADA997A5966CAD7DAD8EAD9FAD0E
:1006A000A5970E94341F6DA77EA78FA798ABC201A4
:1006B000B1019058A50194010E94331FA701960132
:1006C0000E94341FAD962CAD3DAD4EAD5FADAD97E4
:1006D0000E94341F21966CAF7DAF8EAF9FAF2197E4
:1006E0005E01B5E0AB0EB11CDE01519681E090E0F9
:1006F00022C08501040F151FF801C080D180E2805F
:10070000F3808D01060F171FF801C082D182E282AB
:10071000F3822F5F3F4F405F5F4F6C5F7F4F281723
:1007200039073CF30196F4E0AF0EB11C50968430CB
:10073000910509F430C160E070E040E050E020E055
:1007400030E0D7CFD8011D921D921D921C921397B5
:10075000412C11965C90119712966C9012971396FB
:100760007C90EE96BFADEE97A296BFAFA297EF96A4
:10077000EFADEF97A396EFAFA397A3968EAC9FAC88
:10078000A397E12CF12CD4016D917D918D919D91D8
:100790004D01F501EE0DFF1D208131814281538114
:1007A0000E945A219B01AC01642D752D862D972D39
:1007B0000E94341F2B013C01B4E0EB0EF11CE0E180
:1007C000EE16F10401F7CB01D301F8018193919367
:1007D000A193B1938F01F0E1AF0EB11CE3962EAD62
:1007E0003FADE3970217130709F0ACCFCE018F5B43
:1007F0009F4FA7969FAF8EAFA7978C01612C712C4E
:10080000812C912CD8011D921D921D921C92139740
:10081000212C11963C90119712964C90129713969A
:100820005C9071E5A72EB12CAC0EBD1EE12CF12C15
:10083000F50161917191819191915F01F601EE0D48
:10084000FF1D20813181428153810E945A219B01E9
:10085000AC01622D732D842D952D0E94341F1B0138
:100860002C01F4E0EF0EF11C20E1E216F10401F797
:10087000CB01D201F80181939193A193B1938F01A0
:10088000222D332D4A2F552D622D732D842D952D1C
:100890000E945A219B01AC01662D772D882D992D40
:1008A0000E94341F3B014C01F0E1CF0ED11CAF96EA
:1008B0002EAD3FADAF970217130709F0A3CF20E08D
:1008C00030E0A901772D992D0E94AF1F811110C032
:1008D00080E090E0A0E8BFE325968CAF9DAFAEAF7F
:1008E000BFAF2597612C712C50E8852E6FE3962EB3
:1008F000662D772D882D992D0E940D226B017C018C
:1009000001E010E0A796AEADBFADA7976D917D91C8
:100910008D919D91A796BFAFAEAFA797A701960106
:100920000E94B31F4B015C01762F272F392D4A2DD2
:100930005B2DA396EEADFFADA3976081718182819F
:1009400093810E94331F9F772AE037ED43EA5BE3F0
:100950000E944F21181614F400E010E0C401D501E4
:10096000A396EEADFFADA39781939193A193B1931D
:10097000A396FFAFEEAFA397A7962EAD3FADA79777
:10098000AF968EAD9FADAF972817390709F0BACF54
:10099000012B79F519C0A5E6B0E0AB96BFAFAEAFBD
:1009A000AB97E1E5F0E0EC0FFD1F7096E396FFAF2B
:1009B000EEAFE39721E430E02C0F3D1F205F3F4F67
:1009C000AF963FAF2EAFAF97AB968EAD9FADAB97C7
:1009D0000197AB969FAF8EAFAB97892B51F0CC248C
:1009E000C394D12CCC0EDD1E56018E010F5A1F4F21
:1009F000A9CEC058DF4F0FB6F894DEBF0FBECDBFF3
:100A0000DF91CF911F910F91FF90EF90DF90CF90EA
:100A1000BF90AF909F908F907F906F905F904F901E
:100A20003F902F90089580E090E0ACE1B2EC80938D
:100A3000BC029093BD02A093BE02B093BF0280E0BF
:100A400090E0A0E4B0E48093C0029093C102A09330
:100A5000C202B093C30280E090E0A0E5B1E48093CD
:100A6000C4029093C502A093C602B093C70280E06F
:100A700090EAA1E8B4E48093C8029093C902A093DD
:100A8000CA02B093CB0280E090E4A1E8B4E4809382
:100A9000CC029093CD02A093CE02B093CF0280E01F
:100AA00090E2A0E8B4E48093D0029093D102A093A6
:100AB000D202B093D30280E090E0A4EAB2E4809343
:100AC000D4029093D502A093D602B093D70280E0CF
:100AD00090E0A9E0B3EC8093D8029093D902A09360
:100AE000DA02B093DB0280E090E0A0E7B1E480930B
:100AF000DC029093DD02A093DE02B093DF0280E07F
:100B000090E8AEE1B4E48093E0029093E102A09318
:100B1000E202B093E30280E090E0A2E2B4E48093CA
:100B2000E4029093E502A093E602B093E70280E02E
:100B300090E8A6E0B4E48093E8029093E902A093E1
:100B4000EA02B093EB0286E090E09093ED0280938E
:100B5000EC0286E696E2ACE9B3EC8093EE02909369
:100B6000EF02A093F002B093F10280E090E8A3EED0
:100B7000B2E48093F2029093F302A093F402B09354
:100B8000F50283E393E5A9E7B4E48093F60290933A
:100B9000F702A093F802B093F90286E696EEA6E873
:100BA000B3E48093FA029093FB02A093FC02B0930B
:100BB000FD0283E393EBA6ECB2EC8093FE029093EC
:100BC000FF02A0930003B09301038AE999EDADEF12
:100BD000B3EC8093020390930303A0930403B093B8
:100BE000050386E696E6A1E4B4E4809316039093A9
:100BF0001703A0931803B09319038AE999E1A7E0BA
:100C0000B3EC80931A0390931B03A0931C03B0933F
:100C10001D038DEC9CE1AEE1B4E480931E03909340
:100C20001F03A0932003B09321038DEC9CECA9E556
:100C3000B2EC8093220390932303A0932403B093F8
:100C4000250383E393E3AFEAB1E480932603909313
:100C50002703A0932803B093290383E393EAA9E031
:100C6000B4E480932A0390932B03A0932C03B093B6
:100C70002D0386E696EEA6EFB2EC80933E039093AA
:100C80003F03A0934003B093410383E393EFACE3AE
:100C9000B4EC8093420390934303A0934403B09336
:100CA000450380E090E8A0E3B4E48093460390938A
:100CB0004703A0934803B09349038DEC9CEEA1E059
:100CC000B4EC80934A0390934B03A0934C03B093EE
:100CD0004D0386E696E6A6E9B0E480934E03909332
:100CE0004F03A0935003B093510386E696EEADEC0C
:100CF000B2EC8093520390935303A0935403B093A8
:100D000055038DEC9CEEAAE6B4EC809366039093B9
:100D10006703A0936803B093690380E090E0A1E7C4
:100D2000B3EC80936A0390936B03A0936C03B0932E
:100D30006D0386E696EAABEDB3EC80936E03909379
:100D40006F03A0937003B093710380E090EFAFE264
:100D5000B4E48093720390937303A0937403B093ED
:100D6000750386E696E6AEECB1E480937603909345
:100D70007703A0937803B09379038DEC9CE0A4E013
:100D8000B3E480937A0390937B03A0937C03B093A6
:100D90007D0380E090E4A9EEB3E480938E0390930A
:100DA0008F03A0939003B093910380E090E4A0E4BC
:100DB000B4EC8093920390939303A0939403B09325
:100DC000950383E393EBA4EEB3EC809396039093A7
:100DD0009703A0939803B093990386E696E0A8E85A
:100DE000B3E480939A0390939B03A0939C03B093E6
:100DF0009D038AE999E6A6E3B4EC80939E03909361
:100E00009F03A093A003B093A1038DEC9CE4A3E304
:100E1000B3E48093A2039093A303A093A403B0939D
:100E2000A5038DEC9CECACE5B2EC8093B6039093FB
:100E3000B703A093B803B093B9038DEC9CE2ACE682
:100E4000B4E48093BA039093BB03A093BC03B09324
:100E5000BD0383E393E1ADECB3EC8093BE039093C9
:100E6000BF03A093C003B093C10386E696EEA8E546
:100E7000B3E48093C2039093C303A093C403B093DD
:100E8000C5038AE999EDA7EFB3E48093C603909375
:100E9000C703A093C803B093C9038AE999EDAFE0F3
:100EA000B3E48093CA039093CB03A093CC03B09395
:100EB000CD031092B0021092B1021092B2021092C1
:100EC000B3021092B4021092B5021092B6021092C0
:100ED000B7021092B8021092B9021092BA021092A0
:100EE000BB020895CF93DF9361E08DE00E9441142F
:100EF0006AE070E081EC95E00E94F41969E070E02E
:100F000084EC95E00E94F4196CE070E087EC95E0C9
:100F10000E94F4196BE070E08AEC95E00E94F419ED
:100F2000C0E0D0E0CE01880F991F8C0F9D1F6CEDA3
:100F300075E08F539A4F0E94FA192196C430D1055B
:100F400089F768EE73E080E090E00E944D138AE23A
:100F500096E00E94591562E080EC95E00E94521BD9
:100F600080EC95E00E94591A4AEF60E180EC95E030
:100F70000E94381A42E063E08AE895E00E94E81D8A
:100F80008AE895E00E94EB1B42E060E08CE795E088
:100F90000E94161F8CE795E00E943A1E40E163E232
:100FA0008CE795E00E94191E8DE69FEBABE8BEE34F
:100FB0008093AC029093AD02A093AE02B093AF02C7
:100FC00085E194E7A2E8BFE38093A8029093A90289
:100FD000A093AA02B093AB0280E090E0A8ECB2E448
:100FE0008093A4029093A502A093A602B093A702B7
:100FF00082EF93E2AEE9BEE3809398029093990268
:10100000A0939A02B0939B0281E295E0AEEBBCE321
:1010100080939C0290939D02A0939E02B0939F02A6
:1010200082E199E6A3E7BFE38093A0029093A10237
:10103000A093A202B093A30210928C0210928D0290
:1010400010928E0210928F021092900210929102D2
:10105000109292021092930280E090E0A0E8BFEB21
:101060008093940290939502A0939602B093970276
:1010700080E090E0A0E8BFE380934C0290934D02A3
:10108000A0934E02B0934F02109250021092510260
:101090001092520210925302109254021092550272
:1010A0001092560210925702109258021092590252
:1010B00010925A0210925B0280933C0290933D0280
:1010C000A0933E02B0933F02109240021092410260
:1010D0001092420210924302109244021092450272
:1010E0001092460210924702109248021092490252
:1010F00010924A0210924B021092720510927305E0
:10110000109274051092750581E090E090937B0534
:1011100080937A050E941305109276051092770548
:10112000109278051092790510926E0510926F0555
:101130001092700510927105DF91CF9108952F9252
:101140003F924F925F926F927F928F929F92AF9257
:10115000BF92CF92DF92EF92FF920F931F93CF93A4
:10116000DF93CDB7DEB7C054D1090FB6F894DEBF18
:101170000FBECDBF8AE895E00E94B21D8CE795E0D6
:101180000E94651E80EC95E00E94CC1A6093640278
:1011900070936502809366029093670280EC95E0FD
:1011A0000E94051B60935C0270935D0280935E0257
:1011B00090935F020E9423136B017C018091720562
:1011C00090917305A0917405B0917505A7019601E2
:1011D000281B390B4A0B5B0BCA01B9010E944C203A
:1011E0002DEB37E346E855E30E945A2160936E05E4
:1011F00070936F058093700590937105C09272058E
:10120000D0927305E0927405F09275052091C002AA
:101210003091C1024091C2025091C30260918E058B
:1012200070918F0580919005909191050E94331FD8
:101230002091CC023091CD024091CE025091CF024C
:101240000E94B31F2B013C012091C4023091C502C2
:101250004091C6025091C70260919205709193052A
:1012600080919405909195050E94331F2091D002A2
:101270003091D1024091D2025091D3020E94B31F0B
:101280008B011C012091BC023091BD024091BE0235
:101290005091BF0260918A0570918B0580918C05F9
:1012A00090918D050E94331F2091C8023091C90290
:1012B0004091CA025091CB020E94B31F6B017C0186
:1012C000F7FAF094F7F8F09422EE37E64AE75FE396
:1012D000C701B6010E945A214B015C012FEC36EE8A
:1012E00044E55EE3602F712F822D932D0E945A21D9
:1012F0009B01AC01C501B4010E94341F60937402CC
:10130000709375028093760290937702842D952DC9
:10131000A62DB72D8093780290937902A0937A023C
:10132000B0937B022FEC36EE44E55EE3C701B601D5
:101330000E945A216B017C0122EE37E64AE75FE307
:10134000602F712F822D932D0E945A219B01AC0199
:10135000C701B6010E94331F60937C0270937D0227
:1013600080937E0290937F022091D8023091D9021F
:101370004091DA025091DB0260919A0570919B05D1
:1013800080919C0590919D050E94331F2091E4025D
:101390003091E5024091E6025091E7020E94B31FAE
:1013A0002B013C012091DC023091DD024091DE02F4
:1013B0005091DF0260919E0570919F058091A0057C
:1013C0009091A1050E94331F2091E8023091E9021B
:1013D0004091EA025091EB020E94B31F8B011C0165
:1013E0002091D4023091D5024091D6025091D7027B
:1013F0006091960570919705809198059091990557
:101400000E94331F2091E0023091E1024091E202FC
:101410005091E3020E94B31F6B017C01F7FAF09434
:10142000F7F8F09422EE37E64AE75FE3C701B6012A
:101430000E945A214B015C012FEC36EE44E55EE33D
:10144000602F712F822D932D0E945A219B01AC0198
:10145000C501B4010E94341F609380027093810221
:101460008093820290938302842D952DA62DB72D13
:101470008093840290938502A0938602B0938702A2
:101480002FEC36EE44E55EE3C701B6010E945A2117
:101490006B017C0122EE37E64AE75FE3602F712F94
:1014A000822D932D0E945A219B01AC01C701B601E8
:1014B0000E94331F609388027093890280938A028E
:1014C00090938B022091B4023091B5024091B60204
:1014D0005091B702609180057091810580918205DD
:1014E000909183050E94331F29E732E240EA59E3D5
:1014F0000E945A212B013C012091B8023091B9027F
:101500004091BA025091BB026091840570918505AB
:1015100080918605909187050E94331F29E732E26A
:1015200040EA59E30E945A218B011C012091B0022C
:101530003091B1024091B2025091B30260917C05AA
:1015400070917D0580917E0590917F050E94331FEB
:1015500029E732E240EA59E30E945A216B017C01FB
:10156000F7FAF094F7F8F09422EE37E64AE75FE3F3
:10157000C701B6010E945A214B015C012FEC36EEE7
:1015800044E55EE3602F712F822D932D0E945A2136
:101590009B01AC01C501B4010E94341F6093680235
:1015A0007093690280936A0290936B02842D952D4B
:1015B000A62DB72D80936C0290936D02A0936E02BE
:1015C000B0936F022FEC36EE44E55EE3C701B6013F
:1015D0000E945A216B017C0122EE37E64AE75FE365
:1015E000602F712F822D932D0E945A219B01AC01F7
:1015F000C701B6010E94331F60937002709371029D
:1016000080937202909373026091640270916502FC
:10161000809166029091670220E030E54DE754E446
:101620000E941B1B609360027093610280936202B0
:10163000909363025CE8852E52E0952E0DEC15E048
:1016400068E9A62E62E0B62E74E7C72E72E0D72EA8
:10165000E5EE4E2EE5E05E2EF0E86F2EF2E07F2EF6
:10166000E12CF12CD4016D917D918D919D914D01D5
:1016700020E030E040E05FE30E945A21F8016083FF
:10168000718382839383D5016D917D918D919D911D
:101690005D019B01AC010E94341FF80164877587CE
:1016A00086879787D6016D917D918D919D916D0172
:1016B00020E030E040E05FE30E945A21F2016083C5
:1016C000718382839383D3016D917D918D919D91DF
:1016D0003D019B01AC010E94341FF20164877587B4
:1016E00086879787FFEFEF1AFF0A0C5F1F4F24E0F2
:1016F000420E511C33E0E316F10409F0B3CFC09061
:101700006E05D0906F05E0907005F09071058091A6
:10171000680290916902A0916A02B0916B02BC01CB
:10172000CD019058A70196010E945A2120E030E097
:1017300040E05FE30E945A211B012C0180916C0262
:1017400090916D02A0916E02B0916F02BC01CD012B
:101750009058A70196010E945A2120E030E040E015
:101760005FE30E945A213B014C01809170029091ED
:101770007102A0917202B0917302BC01CD01905828
:10178000A70196010E945A2120E030E040E05FE38B
:101790000E945A215B018C01222D332D442D552DA1
:1017A000622D732D842D952D0E945A2120E030E06A
:1017B00040E85FE30E94341F6B017C01262D372D2A
:1017C000482D592D662D772D882D992D0E945A214F
:1017D0009B01AC01C701B6010E94341F6B017C0163
:1017E0002A2D3B2D402F512F6A2D7B2D802F912F9D
:1017F0000E945A219B01AC01C701B6010E94341F0F
:101800000E940D226B017C019B01AC0160E070E045
:1018100080E89FE30E94B31F6EAB7FAB8CA79DA7B0
:10182000A7019601622D732D842D952D0E94B31F63
:101830006EA77FA788AB99ABA7019601662D772D80
:10184000882D992D0E94B31F6AAB7BAB8CAB9DABEF
:10185000A70196016A2D7B2D802F912F0E94B31F27
:10186000162F072F382E292E80914C0290914D0271
:10187000A0914E02B0914F0288A799A7AAA7BBA733
:10188000C0905002D0905102E0905202F09053026A
:101890008090540290905502A0905602B09057024A
:1018A000409058025090590260905A0270905B022A
:1018B0009C01AD01BEA9AFA9ECA5FDA56B2F7A2FA8
:1018C000CF010E945A216D837E838F839887A70161
:1018D0009601BEA5AFA5E8A9F9A96B2F7A2FCF0174
:1018E0000E945A219B01AC016D817E818F81988578
:1018F0000E94331F6D837E838F839887A501940197
:10190000BAA9ABA9ECA9FDA96B2F7A2FCF010E9430
:101910005A219B01AC016D817E818F8198850E9447
:10192000331F6D837E838F839887A3019201D80133
:10193000F1016B2F7A2F8F2F9E2F0E945A219B012E
:10194000AC016D817E818F8198850E94331F6D83EC
:10195000798F8D8F99A3A7019601BEA9AFA9ECA598
:10196000FDA56B2F7A2FCF010E945A2169877A87B4
:101970008B879C877EA56FA598A989A9272F362FCD
:10198000492F582F68A579A58AA59BA50E945A21A1
:101990009B01AC0169857A858B859C850E94341FEB
:1019A00069877A878B879C87A3019201BAA9ABA923
:1019B000ECA9FDA96B2F7A2FCF010E945A219B0120
:1019C000AC0169857A858B859C850E94341F698767
:1019D0007A878B879C87A5019401D801F1016B2F31
:1019E0007A2F8F2F9E2F0E945A219B01AC0169856F
:1019F0007A858B859C850E94331F69877D878DA39F
:101A00009EA3A5019401BEA9AFA9ECA5FDA56B2FCE
:101A10007A2FCF010E945A21698B7A8B8B8B9C8BFA
:101A20007AA96BA99CA98DA9272F362F492F582F4A
:101A300068A579A58AA59BA50E945A219B01AC01A6
:101A400069897A898B899C890E94341F698B7A8B7A
:101A50008B8B9C8BA7019601D801F1016B2F7A2FFC
:101A60008F2F9E2F0E945A219B01AC0169897A8990
:101A70008B899C890E94341F698B7A8B8B8B9C8B02
:101A8000A3019201BEA5AFA5E8A9F9A96B2F7A2FF2
:101A9000CF010E945A219B01AC0169897A898B8907
:101AA0009C890E94331F698B7D8B8FA39983A3012F
:101AB0009201BEA9AFA97CA46DA46B2F7A2F872DAC
:101AC000962D0E945A212B013C01B801C101272FFC
:101AD000362F492F582F68A579A58AA59BA50E9466
:101AE0005A219B01AC01C301B2010E94341F2B019A
:101AF0003C01A5019401BEA5AFA5E8A919A96B2FCA
:101B00007A2F8E2F912F0E945A219B01AC01C30185
:101B1000B2010E94341F4B015C01A7019601BAA9D2
:101B2000ABA9ECA91DA96B2F7A2F8E2F912F0E94A4
:101B30005A219B01AC01C501B4010E94331F8B01E6
:101B400021968FAF21979DAF5D81498D3D8D29A154
:101B5000852F942FA32FB22F80934C0290934D0288
:101B6000A0934E02B0934F0259854D853DA12EA101
:101B7000852F942FA32FB22F809350029093510260
:101B8000A0935202B093530259894D893FA12981F4
:101B9000852F942FA32FB22F809354029093550238
:101BA000A0935602B093570221963FAD21972DADD9
:101BB000802F912FA32FB22F809358029093590218
:101BC000A0935A02B0935B027D81698D9D8D89A19E
:101BD000272F362F492F582FDB017C016B2F7A2FAF
:101BE0008F2D9E2D0E945A216DA77EA78FA798AB9F
:101BF00079856D859DA18EA1272F362F492F582FCE
:101C0000DB017C016B2F7A2F8F2D9E2D0E945A2194
:101C100069AB7AAB8BAB9CAB79896D899FA18981CC
:101C2000272F362F492F582FDB017C016B2F7A2F5E
:101C30008F2D9E2D0E945A2168A77CA71C012196FA
:101C40009FAD21978DAD202F312F492F582FFC01AB
:101C5000602F712F8F2F9E2F0E945A216B017C01C4
:101C600079A96AA99BA98CA9272F362F492F582F0C
:101C7000BDA5AEA5BFA4A8A86B2F7A2F8B2D9A2D3A
:101C80000E94341FB8A5ACA52B2F3A2F422D532DFF
:101C90000E94331F2C2D3D2D4E2D5F2D0E94331F92
:101CA0006093FD057093FE058093FF0590930006F9
:101CB00079896D899FA18981272F362F492F582F28
:101CC000B985AD85BDA0AEA06B2F7A2F8B2D9A2D37
:101CD0000E945A214B015C0121969FAD21978DAD49
:101CE000202F312F492F582FBD81A98D7D8C69A0C0
:101CF0006B2F7A2F872D962D0E945A212B013C01A4
:101D0000762F272F352D462D572D682D792D8A2D8D
:101D10009B2D0E94341F9B01AC010E94341F6093D5
:101D200001067093020680930306909304062196A1
:101D30009FAD21978DAD202F312F492F582FB98579
:101D4000AD85EDA1FEA16B2F7A2FCF010E945A2104
:101D50006DAB7EAB8FAB98AF79896D899FA189817F
:101D6000272F362F492F582FBD81A98DED8DF9A131
:101D70006B2F7A2FCF010E945A2169AF7AAF8BAFB8
:101D80009CAF762F6AAD982F8CAD272F362F492F19
:101D9000582FBDA9AEA9EFA9F8AD6B2F7A2FCF01AF
:101DA0000E94331F9B01AC010E94341F6093050603
:101DB000709306068093070690930806242D352D10
:101DC000462D572D682D792D8A2D9B2D0E94331F6E
:101DD0009B01AC010E94341F6093090670930A06B0
:101DE00080930B0690930C0679A96AA99BA98CA9EC
:101DF000272F362F492F582FBDA5AEA5BFA4A8A8C1
:101E00006B2F7A2F8B2D9A2D0E94331F4B015C0173
:101E100078A56CA5272F362F422D532D682D792DAF
:101E20008A2D9B2D0E94341F2C2D3D2D4E2D5F2D74
:101E30000E94331F60930D0670930E0680930F0669
:101E40009093100621969FAD21978DAD202F312FB5
:101E5000492F582FB989AD89EFA119816B2F7A2F9E
:101E60008E2F912F0E945A218B01898B998379851E
:101E70006D859DA18EA1272F362F492F582FBD810B
:101E8000A98D7D8C69A06B2F7A2F872D962D0E94AE
:101E90005A212B013C01762F272F352D462D572D0A
:101EA000F989E981602F712F8F2F9E2F0E94341F97
:101EB0009B01AC010E94341F6093110670931206BF
:101EC000809313069093140679AD6AAD9BAD8CADEB
:101ED000272F362F492F582FBDA9AEA9EFA9F8AD4E
:101EE0006B2F7A2FCF010E94341F9B01AC010E94FF
:101EF000341F60931506709316068093170690930F
:101F00001806242D352D462D572DF989E981602F8E
:101F1000712F8F2F9E2F0E94331F9B01AC010E94B7
:101F2000341F6093190670931A0680931B069093D2
:101F30001C0678A56CA5272F362F422D532D682D12
:101F4000792D8A2D9B2D0E94331F2C2D3D2D4E2D3A
:101F50005F2D0E94341F60931D0670931E068093B0
:101F60001F0690932006E12CF12C87012DEF35E020
:101F70004CE452E065EE75E08DEC95E00E9489013D
:101F800080904C0290904D02A0904E02B0904F0273
:101F900040903C0250903D0260903E0270903F02A3
:101FA00020915002309151024091520250915302BF
:101FB0002D833E834F835887C0904002D0904102CA
:101FC000E0904202F09043028091540290915502B9
:101FD000A0915602B0915702898F9A8FAB8FBC8F18
:101FE00020914402309145024091460250914702AF
:101FF0002D8F3E8F4F8F58A3809158029091590298
:10200000A0915A02B0915B0289A39AA3ABA3BCA38F
:10201000209148023091490240914A0250914B026E
:1020200029873A874B875C87A7019601C501B401D0
:102030000E945A216D877E878F87988BA30192011A
:102040006D817E818F8198850E945A219B01AC0110
:102050006D857E858F8598890E94331F6D877E8769
:102060008F87988B29853A854B855C85698D7A8D1C
:102070008B8D9C8D0E945A219B01AC016D857E85C4
:102080008F8598890E94331F6D877E878F87988BF5
:102090002D8D3E8D4F8D58A169A17AA18BA19CA158
:1020A0000E945A219B01AC016D857E858F859889A0
:1020B0000E94341F6D877DA38EA3998B2D8D3E8D3D
:1020C0004F8D58A1C501B4010E945A216D8B7E8BA2
:1020D0008F8B988F29853A854B855C856D817E81B4
:1020E0008F8198850E945A219B01AC016D897E8960
:1020F0008F89988D0E94341F6D8B7E8B8F8B988F6C
:10210000A3019201698D7A8D8B8D9C8D0E945A213D
:102110009B01AC016D897E898F89988D0E94331F48
:102120006D8B7E8B8F8B988FA701960169A17AA109
:102130008BA19CA10E945A219B01AC016D897E89D3
:102140008F89988D0E94331F362E272E8D8B9FA34B
:1021500029853A854B855C85C501B4010E945A21C9
:1021600069837A838B839C832D8D3E8D4F8D58A1FF
:102170006D817E818F8198850E945A219B01AC01DF
:1021800069817A818B819C810E94331F69837A8364
:102190008B839C83A7019601698D7A8D8B8D9C8D95
:1021A0000E945A219B01AC0169817A818B819C81BB
:1021B0000E94341F69837A838B839C83A3019201DD
:1021C00069A17AA18BA19CA10E945A219B01AC011B
:1021D00069817A818B819C810E94331F68A77EA7C9
:1021E000182F092F7D856DA19EA18989272F362F54
:1021F000492F582FDB01E92FF82F6B2F7A2FCF01B2
:102200000E945A2169837A838B839C83B1019D89C3
:102210008FA1272F362F492F582FD101E92FF82FC3
:102220006B2F7A2FCF010E945A219B01AC0169814B
:102230007A818B819C810E94341F69837A838B838E
:102240009C8378A56EA5C801272F362F492F582FBC
:10225000DB01F8016B2F7A2F8F2F9E2F0E945A21BE
:102260009B01AC0169817A818B819C810E94341F22
:102270008B018CA798A7712F0E94981F69837A837E
:102280008B839C83A3019201C501B4010E945A2152
:102290004B015C01A70196016D817E818F8198853C
:1022A0000E945A219B01AC01C501B4010E94341F58
:1022B0006B017C012D8D3E8D4F8D58A1698D7A8DDE
:1022C0008B8D9C8D0E945A219B01AC01C701B601E8
:1022D0000E94341F6B017C0129853A854B855C8502
:1022E00069A17AA18BA19CA10E945A219B01AC01FA
:1022F000C701B6010E94341F20E030E0A9010E940E
:102300004F2118162CF420E030E040E85FE304C0D1
:1023100020E030E040E85FEB69817A818B819C812D
:102320000E945A216B017C013CA528A5602F712FCA
:10233000832F922F0E940D224B015C019B01AC0167
:10234000BD85ADA1EEA119896B2F7A2F8E2F912F0C
:102350000E94B31F2C2D3D2D4E2D5F2D0E945A2122
:1023600020E030E040EF51E40E945A2120916802C1
:102370003091690240916A0250916B020E94341FB1
:10238000609338027093390280933A0290933B0233
:10239000A5019401D101ED891FA16B2F722D8E2F04
:1023A000912F0E94B31F2C2D3D2D4E2D5F2D0E948D
:1023B0005A2120E030E040EF51E40E945A21209160
:1023C0006C0230916D0240916E0250916F020E943A
:1023D000341F6093340270933502809336029093D9
:1023E0003702109230021092310210923202109293
:1023F000330200E012E040E1E42E42E0F42E212C12
:10240000312CD8016D917D918D919D918D01F701B8
:1024100041905190619071907F01209138023091EC
:10242000390240913A0250913B020E945A214B01DD
:102430005C01209134023091350240913602509176
:102440003702C301B2010E945A219B01AC01C501B0
:10245000B4010E94341F5B016C0120E030E040E8D1
:102460005FEB7B2D9D2D0E94AF1F87FD1FC020E0DD
:1024700030E040E85FE36A2D7B2D8C2D9D2D0E947E
:102480004F211816B4F020E030E04AEF53E46A2DF3
:102490007B2D8C2D9D2D0E945A2120E030E84BEBA6
:1024A00054E40E94341F0E941B2005C068EE73E0B4
:1024B00002C060ED77E0C101880F991F820D931D66
:1024C0008F539A4F0E94FA19FFEF2F1A3F0A24E008
:1024D0002216310409F095CF609176057091770549
:1024E000809178059091790524E630E040E050E055
:1024F0000E946D2321E0672B682B692B09F020E0F7
:10250000622F8DE00E947914809176059091770575
:10251000A0917805B09179050196A11DB11D809318
:10252000760590937705A0937805B0937905C05C04
:10253000DF4F0FB6F894DEBF0FBECDBFDF91CF9156
:102540001F910F91FF90EF90DF90CF90BF90AF90D1
:102550009F908F907F906F905F904F903F902F90C3
:102560000895CF93DF93C1ECD5E0CE010E942B19E3
:10257000239685E0CD3CD807C1F780EC95E00E941A
:10258000341A8AE895E0DF91CF910C94601B1F927A
:102590000F920FB60F9211242F933F938F939F9317
:1025A000AF93BF938091210690912206A0912306BC
:1025B000B091240630912906232F2D5F2D3720F46A
:1025C0000196A11DB11D05C0232F2A570296A11DFA
:1025D000B11D209329068093210690932206A09393
:1025E0002306B09324068091250690912606A0919B
:1025F0002706B09128060196A11DB11D80932506DE
:1026000090932606A0932706B0932806BF91AF911A
:102610009F918F913F912F910F900FBE0F901F9020
:1026200018950F931F938FB7F8940091210610917E
:10263000220620912306309124068FBFB801C901DC
:102640001F910F9108950F931F939FB7F8940091D6
:10265000250610912606209127063091280686B57A
:10266000A89B06C08F3F21F00F5F1F4F2F4F3F4F9A
:102670009FBF322F212F102F0027080F111D211D62
:10268000311D42E0000F111F221F331F4A95D1F761
:10269000B801C9011F910F910895CF92DF92EF9277
:1026A000FF92CF93DF936B017C010E942313EB0118
:1026B0000EC00E9423136C1B7D0B683E734038F0E4
:1026C00081E0C81AD108E108F108C851DC4FC114F3
:1026D000D104E104F10469F7DF91CF91FF90EF900D
:1026E000DF90CF900895789484B5826084BD84B5DE
:1026F000816084BD85B5826085BD85B5816085BDFD
:10270000EEE6F0E0808181608083E1E8F0E0108215
:10271000808182608083808181608083E0E8F0E056
:10272000808181608083E1EBF0E080818460808340
:10273000E0EBF0E0808181608083E1E9F0E080817E
:1027400082608083808181608083E0E9F0E0808125
:1027500081608083E1EAF0E0808182608083808113
:1027600081608083E0EAF0E0808181608083E1E243
:10277000F1E0808182608083808181608083E0E2FB
:10278000F1E0808181608083EAE7F0E0808184600D
:10279000808380818260808380818160808380816A
:1027A000806880831092C1000895893009F443C085
:1027B00088F4843029F138F4823059F1E8F481301A
:1027C00009F05EC023C0873061F188F5863009F0DA
:1027D00057C023C08D3009F440C020F48B30A9F1DC
:1027E000C0F52DC0803109F442C0813109F443C0E5
:1027F0008F3009F045C037C0809180008F7703C0CB
:10280000809180008F7D80938000089584B58F77BC
:1028100002C084B58F7D84BD08958091B0008F770C
:1028200003C08091B0008F7D8093B00008958091A7
:1028300090008F7707C0809190008F7D03C08091BA
:102840009000877F8093900008958091A0008F77FB
:1028500007C08091A0008F7D03C08091A000877F7A
:102860008093A0000895809120018F7707C0809108
:1028700020018F7D03C080912001877F80932001FC
:102880000895CF93DF9390E0FC01E851FE4F44910F
:10289000FC01E25DFD4F8491882341F190E0880FB7
:1028A000991FFC01E257FD4F25913491D9018C58B5
:1028B0009D4FFC0185919491C82FD92F9FB7F89413
:1028C0008C91611106C0409584238C938881842368
:1028D00008C0623041F4242F209582238C93888194
:1028E000842B888302C0842B8C939FBFDF91CF9170
:1028F00008950F931F93CF93DF931F92CDB7DEB749
:10290000282F30E0F901EE55FE4F8491F901E8518E
:10291000FE4F1491F901E25DFD4F04910023D1F0C7
:10292000882321F069830E94D5136981E02FF0E0AC
:10293000EE0FFF1FEC58FD4F85919491DC019FB77E
:10294000F8948C91611103C01095812301C0812BF3
:102950008C939FBF0F90DF91CF911F910F9108959E
:102960000E9473130E947207C0E0D0E00E949F088B
:102970002097E1F30E940000F9CF20915A0630E041
:1029800080915B06281B3109C901089580915B067F
:1029900090915A06891750F4E82FF0E0E45AF94F65
:1029A000208130E08F5F80935B0602C02FEF3FEF06
:1029B000C9010895E0915B0680915A06E81730F44A
:1029C000F0E0E45AF94F208130E002C02FEF3FEFF2
:1029D000C90108950895CF92DF92EF92FF920F936D
:1029E0001F93CF93DF937C01CB018A0120913606A0
:1029F000222391F0EB016B01C40ED51E09C0699131
:102A0000D701ED91FC910190F081E02DC70119955E
:102A1000CC15DD05A1F703C0642F0E945216C80132
:102A2000DF91CF911F910F91FF90EF90DF90CF90AA
:102A30000895CF93DF931F92CDB7DEB769832091BE
:102A400036062223D1F020913706203240F021E0D3
:102A500030E0FC013383228320E030E015C0809118
:102A60003806E82FF0E0E75CF94F998190838F5F9B
:102A7000809338068093370605C061E0CE01019649
:102A80000E94521621E030E0C9010F90DF91CF91F2
:102A90000895FC011382128248EE53E060E070E07A
:102AA000448355836683778384E292E091838083B5
:102AB000089510925B0610925A06109238061092F2
:102AC00037060C949C15862F413208F040E26CE5E5
:102AD00076E00E94BA1510925B0680935A0608951C
:102AE00021E00C94631521E00C94631581E0809340
:102AF00036066093590610923806109237060895EC
:102B00000C9476150F93062F21E04091370669E368
:102B100076E0809159060E94FF15109238061092B7
:102B20003706109236060F91089561E00C948215D5
:102B30008AE296E00C9449151092850681E0809314
:102B400083061092820661E084E10E94791461E0BC
:102B500085E10E947914E9EBF0E080818E7F80832B
:102B600080818D7F808388E48093B80085E48093A2
:102B7000BC000895413208F03FC090918506911144
:102B8000FCCF91E090938506209383062FEF20934E
:102B90007C0610928106242F21502093800690936A
:102BA000840690918406880F892B809384068091F7
:102BB0008206813041F410928206809184068093CF
:102BC000BB0085EC01C085EE8093BC00809185063A
:102BD0008130E1F380918106841710F440918106E1
:102BE00026E836E0FB01D90102C08D9181938A2F3E
:102BF000821B8417D0F301C040E0842F08950F9307
:102C0000413208F046C0909185069111FCCF92E0C8
:102C100090938506009383069FEF90937C06109215
:102C2000810640938006FB0166E876E0DB0102C086
:102C300091919D939A2F961B9417D0F3109284062E
:102C400090918406880F892B809384068091820658
:102C5000813041F410928206809184068093BB00FB
:102C600085EC01C085EE8093BC00222321F0809189
:102C700085068230E1F380917C068F3F61F0809180
:102C80007C06803251F080917C06803341F483E0F1
:102C900007C081E005C080E003C082E001C084E09D
:102CA0000F910895613298F420918506243089F4BB
:102CB00060937E06FC0186EA96E0DC0102C0219169
:102CC0002D932A2F281B2617D0F380E0089581E04A
:102CD000089582E0089585ED8093BC008091BC004A
:102CE00084FDFCCF10928506089585EC8093BC008E
:102CF0001092850608951F920F920FB60F9211241D
:102D00000BB60F922F933F934F935F936F937F93E5
:102D10008F939F93AF93BF93EF93FF938091B900ED
:102D2000887F803609F49FC058F5883209F45BC06B
:102D300090F4803109F452C038F4882309F4F8C0C3
:102D4000883009F0F9C04AC0883109F44CC080329B
:102D500009F0F2C05CC0803409F46BC038F48033F1
:102D600009F455C0883309F0E7C054C0803509F430
:102D700054C0883509F462C0883409F0DDC0DAC077
:102D8000883909F4CBC0A8F4883709F46CC038F44A
:102D9000883609F468C0803709F0CEC064C088382E
:102DA00009F4BCC0803909F464C0803809F0C4C09B
:102DB00060C0803B09F48AC038F4803A09F46BC0E3
:102DC000883A09F0B9C082C0803C09F4ABC0883CA5
:102DD00009F4A8C0883B09F0AFC08DC0809184067B
:102DE0008093BB0012C09091810680918006981755
:102DF00088F580918106E82FF0E0EA57F94F90813D
:102E00009093BB008F5F8093810685EC88C0809390
:102E10007C0690C080937C0656C08091810690917C
:102E2000BB00E82FF0E0EA57F94F90838F5F809363
:102E3000810690918106809180066DC08091810607
:102E40009091BB00E82FF0E0EA57F94F90838F5F35
:102E5000809381068091830681116CC081E080930C
:102E6000820684EA60C083E08093850610927D0626
:102E7000CCCF80917D06803208F050C080917D06D5
:102E80009091BB00E82FF0E0E653F94F90838F5FFD
:102E900080937D06BACF80917D06803230F4E09138
:102EA0007D06F0E0E653F94F10820E946B166091A8
:102EB0007D06E091C606F091C70670E08AEC96E0C8
:102EC000199510927D060E94751636C084E0809395
:102ED000850610927F0610927E06E091C806F0915A
:102EE000C906199580917E06811105C081E0809305
:102EF0007E061092A60680917F06E82FF0E0EA5544
:102F0000F94F90819093BB008F5F80937F069091E3
:102F10007F0680917E06981708F477CF85E8809326
:102F2000BC000AC085EC8093BC001092850604C0EA
:102F300010927C060E946B16FF91EF91BF91AF91AA
:102F40009F918F917F916F915F914F913F912F91C1
:102F50000F900BBE0F900FBE0F901F901895EF9221
:102F6000FF920F931F93CF93DF938B017A01C82FAA
:102F7000D0E0DE01A551B94F8C9187FF05C0DB0180
:102F800011961C921E9222C02CE02C9FC0012D9FF6
:102F9000900D11242C91AC01420F511D27FD5A9523
:102FA0002091EA0630E04217530784F42C91FC018B
:102FB000E20FF11D27FDFA959F01EE0FFF1FE20FB3
:102FC000F31FE151F94F208126FD45C0FE01E55177
:102FD000F94F80818F5F80832CE02C9FC0012D9F53
:102FE000900D11242081AC01420F511D27FD5A95EF
:102FF0002091EA0630E0421753070CF03EC02081D2
:103000002C300CF442C039C02081820F911D27FD65
:103010009A95FC01EE0FFF1FE80FF91FE151F94FE0
:10302000808161E08F73DF91CF911F910F91FF90AD
:10303000EF900C94791480E49CE904C0F80180813D
:1030400091810496D70111969C938E93C551D94FC7
:103050008FEF888345C02C91820F911D27FD9A9593
:10306000FC01EE0FFF1FE80FF91FE151F94F8081BE
:1030700060E08F730E947914A9CFF801808191815B
:10308000049680349C49B8F2D9CFD8012D913C9157
:103090004081BC01640F711D47FD7A95AB01DB01D6
:1030A000AA0FBB1FA40FB51FA151B94F11964D9187
:1030B0005C911297240F351FD70111963C932E93E4
:1030C0002081AC01420F511D27FD5A95DA01AA0F4C
:1030D000BB1FA40FB51FA151B94F2C9126FD94CF52
:1030E000DF91CF911F910F91FF90EF9008951F9264
:1030F0000F920FB60F9211240BB60F922F933F939E
:103100004F935F936F937F938F939F93AF93BF93EF
:10311000EF93FF9348E850E064E870E081E00E949C
:10312000AF17FF91EF91BF91AF919F918F917F91D9
:103130006F915F914F913F912F910F900BBE0F9028
:103140000FBE0F901F9018951F920F920FB60F92FF
:1031500011240BB60F922F933F934F935F936F936E
:103160007F938F939F93AF93BF93EF93FF9348E920
:1031700050E064E970E082E00E94AF17FF91EF91A8
:10318000BF91AF919F918F917F916F915F914F917F
:103190003F912F910F900BBE0F900FBE0F901F907D
:1031A00018951F920F920FB60F9211240BB60F9223
:1031B0002F933F934F935F936F937F938F939F933F
:1031C000AF93BF93EF93FF9348EA50E064EA70E057
:1031D00083E00E94AF17FF91EF91BF91AF919F9154
:1031E0008F917F916F915F914F913F912F910F90B0
:1031F0000BBE0F900FBE0F901F9018951F920F924D
:103200000FB60F9211240BB60F922F933F934F934B
:103210005F936F937F938F939F93AF93BF93EF933E
:10322000FF9348E251E064E271E080E00E94AF1752
:10323000FF91EF91BF91AF919F918F917F916F918E
:103240005F914F913F912F910F900BBE0F900FBE4A
:103250000F901F9018952091EA062033A0F4FC01EE
:103260002083822F8F5F8093EA06822F90E0FC01FB
:10327000EE0FFF1FE80FF91FE151F94F88EB9BE0BC
:103280009283818308952FEFFC0120830895DF92BC
:10329000EF92FF920F931F93CF93DF93EC01D62E03
:1032A0007A0189018881803308F091C061E08D2D19
:1032B0000E9441148881A82FB0E0FD01EE0FFF1F8E
:1032C000EA0FFB1FE151F94F2D2D2F739081907C58
:1032D000922B908360E272E06E197F0977FF02C043
:1032E0006D5F7F4F7595679575956795698340E626
:1032F00059E0401B510B57FF02C04D5F5F4F559582
:103300004795559547954A832CE0622F0E943F23AD
:10331000289FB001112420E030E0A901460F571F7B
:10332000FA01EE0FFF1FE40FF51FE151F94F9081F5
:1033300096FD41C02F5F3F4F2C30310571F749C0DA
:103340001092800082E0809381001092850010929C
:103350008400B19A80916F00826080936F002BC0CF
:10336000823061F410929000809391001092950049
:103370001092940088BB809371001DC0833069F463
:103380001092A00082E08093A1001092A5001092FC
:10339000A40089BB809372000EC081110CC01092F2
:1033A000200182E0809321011092250110922401D6
:1033B0008ABB80937300888190E0FC01EE0FFF1FB1
:1033C000E80FF91FE151F94F808180648083888183
:1033D00003C0813029F6B4CFDF91CF911F910F91B7
:1033E000FF90EF90DF90089520E639E040E252E050
:1033F0000C944719FC018081803370F5918128E895
:1034000030E0291B310997FD3395220F331F220F1E
:10341000331F621773077CF0928128E532E0291B85
:10342000310997FD3395220F331F220F331F621787
:1034300073070CF49B014FB7F89490E0FC01EE0F7A
:10344000FF1FE80FF91FE151F94F22503109220FF8
:10345000331F328321834FBF0895DC01ED91FC912E
:103460000190F081E02D19942DE5FC012083089551
:103470001F93CF93DF931F92CDB7DEB7162FFC01BA
:1034800060818AE296E049830E947615612F8AE284
:1034900096E00E9419154981642F8AE296E00E9405
:1034A00019158AE296E00F90DF91CF911F910C944D
:1034B000951540EE60E20C94381A1F93CF93DF937A
:1034C000EC01162F68818AE296E00E947615612F42
:1034D0008AE296E00E94191560E08AE296E00E9476
:1034E000821541E068818AE296E00E9470158AE2C6
:1034F00096E00E94C614C82F8AE296E00E949515B5
:103500008C2FDF91CF911F910895FF920F931F93FE
:10351000CF93DF938C01FC0160818AE296E00E94E8
:10352000761568EA70E08AE296E00E942D1A8AE237
:1035300096E00E94951543E0F80160818AE296E0EA
:103540000E9470158AE296E00E94BD140397D4F39E
:103550008AE296E00E94C614082F8AE296E00E9452
:10356000C614F82E8AE296E00E94C61410E020E00D
:1035700030E0282BDF2DF0E0CF2FCE01A0E0B0E02F
:10358000082B192B2A2B3B2BB801C901DF91CF91B6
:103590001F910F91FF9008950E94851A0E944E205E
:1035A00020E030E040E859E30E945A210895CF938B
:1035B000DF93EC0168818AE296E00E9476156BEA5F
:1035C00070E08AE296E00E942D1A8AE296E00E945C
:1035D000951542E068818AE296E00E9470158AE2C1
:1035E00096E00E94BD140297D4F38AE296E00E940E
:1035F000C614C82F8AE296E00E94C614382F2227EC
:103600002C2BC901DF91CF9108950E94D71ABC01DC
:10361000882777FD8095982F0E944E2020E030E08B
:1036200040EF53E40E94B31F20E030E04AE252E44E
:103630000E94341F08950E94B31F2EE434ED42E42B
:103640005EE30E94BD21262F372F482F592F60E0BF
:1036500070E080E89FE30E94331F2DEC3AE24DE2D8
:1036600057E40E945A2108956FE00E945D1A91E08C
:103670008B3B09F090E0892F0895CF93DF93EC0105
:103680008CE58883CE010E94341B811107C08DE533
:103690008883CE01DF91CF910C94341B81E0DF91C0
:1036A000CF910895662319F0613041F402C02CE5F2
:1036B00001C02DE5FC0120830C94341B0C943D1BB0
:1036C000FC0180E090E0A7E0B4E4808F918FA28FAE
:1036D000B38F80E090E0AAEFB3E4848F958FA68F3C
:1036E000B78F80E090E0A4E3B3E480A391A3A2A30A
:1036F000B3A340E050E062E074EC44A355A366A39A
:1037000077A340E050E86EE074EC40A751A762A7B1
:1037100073A740E050E860E474EC44A755A766A79F
:1037200077A783E081AB88E182AB14AA13AA15AA1C
:103730000895EF92FF921F93CF93DF931F92CDB71F
:10374000DEB77C01162FFC0162A98AE296E049836C
:103750000E947615612F8AE296E00E941915498130
:10376000642F8AE296E00E9419158AE296E00E9490
:103770009515F70180AB0F90DF91CF911F91FF90CE
:10378000EF900895EF92FF921F93CF93DF931F92D4
:10379000CDB7DEB77C01162F6EE170E08AE296E0CD
:1037A00049830E948015612F8AE296E00E941915D4
:1037B0004981642F8AE296E00E9419158AE296E018
:1037C0000E949515F70180AB0F90DF91CF911F916B
:1037D000FF90EF900895CF93DF93EC0147E260E212
:1037E0000E94991B89A9823029F448E063E2CE0146
:1037F0000E94991B40E062E0CE01DF91CF910C94D2
:10380000C21B0F931F93CF93DF938C01EB0177FFC4
:1038100031C06D3F8FEF7807C1F02CF46C3FFFEFA4
:103820007F0741F517C06E3F8FEF780749F06F3F74
:10383000EFEF7E07F9F4F80181A9811110C015C0DE
:10384000F80181A981110EC013C0F80181A981116D
:103850000CC005C0F80181A981110AC003C0C7E0EE
:10386000D0E008C0C8E0D0E005C0C5E0D0E002C0AC
:10387000C6E0D0E06EE170E08AE296E00E9480153A
:10388000BE018AE296E00E942D1A8AE296E00E942A
:103890009515F80180AB41E050E06EE170E08AE2FE
:1038A00096E00E9473158AE296E00E94C614C82F23
:1038B0008AE296E00E9495158C2FDF91CF911F919F
:1038C0000F9108956F927F928F929F92AF92BF92C5
:1038D000CF92DF92EF92FF920F931F93CF93DF93DC
:1038E000EC016AA98AE296E00E94761568EA70E027
:1038F0008AE296E00E942D1A8AE296E00E949515CF
:1039000088AB46E06AA98AE296E00E9470150E94A0
:1039100011136B011DAA0EC08BA99CA9892B51F014
:103920000E9411136C197D098BA99CA98617970712
:1039300008F45EC08AE296E00E94BD14069764F324
:103940008AE296E00E94C614782E8AE296E00E94EF
:10395000C614682E8AE296E00E94C614982E8AE267
:1039600096E00E94C614882E8AE296E00E94C61451
:10397000D82E8AE296E00E94C614C82EB62CA12C3E
:10398000A72884E0B594A7948A95E1F7B501882724
:1039900077FD8095982F0E944E20688379838A83D3
:1039A0009B83F82CE12CE92894E0F594E7949A9510
:1039B000E1F7B701882777FD8095982F0E944E2068
:1039C0006C837D838E839F831C2D00E00D2924E072
:1039D000159507952A95E1F7B801882777FD809519
:1039E000982F0E944E20688779878A879B8702C01C
:1039F00081E08DABDF91CF911F910F91FF90EF9000
:103A0000DF90CF90BF90AF909F908F907F906F90FE
:103A10000895AF92BF92CF92DF92EF92FF920F93F1
:103A20001F93CF93DF93EC016EE170E08AE296E0A2
:103A30000E94801563E070E08AE296E00E942D1AF1
:103A40008AE296E00E94951588AB46E050E06EE170
:103A500070E08AE296E00E9473150E9411138B01B8
:103A60001DAA0EC08BA99CA9892B51F00E9411138D
:103A7000601B710B8BA99CA98617970708F465C07A
:103A80008AE296E00E94BD14069764F38AE296E00B
:103A90000E94C614A82E8AE296E00E94C614B82E90
:103AA00089A9811115C08AE296E00E94C614C82E29
:103AB0008AE296E00E94C614D82E8AE296E00E941E
:103AC000C614082F8AE296E00E94C614182F14C06C
:103AD0008AE296E00E94C614082F8AE296E00E94CD
:103AE000C614182F8AE296E00E94C614C82E8AE2F5
:103AF00096E00E94C614D82EFA2CE12CEB28B701D0
:103B0000882777FD8095982F0E944E206C877D87AF
:103B10008E879F877C2D60E06D29882777FD8095B3
:103B2000982F0E944E20688B798B8A8B9B8B702FED
:103B300060E0612B882777FD8095982F0E944E20AA
:103B40006C8B7D8B8E8B9F8B02C081E08DABDF9168
:103B5000CF911F910F91FF90EF90DF90CF90BF908A
:103B6000AF900895CF93DF93EC010E94621CCE01C9
:103B7000DF91CF910C94091DCF93DF93EC0168E1A5
:103B800070E08AE296E00E94801560E270E08AE2CE
:103B900096E00E942D1A8AE296E00E94951588AB65
:103BA00041E050E068E170E08AE296E00E9473151F
:103BB0008AE296E00E94BD14892B31F08AE296E0F9
:103BC0000E94C61480E001C081E0DF91CF9108958A
:103BD000CF93DF93EC0169AB623018F0623089F467
:103BE0000DC0411101C008C0413009F407C00E9456
:103BF000BC1D813009F402C088E101C089E18AABB3
:103C000015C00E94BC1D813029F489E18AAB82E095
:103C100089AB0CC088E18AAB6FE070E0CE010E94F6
:103C2000011C91E08C3309F090E099ABDF91CF91CA
:103C300008951F93CF93DF931F92CDB7DEB7162F52
:103C4000FC0165858AE296E049830E947615612F22
:103C50008AE296E00E9419154981642F8AE296E073
:103C60000E9419158AE296E00F90DF91CF911F9183
:103C70000C9495154FE060E20C94191E1F93CF939E
:103C8000DF93EC01162F6D858AE296E00E9476158F
:103C9000612F8AE296E00E9419158AE296E00E945E
:103CA000951541E06D858AE296E00E9470158AE2E2
:103CB00096E00E94C614C82F8AE296E00E949515ED
:103CC0008C2FDF91CF911F9108956F927F928F92E9
:103CD0009F92AF92BF92CF92DF92EF92FF920F939B
:103CE0001F93CF93DF93EC016D858AE296E00E94EB
:103CF0007615E0912A06F0912B060190F081E02DD7
:103D000068EA8AE296E019958AE296E00E949515A3
:103D100046E06D858AE296E00E9470158AE296E0A0
:103D20000E94BD140697D4F38AE296E00E94C6145E
:103D3000782E8AE296E00E94C614682E8AE296E007
:103D40000E94C614982E8AE296E00E94C614882E1D
:103D50008AE296E00E94C614D82E8AE296E00E947B
:103D6000C614C82EB62CA12CA728B501882777FD2C
:103D70008095982F0E944E20688379838A839B8345
:103D8000F82CE12CE928B701882777FD8095982F3A
:103D90000E944E206C837D838E839F831C2D00E0C8
:103DA0000D29B801882777FD8095982F0E944E2015
:103DB000688779878A879B87DF91CF911F910F91C1
:103DC000FF90EF90DF90CF90BF90AF909F908F903B
:103DD0007F906F900895CF93DF93EC0188E68D87F5
:103DE0006FE0CE010E943E1E833D11F491E01AC0A7
:103DF00089E68D876FE0CE010E943E1E833DB1F3C0
:103E00008AE68D876FE0CE010E943E1E843D71F3ED
:103E10008BE68D876FE0CE010E943E1E91E0843DCF
:103E200009F090E0892FDF91CF910895FC0164871C
:103E3000613019F0623099F408C0411102C028E6DF
:103E400007C0413061F429E603C0411104C02AE6ED
:103E5000FC01258706C0413011F42BE6F9CF0C9404
:103E6000EB1E81E008955058BB27AA270ED0DDC174
:103E7000CED130F0D3D120F031F49F3F11F41EF4B5
:103E80008DC10EF4E095E7FB83C1E92FDFD180F30C
:103E9000BA17620773078407950718F071F49EF547
:103EA000F7C10EF4E0950B2EBA2FA02D0B01B9012E
:103EB00090010C01CA01A0011124FF27591B99F0A0
:103EC000593F50F4503E68F11A16F040A22F232FAC
:103ED000342F4427585FF3CF469537952795A795FC
:103EE000F0405395C9F77EF41F16BA0B620B730BA3
:103EF000840BBAF09150A1F0FF0FBB1F661F771F14
:103F0000881FC2F70EC0BA0F621F731F841F48F4C8
:103F1000879577956795B795F7959E3F08F0B3CF4E
:103F20009395880F08F09927EE0F97958795089538
:103F30009F939F77EEE389379E0720F4E4EEF0E04D
:103F400055D109C0E6D09058A2EA2AED3FE049ECED
:103F50005FE39BDF6AD10F9007FC90580895F4D07F
:103F600008F481E008950CD060C158D140F04FD1E1
:103F700030F021F45F3F19F00BC151118AC10EC11D
:103F800065D198F39923C9F35523B1F3951B550BCC
:103F9000BB27AA2762177307840738F09F5F5F4F1C
:103FA000220F331F441FAA1FA9F333D00E2E3AF05D
:103FB000E0E830D091505040E695001CCAF729D077
:103FC000FE2F27D0660F771F881FBB1F26173707C6
:103FD0004807AB07B0E809F0BB0B802DBF01FF27F6
:103FE00093585F4F2AF09E3F510568F0D1C051C1F0
:103FF0005F3FECF3983EDCF3869577956795B79530
:10400000F7959F5FC9F7880F911D9695879597F94A
:104010000895E1E0660F771F881FBB1F62177307C3
:104020008407BA0720F0621B730B840BBA0BEE1FD8
:1040300088F7E095089504D06894B1112AC10895D5
:104040000DD188F09F5790F0B92F9927B751A0F064
:10405000D1F0660F771F881F991F1AF0BA95C9F71C
:1040600012C0B13081F014D1B1E0089511C1672FB1
:10407000782F8827B85F39F0B93FCCF386957795CC
:104080006795B395D9F73EF49095809570956195B5
:104090007F4F8F4F9F4F0895E89409C097FB3EF4E0
:1040A00090958095709561957F4F8F4F9F4F992385
:1040B000A9F0F92F96E9BB279395F6958795779503
:1040C0006795B795F111F8CFFAF4BB0F11F460FFC3
:1040D0001BC06F5F7F4F8F4F9F4F16C0882311F01B
:1040E00096E911C0772321F09EE8872F762F05C02F
:1040F000662371F096E8862F70E060E02AF09A95CA
:10410000660F771F881FDAF7880F9695879597F9BE
:104110000895DF93CF931F930F938B01EC01E8EF8A
:10412000F0E03FD082D09801AE018B01EC0160E05D
:1041300070E080E89FE397DE70D19801AE010F91A7
:104140001F91CF91DF91C2C0990F0008550FAA0BA4
:10415000E0E8FEEF16161706E807F907C0F012169A
:104160001306E407F50798F0621B730B840B950B9D
:1041700039F40A2661F0232B242B252B21F40895F2
:104180000A2609F4A140A6958FEF811D811D08958F
:1041900097F99F6780E870E060E008959FEF80ECFA
:1041A0000895DF93CF931F930F93FF92EF92DF92C7
:1041B0007B018C01689405C0DA2EEF0187D0FE01E7
:1041C000E894A5912591359145915591AEF3EF0174
:1041D0005CDEFE019701A801DA9479F7DF90EF9099
:1041E000FF900F911F91CF91DF9108959F938F932F
:1041F0007F936F93FF93EF939B01AC015BD0EF91A3
:10420000FF91CFDF2F913F914F915F9153C00024D9
:104210000A941616170618060906089500240A942B
:1042200012161306140605060895092E0394000CB1
:1042300011F4882352F0BB0F40F4BF2B11F460FF40
:1042400004C06F5F7F4F8F4F9F4F089557FD905869
:10425000440F551F59F05F3F71F04795880F97FB4A
:10426000991F61F09F3F79F0879508951216130604
:104270001406551FF2CF4695F1DF08C01616170633
:104280001806991FF1CF8695710561050894089568
:10429000E894BB2766277727CB0197F9089554DF69
:1042A00008F48FEF08959B01AC0160E070E080E8B6
:1042B0009FE359CE0BD0B9CFAADF28F0AFDF18F0BB
:1042C000952309F065CF6ACF1124E3CFBFDFA0F3B8
:1042D000959FD1F3950F50E0551F629FF001729F9B
:1042E000BB27F00DB11D639FAA27F00DB11DAA1FBA
:1042F000649F6627B00DA11D661F829F2227B00D07
:10430000A11D621F739FB00DA11D621F839FA00D91
:10431000611D221F749F3327A00D611D231F849FE1
:10432000600D211D822F762F6A2F11249F57504038
:104330008AF0E1F088234AF0EE0FFF1FBB1F661FD3
:10434000771F881F91505040A9F79E3F510570F08C
:104350001FCF9FCF5F3FECF3983EDCF386957795B8
:104360006795B795F795E7959F5FC1F7FE2B880F87
:10437000911D9695879597F90895FA01EE0FFF1F05
:1043800030962105310599F16115710561F4803888
:10439000BFE39B0749F168949038810561F080384C
:1043A000BFEF9B0741F0992342F5FF3FE10531053F
:1043B000210511F1E8940894E795D901AA2329F47D
:1043C000AB2FBE2FF85FD0F310C0FF5F70F4A6953F
:1043D000E0F7F73950F019F0FF3A38F49F779F93E0
:1043E0000CD00F9007FC905808953EF0D7CE60E0B7
:1043F00070E080E89FE308954FE79F775F934F93C6
:104400003F932F93C9D02F913F914F915F9152DFEE
:1044100047C011F40EF4C2CE6FC020DFD0F3992351
:10442000D9F3CEF39F57550B87FF74D00024A0E635
:1044300040EA900180585695979528F4805C660F65
:10444000771F881F20F026173707480730F4621BB4
:10445000730B840B202931294A2BA69517940794B6
:10446000202531254A2758F7660F771F881F20F02F
:1044700026173707480730F4620B730B840B200DA7
:10448000311D411DA09581F7B901842F9158880FE6
:1044900096958795089519F40EF07ACEF9CE7ECED2
:1044A000DDDEC8F39638C0F707F80F92E8942BE3E7
:1044B0003AEA48EB5FE70CDF0F920F920F924DB78D
:1044C0005EB70F92A9D0E0E2F1E06BDE4F915F9111
:1044D000EF91FF91E595EE1FFF1F49F0FE57E06851
:1044E0004427EE0F441FFA95E1F74195550B1BD079
:1044F0000F9007FED8CE08959F3F31F0915020F4E1
:10450000879577956795B795880F911D96958795AF
:1045100097F9089591505040660F771F881FD2F782
:10452000089536CEE9CF9ADEE8F39923D9F3940FB4
:10453000511DBBF39150504094F059F0882332F054
:10454000660F771F881F91505040C1F79E3F51055D
:1045500044F7880F911D9695879597F908955F3FC9
:10456000ACF0983E9CF0BB27869577956795B795FC
:1045700008F4B1609395C1F7BB0F58F711F460FFD1
:10458000E8CF6F5F7F4F8F4F9F4FE3CF82CE0EF00C
:10459000B3CF04CE6894FCCD61DEC8F39923D1F388
:1045A000C6F3DF93CF931F930F93FF92C92FDD279D
:1045B00088232AF02197660F771F881FDAF720E0FB
:1045C00030E040E85FEB9FE3883920F0803E30F038
:1045D00021968F7749DCE8E4F1E003C045DCE5E7AC
:1045E000F1E0DFDD8B01BE01EC01FB2E6F5771099D
:1045F0007595771F880B990B51DD28E132E741E370
:104600005FE364DEAF2D9801AE01FF900F911F9123
:10461000CF91DF913ADC09CEFA01DC01AA0FBB1F72
:104620009B01AC01BF5728F4222733274427507839
:104630001FC0B75188F4AB2F0024469537952795B6
:10464000011CA395D2F3002069F0220F331F441FF1
:10465000B395DAF30DD007CC61307105A0E88A0775
:10466000B94630F49B01AC016627772788279078FC
:10467000309621F020833183428353830895991B20
:1046800079E004C0991F961708F0961B881F7A9549
:10469000C9F780950895A1E21A2EAA1BBB1BFD0144
:1046A0000DC0AA1FBB1FEE1FFF1FA217B307E40711
:1046B000F50720F0A21BB30BE40BF50B661F771F69
:1046C000881F991F1A9469F7609570958095909549
:1046D0009B01AC01BD01CF010895052E97FB16F497
:1046E000009407D057FD0DD00E944B2307FC09D042
:1046F0007EF490958095709561957F4F8F4F9F4F79
:10470000089550954095309521953F4F4F4F5F4FFD
:0E47100008950790F691E02D1994F894FFCFCC
:10471E000AD72BBF48A663BE48A663BE0AD72BBFD7
:10472E00B136CE3E00C9143F00C914BFB136CEBE5D
:10473E00000000001915EB14BD14C614DA14EA14A7
:00000001FF
